{
	"contracts/Examples.sol": {
		"Counter": {
			"abi": [
				{
					"inputs": [],
					"stateMutability": "nonpayable",
					"type": "constructor"
				},
				{
					"inputs": [],
					"name": "a",
					"outputs": [
						{
							"internalType": "bytes4",
							"name": "",
							"type": "bytes4"
						}
					],
					"stateMutability": "view",
					"type": "function"
				},
				{
					"inputs": [
						{
							"internalType": "uint256",
							"name": "",
							"type": "uint256"
						}
					],
					"name": "arr",
					"outputs": [
						{
							"internalType": "uint256",
							"name": "",
							"type": "uint256"
						}
					],
					"stateMutability": "view",
					"type": "function"
				},
				{
					"inputs": [],
					"name": "count",
					"outputs": [
						{
							"internalType": "uint256",
							"name": "",
							"type": "uint256"
						}
					],
					"stateMutability": "view",
					"type": "function"
				},
				{
					"inputs": [],
					"name": "dec",
					"outputs": [],
					"stateMutability": "nonpayable",
					"type": "function"
				},
				{
					"inputs": [
						{
							"internalType": "uint256",
							"name": "",
							"type": "uint256"
						}
					],
					"name": "gasArr",
					"outputs": [
						{
							"internalType": "uint256",
							"name": "",
							"type": "uint256"
						}
					],
					"stateMutability": "view",
					"type": "function"
				},
				{
					"inputs": [],
					"name": "getByte",
					"outputs": [
						{
							"internalType": "bytes1",
							"name": "",
							"type": "bytes1"
						}
					],
					"stateMutability": "view",
					"type": "function"
				},
				{
					"inputs": [],
					"name": "getGas",
					"outputs": [
						{
							"internalType": "uint256[]",
							"name": "gas",
							"type": "uint256[]"
						}
					],
					"stateMutability": "view",
					"type": "function"
				},
				{
					"inputs": [],
					"name": "getGasPrice",
					"outputs": [
						{
							"internalType": "uint256",
							"name": "",
							"type": "uint256"
						}
					],
					"stateMutability": "view",
					"type": "function"
				},
				{
					"inputs": [],
					"name": "getLargestValue",
					"outputs": [
						{
							"internalType": "enum Counter.Status",
							"name": "",
							"type": "uint8"
						}
					],
					"stateMutability": "pure",
					"type": "function"
				},
				{
					"inputs": [],
					"name": "getSmallestValue",
					"outputs": [
						{
							"internalType": "enum Counter.Status",
							"name": "",
							"type": "uint8"
						}
					],
					"stateMutability": "pure",
					"type": "function"
				},
				{
					"inputs": [],
					"name": "getStudent",
					"outputs": [
						{
							"components": [
								{
									"internalType": "uint256",
									"name": "age",
									"type": "uint256"
								},
								{
									"internalType": "string",
									"name": "name",
									"type": "string"
								},
								{
									"internalType": "string[]",
									"name": "favorites",
									"type": "string[]"
								}
							],
							"internalType": "struct Counter.Instructor",
							"name": "",
							"type": "tuple"
						}
					],
					"stateMutability": "view",
					"type": "function"
				},
				{
					"inputs": [],
					"name": "getWholeArr",
					"outputs": [
						{
							"internalType": "uint256[]",
							"name": "",
							"type": "uint256[]"
						}
					],
					"stateMutability": "view",
					"type": "function"
				},
				{
					"inputs": [],
					"name": "gets",
					"outputs": [
						{
							"internalType": "enum Counter.Status",
							"name": "",
							"type": "uint8"
						}
					],
					"stateMutability": "view",
					"type": "function"
				},
				{
					"inputs": [],
					"name": "greet",
					"outputs": [
						{
							"internalType": "string",
							"name": "",
							"type": "string"
						}
					],
					"stateMutability": "view",
					"type": "function"
				},
				{
					"inputs": [],
					"name": "inc",
					"outputs": [],
					"stateMutability": "nonpayable",
					"type": "function"
				},
				{
					"inputs": [],
					"name": "maxInt",
					"outputs": [
						{
							"internalType": "int256",
							"name": "",
							"type": "int256"
						}
					],
					"stateMutability": "view",
					"type": "function"
				},
				{
					"inputs": [],
					"name": "minInt",
					"outputs": [
						{
							"internalType": "int256",
							"name": "",
							"type": "int256"
						}
					],
					"stateMutability": "view",
					"type": "function"
				},
				{
					"inputs": [
						{
							"internalType": "uint256",
							"name": "_index",
							"type": "uint256"
						}
					],
					"name": "remove",
					"outputs": [],
					"stateMutability": "nonpayable",
					"type": "function"
				},
				{
					"inputs": [],
					"name": "setGasArr",
					"outputs": [],
					"stateMutability": "nonpayable",
					"type": "function"
				},
				{
					"inputs": [],
					"name": "status",
					"outputs": [
						{
							"internalType": "enum Counter.Status",
							"name": "",
							"type": "uint8"
						}
					],
					"stateMutability": "view",
					"type": "function"
				},
				{
					"inputs": [],
					"name": "student",
					"outputs": [
						{
							"internalType": "uint256",
							"name": "age",
							"type": "uint256"
						},
						{
							"internalType": "string",
							"name": "name",
							"type": "string"
						}
					],
					"stateMutability": "view",
					"type": "function"
				},
				{
					"inputs": [],
					"name": "test",
					"outputs": [],
					"stateMutability": "nonpayable",
					"type": "function"
				}
			],
			"devdoc": {
				"kind": "dev",
				"methods": {},
				"version": 1
			},
			"evm": {
				"assembly": "    /* \"contracts/Examples.sol\":61:4636  contract Counter {... */\n  mstore(0x40, 0x80)\n    /* \"contracts/Examples.sol\":85:121  string public  greet = \"Hello world\" */\n  mload(0x40)\n  dup1\n  0x40\n  add\n  0x40\n  mstore\n  dup1\n  0x0b\n  dup2\n  mstore\n  0x20\n  add\n  0x48656c6c6f20776f726c64000000000000000000000000000000000000000000\n  dup2\n  mstore\n  pop\n  0x00\n  swap1\n  dup1\n  mload\n  swap1\n  0x20\n  add\n  swap1\n  tag_1\n  swap3\n  swap2\n  swap1\n  tag_2\n  jump\t// in\ntag_1:\n  pop\n    /* \"contracts/Examples.sol\":174:190  type(int256).min */\n  0x8000000000000000000000000000000000000000000000000000000000000000\n    /* \"contracts/Examples.sol\":150:190  int256 public  minInt = type(int256).min */\n  0x02\n  sstore\n    /* \"contracts/Examples.sol\":221:237  type(int256).max */\n  0x7fffffffffffffffffffffffffffffffffffffffffffffffffffffffffffffff\n    /* \"contracts/Examples.sol\":197:237  int256 public  maxInt = type(int256).max */\n  0x03\n  sstore\n    /* \"contracts/Examples.sol\":272:320  constructor () {... */\n  callvalue\n  dup1\n  iszero\n  tag_3\n  jumpi\n  0x00\n  dup1\n  revert\ntag_3:\n  pop\n    /* \"contracts/Examples.sol\":302:312  0x12345678 */\n  0x12345678\n    /* \"contracts/Examples.sol\":298:312  a = 0x12345678 */\n  0xe0\n  shl\n    /* \"contracts/Examples.sol\":298:299  a */\n  0x04\n  0x00\n    /* \"contracts/Examples.sol\":298:312  a = 0x12345678 */\n  0x0100\n  exp\n  dup2\n  sload\n  dup2\n  0xffffffff\n  mul\n  not\n  and\n  swap1\n  dup4\n  0xe0\n  shr\n  mul\n  or\n  swap1\n  sstore\n  pop\n    /* \"contracts/Examples.sol\":61:4636  contract Counter {... */\n  jump(tag_6)\ntag_2:\n  dup3\n  dup1\n  sload\n  tag_7\n  swap1\n  tag_8\n  jump\t// in\ntag_7:\n  swap1\n  0x00\n  mstore\n  keccak256(0x00, 0x20)\n  swap1\n  0x1f\n  add\n  0x20\n  swap1\n  div\n  dup2\n  add\n  swap3\n  dup3\n  tag_10\n  jumpi\n  0x00\n  dup6\n  sstore\n  jump(tag_9)\ntag_10:\n  dup3\n  0x1f\n  lt\n  tag_11\n  jumpi\n  dup1\n  mload\n  not(0xff)\n  and\n  dup4\n  dup1\n  add\n  or\n  dup6\n  sstore\n  jump(tag_9)\ntag_11:\n  dup3\n  dup1\n  add\n  0x01\n  add\n  dup6\n  sstore\n  dup3\n  iszero\n  tag_9\n  jumpi\n  swap2\n  dup3\n  add\ntag_12:\n  dup3\n  dup2\n  gt\n  iszero\n  tag_13\n  jumpi\n  dup3\n  mload\n  dup3\n  sstore\n  swap2\n  0x20\n  add\n  swap2\n  swap1\n  0x01\n  add\n  swap1\n  jump(tag_12)\ntag_13:\ntag_9:\n  pop\n  swap1\n  pop\n  tag_14\n  swap2\n  swap1\n  tag_15\n  jump\t// in\ntag_14:\n  pop\n  swap1\n  jump\t// out\ntag_15:\ntag_16:\n  dup1\n  dup3\n  gt\n  iszero\n  tag_17\n  jumpi\n  0x00\n  dup2\n  0x00\n  swap1\n  sstore\n  pop\n  0x01\n  add\n  jump(tag_16)\ntag_17:\n  pop\n  swap1\n  jump\t// out\n    /* \"#utility.yul\":7:187   */\ntag_18:\n    /* \"#utility.yul\":55:132   */\n  0x4e487b7100000000000000000000000000000000000000000000000000000000\n    /* \"#utility.yul\":52:53   */\n  0x00\n    /* \"#utility.yul\":45:133   */\n  mstore\n    /* \"#utility.yul\":152:156   */\n  0x22\n    /* \"#utility.yul\":149:150   */\n  0x04\n    /* \"#utility.yul\":142:157   */\n  mstore\n    /* \"#utility.yul\":176:180   */\n  0x24\n    /* \"#utility.yul\":173:174   */\n  0x00\n    /* \"#utility.yul\":166:181   */\n  revert\n    /* \"#utility.yul\":193:513   */\ntag_8:\n    /* \"#utility.yul\":237:243   */\n  0x00\n    /* \"#utility.yul\":274:275   */\n  0x02\n    /* \"#utility.yul\":268:272   */\n  dup3\n    /* \"#utility.yul\":264:276   */\n  div\n    /* \"#utility.yul\":254:276   */\n  swap1\n  pop\n    /* \"#utility.yul\":321:322   */\n  0x01\n    /* \"#utility.yul\":315:319   */\n  dup3\n    /* \"#utility.yul\":311:323   */\n  and\n    /* \"#utility.yul\":342:360   */\n  dup1\n    /* \"#utility.yul\":332:413   */\n  tag_22\n  jumpi\n    /* \"#utility.yul\":398:402   */\n  0x7f\n    /* \"#utility.yul\":390:396   */\n  dup3\n    /* \"#utility.yul\":386:403   */\n  and\n    /* \"#utility.yul\":376:403   */\n  swap2\n  pop\n    /* \"#utility.yul\":332:413   */\ntag_22:\n    /* \"#utility.yul\":460:462   */\n  0x20\n    /* \"#utility.yul\":452:458   */\n  dup3\n    /* \"#utility.yul\":449:463   */\n  lt\n    /* \"#utility.yul\":429:447   */\n  dup2\n    /* \"#utility.yul\":426:464   */\n  eq\n    /* \"#utility.yul\":423:507   */\n  iszero\n  tag_23\n  jumpi\n    /* \"#utility.yul\":479:497   */\n  tag_24\n  tag_18\n  jump\t// in\ntag_24:\n    /* \"#utility.yul\":423:507   */\ntag_23:\n    /* \"#utility.yul\":244:513   */\n  pop\n    /* \"#utility.yul\":193:513   */\n  swap2\n  swap1\n  pop\n  jump\t// out\n    /* \"contracts/Examples.sol\":61:4636  contract Counter {... */\ntag_6:\n  dataSize(sub_0)\n  dup1\n  dataOffset(sub_0)\n  0x00\n  codecopy\n  0x00\n  return\nstop\n\nsub_0: assembly {\n        /* \"contracts/Examples.sol\":61:4636  contract Counter {... */\n      mstore(0x40, 0x80)\n      callvalue\n      dup1\n      iszero\n      tag_1\n      jumpi\n      0x00\n      dup1\n      revert\n    tag_1:\n      pop\n      jumpi(tag_2, lt(calldatasize, 0x04))\n      shr(0xe0, calldataload(0x00))\n      dup1\n      0x71e5ee5f\n      gt\n      tag_25\n      jumpi\n      dup1\n      0xb3bcfa82\n      gt\n      tag_26\n      jumpi\n      dup1\n      0xb3bcfa82\n      eq\n      tag_19\n      jumpi\n      dup1\n      0xb439548d\n      eq\n      tag_20\n      jumpi\n      dup1\n      0xc42f3bab\n      eq\n      tag_21\n      jumpi\n      dup1\n      0xcfae3217\n      eq\n      tag_22\n      jumpi\n      dup1\n      0xebea52e6\n      eq\n      tag_23\n      jumpi\n      dup1\n      0xf8a8fd6d\n      eq\n      tag_24\n      jumpi\n      jump(tag_2)\n    tag_26:\n      dup1\n      0x71e5ee5f\n      eq\n      tag_14\n      jumpi\n      dup1\n      0x7a4c2571\n      eq\n      tag_15\n      jumpi\n      dup1\n      0x7e4e14cc\n      eq\n      tag_16\n      jumpi\n      dup1\n      0x85f73fe9\n      eq\n      tag_17\n      jumpi\n      dup1\n      0xa71913cc\n      eq\n      tag_18\n      jumpi\n      jump(tag_2)\n    tag_25:\n      dup1\n      0x455259cb\n      gt\n      tag_27\n      jumpi\n      dup1\n      0x455259cb\n      eq\n      tag_8\n      jumpi\n      dup1\n      0x4cc82215\n      eq\n      tag_9\n      jumpi\n      dup1\n      0x52eefbf0\n      eq\n      tag_10\n      jumpi\n      dup1\n      0x60585358\n      eq\n      tag_11\n      jumpi\n      dup1\n      0x66a83a4f\n      eq\n      tag_12\n      jumpi\n      dup1\n      0x699450e8\n      eq\n      tag_13\n      jumpi\n      jump(tag_2)\n    tag_27:\n      dup1\n      0x06661abd\n      eq\n      tag_3\n      jumpi\n      dup1\n      0x0dbe671f\n      eq\n      tag_4\n      jumpi\n      dup1\n      0x200d2ed2\n      eq\n      tag_5\n      jumpi\n      dup1\n      0x2e63c301\n      eq\n      tag_6\n      jumpi\n      dup1\n      0x371303c0\n      eq\n      tag_7\n      jumpi\n    tag_2:\n      0x00\n      dup1\n      revert\n        /* \"contracts/Examples.sol\":415:491  function count() public  view returns(uint256) {... */\n    tag_3:\n      tag_28\n      tag_29\n      jump\t// in\n    tag_28:\n      mload(0x40)\n      tag_30\n      swap2\n      swap1\n      tag_31\n      jump\t// in\n    tag_30:\n      mload(0x40)\n      dup1\n      swap2\n      sub\n      swap1\n      return\n        /* \"contracts/Examples.sol\":246:262  bytes4 public  a */\n    tag_4:\n      tag_32\n      tag_33\n      jump\t// in\n    tag_32:\n      mload(0x40)\n      tag_34\n      swap2\n      swap1\n      tag_35\n      jump\t// in\n    tag_34:\n      mload(0x40)\n      dup1\n      swap2\n      sub\n      swap1\n      return\n        /* \"contracts/Examples.sol\":3779:3800  Status public  status */\n    tag_5:\n      tag_36\n      tag_37\n      jump\t// in\n    tag_36:\n      mload(0x40)\n      tag_38\n      swap2\n      swap1\n      tag_39\n      jump\t// in\n    tag_38:\n      mload(0x40)\n      dup1\n      swap2\n      sub\n      swap1\n      return\n        /* \"contracts/Examples.sol\":3897:3995  function getLargestValue() public pure returns (Status) {... */\n    tag_6:\n      tag_40\n      tag_41\n      jump\t// in\n    tag_40:\n      mload(0x40)\n      tag_42\n      swap2\n      swap1\n      tag_39\n      jump\t// in\n    tag_42:\n      mload(0x40)\n      dup1\n      swap2\n      sub\n      swap1\n      return\n        /* \"contracts/Examples.sol\":501:550  function inc() public  {... */\n    tag_7:\n      tag_43\n      tag_44\n      jump\t// in\n    tag_43:\n      stop\n        /* \"contracts/Examples.sol\":4384:4466  function getGasPrice() public view returns(uint256) {... */\n    tag_8:\n      tag_45\n      tag_46\n      jump\t// in\n    tag_45:\n      mload(0x40)\n      tag_47\n      swap2\n      swap1\n      tag_31\n      jump\t// in\n    tag_47:\n      mload(0x40)\n      dup1\n      swap2\n      sub\n      swap1\n      return\n        /* \"contracts/Examples.sol\":2886:3122  function remove(uint256 _index) public {... */\n    tag_9:\n      tag_48\n      0x04\n      dup1\n      calldatasize\n      sub\n      dup2\n      add\n      swap1\n      tag_49\n      swap2\n      swap1\n      tag_50\n      jump\t// in\n    tag_49:\n      tag_51\n      jump\t// in\n    tag_48:\n      stop\n        /* \"contracts/Examples.sol\":3507:3635  function getWholeArr() public  view returns(uint256[] memory) {... */\n    tag_10:\n      tag_52\n      tag_53\n      jump\t// in\n    tag_52:\n      mload(0x40)\n      tag_54\n      swap2\n      swap1\n      tag_55\n      jump\t// in\n    tag_54:\n      mload(0x40)\n      dup1\n      swap2\n      sub\n      swap1\n      return\n        /* \"contracts/Examples.sol\":328:407  function getByte() public  view  returns(bytes1) {... */\n    tag_11:\n      tag_56\n      tag_57\n      jump\t// in\n    tag_56:\n      mload(0x40)\n      tag_58\n      swap2\n      swap1\n      tag_59\n      jump\t// in\n    tag_58:\n      mload(0x40)\n      dup1\n      swap2\n      sub\n      swap1\n      return\n        /* \"contracts/Examples.sol\":4539:4624  function getGas() public  view returns(uint256[] memory gas) {... */\n    tag_12:\n      tag_60\n      tag_61\n      jump\t// in\n    tag_60:\n      mload(0x40)\n      tag_62\n      swap2\n      swap1\n      tag_55\n      jump\t// in\n    tag_62:\n      mload(0x40)\n      dup1\n      swap2\n      sub\n      swap1\n      return\n        /* \"contracts/Examples.sol\":4194:4220  Instructor public  student */\n    tag_13:\n      tag_63\n      tag_64\n      jump\t// in\n    tag_63:\n      mload(0x40)\n      tag_65\n      swap3\n      swap2\n      swap1\n      tag_66\n      jump\t// in\n    tag_65:\n      mload(0x40)\n      dup1\n      swap2\n      sub\n      swap1\n      return\n        /* \"contracts/Examples.sol\":2678:2698  uint256[] public arr */\n    tag_14:\n      tag_67\n      0x04\n      dup1\n      calldatasize\n      sub\n      dup2\n      add\n      swap1\n      tag_68\n      swap2\n      swap1\n      tag_50\n      jump\t// in\n    tag_68:\n      tag_69\n      jump\t// in\n    tag_67:\n      mload(0x40)\n      tag_70\n      swap2\n      swap1\n      tag_31\n      jump\t// in\n    tag_70:\n      mload(0x40)\n      dup1\n      swap2\n      sub\n      swap1\n      return\n        /* \"contracts/Examples.sol\":197:237  int256 public  maxInt = type(int256).max */\n    tag_15:\n      tag_71\n      tag_72\n      jump\t// in\n    tag_71:\n      mload(0x40)\n      tag_73\n      swap2\n      swap1\n      tag_74\n      jump\t// in\n    tag_73:\n      mload(0x40)\n      dup1\n      swap2\n      sub\n      swap1\n      return\n        /* \"contracts/Examples.sol\":150:190  int256 public  minInt = type(int256).min */\n    tag_16:\n      tag_75\n      tag_76\n      jump\t// in\n    tag_75:\n      mload(0x40)\n      tag_77\n      swap2\n      swap1\n      tag_74\n      jump\t// in\n    tag_77:\n      mload(0x40)\n      dup1\n      swap2\n      sub\n      swap1\n      return\n        /* \"contracts/Examples.sol\":4002:4101  function getSmallestValue() public pure returns (Status) {... */\n    tag_17:\n      tag_78\n      tag_79\n      jump\t// in\n    tag_78:\n      mload(0x40)\n      tag_80\n      swap2\n      swap1\n      tag_39\n      jump\t// in\n    tag_80:\n      mload(0x40)\n      dup1\n      swap2\n      sub\n      swap1\n      return\n        /* \"contracts/Examples.sol\":4470:4535  function setGasArr() public {... */\n    tag_18:\n      tag_81\n      tag_82\n      jump\t// in\n    tag_81:\n      stop\n        /* \"contracts/Examples.sol\":558:608  function dec() public  {... */\n    tag_19:\n      tag_83\n      tag_84\n      jump\t// in\n    tag_83:\n      stop\n        /* \"contracts/Examples.sol\":4227:4308  function getStudent() public  view  returns(Instructor memory) {... */\n    tag_20:\n      tag_85\n      tag_86\n      jump\t// in\n    tag_85:\n      mload(0x40)\n      tag_87\n      swap2\n      swap1\n      tag_88\n      jump\t// in\n    tag_87:\n      mload(0x40)\n      dup1\n      swap2\n      sub\n      swap1\n      return\n        /* \"contracts/Examples.sol\":4312:4336  uint256[] public  gasArr */\n    tag_21:\n      tag_89\n      0x04\n      dup1\n      calldatasize\n      sub\n      dup2\n      add\n      swap1\n      tag_90\n      swap2\n      swap1\n      tag_50\n      jump\t// in\n    tag_90:\n      tag_91\n      jump\t// in\n    tag_89:\n      mload(0x40)\n      tag_92\n      swap2\n      swap1\n      tag_31\n      jump\t// in\n    tag_92:\n      mload(0x40)\n      dup1\n      swap2\n      sub\n      swap1\n      return\n        /* \"contracts/Examples.sol\":85:121  string public  greet = \"Hello world\" */\n    tag_22:\n      tag_93\n      tag_94\n      jump\t// in\n    tag_93:\n      mload(0x40)\n      tag_95\n      swap2\n      swap1\n      tag_96\n      jump\t// in\n    tag_95:\n      mload(0x40)\n      dup1\n      swap2\n      sub\n      swap1\n      return\n        /* \"contracts/Examples.sol\":3809:3890  function gets() public  view returns(Status) {... */\n    tag_23:\n      tag_97\n      tag_98\n      jump\t// in\n    tag_97:\n      mload(0x40)\n      tag_99\n      swap2\n      swap1\n      tag_39\n      jump\t// in\n    tag_99:\n      mload(0x40)\n      dup1\n      swap2\n      sub\n      swap1\n      return\n        /* \"contracts/Examples.sol\":3130:3497  function test() external {... */\n    tag_24:\n      tag_100\n      tag_101\n      jump\t// in\n    tag_100:\n      stop\n        /* \"contracts/Examples.sol\":415:491  function count() public  view returns(uint256) {... */\n    tag_29:\n        /* \"contracts/Examples.sol\":453:460  uint256 */\n      0x00\n        /* \"contracts/Examples.sol\":481:483  ct */\n      sload(0x01)\n        /* \"contracts/Examples.sol\":473:483  return  ct */\n      swap1\n      pop\n        /* \"contracts/Examples.sol\":415:491  function count() public  view returns(uint256) {... */\n      swap1\n      jump\t// out\n        /* \"contracts/Examples.sol\":246:262  bytes4 public  a */\n    tag_33:\n      0x04\n      0x00\n      swap1\n      sload\n      swap1\n      0x0100\n      exp\n      swap1\n      div\n      0xe0\n      shl\n      dup2\n      jump\t// out\n        /* \"contracts/Examples.sol\":3779:3800  Status public  status */\n    tag_37:\n      0x06\n      0x00\n      swap1\n      sload\n      swap1\n      0x0100\n      exp\n      swap1\n      div\n      0xff\n      and\n      dup2\n      jump\t// out\n        /* \"contracts/Examples.sol\":3897:3995  function getLargestValue() public pure returns (Status) {... */\n    tag_41:\n        /* \"contracts/Examples.sol\":3945:3951  Status */\n      0x00\n        /* \"contracts/Examples.sol\":3971:3987  type(Status).max */\n      0x04\n        /* \"contracts/Examples.sol\":3964:3987  return type(Status).max */\n      swap1\n      pop\n        /* \"contracts/Examples.sol\":3897:3995  function getLargestValue() public pure returns (Status) {... */\n      swap1\n      jump\t// out\n        /* \"contracts/Examples.sol\":501:550  function inc() public  {... */\n    tag_44:\n        /* \"contracts/Examples.sol\":541:542  1 */\n      0x01\n        /* \"contracts/Examples.sol\":535:537  ct */\n      dup1\n      0x00\n        /* \"contracts/Examples.sol\":535:542  ct += 1 */\n      dup3\n      dup3\n      sload\n      tag_105\n      swap2\n      swap1\n      tag_106\n      jump\t// in\n    tag_105:\n      swap3\n      pop\n      pop\n      dup2\n      swap1\n      sstore\n      pop\n        /* \"contracts/Examples.sol\":501:550  function inc() public  {... */\n      jump\t// out\n        /* \"contracts/Examples.sol\":4384:4466  function getGasPrice() public view returns(uint256) {... */\n    tag_46:\n        /* \"contracts/Examples.sol\":4427:4434  uint256 */\n      0x00\n        /* \"contracts/Examples.sol\":4451:4462  tx.gasprice */\n      gasprice\n        /* \"contracts/Examples.sol\":4443:4462  return  tx.gasprice */\n      swap1\n      pop\n        /* \"contracts/Examples.sol\":4384:4466  function getGasPrice() public view returns(uint256) {... */\n      swap1\n      jump\t// out\n        /* \"contracts/Examples.sol\":2886:3122  function remove(uint256 _index) public {... */\n    tag_51:\n        /* \"contracts/Examples.sol\":2953:2956  arr */\n      0x05\n        /* \"contracts/Examples.sol\":2953:2963  arr.length */\n      dup1\n      sload\n      swap1\n      pop\n        /* \"contracts/Examples.sol\":2944:2950  _index */\n      dup2\n        /* \"contracts/Examples.sol\":2944:2963  _index < arr.length */\n      lt\n        /* \"contracts/Examples.sol\":2936:2986  require(_index < arr.length, \"index out of bound\") */\n      tag_109\n      jumpi\n      mload(0x40)\n      0x08c379a000000000000000000000000000000000000000000000000000000000\n      dup2\n      mstore\n      0x04\n      add\n      tag_110\n      swap1\n      tag_111\n      jump\t// in\n    tag_110:\n      mload(0x40)\n      dup1\n      swap2\n      sub\n      swap1\n      revert\n    tag_109:\n        /* \"contracts/Examples.sol\":3004:3013  uint256 i */\n      0x00\n        /* \"contracts/Examples.sol\":3016:3022  _index */\n      dup2\n        /* \"contracts/Examples.sol\":3004:3022  uint256 i = _index */\n      swap1\n      pop\n        /* \"contracts/Examples.sol\":2999:3095  for (uint256 i = _index; i < arr.length - 1; i++) {... */\n    tag_112:\n        /* \"contracts/Examples.sol\":3041:3042  1 */\n      0x01\n        /* \"contracts/Examples.sol\":3028:3031  arr */\n      0x05\n        /* \"contracts/Examples.sol\":3028:3038  arr.length */\n      dup1\n      sload\n      swap1\n      pop\n        /* \"contracts/Examples.sol\":3028:3042  arr.length - 1 */\n      tag_115\n      swap2\n      swap1\n      tag_116\n      jump\t// in\n    tag_115:\n        /* \"contracts/Examples.sol\":3024:3025  i */\n      dup2\n        /* \"contracts/Examples.sol\":3024:3042  i < arr.length - 1 */\n      lt\n        /* \"contracts/Examples.sol\":2999:3095  for (uint256 i = _index; i < arr.length - 1; i++) {... */\n      iszero\n      tag_113\n      jumpi\n        /* \"contracts/Examples.sol\":3073:3076  arr */\n      0x05\n        /* \"contracts/Examples.sol\":3081:3082  1 */\n      0x01\n        /* \"contracts/Examples.sol\":3077:3078  i */\n      dup3\n        /* \"contracts/Examples.sol\":3077:3082  i + 1 */\n      tag_117\n      swap2\n      swap1\n      tag_106\n      jump\t// in\n    tag_117:\n        /* \"contracts/Examples.sol\":3073:3083  arr[i + 1] */\n      dup2\n      sload\n      dup2\n      lt\n      tag_118\n      jumpi\n      tag_119\n      tag_120\n      jump\t// in\n    tag_119:\n    tag_118:\n      swap1\n      0x00\n      mstore\n      keccak256(0x00, 0x20)\n      add\n      sload\n        /* \"contracts/Examples.sol\":3064:3067  arr */\n      0x05\n        /* \"contracts/Examples.sol\":3068:3069  i */\n      dup3\n        /* \"contracts/Examples.sol\":3064:3070  arr[i] */\n      dup2\n      sload\n      dup2\n      lt\n      tag_122\n      jumpi\n      tag_123\n      tag_120\n      jump\t// in\n    tag_123:\n    tag_122:\n      swap1\n      0x00\n      mstore\n      keccak256(0x00, 0x20)\n      add\n        /* \"contracts/Examples.sol\":3064:3083  arr[i] = arr[i + 1] */\n      dup2\n      swap1\n      sstore\n      pop\n        /* \"contracts/Examples.sol\":3044:3047  i++ */\n      dup1\n      dup1\n      tag_125\n      swap1\n      tag_126\n      jump\t// in\n    tag_125:\n      swap2\n      pop\n      pop\n        /* \"contracts/Examples.sol\":2999:3095  for (uint256 i = _index; i < arr.length - 1; i++) {... */\n      jump(tag_112)\n    tag_113:\n      pop\n        /* \"contracts/Examples.sol\":3105:3108  arr */\n      0x05\n        /* \"contracts/Examples.sol\":3105:3114  arr.pop() */\n      dup1\n      sload\n      dup1\n      tag_127\n      jumpi\n      tag_128\n      tag_129\n      jump\t// in\n    tag_128:\n    tag_127:\n      0x01\n      swap1\n      sub\n      dup2\n      dup2\n      swap1\n      0x00\n      mstore\n      keccak256(0x00, 0x20)\n      add\n      0x00\n      swap1\n      sstore\n      swap1\n      sstore\n        /* \"contracts/Examples.sol\":2886:3122  function remove(uint256 _index) public {... */\n      pop\n      jump\t// out\n        /* \"contracts/Examples.sol\":3507:3635  function getWholeArr() public  view returns(uint256[] memory) {... */\n    tag_53:\n        /* \"contracts/Examples.sol\":3551:3567  uint256[] memory */\n      0x60\n        /* \"contracts/Examples.sol\":3601:3602  0 */\n      0x00\n        /* \"contracts/Examples.sol\":3588:3591  arr */\n      0x05\n        /* \"contracts/Examples.sol\":3588:3598  arr.length */\n      dup1\n      sload\n      swap1\n      pop\n        /* \"contracts/Examples.sol\":3588:3602  arr.length > 0 */\n      gt\n        /* \"contracts/Examples.sol\":3580:3603  require(arr.length > 0) */\n      tag_132\n      jumpi\n      0x00\n      dup1\n      revert\n    tag_132:\n        /* \"contracts/Examples.sol\":3624:3627  arr */\n      0x05\n        /* \"contracts/Examples.sol\":3616:3627  return  arr */\n      dup1\n      sload\n      dup1\n      0x20\n      mul\n      0x20\n      add\n      mload(0x40)\n      swap1\n      dup2\n      add\n      0x40\n      mstore\n      dup1\n      swap3\n      swap2\n      swap1\n      dup2\n      dup2\n      mstore\n      0x20\n      add\n      dup3\n      dup1\n      sload\n      dup1\n      iszero\n      tag_133\n      jumpi\n      0x20\n      mul\n      dup3\n      add\n      swap2\n      swap1\n      0x00\n      mstore\n      keccak256(0x00, 0x20)\n      swap1\n    tag_134:\n      dup2\n      sload\n      dup2\n      mstore\n      0x20\n      add\n      swap1\n      0x01\n      add\n      swap1\n      dup1\n      dup4\n      gt\n      tag_134\n      jumpi\n    tag_133:\n      pop\n      pop\n      pop\n      pop\n      pop\n      swap1\n      pop\n        /* \"contracts/Examples.sol\":3507:3635  function getWholeArr() public  view returns(uint256[] memory) {... */\n      swap1\n      jump\t// out\n        /* \"contracts/Examples.sol\":328:407  function getByte() public  view  returns(bytes1) {... */\n    tag_57:\n        /* \"contracts/Examples.sol\":369:375  bytes1 */\n      0x00\n        /* \"contracts/Examples.sol\":395:396  a */\n      0x04\n      0x00\n      swap1\n      sload\n      swap1\n      0x0100\n      exp\n      swap1\n      div\n      0xe0\n      shl\n        /* \"contracts/Examples.sol\":397:398  0 */\n      0x00\n        /* \"contracts/Examples.sol\":395:399  a[0] */\n      0x04\n      dup2\n      lt\n      tag_136\n      jumpi\n      tag_137\n      tag_120\n      jump\t// in\n    tag_137:\n    tag_136:\n      byte\n      0xf8\n      shl\n        /* \"contracts/Examples.sol\":388:399  return a[0] */\n      swap1\n      pop\n        /* \"contracts/Examples.sol\":328:407  function getByte() public  view  returns(bytes1) {... */\n      swap1\n      jump\t// out\n        /* \"contracts/Examples.sol\":4539:4624  function getGas() public  view returns(uint256[] memory gas) {... */\n    tag_61:\n        /* \"contracts/Examples.sol\":4578:4598  uint256[] memory gas */\n      0x60\n        /* \"contracts/Examples.sol\":4614:4620  gasArr */\n      0x0a\n        /* \"contracts/Examples.sol\":4606:4620  return  gasArr */\n      dup1\n      sload\n      dup1\n      0x20\n      mul\n      0x20\n      add\n      mload(0x40)\n      swap1\n      dup2\n      add\n      0x40\n      mstore\n      dup1\n      swap3\n      swap2\n      swap1\n      dup2\n      dup2\n      mstore\n      0x20\n      add\n      dup3\n      dup1\n      sload\n      dup1\n      iszero\n      tag_139\n      jumpi\n      0x20\n      mul\n      dup3\n      add\n      swap2\n      swap1\n      0x00\n      mstore\n      keccak256(0x00, 0x20)\n      swap1\n    tag_140:\n      dup2\n      sload\n      dup2\n      mstore\n      0x20\n      add\n      swap1\n      0x01\n      add\n      swap1\n      dup1\n      dup4\n      gt\n      tag_140\n      jumpi\n    tag_139:\n      pop\n      pop\n      pop\n      pop\n      pop\n      swap1\n      pop\n        /* \"contracts/Examples.sol\":4539:4624  function getGas() public  view returns(uint256[] memory gas) {... */\n      swap1\n      jump\t// out\n        /* \"contracts/Examples.sol\":4194:4220  Instructor public  student */\n    tag_64:\n      0x07\n      dup1\n      0x00\n      add\n      sload\n      swap1\n      dup1\n      0x01\n      add\n      dup1\n      sload\n      tag_141\n      swap1\n      tag_142\n      jump\t// in\n    tag_141:\n      dup1\n      0x1f\n      add\n      0x20\n      dup1\n      swap2\n      div\n      mul\n      0x20\n      add\n      mload(0x40)\n      swap1\n      dup2\n      add\n      0x40\n      mstore\n      dup1\n      swap3\n      swap2\n      swap1\n      dup2\n      dup2\n      mstore\n      0x20\n      add\n      dup3\n      dup1\n      sload\n      tag_143\n      swap1\n      tag_142\n      jump\t// in\n    tag_143:\n      dup1\n      iszero\n      tag_144\n      jumpi\n      dup1\n      0x1f\n      lt\n      tag_145\n      jumpi\n      0x0100\n      dup1\n      dup4\n      sload\n      div\n      mul\n      dup4\n      mstore\n      swap2\n      0x20\n      add\n      swap2\n      jump(tag_144)\n    tag_145:\n      dup3\n      add\n      swap2\n      swap1\n      0x00\n      mstore\n      keccak256(0x00, 0x20)\n      swap1\n    tag_146:\n      dup2\n      sload\n      dup2\n      mstore\n      swap1\n      0x01\n      add\n      swap1\n      0x20\n      add\n      dup1\n      dup4\n      gt\n      tag_146\n      jumpi\n      dup3\n      swap1\n      sub\n      0x1f\n      and\n      dup3\n      add\n      swap2\n    tag_144:\n      pop\n      pop\n      pop\n      pop\n      pop\n      swap1\n      pop\n      dup3\n      jump\t// out\n        /* \"contracts/Examples.sol\":2678:2698  uint256[] public arr */\n    tag_69:\n      0x05\n      dup2\n      dup2\n      sload\n      dup2\n      lt\n      tag_147\n      jumpi\n      0x00\n      dup1\n      revert\n    tag_147:\n      swap1\n      0x00\n      mstore\n      keccak256(0x00, 0x20)\n      add\n      0x00\n      swap2\n      pop\n      swap1\n      pop\n      sload\n      dup2\n      jump\t// out\n        /* \"contracts/Examples.sol\":197:237  int256 public  maxInt = type(int256).max */\n    tag_72:\n      sload(0x03)\n      dup2\n      jump\t// out\n        /* \"contracts/Examples.sol\":150:190  int256 public  minInt = type(int256).min */\n    tag_76:\n      sload(0x02)\n      dup2\n      jump\t// out\n        /* \"contracts/Examples.sol\":4002:4101  function getSmallestValue() public pure returns (Status) {... */\n    tag_79:\n        /* \"contracts/Examples.sol\":4051:4057  Status */\n      0x00\n        /* \"contracts/Examples.sol\":4002:4101  function getSmallestValue() public pure returns (Status) {... */\n      swap1\n      jump\t// out\n        /* \"contracts/Examples.sol\":4470:4535  function setGasArr() public {... */\n    tag_82:\n        /* \"contracts/Examples.sol\":4505:4511  gasArr */\n      0x0a\n        /* \"contracts/Examples.sol\":4517:4530  getGasPrice() */\n      tag_151\n        /* \"contracts/Examples.sol\":4517:4528  getGasPrice */\n      tag_46\n        /* \"contracts/Examples.sol\":4517:4530  getGasPrice() */\n      jump\t// in\n    tag_151:\n        /* \"contracts/Examples.sol\":4505:4531  gasArr.push(getGasPrice()) */\n      swap1\n      dup1\n      0x01\n      dup2\n      sload\n      add\n      dup1\n      dup3\n      sstore\n      dup1\n      swap2\n      pop\n      pop\n      0x01\n      swap1\n      sub\n      swap1\n      0x00\n      mstore\n      keccak256(0x00, 0x20)\n      add\n      0x00\n      swap1\n      swap2\n      swap1\n      swap2\n      swap1\n      swap2\n      pop\n      sstore\n        /* \"contracts/Examples.sol\":4470:4535  function setGasArr() public {... */\n      jump\t// out\n        /* \"contracts/Examples.sol\":558:608  function dec() public  {... */\n    tag_84:\n        /* \"contracts/Examples.sol\":598:599  1 */\n      0x01\n        /* \"contracts/Examples.sol\":592:594  ct */\n      dup1\n      0x00\n        /* \"contracts/Examples.sol\":592:599  ct -= 1 */\n      dup3\n      dup3\n      sload\n      tag_154\n      swap2\n      swap1\n      tag_116\n      jump\t// in\n    tag_154:\n      swap3\n      pop\n      pop\n      dup2\n      swap1\n      sstore\n      pop\n        /* \"contracts/Examples.sol\":558:608  function dec() public  {... */\n      jump\t// out\n        /* \"contracts/Examples.sol\":4227:4308  function getStudent() public  view  returns(Instructor memory) {... */\n    tag_86:\n        /* \"contracts/Examples.sol\":4271:4288  Instructor memory */\n      tag_155\n      tag_156\n      jump\t// in\n    tag_155:\n        /* \"contracts/Examples.sol\":4227:4308  function getStudent() public  view  returns(Instructor memory) {... */\n      swap1\n      jump\t// out\n        /* \"contracts/Examples.sol\":4312:4336  uint256[] public  gasArr */\n    tag_91:\n      0x0a\n      dup2\n      dup2\n      sload\n      dup2\n      lt\n      tag_158\n      jumpi\n      0x00\n      dup1\n      revert\n    tag_158:\n      swap1\n      0x00\n      mstore\n      keccak256(0x00, 0x20)\n      add\n      0x00\n      swap2\n      pop\n      swap1\n      pop\n      sload\n      dup2\n      jump\t// out\n        /* \"contracts/Examples.sol\":85:121  string public  greet = \"Hello world\" */\n    tag_94:\n      0x00\n      dup1\n      sload\n      tag_160\n      swap1\n      tag_142\n      jump\t// in\n    tag_160:\n      dup1\n      0x1f\n      add\n      0x20\n      dup1\n      swap2\n      div\n      mul\n      0x20\n      add\n      mload(0x40)\n      swap1\n      dup2\n      add\n      0x40\n      mstore\n      dup1\n      swap3\n      swap2\n      swap1\n      dup2\n      dup2\n      mstore\n      0x20\n      add\n      dup3\n      dup1\n      sload\n      tag_161\n      swap1\n      tag_142\n      jump\t// in\n    tag_161:\n      dup1\n      iszero\n      tag_162\n      jumpi\n      dup1\n      0x1f\n      lt\n      tag_163\n      jumpi\n      0x0100\n      dup1\n      dup4\n      sload\n      div\n      mul\n      dup4\n      mstore\n      swap2\n      0x20\n      add\n      swap2\n      jump(tag_162)\n    tag_163:\n      dup3\n      add\n      swap2\n      swap1\n      0x00\n      mstore\n      keccak256(0x00, 0x20)\n      swap1\n    tag_164:\n      dup2\n      sload\n      dup2\n      mstore\n      swap1\n      0x01\n      add\n      swap1\n      0x20\n      add\n      dup1\n      dup4\n      gt\n      tag_164\n      jumpi\n      dup3\n      swap1\n      sub\n      0x1f\n      and\n      dup3\n      add\n      swap2\n    tag_162:\n      pop\n      pop\n      pop\n      pop\n      pop\n      dup2\n      jump\t// out\n        /* \"contracts/Examples.sol\":3809:3890  function gets() public  view returns(Status) {... */\n    tag_98:\n        /* \"contracts/Examples.sol\":3846:3852  Status */\n      0x00\n        /* \"contracts/Examples.sol\":3873:3879  status */\n      0x06\n      0x00\n      swap1\n      sload\n      swap1\n      0x0100\n      exp\n      swap1\n      div\n      0xff\n      and\n        /* \"contracts/Examples.sol\":3865:3879  return  status */\n      swap1\n      pop\n        /* \"contracts/Examples.sol\":3809:3890  function gets() public  view returns(Status) {... */\n      swap1\n      jump\t// out\n        /* \"contracts/Examples.sol\":3130:3497  function test() external {... */\n    tag_101:\n        /* \"contracts/Examples.sol\":3166:3187  arr = [1, 2, 3, 4, 5] */\n      mload(0x40)\n      dup1\n      0xa0\n      add\n      0x40\n      mstore\n      dup1\n        /* \"contracts/Examples.sol\":3173:3174  1 */\n      0x01\n        /* \"contracts/Examples.sol\":3166:3187  arr = [1, 2, 3, 4, 5] */\n      0xff\n      and\n      dup2\n      mstore\n      0x20\n      add\n        /* \"contracts/Examples.sol\":3176:3177  2 */\n      0x02\n        /* \"contracts/Examples.sol\":3166:3187  arr = [1, 2, 3, 4, 5] */\n      0xff\n      and\n      dup2\n      mstore\n      0x20\n      add\n        /* \"contracts/Examples.sol\":3179:3180  3 */\n      0x03\n        /* \"contracts/Examples.sol\":3166:3187  arr = [1, 2, 3, 4, 5] */\n      0xff\n      and\n      dup2\n      mstore\n      0x20\n      add\n        /* \"contracts/Examples.sol\":3182:3183  4 */\n      0x04\n        /* \"contracts/Examples.sol\":3166:3187  arr = [1, 2, 3, 4, 5] */\n      0xff\n      and\n      dup2\n      mstore\n      0x20\n      add\n        /* \"contracts/Examples.sol\":3185:3186  5 */\n      0x05\n        /* \"contracts/Examples.sol\":3166:3187  arr = [1, 2, 3, 4, 5] */\n      0xff\n      and\n      dup2\n      mstore\n      pop\n        /* \"contracts/Examples.sol\":3166:3169  arr */\n      0x05\n        /* \"contracts/Examples.sol\":3166:3187  arr = [1, 2, 3, 4, 5] */\n      swap1\n      0x05\n      tag_167\n      swap3\n      swap2\n      swap1\n      tag_168\n      jump\t// in\n    tag_167:\n      pop\n        /* \"contracts/Examples.sol\":3198:3207  remove(2) */\n      tag_169\n        /* \"contracts/Examples.sol\":3205:3206  2 */\n      0x02\n        /* \"contracts/Examples.sol\":3198:3204  remove */\n      tag_51\n        /* \"contracts/Examples.sol\":3198:3207  remove(2) */\n      jump\t// in\n    tag_169:\n        /* \"contracts/Examples.sol\":3260:3261  1 */\n      0x01\n        /* \"contracts/Examples.sol\":3250:3253  arr */\n      0x05\n        /* \"contracts/Examples.sol\":3254:3255  0 */\n      0x00\n        /* \"contracts/Examples.sol\":3250:3256  arr[0] */\n      dup2\n      sload\n      dup2\n      lt\n      tag_170\n      jumpi\n      tag_171\n      tag_120\n      jump\t// in\n    tag_171:\n    tag_170:\n      swap1\n      0x00\n      mstore\n      keccak256(0x00, 0x20)\n      add\n      sload\n        /* \"contracts/Examples.sol\":3250:3261  arr[0] == 1 */\n      eq\n        /* \"contracts/Examples.sol\":3243:3262  assert(arr[0] == 1) */\n      tag_173\n      jumpi\n      tag_174\n      tag_175\n      jump\t// in\n    tag_174:\n    tag_173:\n        /* \"contracts/Examples.sol\":3290:3291  2 */\n      0x02\n        /* \"contracts/Examples.sol\":3280:3283  arr */\n      0x05\n        /* \"contracts/Examples.sol\":3284:3285  1 */\n      0x01\n        /* \"contracts/Examples.sol\":3280:3286  arr[1] */\n      dup2\n      sload\n      dup2\n      lt\n      tag_176\n      jumpi\n      tag_177\n      tag_120\n      jump\t// in\n    tag_177:\n    tag_176:\n      swap1\n      0x00\n      mstore\n      keccak256(0x00, 0x20)\n      add\n      sload\n        /* \"contracts/Examples.sol\":3280:3291  arr[1] == 2 */\n      eq\n        /* \"contracts/Examples.sol\":3273:3292  assert(arr[1] == 2) */\n      tag_179\n      jumpi\n      tag_180\n      tag_175\n      jump\t// in\n    tag_180:\n    tag_179:\n        /* \"contracts/Examples.sol\":3320:3321  4 */\n      0x04\n        /* \"contracts/Examples.sol\":3310:3313  arr */\n      0x05\n        /* \"contracts/Examples.sol\":3314:3315  2 */\n      0x02\n        /* \"contracts/Examples.sol\":3310:3316  arr[2] */\n      dup2\n      sload\n      dup2\n      lt\n      tag_181\n      jumpi\n      tag_182\n      tag_120\n      jump\t// in\n    tag_182:\n    tag_181:\n      swap1\n      0x00\n      mstore\n      keccak256(0x00, 0x20)\n      add\n      sload\n        /* \"contracts/Examples.sol\":3310:3321  arr[2] == 4 */\n      eq\n        /* \"contracts/Examples.sol\":3303:3322  assert(arr[2] == 4) */\n      tag_184\n      jumpi\n      tag_185\n      tag_175\n      jump\t// in\n    tag_185:\n    tag_184:\n        /* \"contracts/Examples.sol\":3350:3351  5 */\n      0x05\n        /* \"contracts/Examples.sol\":3340:3343  arr */\n      dup1\n        /* \"contracts/Examples.sol\":3344:3345  3 */\n      0x03\n        /* \"contracts/Examples.sol\":3340:3346  arr[3] */\n      dup2\n      sload\n      dup2\n      lt\n      tag_186\n      jumpi\n      tag_187\n      tag_120\n      jump\t// in\n    tag_187:\n    tag_186:\n      swap1\n      0x00\n      mstore\n      keccak256(0x00, 0x20)\n      add\n      sload\n        /* \"contracts/Examples.sol\":3340:3351  arr[3] == 5 */\n      eq\n        /* \"contracts/Examples.sol\":3333:3352  assert(arr[3] == 5) */\n      tag_189\n      jumpi\n      tag_190\n      tag_175\n      jump\t// in\n    tag_190:\n    tag_189:\n        /* \"contracts/Examples.sol\":3384:3385  4 */\n      0x04\n        /* \"contracts/Examples.sol\":3370:3373  arr */\n      0x05\n        /* \"contracts/Examples.sol\":3370:3380  arr.length */\n      dup1\n      sload\n      swap1\n      pop\n        /* \"contracts/Examples.sol\":3370:3385  arr.length == 4 */\n      eq\n        /* \"contracts/Examples.sol\":3363:3386  assert(arr.length == 4) */\n      tag_191\n      jumpi\n      tag_192\n      tag_175\n      jump\t// in\n    tag_192:\n    tag_191:\n        /* \"contracts/Examples.sol\":3130:3497  function test() external {... */\n      jump\t// out\n    tag_156:\n      mload(0x40)\n      dup1\n      0x60\n      add\n      0x40\n      mstore\n      dup1\n      0x00\n      dup2\n      mstore\n      0x20\n      add\n      0x60\n      dup2\n      mstore\n      0x20\n      add\n      0x60\n      dup2\n      mstore\n      pop\n      swap1\n      jump\t// out\n    tag_168:\n      dup3\n      dup1\n      sload\n      dup3\n      dup3\n      sstore\n      swap1\n      0x00\n      mstore\n      keccak256(0x00, 0x20)\n      swap1\n      dup2\n      add\n      swap3\n      dup3\n      iszero\n      tag_193\n      jumpi\n      swap2\n      0x20\n      mul\n      dup3\n      add\n    tag_194:\n      dup3\n      dup2\n      gt\n      iszero\n      tag_195\n      jumpi\n      dup3\n      mload\n      dup3\n      swap1\n      0xff\n      and\n      swap1\n      sstore\n      swap2\n      0x20\n      add\n      swap2\n      swap1\n      0x01\n      add\n      swap1\n      jump(tag_194)\n    tag_195:\n    tag_193:\n      pop\n      swap1\n      pop\n      tag_196\n      swap2\n      swap1\n      tag_197\n      jump\t// in\n    tag_196:\n      pop\n      swap1\n      jump\t// out\n    tag_197:\n    tag_198:\n      dup1\n      dup3\n      gt\n      iszero\n      tag_199\n      jumpi\n      0x00\n      dup2\n      0x00\n      swap1\n      sstore\n      pop\n      0x01\n      add\n      jump(tag_198)\n    tag_199:\n      pop\n      swap1\n      jump\t// out\n        /* \"#utility.yul\":7:84   */\n    tag_200:\n        /* \"#utility.yul\":44:51   */\n      0x00\n        /* \"#utility.yul\":73:78   */\n      dup2\n        /* \"#utility.yul\":62:78   */\n      swap1\n      pop\n        /* \"#utility.yul\":7:84   */\n      swap2\n      swap1\n      pop\n      jump\t// out\n        /* \"#utility.yul\":90:208   */\n    tag_201:\n        /* \"#utility.yul\":177:201   */\n      tag_246\n        /* \"#utility.yul\":195:200   */\n      dup2\n        /* \"#utility.yul\":177:201   */\n      tag_200\n      jump\t// in\n    tag_246:\n        /* \"#utility.yul\":172:175   */\n      dup3\n        /* \"#utility.yul\":165:202   */\n      mstore\n        /* \"#utility.yul\":90:208   */\n      pop\n      pop\n      jump\t// out\n        /* \"#utility.yul\":214:436   */\n    tag_31:\n        /* \"#utility.yul\":307:311   */\n      0x00\n        /* \"#utility.yul\":345:347   */\n      0x20\n        /* \"#utility.yul\":334:343   */\n      dup3\n        /* \"#utility.yul\":330:348   */\n      add\n        /* \"#utility.yul\":322:348   */\n      swap1\n      pop\n        /* \"#utility.yul\":358:429   */\n      tag_248\n        /* \"#utility.yul\":426:427   */\n      0x00\n        /* \"#utility.yul\":415:424   */\n      dup4\n        /* \"#utility.yul\":411:428   */\n      add\n        /* \"#utility.yul\":402:408   */\n      dup5\n        /* \"#utility.yul\":358:429   */\n      tag_201\n      jump\t// in\n    tag_248:\n        /* \"#utility.yul\":214:436   */\n      swap3\n      swap2\n      pop\n      pop\n      jump\t// out\n        /* \"#utility.yul\":442:591   */\n    tag_202:\n        /* \"#utility.yul\":478:485   */\n      0x00\n        /* \"#utility.yul\":518:584   */\n      0xffffffff00000000000000000000000000000000000000000000000000000000\n        /* \"#utility.yul\":511:516   */\n      dup3\n        /* \"#utility.yul\":507:585   */\n      and\n        /* \"#utility.yul\":496:585   */\n      swap1\n      pop\n        /* \"#utility.yul\":442:591   */\n      swap2\n      swap1\n      pop\n      jump\t// out\n        /* \"#utility.yul\":597:712   */\n    tag_203:\n        /* \"#utility.yul\":682:705   */\n      tag_251\n        /* \"#utility.yul\":699:704   */\n      dup2\n        /* \"#utility.yul\":682:705   */\n      tag_202\n      jump\t// in\n    tag_251:\n        /* \"#utility.yul\":677:680   */\n      dup3\n        /* \"#utility.yul\":670:706   */\n      mstore\n        /* \"#utility.yul\":597:712   */\n      pop\n      pop\n      jump\t// out\n        /* \"#utility.yul\":718:936   */\n    tag_35:\n        /* \"#utility.yul\":809:813   */\n      0x00\n        /* \"#utility.yul\":847:849   */\n      0x20\n        /* \"#utility.yul\":836:845   */\n      dup3\n        /* \"#utility.yul\":832:850   */\n      add\n        /* \"#utility.yul\":824:850   */\n      swap1\n      pop\n        /* \"#utility.yul\":860:929   */\n      tag_253\n        /* \"#utility.yul\":926:927   */\n      0x00\n        /* \"#utility.yul\":915:924   */\n      dup4\n        /* \"#utility.yul\":911:928   */\n      add\n        /* \"#utility.yul\":902:908   */\n      dup5\n        /* \"#utility.yul\":860:929   */\n      tag_203\n      jump\t// in\n    tag_253:\n        /* \"#utility.yul\":718:936   */\n      swap3\n      swap2\n      pop\n      pop\n      jump\t// out\n        /* \"#utility.yul\":942:1122   */\n    tag_204:\n        /* \"#utility.yul\":990:1067   */\n      0x4e487b7100000000000000000000000000000000000000000000000000000000\n        /* \"#utility.yul\":987:988   */\n      0x00\n        /* \"#utility.yul\":980:1068   */\n      mstore\n        /* \"#utility.yul\":1087:1091   */\n      0x21\n        /* \"#utility.yul\":1084:1085   */\n      0x04\n        /* \"#utility.yul\":1077:1092   */\n      mstore\n        /* \"#utility.yul\":1111:1115   */\n      0x24\n        /* \"#utility.yul\":1108:1109   */\n      0x00\n        /* \"#utility.yul\":1101:1116   */\n      revert\n        /* \"#utility.yul\":1128:1243   */\n    tag_205:\n        /* \"#utility.yul\":1211:1212   */\n      0x05\n        /* \"#utility.yul\":1204:1209   */\n      dup2\n        /* \"#utility.yul\":1201:1213   */\n      lt\n        /* \"#utility.yul\":1191:1237   */\n      tag_256\n      jumpi\n        /* \"#utility.yul\":1217:1235   */\n      tag_257\n      tag_204\n      jump\t// in\n    tag_257:\n        /* \"#utility.yul\":1191:1237   */\n    tag_256:\n        /* \"#utility.yul\":1128:1243   */\n      pop\n      jump\t// out\n        /* \"#utility.yul\":1249:1380   */\n    tag_206:\n        /* \"#utility.yul\":1296:1303   */\n      0x00\n        /* \"#utility.yul\":1325:1330   */\n      dup2\n        /* \"#utility.yul\":1314:1330   */\n      swap1\n      pop\n        /* \"#utility.yul\":1331:1374   */\n      tag_259\n        /* \"#utility.yul\":1368:1373   */\n      dup3\n        /* \"#utility.yul\":1331:1374   */\n      tag_205\n      jump\t// in\n    tag_259:\n        /* \"#utility.yul\":1249:1380   */\n      swap2\n      swap1\n      pop\n      jump\t// out\n        /* \"#utility.yul\":1386:1517   */\n    tag_207:\n        /* \"#utility.yul\":1444:1453   */\n      0x00\n        /* \"#utility.yul\":1477:1511   */\n      tag_261\n        /* \"#utility.yul\":1505:1510   */\n      dup3\n        /* \"#utility.yul\":1477:1511   */\n      tag_206\n      jump\t// in\n    tag_261:\n        /* \"#utility.yul\":1464:1511   */\n      swap1\n      pop\n        /* \"#utility.yul\":1386:1517   */\n      swap2\n      swap1\n      pop\n      jump\t// out\n        /* \"#utility.yul\":1523:1670   */\n    tag_208:\n        /* \"#utility.yul\":1618:1663   */\n      tag_263\n        /* \"#utility.yul\":1657:1662   */\n      dup2\n        /* \"#utility.yul\":1618:1663   */\n      tag_207\n      jump\t// in\n    tag_263:\n        /* \"#utility.yul\":1613:1616   */\n      dup3\n        /* \"#utility.yul\":1606:1664   */\n      mstore\n        /* \"#utility.yul\":1523:1670   */\n      pop\n      pop\n      jump\t// out\n        /* \"#utility.yul\":1676:1914   */\n    tag_39:\n        /* \"#utility.yul\":1777:1781   */\n      0x00\n        /* \"#utility.yul\":1815:1817   */\n      0x20\n        /* \"#utility.yul\":1804:1813   */\n      dup3\n        /* \"#utility.yul\":1800:1818   */\n      add\n        /* \"#utility.yul\":1792:1818   */\n      swap1\n      pop\n        /* \"#utility.yul\":1828:1907   */\n      tag_265\n        /* \"#utility.yul\":1904:1905   */\n      0x00\n        /* \"#utility.yul\":1893:1902   */\n      dup4\n        /* \"#utility.yul\":1889:1906   */\n      add\n        /* \"#utility.yul\":1880:1886   */\n      dup5\n        /* \"#utility.yul\":1828:1907   */\n      tag_208\n      jump\t// in\n    tag_265:\n        /* \"#utility.yul\":1676:1914   */\n      swap3\n      swap2\n      pop\n      pop\n      jump\t// out\n        /* \"#utility.yul\":2001:2118   */\n    tag_210:\n        /* \"#utility.yul\":2110:2111   */\n      0x00\n        /* \"#utility.yul\":2107:2108   */\n      dup1\n        /* \"#utility.yul\":2100:2112   */\n      revert\n        /* \"#utility.yul\":2247:2369   */\n    tag_212:\n        /* \"#utility.yul\":2320:2344   */\n      tag_270\n        /* \"#utility.yul\":2338:2343   */\n      dup2\n        /* \"#utility.yul\":2320:2344   */\n      tag_200\n      jump\t// in\n    tag_270:\n        /* \"#utility.yul\":2313:2318   */\n      dup2\n        /* \"#utility.yul\":2310:2345   */\n      eq\n        /* \"#utility.yul\":2300:2363   */\n      tag_271\n      jumpi\n        /* \"#utility.yul\":2359:2360   */\n      0x00\n        /* \"#utility.yul\":2356:2357   */\n      dup1\n        /* \"#utility.yul\":2349:2361   */\n      revert\n        /* \"#utility.yul\":2300:2363   */\n    tag_271:\n        /* \"#utility.yul\":2247:2369   */\n      pop\n      jump\t// out\n        /* \"#utility.yul\":2375:2514   */\n    tag_213:\n        /* \"#utility.yul\":2421:2426   */\n      0x00\n        /* \"#utility.yul\":2459:2465   */\n      dup2\n        /* \"#utility.yul\":2446:2466   */\n      calldataload\n        /* \"#utility.yul\":2437:2466   */\n      swap1\n      pop\n        /* \"#utility.yul\":2475:2508   */\n      tag_273\n        /* \"#utility.yul\":2502:2507   */\n      dup2\n        /* \"#utility.yul\":2475:2508   */\n      tag_212\n      jump\t// in\n    tag_273:\n        /* \"#utility.yul\":2375:2514   */\n      swap3\n      swap2\n      pop\n      pop\n      jump\t// out\n        /* \"#utility.yul\":2520:2849   */\n    tag_50:\n        /* \"#utility.yul\":2579:2585   */\n      0x00\n        /* \"#utility.yul\":2628:2630   */\n      0x20\n        /* \"#utility.yul\":2616:2625   */\n      dup3\n        /* \"#utility.yul\":2607:2614   */\n      dup5\n        /* \"#utility.yul\":2603:2626   */\n      sub\n        /* \"#utility.yul\":2599:2631   */\n      slt\n        /* \"#utility.yul\":2596:2715   */\n      iszero\n      tag_275\n      jumpi\n        /* \"#utility.yul\":2634:2713   */\n      tag_276\n      tag_210\n      jump\t// in\n    tag_276:\n        /* \"#utility.yul\":2596:2715   */\n    tag_275:\n        /* \"#utility.yul\":2754:2755   */\n      0x00\n        /* \"#utility.yul\":2779:2832   */\n      tag_277\n        /* \"#utility.yul\":2824:2831   */\n      dup5\n        /* \"#utility.yul\":2815:2821   */\n      dup3\n        /* \"#utility.yul\":2804:2813   */\n      dup6\n        /* \"#utility.yul\":2800:2822   */\n      add\n        /* \"#utility.yul\":2779:2832   */\n      tag_213\n      jump\t// in\n    tag_277:\n        /* \"#utility.yul\":2769:2832   */\n      swap2\n      pop\n        /* \"#utility.yul\":2725:2842   */\n      pop\n        /* \"#utility.yul\":2520:2849   */\n      swap3\n      swap2\n      pop\n      pop\n      jump\t// out\n        /* \"#utility.yul\":2855:2969   */\n    tag_214:\n        /* \"#utility.yul\":2922:2928   */\n      0x00\n        /* \"#utility.yul\":2956:2961   */\n      dup2\n        /* \"#utility.yul\":2950:2962   */\n      mload\n        /* \"#utility.yul\":2940:2962   */\n      swap1\n      pop\n        /* \"#utility.yul\":2855:2969   */\n      swap2\n      swap1\n      pop\n      jump\t// out\n        /* \"#utility.yul\":2975:3159   */\n    tag_215:\n        /* \"#utility.yul\":3074:3085   */\n      0x00\n        /* \"#utility.yul\":3108:3114   */\n      dup3\n        /* \"#utility.yul\":3103:3106   */\n      dup3\n        /* \"#utility.yul\":3096:3115   */\n      mstore\n        /* \"#utility.yul\":3148:3152   */\n      0x20\n        /* \"#utility.yul\":3143:3146   */\n      dup3\n        /* \"#utility.yul\":3139:3153   */\n      add\n        /* \"#utility.yul\":3124:3153   */\n      swap1\n      pop\n        /* \"#utility.yul\":2975:3159   */\n      swap3\n      swap2\n      pop\n      pop\n      jump\t// out\n        /* \"#utility.yul\":3165:3297   */\n    tag_216:\n        /* \"#utility.yul\":3232:3236   */\n      0x00\n        /* \"#utility.yul\":3255:3258   */\n      dup2\n        /* \"#utility.yul\":3247:3258   */\n      swap1\n      pop\n        /* \"#utility.yul\":3285:3289   */\n      0x20\n        /* \"#utility.yul\":3280:3283   */\n      dup3\n        /* \"#utility.yul\":3276:3290   */\n      add\n        /* \"#utility.yul\":3268:3290   */\n      swap1\n      pop\n        /* \"#utility.yul\":3165:3297   */\n      swap2\n      swap1\n      pop\n      jump\t// out\n        /* \"#utility.yul\":3303:3411   */\n    tag_217:\n        /* \"#utility.yul\":3380:3404   */\n      tag_282\n        /* \"#utility.yul\":3398:3403   */\n      dup2\n        /* \"#utility.yul\":3380:3404   */\n      tag_200\n      jump\t// in\n    tag_282:\n        /* \"#utility.yul\":3375:3378   */\n      dup3\n        /* \"#utility.yul\":3368:3405   */\n      mstore\n        /* \"#utility.yul\":3303:3411   */\n      pop\n      pop\n      jump\t// out\n        /* \"#utility.yul\":3417:3596   */\n    tag_218:\n        /* \"#utility.yul\":3486:3496   */\n      0x00\n        /* \"#utility.yul\":3507:3553   */\n      tag_284\n        /* \"#utility.yul\":3549:3552   */\n      dup4\n        /* \"#utility.yul\":3541:3547   */\n      dup4\n        /* \"#utility.yul\":3507:3553   */\n      tag_217\n      jump\t// in\n    tag_284:\n        /* \"#utility.yul\":3585:3589   */\n      0x20\n        /* \"#utility.yul\":3580:3583   */\n      dup4\n        /* \"#utility.yul\":3576:3590   */\n      add\n        /* \"#utility.yul\":3562:3590   */\n      swap1\n      pop\n        /* \"#utility.yul\":3417:3596   */\n      swap3\n      swap2\n      pop\n      pop\n      jump\t// out\n        /* \"#utility.yul\":3602:3715   */\n    tag_219:\n        /* \"#utility.yul\":3672:3676   */\n      0x00\n        /* \"#utility.yul\":3704:3708   */\n      0x20\n        /* \"#utility.yul\":3699:3702   */\n      dup3\n        /* \"#utility.yul\":3695:3709   */\n      add\n        /* \"#utility.yul\":3687:3709   */\n      swap1\n      pop\n        /* \"#utility.yul\":3602:3715   */\n      swap2\n      swap1\n      pop\n      jump\t// out\n        /* \"#utility.yul\":3751:4483   */\n    tag_220:\n        /* \"#utility.yul\":3870:3873   */\n      0x00\n        /* \"#utility.yul\":3899:3953   */\n      tag_287\n        /* \"#utility.yul\":3947:3952   */\n      dup3\n        /* \"#utility.yul\":3899:3953   */\n      tag_214\n      jump\t// in\n    tag_287:\n        /* \"#utility.yul\":3969:4055   */\n      tag_288\n        /* \"#utility.yul\":4048:4054   */\n      dup2\n        /* \"#utility.yul\":4043:4046   */\n      dup6\n        /* \"#utility.yul\":3969:4055   */\n      tag_215\n      jump\t// in\n    tag_288:\n        /* \"#utility.yul\":3962:4055   */\n      swap4\n      pop\n        /* \"#utility.yul\":4079:4135   */\n      tag_289\n        /* \"#utility.yul\":4129:4134   */\n      dup4\n        /* \"#utility.yul\":4079:4135   */\n      tag_216\n      jump\t// in\n    tag_289:\n        /* \"#utility.yul\":4158:4165   */\n      dup1\n        /* \"#utility.yul\":4189:4190   */\n      0x00\n        /* \"#utility.yul\":4174:4458   */\n    tag_290:\n        /* \"#utility.yul\":4199:4205   */\n      dup4\n        /* \"#utility.yul\":4196:4197   */\n      dup2\n        /* \"#utility.yul\":4193:4206   */\n      lt\n        /* \"#utility.yul\":4174:4458   */\n      iszero\n      tag_292\n      jumpi\n        /* \"#utility.yul\":4275:4281   */\n      dup2\n        /* \"#utility.yul\":4269:4282   */\n      mload\n        /* \"#utility.yul\":4302:4365   */\n      tag_293\n        /* \"#utility.yul\":4361:4364   */\n      dup9\n        /* \"#utility.yul\":4346:4359   */\n      dup3\n        /* \"#utility.yul\":4302:4365   */\n      tag_218\n      jump\t// in\n    tag_293:\n        /* \"#utility.yul\":4295:4365   */\n      swap8\n      pop\n        /* \"#utility.yul\":4388:4448   */\n      tag_294\n        /* \"#utility.yul\":4441:4447   */\n      dup4\n        /* \"#utility.yul\":4388:4448   */\n      tag_219\n      jump\t// in\n    tag_294:\n        /* \"#utility.yul\":4378:4448   */\n      swap3\n      pop\n        /* \"#utility.yul\":4234:4458   */\n      pop\n        /* \"#utility.yul\":4221:4222   */\n      0x01\n        /* \"#utility.yul\":4218:4219   */\n      dup2\n        /* \"#utility.yul\":4214:4223   */\n      add\n        /* \"#utility.yul\":4209:4223   */\n      swap1\n      pop\n        /* \"#utility.yul\":4174:4458   */\n      jump(tag_290)\n    tag_292:\n        /* \"#utility.yul\":4178:4192   */\n      pop\n        /* \"#utility.yul\":4474:4477   */\n      dup6\n        /* \"#utility.yul\":4467:4477   */\n      swap4\n      pop\n        /* \"#utility.yul\":3875:4483   */\n      pop\n      pop\n      pop\n        /* \"#utility.yul\":3751:4483   */\n      swap3\n      swap2\n      pop\n      pop\n      jump\t// out\n        /* \"#utility.yul\":4489:4862   */\n    tag_55:\n        /* \"#utility.yul\":4632:4636   */\n      0x00\n        /* \"#utility.yul\":4670:4672   */\n      0x20\n        /* \"#utility.yul\":4659:4668   */\n      dup3\n        /* \"#utility.yul\":4655:4673   */\n      add\n        /* \"#utility.yul\":4647:4673   */\n      swap1\n      pop\n        /* \"#utility.yul\":4719:4728   */\n      dup2\n        /* \"#utility.yul\":4713:4717   */\n      dup2\n        /* \"#utility.yul\":4709:4729   */\n      sub\n        /* \"#utility.yul\":4705:4706   */\n      0x00\n        /* \"#utility.yul\":4694:4703   */\n      dup4\n        /* \"#utility.yul\":4690:4707   */\n      add\n        /* \"#utility.yul\":4683:4730   */\n      mstore\n        /* \"#utility.yul\":4747:4855   */\n      tag_296\n        /* \"#utility.yul\":4850:4854   */\n      dup2\n        /* \"#utility.yul\":4841:4847   */\n      dup5\n        /* \"#utility.yul\":4747:4855   */\n      tag_220\n      jump\t// in\n    tag_296:\n        /* \"#utility.yul\":4739:4855   */\n      swap1\n      pop\n        /* \"#utility.yul\":4489:4862   */\n      swap3\n      swap2\n      pop\n      pop\n      jump\t// out\n        /* \"#utility.yul\":4868:5017   */\n    tag_221:\n        /* \"#utility.yul\":4904:4911   */\n      0x00\n        /* \"#utility.yul\":4944:5010   */\n      0xff00000000000000000000000000000000000000000000000000000000000000\n        /* \"#utility.yul\":4937:4942   */\n      dup3\n        /* \"#utility.yul\":4933:5011   */\n      and\n        /* \"#utility.yul\":4922:5011   */\n      swap1\n      pop\n        /* \"#utility.yul\":4868:5017   */\n      swap2\n      swap1\n      pop\n      jump\t// out\n        /* \"#utility.yul\":5023:5138   */\n    tag_222:\n        /* \"#utility.yul\":5108:5131   */\n      tag_299\n        /* \"#utility.yul\":5125:5130   */\n      dup2\n        /* \"#utility.yul\":5108:5131   */\n      tag_221\n      jump\t// in\n    tag_299:\n        /* \"#utility.yul\":5103:5106   */\n      dup3\n        /* \"#utility.yul\":5096:5132   */\n      mstore\n        /* \"#utility.yul\":5023:5138   */\n      pop\n      pop\n      jump\t// out\n        /* \"#utility.yul\":5144:5362   */\n    tag_59:\n        /* \"#utility.yul\":5235:5239   */\n      0x00\n        /* \"#utility.yul\":5273:5275   */\n      0x20\n        /* \"#utility.yul\":5262:5271   */\n      dup3\n        /* \"#utility.yul\":5258:5276   */\n      add\n        /* \"#utility.yul\":5250:5276   */\n      swap1\n      pop\n        /* \"#utility.yul\":5286:5355   */\n      tag_301\n        /* \"#utility.yul\":5352:5353   */\n      0x00\n        /* \"#utility.yul\":5341:5350   */\n      dup4\n        /* \"#utility.yul\":5337:5354   */\n      add\n        /* \"#utility.yul\":5328:5334   */\n      dup5\n        /* \"#utility.yul\":5286:5355   */\n      tag_222\n      jump\t// in\n    tag_301:\n        /* \"#utility.yul\":5144:5362   */\n      swap3\n      swap2\n      pop\n      pop\n      jump\t// out\n        /* \"#utility.yul\":5368:5467   */\n    tag_223:\n        /* \"#utility.yul\":5420:5426   */\n      0x00\n        /* \"#utility.yul\":5454:5459   */\n      dup2\n        /* \"#utility.yul\":5448:5460   */\n      mload\n        /* \"#utility.yul\":5438:5460   */\n      swap1\n      pop\n        /* \"#utility.yul\":5368:5467   */\n      swap2\n      swap1\n      pop\n      jump\t// out\n        /* \"#utility.yul\":5473:5642   */\n    tag_224:\n        /* \"#utility.yul\":5557:5568   */\n      0x00\n        /* \"#utility.yul\":5591:5597   */\n      dup3\n        /* \"#utility.yul\":5586:5589   */\n      dup3\n        /* \"#utility.yul\":5579:5598   */\n      mstore\n        /* \"#utility.yul\":5631:5635   */\n      0x20\n        /* \"#utility.yul\":5626:5629   */\n      dup3\n        /* \"#utility.yul\":5622:5636   */\n      add\n        /* \"#utility.yul\":5607:5636   */\n      swap1\n      pop\n        /* \"#utility.yul\":5473:5642   */\n      swap3\n      swap2\n      pop\n      pop\n      jump\t// out\n        /* \"#utility.yul\":5648:5955   */\n    tag_225:\n        /* \"#utility.yul\":5716:5717   */\n      0x00\n        /* \"#utility.yul\":5726:5839   */\n    tag_305:\n        /* \"#utility.yul\":5740:5746   */\n      dup4\n        /* \"#utility.yul\":5737:5738   */\n      dup2\n        /* \"#utility.yul\":5734:5747   */\n      lt\n        /* \"#utility.yul\":5726:5839   */\n      iszero\n      tag_307\n      jumpi\n        /* \"#utility.yul\":5825:5826   */\n      dup1\n        /* \"#utility.yul\":5820:5823   */\n      dup3\n        /* \"#utility.yul\":5816:5827   */\n      add\n        /* \"#utility.yul\":5810:5828   */\n      mload\n        /* \"#utility.yul\":5806:5807   */\n      dup2\n        /* \"#utility.yul\":5801:5804   */\n      dup5\n        /* \"#utility.yul\":5797:5808   */\n      add\n        /* \"#utility.yul\":5790:5829   */\n      mstore\n        /* \"#utility.yul\":5762:5764   */\n      0x20\n        /* \"#utility.yul\":5759:5760   */\n      dup2\n        /* \"#utility.yul\":5755:5765   */\n      add\n        /* \"#utility.yul\":5750:5765   */\n      swap1\n      pop\n        /* \"#utility.yul\":5726:5839   */\n      jump(tag_305)\n    tag_307:\n        /* \"#utility.yul\":5857:5863   */\n      dup4\n        /* \"#utility.yul\":5854:5855   */\n      dup2\n        /* \"#utility.yul\":5851:5864   */\n      gt\n        /* \"#utility.yul\":5848:5949   */\n      iszero\n      tag_308\n      jumpi\n        /* \"#utility.yul\":5937:5938   */\n      0x00\n        /* \"#utility.yul\":5928:5934   */\n      dup5\n        /* \"#utility.yul\":5923:5926   */\n      dup5\n        /* \"#utility.yul\":5919:5935   */\n      add\n        /* \"#utility.yul\":5912:5939   */\n      mstore\n        /* \"#utility.yul\":5848:5949   */\n    tag_308:\n        /* \"#utility.yul\":5697:5955   */\n      pop\n        /* \"#utility.yul\":5648:5955   */\n      pop\n      pop\n      pop\n      jump\t// out\n        /* \"#utility.yul\":5961:6063   */\n    tag_226:\n        /* \"#utility.yul\":6002:6008   */\n      0x00\n        /* \"#utility.yul\":6053:6055   */\n      0x1f\n        /* \"#utility.yul\":6049:6056   */\n      not\n        /* \"#utility.yul\":6044:6046   */\n      0x1f\n        /* \"#utility.yul\":6037:6042   */\n      dup4\n        /* \"#utility.yul\":6033:6047   */\n      add\n        /* \"#utility.yul\":6029:6057   */\n      and\n        /* \"#utility.yul\":6019:6057   */\n      swap1\n      pop\n        /* \"#utility.yul\":5961:6063   */\n      swap2\n      swap1\n      pop\n      jump\t// out\n        /* \"#utility.yul\":6069:6433   */\n    tag_227:\n        /* \"#utility.yul\":6157:6160   */\n      0x00\n        /* \"#utility.yul\":6185:6224   */\n      tag_311\n        /* \"#utility.yul\":6218:6223   */\n      dup3\n        /* \"#utility.yul\":6185:6224   */\n      tag_223\n      jump\t// in\n    tag_311:\n        /* \"#utility.yul\":6240:6311   */\n      tag_312\n        /* \"#utility.yul\":6304:6310   */\n      dup2\n        /* \"#utility.yul\":6299:6302   */\n      dup6\n        /* \"#utility.yul\":6240:6311   */\n      tag_224\n      jump\t// in\n    tag_312:\n        /* \"#utility.yul\":6233:6311   */\n      swap4\n      pop\n        /* \"#utility.yul\":6320:6372   */\n      tag_313\n        /* \"#utility.yul\":6365:6371   */\n      dup2\n        /* \"#utility.yul\":6360:6363   */\n      dup6\n        /* \"#utility.yul\":6353:6357   */\n      0x20\n        /* \"#utility.yul\":6346:6351   */\n      dup7\n        /* \"#utility.yul\":6342:6358   */\n      add\n        /* \"#utility.yul\":6320:6372   */\n      tag_225\n      jump\t// in\n    tag_313:\n        /* \"#utility.yul\":6397:6426   */\n      tag_314\n        /* \"#utility.yul\":6419:6425   */\n      dup2\n        /* \"#utility.yul\":6397:6426   */\n      tag_226\n      jump\t// in\n    tag_314:\n        /* \"#utility.yul\":6392:6395   */\n      dup5\n        /* \"#utility.yul\":6388:6427   */\n      add\n        /* \"#utility.yul\":6381:6427   */\n      swap2\n      pop\n        /* \"#utility.yul\":6161:6433   */\n      pop\n        /* \"#utility.yul\":6069:6433   */\n      swap3\n      swap2\n      pop\n      pop\n      jump\t// out\n        /* \"#utility.yul\":6439:6862   */\n    tag_66:\n        /* \"#utility.yul\":6580:6584   */\n      0x00\n        /* \"#utility.yul\":6618:6620   */\n      0x40\n        /* \"#utility.yul\":6607:6616   */\n      dup3\n        /* \"#utility.yul\":6603:6621   */\n      add\n        /* \"#utility.yul\":6595:6621   */\n      swap1\n      pop\n        /* \"#utility.yul\":6631:6702   */\n      tag_316\n        /* \"#utility.yul\":6699:6700   */\n      0x00\n        /* \"#utility.yul\":6688:6697   */\n      dup4\n        /* \"#utility.yul\":6684:6701   */\n      add\n        /* \"#utility.yul\":6675:6681   */\n      dup6\n        /* \"#utility.yul\":6631:6702   */\n      tag_201\n      jump\t// in\n    tag_316:\n        /* \"#utility.yul\":6749:6758   */\n      dup2\n        /* \"#utility.yul\":6743:6747   */\n      dup2\n        /* \"#utility.yul\":6739:6759   */\n      sub\n        /* \"#utility.yul\":6734:6736   */\n      0x20\n        /* \"#utility.yul\":6723:6732   */\n      dup4\n        /* \"#utility.yul\":6719:6737   */\n      add\n        /* \"#utility.yul\":6712:6760   */\n      mstore\n        /* \"#utility.yul\":6777:6855   */\n      tag_317\n        /* \"#utility.yul\":6850:6854   */\n      dup2\n        /* \"#utility.yul\":6841:6847   */\n      dup5\n        /* \"#utility.yul\":6777:6855   */\n      tag_227\n      jump\t// in\n    tag_317:\n        /* \"#utility.yul\":6769:6855   */\n      swap1\n      pop\n        /* \"#utility.yul\":6439:6862   */\n      swap4\n      swap3\n      pop\n      pop\n      pop\n      jump\t// out\n        /* \"#utility.yul\":6868:6944   */\n    tag_228:\n        /* \"#utility.yul\":6904:6911   */\n      0x00\n        /* \"#utility.yul\":6933:6938   */\n      dup2\n        /* \"#utility.yul\":6922:6938   */\n      swap1\n      pop\n        /* \"#utility.yul\":6868:6944   */\n      swap2\n      swap1\n      pop\n      jump\t// out\n        /* \"#utility.yul\":6950:7065   */\n    tag_229:\n        /* \"#utility.yul\":7035:7058   */\n      tag_320\n        /* \"#utility.yul\":7052:7057   */\n      dup2\n        /* \"#utility.yul\":7035:7058   */\n      tag_228\n      jump\t// in\n    tag_320:\n        /* \"#utility.yul\":7030:7033   */\n      dup3\n        /* \"#utility.yul\":7023:7059   */\n      mstore\n        /* \"#utility.yul\":6950:7065   */\n      pop\n      pop\n      jump\t// out\n        /* \"#utility.yul\":7071:7289   */\n    tag_74:\n        /* \"#utility.yul\":7162:7166   */\n      0x00\n        /* \"#utility.yul\":7200:7202   */\n      0x20\n        /* \"#utility.yul\":7189:7198   */\n      dup3\n        /* \"#utility.yul\":7185:7203   */\n      add\n        /* \"#utility.yul\":7177:7203   */\n      swap1\n      pop\n        /* \"#utility.yul\":7213:7282   */\n      tag_322\n        /* \"#utility.yul\":7279:7280   */\n      0x00\n        /* \"#utility.yul\":7268:7277   */\n      dup4\n        /* \"#utility.yul\":7264:7281   */\n      add\n        /* \"#utility.yul\":7255:7261   */\n      dup5\n        /* \"#utility.yul\":7213:7282   */\n      tag_229\n      jump\t// in\n    tag_322:\n        /* \"#utility.yul\":7071:7289   */\n      swap3\n      swap2\n      pop\n      pop\n      jump\t// out\n        /* \"#utility.yul\":7295:7454   */\n    tag_230:\n        /* \"#utility.yul\":7369:7380   */\n      0x00\n        /* \"#utility.yul\":7403:7409   */\n      dup3\n        /* \"#utility.yul\":7398:7401   */\n      dup3\n        /* \"#utility.yul\":7391:7410   */\n      mstore\n        /* \"#utility.yul\":7443:7447   */\n      0x20\n        /* \"#utility.yul\":7438:7441   */\n      dup3\n        /* \"#utility.yul\":7434:7448   */\n      add\n        /* \"#utility.yul\":7419:7448   */\n      swap1\n      pop\n        /* \"#utility.yul\":7295:7454   */\n      swap3\n      swap2\n      pop\n      pop\n      jump\t// out\n        /* \"#utility.yul\":7460:7804   */\n    tag_231:\n        /* \"#utility.yul\":7538:7541   */\n      0x00\n        /* \"#utility.yul\":7566:7605   */\n      tag_325\n        /* \"#utility.yul\":7599:7604   */\n      dup3\n        /* \"#utility.yul\":7566:7605   */\n      tag_223\n      jump\t// in\n    tag_325:\n        /* \"#utility.yul\":7621:7682   */\n      tag_326\n        /* \"#utility.yul\":7675:7681   */\n      dup2\n        /* \"#utility.yul\":7670:7673   */\n      dup6\n        /* \"#utility.yul\":7621:7682   */\n      tag_230\n      jump\t// in\n    tag_326:\n        /* \"#utility.yul\":7614:7682   */\n      swap4\n      pop\n        /* \"#utility.yul\":7691:7743   */\n      tag_327\n        /* \"#utility.yul\":7736:7742   */\n      dup2\n        /* \"#utility.yul\":7731:7734   */\n      dup6\n        /* \"#utility.yul\":7724:7728   */\n      0x20\n        /* \"#utility.yul\":7717:7722   */\n      dup7\n        /* \"#utility.yul\":7713:7729   */\n      add\n        /* \"#utility.yul\":7691:7743   */\n      tag_225\n      jump\t// in\n    tag_327:\n        /* \"#utility.yul\":7768:7797   */\n      tag_328\n        /* \"#utility.yul\":7790:7796   */\n      dup2\n        /* \"#utility.yul\":7768:7797   */\n      tag_226\n      jump\t// in\n    tag_328:\n        /* \"#utility.yul\":7763:7766   */\n      dup5\n        /* \"#utility.yul\":7759:7798   */\n      add\n        /* \"#utility.yul\":7752:7798   */\n      swap2\n      pop\n        /* \"#utility.yul\":7542:7804   */\n      pop\n        /* \"#utility.yul\":7460:7804   */\n      swap3\n      swap2\n      pop\n      pop\n      jump\t// out\n        /* \"#utility.yul\":7810:7934   */\n    tag_232:\n        /* \"#utility.yul\":7887:7893   */\n      0x00\n        /* \"#utility.yul\":7921:7926   */\n      dup2\n        /* \"#utility.yul\":7915:7927   */\n      mload\n        /* \"#utility.yul\":7905:7927   */\n      swap1\n      pop\n        /* \"#utility.yul\":7810:7934   */\n      swap2\n      swap1\n      pop\n      jump\t// out\n        /* \"#utility.yul\":7940:8124   */\n    tag_233:\n        /* \"#utility.yul\":8039:8050   */\n      0x00\n        /* \"#utility.yul\":8073:8079   */\n      dup3\n        /* \"#utility.yul\":8068:8071   */\n      dup3\n        /* \"#utility.yul\":8061:8080   */\n      mstore\n        /* \"#utility.yul\":8113:8117   */\n      0x20\n        /* \"#utility.yul\":8108:8111   */\n      dup3\n        /* \"#utility.yul\":8104:8118   */\n      add\n        /* \"#utility.yul\":8089:8118   */\n      swap1\n      pop\n        /* \"#utility.yul\":7940:8124   */\n      swap3\n      swap2\n      pop\n      pop\n      jump\t// out\n        /* \"#utility.yul\":8130:8272   */\n    tag_234:\n        /* \"#utility.yul\":8207:8211   */\n      0x00\n        /* \"#utility.yul\":8230:8233   */\n      dup2\n        /* \"#utility.yul\":8222:8233   */\n      swap1\n      pop\n        /* \"#utility.yul\":8260:8264   */\n      0x20\n        /* \"#utility.yul\":8255:8258   */\n      dup3\n        /* \"#utility.yul\":8251:8265   */\n      add\n        /* \"#utility.yul\":8243:8265   */\n      swap1\n      pop\n        /* \"#utility.yul\":8130:8272   */\n      swap2\n      swap1\n      pop\n      jump\t// out\n        /* \"#utility.yul\":8278:8474   */\n    tag_235:\n        /* \"#utility.yul\":8367:8377   */\n      0x00\n        /* \"#utility.yul\":8402:8468   */\n      tag_333\n        /* \"#utility.yul\":8464:8467   */\n      dup4\n        /* \"#utility.yul\":8456:8462   */\n      dup4\n        /* \"#utility.yul\":8402:8468   */\n      tag_231\n      jump\t// in\n    tag_333:\n        /* \"#utility.yul\":8388:8468   */\n      swap1\n      pop\n        /* \"#utility.yul\":8278:8474   */\n      swap3\n      swap2\n      pop\n      pop\n      jump\t// out\n        /* \"#utility.yul\":8480:8603   */\n    tag_236:\n        /* \"#utility.yul\":8560:8564   */\n      0x00\n        /* \"#utility.yul\":8592:8596   */\n      0x20\n        /* \"#utility.yul\":8587:8590   */\n      dup3\n        /* \"#utility.yul\":8583:8597   */\n      add\n        /* \"#utility.yul\":8575:8597   */\n      swap1\n      pop\n        /* \"#utility.yul\":8480:8603   */\n      swap2\n      swap1\n      pop\n      jump\t// out\n        /* \"#utility.yul\":8637:9608   */\n    tag_237:\n        /* \"#utility.yul\":8766:8769   */\n      0x00\n        /* \"#utility.yul\":8795:8859   */\n      tag_336\n        /* \"#utility.yul\":8853:8858   */\n      dup3\n        /* \"#utility.yul\":8795:8859   */\n      tag_232\n      jump\t// in\n    tag_336:\n        /* \"#utility.yul\":8875:8961   */\n      tag_337\n        /* \"#utility.yul\":8954:8960   */\n      dup2\n        /* \"#utility.yul\":8949:8952   */\n      dup6\n        /* \"#utility.yul\":8875:8961   */\n      tag_233\n      jump\t// in\n    tag_337:\n        /* \"#utility.yul\":8868:8961   */\n      swap4\n      pop\n        /* \"#utility.yul\":8987:8990   */\n      dup4\n        /* \"#utility.yul\":9032:9036   */\n      0x20\n        /* \"#utility.yul\":9024:9030   */\n      dup3\n        /* \"#utility.yul\":9020:9037   */\n      mul\n        /* \"#utility.yul\":9015:9018   */\n      dup6\n        /* \"#utility.yul\":9011:9038   */\n      add\n        /* \"#utility.yul\":9062:9128   */\n      tag_338\n        /* \"#utility.yul\":9122:9127   */\n      dup6\n        /* \"#utility.yul\":9062:9128   */\n      tag_234\n      jump\t// in\n    tag_338:\n        /* \"#utility.yul\":9151:9158   */\n      dup1\n        /* \"#utility.yul\":9182:9183   */\n      0x00\n        /* \"#utility.yul\":9167:9563   */\n    tag_339:\n        /* \"#utility.yul\":9192:9198   */\n      dup6\n        /* \"#utility.yul\":9189:9190   */\n      dup2\n        /* \"#utility.yul\":9186:9199   */\n      lt\n        /* \"#utility.yul\":9167:9563   */\n      iszero\n      tag_341\n      jumpi\n        /* \"#utility.yul\":9263:9272   */\n      dup5\n        /* \"#utility.yul\":9257:9261   */\n      dup5\n        /* \"#utility.yul\":9253:9273   */\n      sub\n        /* \"#utility.yul\":9248:9251   */\n      dup10\n        /* \"#utility.yul\":9241:9274   */\n      mstore\n        /* \"#utility.yul\":9314:9320   */\n      dup2\n        /* \"#utility.yul\":9308:9321   */\n      mload\n        /* \"#utility.yul\":9342:9426   */\n      tag_342\n        /* \"#utility.yul\":9421:9425   */\n      dup6\n        /* \"#utility.yul\":9406:9419   */\n      dup3\n        /* \"#utility.yul\":9342:9426   */\n      tag_235\n      jump\t// in\n    tag_342:\n        /* \"#utility.yul\":9334:9426   */\n      swap5\n      pop\n        /* \"#utility.yul\":9449:9519   */\n      tag_343\n        /* \"#utility.yul\":9512:9518   */\n      dup4\n        /* \"#utility.yul\":9449:9519   */\n      tag_236\n      jump\t// in\n    tag_343:\n        /* \"#utility.yul\":9439:9519   */\n      swap3\n      pop\n        /* \"#utility.yul\":9548:9552   */\n      0x20\n        /* \"#utility.yul\":9543:9546   */\n      dup11\n        /* \"#utility.yul\":9539:9553   */\n      add\n        /* \"#utility.yul\":9532:9553   */\n      swap10\n      pop\n        /* \"#utility.yul\":9227:9563   */\n      pop\n        /* \"#utility.yul\":9214:9215   */\n      0x01\n        /* \"#utility.yul\":9211:9212   */\n      dup2\n        /* \"#utility.yul\":9207:9216   */\n      add\n        /* \"#utility.yul\":9202:9216   */\n      swap1\n      pop\n        /* \"#utility.yul\":9167:9563   */\n      jump(tag_339)\n    tag_341:\n        /* \"#utility.yul\":9171:9185   */\n      pop\n        /* \"#utility.yul\":9579:9583   */\n      dup3\n        /* \"#utility.yul\":9572:9583   */\n      swap8\n      pop\n        /* \"#utility.yul\":9599:9602   */\n      dup8\n        /* \"#utility.yul\":9592:9602   */\n      swap6\n      pop\n        /* \"#utility.yul\":8771:9608   */\n      pop\n      pop\n      pop\n      pop\n      pop\n        /* \"#utility.yul\":8637:9608   */\n      swap3\n      swap2\n      pop\n      pop\n      jump\t// out\n        /* \"#utility.yul\":9676:10585   */\n    tag_238:\n        /* \"#utility.yul\":9799:9802   */\n      0x00\n        /* \"#utility.yul\":9835:9839   */\n      0x60\n        /* \"#utility.yul\":9830:9833   */\n      dup4\n        /* \"#utility.yul\":9826:9840   */\n      add\n        /* \"#utility.yul\":9921:9925   */\n      0x00\n        /* \"#utility.yul\":9914:9919   */\n      dup4\n        /* \"#utility.yul\":9910:9926   */\n      add\n        /* \"#utility.yul\":9904:9927   */\n      mload\n        /* \"#utility.yul\":9940:10003   */\n      tag_345\n        /* \"#utility.yul\":9997:10001   */\n      0x00\n        /* \"#utility.yul\":9992:9995   */\n      dup7\n        /* \"#utility.yul\":9988:10002   */\n      add\n        /* \"#utility.yul\":9974:9986   */\n      dup3\n        /* \"#utility.yul\":9940:10003   */\n      tag_217\n      jump\t// in\n    tag_345:\n        /* \"#utility.yul\":9850:10013   */\n      pop\n        /* \"#utility.yul\":10095:10099   */\n      0x20\n        /* \"#utility.yul\":10088:10093   */\n      dup4\n        /* \"#utility.yul\":10084:10100   */\n      add\n        /* \"#utility.yul\":10078:10101   */\n      mload\n        /* \"#utility.yul\":10148:10151   */\n      dup5\n        /* \"#utility.yul\":10142:10146   */\n      dup3\n        /* \"#utility.yul\":10138:10152   */\n      sub\n        /* \"#utility.yul\":10131:10135   */\n      0x20\n        /* \"#utility.yul\":10126:10129   */\n      dup7\n        /* \"#utility.yul\":10122:10136   */\n      add\n        /* \"#utility.yul\":10115:10153   */\n      mstore\n        /* \"#utility.yul\":10174:10247   */\n      tag_346\n        /* \"#utility.yul\":10242:10246   */\n      dup3\n        /* \"#utility.yul\":10228:10240   */\n      dup3\n        /* \"#utility.yul\":10174:10247   */\n      tag_231\n      jump\t// in\n    tag_346:\n        /* \"#utility.yul\":10166:10247   */\n      swap2\n      pop\n        /* \"#utility.yul\":10023:10258   */\n      pop\n        /* \"#utility.yul\":10345:10349   */\n      0x40\n        /* \"#utility.yul\":10338:10343   */\n      dup4\n        /* \"#utility.yul\":10334:10350   */\n      add\n        /* \"#utility.yul\":10328:10351   */\n      mload\n        /* \"#utility.yul\":10398:10401   */\n      dup5\n        /* \"#utility.yul\":10392:10396   */\n      dup3\n        /* \"#utility.yul\":10388:10402   */\n      sub\n        /* \"#utility.yul\":10381:10385   */\n      0x40\n        /* \"#utility.yul\":10376:10379   */\n      dup7\n        /* \"#utility.yul\":10372:10386   */\n      add\n        /* \"#utility.yul\":10365:10403   */\n      mstore\n        /* \"#utility.yul\":10424:10547   */\n      tag_347\n        /* \"#utility.yul\":10542:10546   */\n      dup3\n        /* \"#utility.yul\":10528:10540   */\n      dup3\n        /* \"#utility.yul\":10424:10547   */\n      tag_237\n      jump\t// in\n    tag_347:\n        /* \"#utility.yul\":10416:10547   */\n      swap2\n      pop\n        /* \"#utility.yul\":10268:10558   */\n      pop\n        /* \"#utility.yul\":10575:10579   */\n      dup1\n        /* \"#utility.yul\":10568:10579   */\n      swap2\n      pop\n        /* \"#utility.yul\":9804:10585   */\n      pop\n        /* \"#utility.yul\":9676:10585   */\n      swap3\n      swap2\n      pop\n      pop\n      jump\t// out\n        /* \"#utility.yul\":10591:10972   */\n    tag_88:\n        /* \"#utility.yul\":10738:10742   */\n      0x00\n        /* \"#utility.yul\":10776:10778   */\n      0x20\n        /* \"#utility.yul\":10765:10774   */\n      dup3\n        /* \"#utility.yul\":10761:10779   */\n      add\n        /* \"#utility.yul\":10753:10779   */\n      swap1\n      pop\n        /* \"#utility.yul\":10825:10834   */\n      dup2\n        /* \"#utility.yul\":10819:10823   */\n      dup2\n        /* \"#utility.yul\":10815:10835   */\n      sub\n        /* \"#utility.yul\":10811:10812   */\n      0x00\n        /* \"#utility.yul\":10800:10809   */\n      dup4\n        /* \"#utility.yul\":10796:10813   */\n      add\n        /* \"#utility.yul\":10789:10836   */\n      mstore\n        /* \"#utility.yul\":10853:10965   */\n      tag_349\n        /* \"#utility.yul\":10960:10964   */\n      dup2\n        /* \"#utility.yul\":10951:10957   */\n      dup5\n        /* \"#utility.yul\":10853:10965   */\n      tag_238\n      jump\t// in\n    tag_349:\n        /* \"#utility.yul\":10845:10965   */\n      swap1\n      pop\n        /* \"#utility.yul\":10591:10972   */\n      swap3\n      swap2\n      pop\n      pop\n      jump\t// out\n        /* \"#utility.yul\":10978:11291   */\n    tag_96:\n        /* \"#utility.yul\":11091:11095   */\n      0x00\n        /* \"#utility.yul\":11129:11131   */\n      0x20\n        /* \"#utility.yul\":11118:11127   */\n      dup3\n        /* \"#utility.yul\":11114:11132   */\n      add\n        /* \"#utility.yul\":11106:11132   */\n      swap1\n      pop\n        /* \"#utility.yul\":11178:11187   */\n      dup2\n        /* \"#utility.yul\":11172:11176   */\n      dup2\n        /* \"#utility.yul\":11168:11188   */\n      sub\n        /* \"#utility.yul\":11164:11165   */\n      0x00\n        /* \"#utility.yul\":11153:11162   */\n      dup4\n        /* \"#utility.yul\":11149:11166   */\n      add\n        /* \"#utility.yul\":11142:11189   */\n      mstore\n        /* \"#utility.yul\":11206:11284   */\n      tag_351\n        /* \"#utility.yul\":11279:11283   */\n      dup2\n        /* \"#utility.yul\":11270:11276   */\n      dup5\n        /* \"#utility.yul\":11206:11284   */\n      tag_227\n      jump\t// in\n    tag_351:\n        /* \"#utility.yul\":11198:11284   */\n      swap1\n      pop\n        /* \"#utility.yul\":10978:11291   */\n      swap3\n      swap2\n      pop\n      pop\n      jump\t// out\n        /* \"#utility.yul\":11297:11477   */\n    tag_239:\n        /* \"#utility.yul\":11345:11422   */\n      0x4e487b7100000000000000000000000000000000000000000000000000000000\n        /* \"#utility.yul\":11342:11343   */\n      0x00\n        /* \"#utility.yul\":11335:11423   */\n      mstore\n        /* \"#utility.yul\":11442:11446   */\n      0x11\n        /* \"#utility.yul\":11439:11440   */\n      0x04\n        /* \"#utility.yul\":11432:11447   */\n      mstore\n        /* \"#utility.yul\":11466:11470   */\n      0x24\n        /* \"#utility.yul\":11463:11464   */\n      0x00\n        /* \"#utility.yul\":11456:11471   */\n      revert\n        /* \"#utility.yul\":11483:11788   */\n    tag_106:\n        /* \"#utility.yul\":11523:11526   */\n      0x00\n        /* \"#utility.yul\":11542:11562   */\n      tag_354\n        /* \"#utility.yul\":11560:11561   */\n      dup3\n        /* \"#utility.yul\":11542:11562   */\n      tag_200\n      jump\t// in\n    tag_354:\n        /* \"#utility.yul\":11537:11562   */\n      swap2\n      pop\n        /* \"#utility.yul\":11576:11596   */\n      tag_355\n        /* \"#utility.yul\":11594:11595   */\n      dup4\n        /* \"#utility.yul\":11576:11596   */\n      tag_200\n      jump\t// in\n    tag_355:\n        /* \"#utility.yul\":11571:11596   */\n      swap3\n      pop\n        /* \"#utility.yul\":11730:11731   */\n      dup3\n        /* \"#utility.yul\":11662:11728   */\n      0xffffffffffffffffffffffffffffffffffffffffffffffffffffffffffffffff\n        /* \"#utility.yul\":11658:11732   */\n      sub\n        /* \"#utility.yul\":11655:11656   */\n      dup3\n        /* \"#utility.yul\":11652:11733   */\n      gt\n        /* \"#utility.yul\":11649:11756   */\n      iszero\n      tag_356\n      jumpi\n        /* \"#utility.yul\":11736:11754   */\n      tag_357\n      tag_239\n      jump\t// in\n    tag_357:\n        /* \"#utility.yul\":11649:11756   */\n    tag_356:\n        /* \"#utility.yul\":11780:11781   */\n      dup3\n        /* \"#utility.yul\":11777:11778   */\n      dup3\n        /* \"#utility.yul\":11773:11782   */\n      add\n        /* \"#utility.yul\":11766:11782   */\n      swap1\n      pop\n        /* \"#utility.yul\":11483:11788   */\n      swap3\n      swap2\n      pop\n      pop\n      jump\t// out\n        /* \"#utility.yul\":11794:11962   */\n    tag_240:\n        /* \"#utility.yul\":11934:11954   */\n      0x696e646578206f7574206f6620626f756e640000000000000000000000000000\n        /* \"#utility.yul\":11930:11931   */\n      0x00\n        /* \"#utility.yul\":11922:11928   */\n      dup3\n        /* \"#utility.yul\":11918:11932   */\n      add\n        /* \"#utility.yul\":11911:11955   */\n      mstore\n        /* \"#utility.yul\":11794:11962   */\n      pop\n      jump\t// out\n        /* \"#utility.yul\":11968:12334   */\n    tag_241:\n        /* \"#utility.yul\":12110:12113   */\n      0x00\n        /* \"#utility.yul\":12131:12198   */\n      tag_360\n        /* \"#utility.yul\":12195:12197   */\n      0x12\n        /* \"#utility.yul\":12190:12193   */\n      dup4\n        /* \"#utility.yul\":12131:12198   */\n      tag_224\n      jump\t// in\n    tag_360:\n        /* \"#utility.yul\":12124:12198   */\n      swap2\n      pop\n        /* \"#utility.yul\":12207:12300   */\n      tag_361\n        /* \"#utility.yul\":12296:12299   */\n      dup3\n        /* \"#utility.yul\":12207:12300   */\n      tag_240\n      jump\t// in\n    tag_361:\n        /* \"#utility.yul\":12325:12327   */\n      0x20\n        /* \"#utility.yul\":12320:12323   */\n      dup3\n        /* \"#utility.yul\":12316:12328   */\n      add\n        /* \"#utility.yul\":12309:12328   */\n      swap1\n      pop\n        /* \"#utility.yul\":11968:12334   */\n      swap2\n      swap1\n      pop\n      jump\t// out\n        /* \"#utility.yul\":12340:12759   */\n    tag_111:\n        /* \"#utility.yul\":12506:12510   */\n      0x00\n        /* \"#utility.yul\":12544:12546   */\n      0x20\n        /* \"#utility.yul\":12533:12542   */\n      dup3\n        /* \"#utility.yul\":12529:12547   */\n      add\n        /* \"#utility.yul\":12521:12547   */\n      swap1\n      pop\n        /* \"#utility.yul\":12593:12602   */\n      dup2\n        /* \"#utility.yul\":12587:12591   */\n      dup2\n        /* \"#utility.yul\":12583:12603   */\n      sub\n        /* \"#utility.yul\":12579:12580   */\n      0x00\n        /* \"#utility.yul\":12568:12577   */\n      dup4\n        /* \"#utility.yul\":12564:12581   */\n      add\n        /* \"#utility.yul\":12557:12604   */\n      mstore\n        /* \"#utility.yul\":12621:12752   */\n      tag_363\n        /* \"#utility.yul\":12747:12751   */\n      dup2\n        /* \"#utility.yul\":12621:12752   */\n      tag_241\n      jump\t// in\n    tag_363:\n        /* \"#utility.yul\":12613:12752   */\n      swap1\n      pop\n        /* \"#utility.yul\":12340:12759   */\n      swap2\n      swap1\n      pop\n      jump\t// out\n        /* \"#utility.yul\":12765:12956   */\n    tag_116:\n        /* \"#utility.yul\":12805:12809   */\n      0x00\n        /* \"#utility.yul\":12825:12845   */\n      tag_365\n        /* \"#utility.yul\":12843:12844   */\n      dup3\n        /* \"#utility.yul\":12825:12845   */\n      tag_200\n      jump\t// in\n    tag_365:\n        /* \"#utility.yul\":12820:12845   */\n      swap2\n      pop\n        /* \"#utility.yul\":12859:12879   */\n      tag_366\n        /* \"#utility.yul\":12877:12878   */\n      dup4\n        /* \"#utility.yul\":12859:12879   */\n      tag_200\n      jump\t// in\n    tag_366:\n        /* \"#utility.yul\":12854:12879   */\n      swap3\n      pop\n        /* \"#utility.yul\":12898:12899   */\n      dup3\n        /* \"#utility.yul\":12895:12896   */\n      dup3\n        /* \"#utility.yul\":12892:12900   */\n      lt\n        /* \"#utility.yul\":12889:12923   */\n      iszero\n      tag_367\n      jumpi\n        /* \"#utility.yul\":12903:12921   */\n      tag_368\n      tag_239\n      jump\t// in\n    tag_368:\n        /* \"#utility.yul\":12889:12923   */\n    tag_367:\n        /* \"#utility.yul\":12948:12949   */\n      dup3\n        /* \"#utility.yul\":12945:12946   */\n      dup3\n        /* \"#utility.yul\":12941:12950   */\n      sub\n        /* \"#utility.yul\":12933:12950   */\n      swap1\n      pop\n        /* \"#utility.yul\":12765:12956   */\n      swap3\n      swap2\n      pop\n      pop\n      jump\t// out\n        /* \"#utility.yul\":12962:13142   */\n    tag_120:\n        /* \"#utility.yul\":13010:13087   */\n      0x4e487b7100000000000000000000000000000000000000000000000000000000\n        /* \"#utility.yul\":13007:13008   */\n      0x00\n        /* \"#utility.yul\":13000:13088   */\n      mstore\n        /* \"#utility.yul\":13107:13111   */\n      0x32\n        /* \"#utility.yul\":13104:13105   */\n      0x04\n        /* \"#utility.yul\":13097:13112   */\n      mstore\n        /* \"#utility.yul\":13131:13135   */\n      0x24\n        /* \"#utility.yul\":13128:13129   */\n      0x00\n        /* \"#utility.yul\":13121:13136   */\n      revert\n        /* \"#utility.yul\":13148:13381   */\n    tag_126:\n        /* \"#utility.yul\":13187:13190   */\n      0x00\n        /* \"#utility.yul\":13210:13234   */\n      tag_371\n        /* \"#utility.yul\":13228:13233   */\n      dup3\n        /* \"#utility.yul\":13210:13234   */\n      tag_200\n      jump\t// in\n    tag_371:\n        /* \"#utility.yul\":13201:13234   */\n      swap2\n      pop\n        /* \"#utility.yul\":13256:13322   */\n      0xffffffffffffffffffffffffffffffffffffffffffffffffffffffffffffffff\n        /* \"#utility.yul\":13249:13254   */\n      dup3\n        /* \"#utility.yul\":13246:13323   */\n      eq\n        /* \"#utility.yul\":13243:13346   */\n      iszero\n      tag_372\n      jumpi\n        /* \"#utility.yul\":13326:13344   */\n      tag_373\n      tag_239\n      jump\t// in\n    tag_373:\n        /* \"#utility.yul\":13243:13346   */\n    tag_372:\n        /* \"#utility.yul\":13373:13374   */\n      0x01\n        /* \"#utility.yul\":13366:13371   */\n      dup3\n        /* \"#utility.yul\":13362:13375   */\n      add\n        /* \"#utility.yul\":13355:13375   */\n      swap1\n      pop\n        /* \"#utility.yul\":13148:13381   */\n      swap2\n      swap1\n      pop\n      jump\t// out\n        /* \"#utility.yul\":13387:13567   */\n    tag_129:\n        /* \"#utility.yul\":13435:13512   */\n      0x4e487b7100000000000000000000000000000000000000000000000000000000\n        /* \"#utility.yul\":13432:13433   */\n      0x00\n        /* \"#utility.yul\":13425:13513   */\n      mstore\n        /* \"#utility.yul\":13532:13536   */\n      0x31\n        /* \"#utility.yul\":13529:13530   */\n      0x04\n        /* \"#utility.yul\":13522:13537   */\n      mstore\n        /* \"#utility.yul\":13556:13560   */\n      0x24\n        /* \"#utility.yul\":13553:13554   */\n      0x00\n        /* \"#utility.yul\":13546:13561   */\n      revert\n        /* \"#utility.yul\":13573:13753   */\n    tag_242:\n        /* \"#utility.yul\":13621:13698   */\n      0x4e487b7100000000000000000000000000000000000000000000000000000000\n        /* \"#utility.yul\":13618:13619   */\n      0x00\n        /* \"#utility.yul\":13611:13699   */\n      mstore\n        /* \"#utility.yul\":13718:13722   */\n      0x22\n        /* \"#utility.yul\":13715:13716   */\n      0x04\n        /* \"#utility.yul\":13708:13723   */\n      mstore\n        /* \"#utility.yul\":13742:13746   */\n      0x24\n        /* \"#utility.yul\":13739:13740   */\n      0x00\n        /* \"#utility.yul\":13732:13747   */\n      revert\n        /* \"#utility.yul\":13759:14079   */\n    tag_142:\n        /* \"#utility.yul\":13803:13809   */\n      0x00\n        /* \"#utility.yul\":13840:13841   */\n      0x02\n        /* \"#utility.yul\":13834:13838   */\n      dup3\n        /* \"#utility.yul\":13830:13842   */\n      div\n        /* \"#utility.yul\":13820:13842   */\n      swap1\n      pop\n        /* \"#utility.yul\":13887:13888   */\n      0x01\n        /* \"#utility.yul\":13881:13885   */\n      dup3\n        /* \"#utility.yul\":13877:13889   */\n      and\n        /* \"#utility.yul\":13908:13926   */\n      dup1\n        /* \"#utility.yul\":13898:13979   */\n      tag_377\n      jumpi\n        /* \"#utility.yul\":13964:13968   */\n      0x7f\n        /* \"#utility.yul\":13956:13962   */\n      dup3\n        /* \"#utility.yul\":13952:13969   */\n      and\n        /* \"#utility.yul\":13942:13969   */\n      swap2\n      pop\n        /* \"#utility.yul\":13898:13979   */\n    tag_377:\n        /* \"#utility.yul\":14026:14028   */\n      0x20\n        /* \"#utility.yul\":14018:14024   */\n      dup3\n        /* \"#utility.yul\":14015:14029   */\n      lt\n        /* \"#utility.yul\":13995:14013   */\n      dup2\n        /* \"#utility.yul\":13992:14030   */\n      eq\n        /* \"#utility.yul\":13989:14073   */\n      iszero\n      tag_378\n      jumpi\n        /* \"#utility.yul\":14045:14063   */\n      tag_379\n      tag_242\n      jump\t// in\n    tag_379:\n        /* \"#utility.yul\":13989:14073   */\n    tag_378:\n        /* \"#utility.yul\":13810:14079   */\n      pop\n        /* \"#utility.yul\":13759:14079   */\n      swap2\n      swap1\n      pop\n      jump\t// out\n        /* \"#utility.yul\":14085:14265   */\n    tag_175:\n        /* \"#utility.yul\":14133:14210   */\n      0x4e487b7100000000000000000000000000000000000000000000000000000000\n        /* \"#utility.yul\":14130:14131   */\n      0x00\n        /* \"#utility.yul\":14123:14211   */\n      mstore\n        /* \"#utility.yul\":14230:14234   */\n      0x01\n        /* \"#utility.yul\":14227:14228   */\n      0x04\n        /* \"#utility.yul\":14220:14235   */\n      mstore\n        /* \"#utility.yul\":14254:14258   */\n      0x24\n        /* \"#utility.yul\":14251:14252   */\n      0x00\n        /* \"#utility.yul\":14244:14259   */\n      revert\n\n    auxdata: 0xa2646970667358221220a55b3eeca3351255942f23545fd97399fa5e8e031a608f91e3999d69afa2b96964736f6c63430008080033\n}\n",
				"bytecode": {
					"linkReferences": {},
					"object": "60806040526040518060400160405280600b81526020017f48656c6c6f20776f726c640000000000000000000000000000000000000000008152506000908051906020019062000051929190620000d3565b507f80000000000000000000000000000000000000000000000000000000000000006002557f7fffffffffffffffffffffffffffffffffffffffffffffffffffffffffffffff600355348015620000a757600080fd5b50631234567860e01b600460006101000a81548163ffffffff021916908360e01c0217905550620001e8565b828054620000e190620001b2565b90600052602060002090601f01602090048101928262000105576000855562000151565b82601f106200012057805160ff191683800117855562000151565b8280016001018555821562000151579182015b828111156200015057825182559160200191906001019062000133565b5b50905062000160919062000164565b5090565b5b808211156200017f57600081600090555060010162000165565b5090565b7f4e487b7100000000000000000000000000000000000000000000000000000000600052602260045260246000fd5b60006002820490506001821680620001cb57607f821691505b60208210811415620001e257620001e162000183565b5b50919050565b61117f80620001f86000396000f3fe608060405234801561001057600080fd5b50600436106101425760003560e01c806371e5ee5f116100b8578063b3bcfa821161007c578063b3bcfa8214610310578063b439548d1461031a578063c42f3bab14610338578063cfae321714610368578063ebea52e614610386578063f8a8fd6d146103a457610142565b806371e5ee5f1461027c5780637a4c2571146102ac5780637e4e14cc146102ca57806385f73fe9146102e8578063a71913cc1461030657610142565b8063455259cb1161010a578063455259cb146101c95780634cc82215146101e757806352eefbf014610203578063605853581461022157806366a83a4f1461023f578063699450e81461025d57610142565b806306661abd146101475780630dbe671f14610165578063200d2ed2146101835780632e63c301146101a1578063371303c0146101bf575b600080fd5b61014f6103ae565b60405161015c91906109b2565b60405180910390f35b61016d6103b8565b60405161017a9190610a08565b60405180910390f35b61018b6103cb565b6040516101989190610a9a565b60405180910390f35b6101a96103de565b6040516101b69190610a9a565b60405180910390f35b6101c76103e7565b005b6101d1610402565b6040516101de91906109b2565b60405180910390f35b61020160048036038101906101fc9190610ae6565b61040a565b005b61020b6104fc565b6040516102189190610bd1565b60405180910390f35b610229610566565b6040516102369190610c2e565b60405180910390f35b610247610594565b6040516102549190610bd1565b60405180910390f35b6102656105ec565b604051610273929190610ce2565b60405180910390f35b61029660048036038101906102919190610ae6565b610686565b6040516102a391906109b2565b60405180910390f35b6102b46106aa565b6040516102c19190610d2b565b60405180910390f35b6102d26106b0565b6040516102df9190610d2b565b60405180910390f35b6102f06106b6565b6040516102fd9190610a9a565b60405180910390f35b61030e6106bb565b005b6103186106ed565b005b610322610708565b60405161032f9190610ea9565b60405180910390f35b610352600480360381019061034d9190610ae6565b610713565b60405161035f91906109b2565b60405180910390f35b610370610737565b60405161037d9190610ecb565b60405180910390f35b61038e6107c5565b60405161039b9190610a9a565b60405180910390f35b6103ac6107dc565b005b6000600154905090565b600460009054906101000a900460e01b81565b600660009054906101000a900460ff1681565b60006004905090565b60018060008282546103f99190610f1c565b92505081905550565b60003a905090565b6005805490508110610451576040517f08c379a000000000000000000000000000000000000000000000000000000000815260040161044890610fbe565b60405180910390fd5b60008190505b60016005805490506104699190610fde565b8110156104d057600560018261047f9190610f1c565b815481106104905761048f611012565b5b9060005260206000200154600582815481106104af576104ae611012565b5b906000526020600020018190555080806104c890611041565b915050610457565b5060058054806104e3576104e261108a565b5b6001900381819060005260206000200160009055905550565b606060006005805490501161051057600080fd5b600580548060200260200160405190810160405280929190818152602001828054801561055c57602002820191906000526020600020905b815481526020019060010190808311610548575b5050505050905090565b6000600460009054906101000a900460e01b60006004811061058b5761058a611012565b5b1a60f81b905090565b6060600a8054806020026020016040519081016040528092919081815260200182805480156105e257602002820191906000526020600020905b8154815260200190600101908083116105ce575b5050505050905090565b6007806000015490806001018054610603906110e8565b80601f016020809104026020016040519081016040528092919081815260200182805461062f906110e8565b801561067c5780601f106106515761010080835404028352916020019161067c565b820191906000526020600020905b81548152906001019060200180831161065f57829003601f168201915b5050505050905082565b6005818154811061069657600080fd5b906000526020600020016000915090505481565b60035481565b60025481565b600090565b600a6106c5610402565b9080600181540180825580915050600190039060005260206000200160009091909190915055565b60018060008282546106ff9190610fde565b92505081905550565b610710610909565b90565b600a818154811061072357600080fd5b906000526020600020016000915090505481565b60008054610744906110e8565b80601f0160208091040260200160405190810160405280929190818152602001828054610770906110e8565b80156107bd5780601f10610792576101008083540402835291602001916107bd565b820191906000526020600020905b8154815290600101906020018083116107a057829003601f168201915b505050505081565b6000600660009054906101000a900460ff16905090565b6040518060a00160405280600160ff168152602001600260ff168152602001600360ff168152602001600460ff168152602001600560ff16815250600590600561082792919061092a565b50610832600261040a565b6001600560008154811061084957610848611012565b5b9060005260206000200154146108625761086161111a565b5b6002600560018154811061087957610878611012565b5b9060005260206000200154146108925761089161111a565b5b600460056002815481106108a9576108a8611012565b5b9060005260206000200154146108c2576108c161111a565b5b6005806003815481106108d8576108d7611012565b5b9060005260206000200154146108f1576108f061111a565b5b6004600580549050146109075761090661111a565b5b565b60405180606001604052806000815260200160608152602001606081525090565b82805482825590600052602060002090810192821561096b579160200282015b8281111561096a578251829060ff1690559160200191906001019061094a565b5b509050610978919061097c565b5090565b5b8082111561099557600081600090555060010161097d565b5090565b6000819050919050565b6109ac81610999565b82525050565b60006020820190506109c760008301846109a3565b92915050565b60007fffffffff0000000000000000000000000000000000000000000000000000000082169050919050565b610a02816109cd565b82525050565b6000602082019050610a1d60008301846109f9565b92915050565b7f4e487b7100000000000000000000000000000000000000000000000000000000600052602160045260246000fd5b60058110610a6357610a62610a23565b5b50565b6000819050610a7482610a52565b919050565b6000610a8482610a66565b9050919050565b610a9481610a79565b82525050565b6000602082019050610aaf6000830184610a8b565b92915050565b600080fd5b610ac381610999565b8114610ace57600080fd5b50565b600081359050610ae081610aba565b92915050565b600060208284031215610afc57610afb610ab5565b5b6000610b0a84828501610ad1565b91505092915050565b600081519050919050565b600082825260208201905092915050565b6000819050602082019050919050565b610b4881610999565b82525050565b6000610b5a8383610b3f565b60208301905092915050565b6000602082019050919050565b6000610b7e82610b13565b610b888185610b1e565b9350610b9383610b2f565b8060005b83811015610bc4578151610bab8882610b4e565b9750610bb683610b66565b925050600181019050610b97565b5085935050505092915050565b60006020820190508181036000830152610beb8184610b73565b905092915050565b60007fff0000000000000000000000000000000000000000000000000000000000000082169050919050565b610c2881610bf3565b82525050565b6000602082019050610c436000830184610c1f565b92915050565b600081519050919050565b600082825260208201905092915050565b60005b83811015610c83578082015181840152602081019050610c68565b83811115610c92576000848401525b50505050565b6000601f19601f8301169050919050565b6000610cb482610c49565b610cbe8185610c54565b9350610cce818560208601610c65565b610cd781610c98565b840191505092915050565b6000604082019050610cf760008301856109a3565b8181036020830152610d098184610ca9565b90509392505050565b6000819050919050565b610d2581610d12565b82525050565b6000602082019050610d406000830184610d1c565b92915050565b600082825260208201905092915050565b6000610d6282610c49565b610d6c8185610d46565b9350610d7c818560208601610c65565b610d8581610c98565b840191505092915050565b600081519050919050565b600082825260208201905092915050565b6000819050602082019050919050565b6000610dc88383610d57565b905092915050565b6000602082019050919050565b6000610de882610d90565b610df28185610d9b565b935083602082028501610e0485610dac565b8060005b85811015610e405784840389528151610e218582610dbc565b9450610e2c83610dd0565b925060208a01995050600181019050610e08565b50829750879550505050505092915050565b6000606083016000830151610e6a6000860182610b3f565b5060208301518482036020860152610e828282610d57565b91505060408301518482036040860152610e9c8282610ddd565b9150508091505092915050565b60006020820190508181036000830152610ec38184610e52565b905092915050565b60006020820190508181036000830152610ee58184610ca9565b905092915050565b7f4e487b7100000000000000000000000000000000000000000000000000000000600052601160045260246000fd5b6000610f2782610999565b9150610f3283610999565b9250827fffffffffffffffffffffffffffffffffffffffffffffffffffffffffffffffff03821115610f6757610f66610eed565b5b828201905092915050565b7f696e646578206f7574206f6620626f756e640000000000000000000000000000600082015250565b6000610fa8601283610c54565b9150610fb382610f72565b602082019050919050565b60006020820190508181036000830152610fd781610f9b565b9050919050565b6000610fe982610999565b9150610ff483610999565b92508282101561100757611006610eed565b5b828203905092915050565b7f4e487b7100000000000000000000000000000000000000000000000000000000600052603260045260246000fd5b600061104c82610999565b91507fffffffffffffffffffffffffffffffffffffffffffffffffffffffffffffffff82141561107f5761107e610eed565b5b600182019050919050565b7f4e487b7100000000000000000000000000000000000000000000000000000000600052603160045260246000fd5b7f4e487b7100000000000000000000000000000000000000000000000000000000600052602260045260246000fd5b6000600282049050600182168061110057607f821691505b60208210811415611114576111136110b9565b5b50919050565b7f4e487b7100000000000000000000000000000000000000000000000000000000600052600160045260246000fdfea2646970667358221220a55b3eeca3351255942f23545fd97399fa5e8e031a608f91e3999d69afa2b96964736f6c63430008080033",
					"opcodes": "PUSH1 0x80 PUSH1 0x40 MSTORE PUSH1 0x40 MLOAD DUP1 PUSH1 0x40 ADD PUSH1 0x40 MSTORE DUP1 PUSH1 0xB DUP2 MSTORE PUSH1 0x20 ADD PUSH32 0x48656C6C6F20776F726C64000000000000000000000000000000000000000000 DUP2 MSTORE POP PUSH1 0x0 SWAP1 DUP1 MLOAD SWAP1 PUSH1 0x20 ADD SWAP1 PUSH3 0x51 SWAP3 SWAP2 SWAP1 PUSH3 0xD3 JUMP JUMPDEST POP PUSH32 0x8000000000000000000000000000000000000000000000000000000000000000 PUSH1 0x2 SSTORE PUSH32 0x7FFFFFFFFFFFFFFFFFFFFFFFFFFFFFFFFFFFFFFFFFFFFFFFFFFFFFFFFFFFFFFF PUSH1 0x3 SSTORE CALLVALUE DUP1 ISZERO PUSH3 0xA7 JUMPI PUSH1 0x0 DUP1 REVERT JUMPDEST POP PUSH4 0x12345678 PUSH1 0xE0 SHL PUSH1 0x4 PUSH1 0x0 PUSH2 0x100 EXP DUP2 SLOAD DUP2 PUSH4 0xFFFFFFFF MUL NOT AND SWAP1 DUP4 PUSH1 0xE0 SHR MUL OR SWAP1 SSTORE POP PUSH3 0x1E8 JUMP JUMPDEST DUP3 DUP1 SLOAD PUSH3 0xE1 SWAP1 PUSH3 0x1B2 JUMP JUMPDEST SWAP1 PUSH1 0x0 MSTORE PUSH1 0x20 PUSH1 0x0 KECCAK256 SWAP1 PUSH1 0x1F ADD PUSH1 0x20 SWAP1 DIV DUP2 ADD SWAP3 DUP3 PUSH3 0x105 JUMPI PUSH1 0x0 DUP6 SSTORE PUSH3 0x151 JUMP JUMPDEST DUP3 PUSH1 0x1F LT PUSH3 0x120 JUMPI DUP1 MLOAD PUSH1 0xFF NOT AND DUP4 DUP1 ADD OR DUP6 SSTORE PUSH3 0x151 JUMP JUMPDEST DUP3 DUP1 ADD PUSH1 0x1 ADD DUP6 SSTORE DUP3 ISZERO PUSH3 0x151 JUMPI SWAP2 DUP3 ADD JUMPDEST DUP3 DUP2 GT ISZERO PUSH3 0x150 JUMPI DUP3 MLOAD DUP3 SSTORE SWAP2 PUSH1 0x20 ADD SWAP2 SWAP1 PUSH1 0x1 ADD SWAP1 PUSH3 0x133 JUMP JUMPDEST JUMPDEST POP SWAP1 POP PUSH3 0x160 SWAP2 SWAP1 PUSH3 0x164 JUMP JUMPDEST POP SWAP1 JUMP JUMPDEST JUMPDEST DUP1 DUP3 GT ISZERO PUSH3 0x17F JUMPI PUSH1 0x0 DUP2 PUSH1 0x0 SWAP1 SSTORE POP PUSH1 0x1 ADD PUSH3 0x165 JUMP JUMPDEST POP SWAP1 JUMP JUMPDEST PUSH32 0x4E487B7100000000000000000000000000000000000000000000000000000000 PUSH1 0x0 MSTORE PUSH1 0x22 PUSH1 0x4 MSTORE PUSH1 0x24 PUSH1 0x0 REVERT JUMPDEST PUSH1 0x0 PUSH1 0x2 DUP3 DIV SWAP1 POP PUSH1 0x1 DUP3 AND DUP1 PUSH3 0x1CB JUMPI PUSH1 0x7F DUP3 AND SWAP2 POP JUMPDEST PUSH1 0x20 DUP3 LT DUP2 EQ ISZERO PUSH3 0x1E2 JUMPI PUSH3 0x1E1 PUSH3 0x183 JUMP JUMPDEST JUMPDEST POP SWAP2 SWAP1 POP JUMP JUMPDEST PUSH2 0x117F DUP1 PUSH3 0x1F8 PUSH1 0x0 CODECOPY PUSH1 0x0 RETURN INVALID PUSH1 0x80 PUSH1 0x40 MSTORE CALLVALUE DUP1 ISZERO PUSH2 0x10 JUMPI PUSH1 0x0 DUP1 REVERT JUMPDEST POP PUSH1 0x4 CALLDATASIZE LT PUSH2 0x142 JUMPI PUSH1 0x0 CALLDATALOAD PUSH1 0xE0 SHR DUP1 PUSH4 0x71E5EE5F GT PUSH2 0xB8 JUMPI DUP1 PUSH4 0xB3BCFA82 GT PUSH2 0x7C JUMPI DUP1 PUSH4 0xB3BCFA82 EQ PUSH2 0x310 JUMPI DUP1 PUSH4 0xB439548D EQ PUSH2 0x31A JUMPI DUP1 PUSH4 0xC42F3BAB EQ PUSH2 0x338 JUMPI DUP1 PUSH4 0xCFAE3217 EQ PUSH2 0x368 JUMPI DUP1 PUSH4 0xEBEA52E6 EQ PUSH2 0x386 JUMPI DUP1 PUSH4 0xF8A8FD6D EQ PUSH2 0x3A4 JUMPI PUSH2 0x142 JUMP JUMPDEST DUP1 PUSH4 0x71E5EE5F EQ PUSH2 0x27C JUMPI DUP1 PUSH4 0x7A4C2571 EQ PUSH2 0x2AC JUMPI DUP1 PUSH4 0x7E4E14CC EQ PUSH2 0x2CA JUMPI DUP1 PUSH4 0x85F73FE9 EQ PUSH2 0x2E8 JUMPI DUP1 PUSH4 0xA71913CC EQ PUSH2 0x306 JUMPI PUSH2 0x142 JUMP JUMPDEST DUP1 PUSH4 0x455259CB GT PUSH2 0x10A JUMPI DUP1 PUSH4 0x455259CB EQ PUSH2 0x1C9 JUMPI DUP1 PUSH4 0x4CC82215 EQ PUSH2 0x1E7 JUMPI DUP1 PUSH4 0x52EEFBF0 EQ PUSH2 0x203 JUMPI DUP1 PUSH4 0x60585358 EQ PUSH2 0x221 JUMPI DUP1 PUSH4 0x66A83A4F EQ PUSH2 0x23F JUMPI DUP1 PUSH4 0x699450E8 EQ PUSH2 0x25D JUMPI PUSH2 0x142 JUMP JUMPDEST DUP1 PUSH4 0x6661ABD EQ PUSH2 0x147 JUMPI DUP1 PUSH4 0xDBE671F EQ PUSH2 0x165 JUMPI DUP1 PUSH4 0x200D2ED2 EQ PUSH2 0x183 JUMPI DUP1 PUSH4 0x2E63C301 EQ PUSH2 0x1A1 JUMPI DUP1 PUSH4 0x371303C0 EQ PUSH2 0x1BF JUMPI JUMPDEST PUSH1 0x0 DUP1 REVERT JUMPDEST PUSH2 0x14F PUSH2 0x3AE JUMP JUMPDEST PUSH1 0x40 MLOAD PUSH2 0x15C SWAP2 SWAP1 PUSH2 0x9B2 JUMP JUMPDEST PUSH1 0x40 MLOAD DUP1 SWAP2 SUB SWAP1 RETURN JUMPDEST PUSH2 0x16D PUSH2 0x3B8 JUMP JUMPDEST PUSH1 0x40 MLOAD PUSH2 0x17A SWAP2 SWAP1 PUSH2 0xA08 JUMP JUMPDEST PUSH1 0x40 MLOAD DUP1 SWAP2 SUB SWAP1 RETURN JUMPDEST PUSH2 0x18B PUSH2 0x3CB JUMP JUMPDEST PUSH1 0x40 MLOAD PUSH2 0x198 SWAP2 SWAP1 PUSH2 0xA9A JUMP JUMPDEST PUSH1 0x40 MLOAD DUP1 SWAP2 SUB SWAP1 RETURN JUMPDEST PUSH2 0x1A9 PUSH2 0x3DE JUMP JUMPDEST PUSH1 0x40 MLOAD PUSH2 0x1B6 SWAP2 SWAP1 PUSH2 0xA9A JUMP JUMPDEST PUSH1 0x40 MLOAD DUP1 SWAP2 SUB SWAP1 RETURN JUMPDEST PUSH2 0x1C7 PUSH2 0x3E7 JUMP JUMPDEST STOP JUMPDEST PUSH2 0x1D1 PUSH2 0x402 JUMP JUMPDEST PUSH1 0x40 MLOAD PUSH2 0x1DE SWAP2 SWAP1 PUSH2 0x9B2 JUMP JUMPDEST PUSH1 0x40 MLOAD DUP1 SWAP2 SUB SWAP1 RETURN JUMPDEST PUSH2 0x201 PUSH1 0x4 DUP1 CALLDATASIZE SUB DUP2 ADD SWAP1 PUSH2 0x1FC SWAP2 SWAP1 PUSH2 0xAE6 JUMP JUMPDEST PUSH2 0x40A JUMP JUMPDEST STOP JUMPDEST PUSH2 0x20B PUSH2 0x4FC JUMP JUMPDEST PUSH1 0x40 MLOAD PUSH2 0x218 SWAP2 SWAP1 PUSH2 0xBD1 JUMP JUMPDEST PUSH1 0x40 MLOAD DUP1 SWAP2 SUB SWAP1 RETURN JUMPDEST PUSH2 0x229 PUSH2 0x566 JUMP JUMPDEST PUSH1 0x40 MLOAD PUSH2 0x236 SWAP2 SWAP1 PUSH2 0xC2E JUMP JUMPDEST PUSH1 0x40 MLOAD DUP1 SWAP2 SUB SWAP1 RETURN JUMPDEST PUSH2 0x247 PUSH2 0x594 JUMP JUMPDEST PUSH1 0x40 MLOAD PUSH2 0x254 SWAP2 SWAP1 PUSH2 0xBD1 JUMP JUMPDEST PUSH1 0x40 MLOAD DUP1 SWAP2 SUB SWAP1 RETURN JUMPDEST PUSH2 0x265 PUSH2 0x5EC JUMP JUMPDEST PUSH1 0x40 MLOAD PUSH2 0x273 SWAP3 SWAP2 SWAP1 PUSH2 0xCE2 JUMP JUMPDEST PUSH1 0x40 MLOAD DUP1 SWAP2 SUB SWAP1 RETURN JUMPDEST PUSH2 0x296 PUSH1 0x4 DUP1 CALLDATASIZE SUB DUP2 ADD SWAP1 PUSH2 0x291 SWAP2 SWAP1 PUSH2 0xAE6 JUMP JUMPDEST PUSH2 0x686 JUMP JUMPDEST PUSH1 0x40 MLOAD PUSH2 0x2A3 SWAP2 SWAP1 PUSH2 0x9B2 JUMP JUMPDEST PUSH1 0x40 MLOAD DUP1 SWAP2 SUB SWAP1 RETURN JUMPDEST PUSH2 0x2B4 PUSH2 0x6AA JUMP JUMPDEST PUSH1 0x40 MLOAD PUSH2 0x2C1 SWAP2 SWAP1 PUSH2 0xD2B JUMP JUMPDEST PUSH1 0x40 MLOAD DUP1 SWAP2 SUB SWAP1 RETURN JUMPDEST PUSH2 0x2D2 PUSH2 0x6B0 JUMP JUMPDEST PUSH1 0x40 MLOAD PUSH2 0x2DF SWAP2 SWAP1 PUSH2 0xD2B JUMP JUMPDEST PUSH1 0x40 MLOAD DUP1 SWAP2 SUB SWAP1 RETURN JUMPDEST PUSH2 0x2F0 PUSH2 0x6B6 JUMP JUMPDEST PUSH1 0x40 MLOAD PUSH2 0x2FD SWAP2 SWAP1 PUSH2 0xA9A JUMP JUMPDEST PUSH1 0x40 MLOAD DUP1 SWAP2 SUB SWAP1 RETURN JUMPDEST PUSH2 0x30E PUSH2 0x6BB JUMP JUMPDEST STOP JUMPDEST PUSH2 0x318 PUSH2 0x6ED JUMP JUMPDEST STOP JUMPDEST PUSH2 0x322 PUSH2 0x708 JUMP JUMPDEST PUSH1 0x40 MLOAD PUSH2 0x32F SWAP2 SWAP1 PUSH2 0xEA9 JUMP JUMPDEST PUSH1 0x40 MLOAD DUP1 SWAP2 SUB SWAP1 RETURN JUMPDEST PUSH2 0x352 PUSH1 0x4 DUP1 CALLDATASIZE SUB DUP2 ADD SWAP1 PUSH2 0x34D SWAP2 SWAP1 PUSH2 0xAE6 JUMP JUMPDEST PUSH2 0x713 JUMP JUMPDEST PUSH1 0x40 MLOAD PUSH2 0x35F SWAP2 SWAP1 PUSH2 0x9B2 JUMP JUMPDEST PUSH1 0x40 MLOAD DUP1 SWAP2 SUB SWAP1 RETURN JUMPDEST PUSH2 0x370 PUSH2 0x737 JUMP JUMPDEST PUSH1 0x40 MLOAD PUSH2 0x37D SWAP2 SWAP1 PUSH2 0xECB JUMP JUMPDEST PUSH1 0x40 MLOAD DUP1 SWAP2 SUB SWAP1 RETURN JUMPDEST PUSH2 0x38E PUSH2 0x7C5 JUMP JUMPDEST PUSH1 0x40 MLOAD PUSH2 0x39B SWAP2 SWAP1 PUSH2 0xA9A JUMP JUMPDEST PUSH1 0x40 MLOAD DUP1 SWAP2 SUB SWAP1 RETURN JUMPDEST PUSH2 0x3AC PUSH2 0x7DC JUMP JUMPDEST STOP JUMPDEST PUSH1 0x0 PUSH1 0x1 SLOAD SWAP1 POP SWAP1 JUMP JUMPDEST PUSH1 0x4 PUSH1 0x0 SWAP1 SLOAD SWAP1 PUSH2 0x100 EXP SWAP1 DIV PUSH1 0xE0 SHL DUP2 JUMP JUMPDEST PUSH1 0x6 PUSH1 0x0 SWAP1 SLOAD SWAP1 PUSH2 0x100 EXP SWAP1 DIV PUSH1 0xFF AND DUP2 JUMP JUMPDEST PUSH1 0x0 PUSH1 0x4 SWAP1 POP SWAP1 JUMP JUMPDEST PUSH1 0x1 DUP1 PUSH1 0x0 DUP3 DUP3 SLOAD PUSH2 0x3F9 SWAP2 SWAP1 PUSH2 0xF1C JUMP JUMPDEST SWAP3 POP POP DUP2 SWAP1 SSTORE POP JUMP JUMPDEST PUSH1 0x0 GASPRICE SWAP1 POP SWAP1 JUMP JUMPDEST PUSH1 0x5 DUP1 SLOAD SWAP1 POP DUP2 LT PUSH2 0x451 JUMPI PUSH1 0x40 MLOAD PUSH32 0x8C379A000000000000000000000000000000000000000000000000000000000 DUP2 MSTORE PUSH1 0x4 ADD PUSH2 0x448 SWAP1 PUSH2 0xFBE JUMP JUMPDEST PUSH1 0x40 MLOAD DUP1 SWAP2 SUB SWAP1 REVERT JUMPDEST PUSH1 0x0 DUP2 SWAP1 POP JUMPDEST PUSH1 0x1 PUSH1 0x5 DUP1 SLOAD SWAP1 POP PUSH2 0x469 SWAP2 SWAP1 PUSH2 0xFDE JUMP JUMPDEST DUP2 LT ISZERO PUSH2 0x4D0 JUMPI PUSH1 0x5 PUSH1 0x1 DUP3 PUSH2 0x47F SWAP2 SWAP1 PUSH2 0xF1C JUMP JUMPDEST DUP2 SLOAD DUP2 LT PUSH2 0x490 JUMPI PUSH2 0x48F PUSH2 0x1012 JUMP JUMPDEST JUMPDEST SWAP1 PUSH1 0x0 MSTORE PUSH1 0x20 PUSH1 0x0 KECCAK256 ADD SLOAD PUSH1 0x5 DUP3 DUP2 SLOAD DUP2 LT PUSH2 0x4AF JUMPI PUSH2 0x4AE PUSH2 0x1012 JUMP JUMPDEST JUMPDEST SWAP1 PUSH1 0x0 MSTORE PUSH1 0x20 PUSH1 0x0 KECCAK256 ADD DUP2 SWAP1 SSTORE POP DUP1 DUP1 PUSH2 0x4C8 SWAP1 PUSH2 0x1041 JUMP JUMPDEST SWAP2 POP POP PUSH2 0x457 JUMP JUMPDEST POP PUSH1 0x5 DUP1 SLOAD DUP1 PUSH2 0x4E3 JUMPI PUSH2 0x4E2 PUSH2 0x108A JUMP JUMPDEST JUMPDEST PUSH1 0x1 SWAP1 SUB DUP2 DUP2 SWAP1 PUSH1 0x0 MSTORE PUSH1 0x20 PUSH1 0x0 KECCAK256 ADD PUSH1 0x0 SWAP1 SSTORE SWAP1 SSTORE POP JUMP JUMPDEST PUSH1 0x60 PUSH1 0x0 PUSH1 0x5 DUP1 SLOAD SWAP1 POP GT PUSH2 0x510 JUMPI PUSH1 0x0 DUP1 REVERT JUMPDEST PUSH1 0x5 DUP1 SLOAD DUP1 PUSH1 0x20 MUL PUSH1 0x20 ADD PUSH1 0x40 MLOAD SWAP1 DUP2 ADD PUSH1 0x40 MSTORE DUP1 SWAP3 SWAP2 SWAP1 DUP2 DUP2 MSTORE PUSH1 0x20 ADD DUP3 DUP1 SLOAD DUP1 ISZERO PUSH2 0x55C JUMPI PUSH1 0x20 MUL DUP3 ADD SWAP2 SWAP1 PUSH1 0x0 MSTORE PUSH1 0x20 PUSH1 0x0 KECCAK256 SWAP1 JUMPDEST DUP2 SLOAD DUP2 MSTORE PUSH1 0x20 ADD SWAP1 PUSH1 0x1 ADD SWAP1 DUP1 DUP4 GT PUSH2 0x548 JUMPI JUMPDEST POP POP POP POP POP SWAP1 POP SWAP1 JUMP JUMPDEST PUSH1 0x0 PUSH1 0x4 PUSH1 0x0 SWAP1 SLOAD SWAP1 PUSH2 0x100 EXP SWAP1 DIV PUSH1 0xE0 SHL PUSH1 0x0 PUSH1 0x4 DUP2 LT PUSH2 0x58B JUMPI PUSH2 0x58A PUSH2 0x1012 JUMP JUMPDEST JUMPDEST BYTE PUSH1 0xF8 SHL SWAP1 POP SWAP1 JUMP JUMPDEST PUSH1 0x60 PUSH1 0xA DUP1 SLOAD DUP1 PUSH1 0x20 MUL PUSH1 0x20 ADD PUSH1 0x40 MLOAD SWAP1 DUP2 ADD PUSH1 0x40 MSTORE DUP1 SWAP3 SWAP2 SWAP1 DUP2 DUP2 MSTORE PUSH1 0x20 ADD DUP3 DUP1 SLOAD DUP1 ISZERO PUSH2 0x5E2 JUMPI PUSH1 0x20 MUL DUP3 ADD SWAP2 SWAP1 PUSH1 0x0 MSTORE PUSH1 0x20 PUSH1 0x0 KECCAK256 SWAP1 JUMPDEST DUP2 SLOAD DUP2 MSTORE PUSH1 0x20 ADD SWAP1 PUSH1 0x1 ADD SWAP1 DUP1 DUP4 GT PUSH2 0x5CE JUMPI JUMPDEST POP POP POP POP POP SWAP1 POP SWAP1 JUMP JUMPDEST PUSH1 0x7 DUP1 PUSH1 0x0 ADD SLOAD SWAP1 DUP1 PUSH1 0x1 ADD DUP1 SLOAD PUSH2 0x603 SWAP1 PUSH2 0x10E8 JUMP JUMPDEST DUP1 PUSH1 0x1F ADD PUSH1 0x20 DUP1 SWAP2 DIV MUL PUSH1 0x20 ADD PUSH1 0x40 MLOAD SWAP1 DUP2 ADD PUSH1 0x40 MSTORE DUP1 SWAP3 SWAP2 SWAP1 DUP2 DUP2 MSTORE PUSH1 0x20 ADD DUP3 DUP1 SLOAD PUSH2 0x62F SWAP1 PUSH2 0x10E8 JUMP JUMPDEST DUP1 ISZERO PUSH2 0x67C JUMPI DUP1 PUSH1 0x1F LT PUSH2 0x651 JUMPI PUSH2 0x100 DUP1 DUP4 SLOAD DIV MUL DUP4 MSTORE SWAP2 PUSH1 0x20 ADD SWAP2 PUSH2 0x67C JUMP JUMPDEST DUP3 ADD SWAP2 SWAP1 PUSH1 0x0 MSTORE PUSH1 0x20 PUSH1 0x0 KECCAK256 SWAP1 JUMPDEST DUP2 SLOAD DUP2 MSTORE SWAP1 PUSH1 0x1 ADD SWAP1 PUSH1 0x20 ADD DUP1 DUP4 GT PUSH2 0x65F JUMPI DUP3 SWAP1 SUB PUSH1 0x1F AND DUP3 ADD SWAP2 JUMPDEST POP POP POP POP POP SWAP1 POP DUP3 JUMP JUMPDEST PUSH1 0x5 DUP2 DUP2 SLOAD DUP2 LT PUSH2 0x696 JUMPI PUSH1 0x0 DUP1 REVERT JUMPDEST SWAP1 PUSH1 0x0 MSTORE PUSH1 0x20 PUSH1 0x0 KECCAK256 ADD PUSH1 0x0 SWAP2 POP SWAP1 POP SLOAD DUP2 JUMP JUMPDEST PUSH1 0x3 SLOAD DUP2 JUMP JUMPDEST PUSH1 0x2 SLOAD DUP2 JUMP JUMPDEST PUSH1 0x0 SWAP1 JUMP JUMPDEST PUSH1 0xA PUSH2 0x6C5 PUSH2 0x402 JUMP JUMPDEST SWAP1 DUP1 PUSH1 0x1 DUP2 SLOAD ADD DUP1 DUP3 SSTORE DUP1 SWAP2 POP POP PUSH1 0x1 SWAP1 SUB SWAP1 PUSH1 0x0 MSTORE PUSH1 0x20 PUSH1 0x0 KECCAK256 ADD PUSH1 0x0 SWAP1 SWAP2 SWAP1 SWAP2 SWAP1 SWAP2 POP SSTORE JUMP JUMPDEST PUSH1 0x1 DUP1 PUSH1 0x0 DUP3 DUP3 SLOAD PUSH2 0x6FF SWAP2 SWAP1 PUSH2 0xFDE JUMP JUMPDEST SWAP3 POP POP DUP2 SWAP1 SSTORE POP JUMP JUMPDEST PUSH2 0x710 PUSH2 0x909 JUMP JUMPDEST SWAP1 JUMP JUMPDEST PUSH1 0xA DUP2 DUP2 SLOAD DUP2 LT PUSH2 0x723 JUMPI PUSH1 0x0 DUP1 REVERT JUMPDEST SWAP1 PUSH1 0x0 MSTORE PUSH1 0x20 PUSH1 0x0 KECCAK256 ADD PUSH1 0x0 SWAP2 POP SWAP1 POP SLOAD DUP2 JUMP JUMPDEST PUSH1 0x0 DUP1 SLOAD PUSH2 0x744 SWAP1 PUSH2 0x10E8 JUMP JUMPDEST DUP1 PUSH1 0x1F ADD PUSH1 0x20 DUP1 SWAP2 DIV MUL PUSH1 0x20 ADD PUSH1 0x40 MLOAD SWAP1 DUP2 ADD PUSH1 0x40 MSTORE DUP1 SWAP3 SWAP2 SWAP1 DUP2 DUP2 MSTORE PUSH1 0x20 ADD DUP3 DUP1 SLOAD PUSH2 0x770 SWAP1 PUSH2 0x10E8 JUMP JUMPDEST DUP1 ISZERO PUSH2 0x7BD JUMPI DUP1 PUSH1 0x1F LT PUSH2 0x792 JUMPI PUSH2 0x100 DUP1 DUP4 SLOAD DIV MUL DUP4 MSTORE SWAP2 PUSH1 0x20 ADD SWAP2 PUSH2 0x7BD JUMP JUMPDEST DUP3 ADD SWAP2 SWAP1 PUSH1 0x0 MSTORE PUSH1 0x20 PUSH1 0x0 KECCAK256 SWAP1 JUMPDEST DUP2 SLOAD DUP2 MSTORE SWAP1 PUSH1 0x1 ADD SWAP1 PUSH1 0x20 ADD DUP1 DUP4 GT PUSH2 0x7A0 JUMPI DUP3 SWAP1 SUB PUSH1 0x1F AND DUP3 ADD SWAP2 JUMPDEST POP POP POP POP POP DUP2 JUMP JUMPDEST PUSH1 0x0 PUSH1 0x6 PUSH1 0x0 SWAP1 SLOAD SWAP1 PUSH2 0x100 EXP SWAP1 DIV PUSH1 0xFF AND SWAP1 POP SWAP1 JUMP JUMPDEST PUSH1 0x40 MLOAD DUP1 PUSH1 0xA0 ADD PUSH1 0x40 MSTORE DUP1 PUSH1 0x1 PUSH1 0xFF AND DUP2 MSTORE PUSH1 0x20 ADD PUSH1 0x2 PUSH1 0xFF AND DUP2 MSTORE PUSH1 0x20 ADD PUSH1 0x3 PUSH1 0xFF AND DUP2 MSTORE PUSH1 0x20 ADD PUSH1 0x4 PUSH1 0xFF AND DUP2 MSTORE PUSH1 0x20 ADD PUSH1 0x5 PUSH1 0xFF AND DUP2 MSTORE POP PUSH1 0x5 SWAP1 PUSH1 0x5 PUSH2 0x827 SWAP3 SWAP2 SWAP1 PUSH2 0x92A JUMP JUMPDEST POP PUSH2 0x832 PUSH1 0x2 PUSH2 0x40A JUMP JUMPDEST PUSH1 0x1 PUSH1 0x5 PUSH1 0x0 DUP2 SLOAD DUP2 LT PUSH2 0x849 JUMPI PUSH2 0x848 PUSH2 0x1012 JUMP JUMPDEST JUMPDEST SWAP1 PUSH1 0x0 MSTORE PUSH1 0x20 PUSH1 0x0 KECCAK256 ADD SLOAD EQ PUSH2 0x862 JUMPI PUSH2 0x861 PUSH2 0x111A JUMP JUMPDEST JUMPDEST PUSH1 0x2 PUSH1 0x5 PUSH1 0x1 DUP2 SLOAD DUP2 LT PUSH2 0x879 JUMPI PUSH2 0x878 PUSH2 0x1012 JUMP JUMPDEST JUMPDEST SWAP1 PUSH1 0x0 MSTORE PUSH1 0x20 PUSH1 0x0 KECCAK256 ADD SLOAD EQ PUSH2 0x892 JUMPI PUSH2 0x891 PUSH2 0x111A JUMP JUMPDEST JUMPDEST PUSH1 0x4 PUSH1 0x5 PUSH1 0x2 DUP2 SLOAD DUP2 LT PUSH2 0x8A9 JUMPI PUSH2 0x8A8 PUSH2 0x1012 JUMP JUMPDEST JUMPDEST SWAP1 PUSH1 0x0 MSTORE PUSH1 0x20 PUSH1 0x0 KECCAK256 ADD SLOAD EQ PUSH2 0x8C2 JUMPI PUSH2 0x8C1 PUSH2 0x111A JUMP JUMPDEST JUMPDEST PUSH1 0x5 DUP1 PUSH1 0x3 DUP2 SLOAD DUP2 LT PUSH2 0x8D8 JUMPI PUSH2 0x8D7 PUSH2 0x1012 JUMP JUMPDEST JUMPDEST SWAP1 PUSH1 0x0 MSTORE PUSH1 0x20 PUSH1 0x0 KECCAK256 ADD SLOAD EQ PUSH2 0x8F1 JUMPI PUSH2 0x8F0 PUSH2 0x111A JUMP JUMPDEST JUMPDEST PUSH1 0x4 PUSH1 0x5 DUP1 SLOAD SWAP1 POP EQ PUSH2 0x907 JUMPI PUSH2 0x906 PUSH2 0x111A JUMP JUMPDEST JUMPDEST JUMP JUMPDEST PUSH1 0x40 MLOAD DUP1 PUSH1 0x60 ADD PUSH1 0x40 MSTORE DUP1 PUSH1 0x0 DUP2 MSTORE PUSH1 0x20 ADD PUSH1 0x60 DUP2 MSTORE PUSH1 0x20 ADD PUSH1 0x60 DUP2 MSTORE POP SWAP1 JUMP JUMPDEST DUP3 DUP1 SLOAD DUP3 DUP3 SSTORE SWAP1 PUSH1 0x0 MSTORE PUSH1 0x20 PUSH1 0x0 KECCAK256 SWAP1 DUP2 ADD SWAP3 DUP3 ISZERO PUSH2 0x96B JUMPI SWAP2 PUSH1 0x20 MUL DUP3 ADD JUMPDEST DUP3 DUP2 GT ISZERO PUSH2 0x96A JUMPI DUP3 MLOAD DUP3 SWAP1 PUSH1 0xFF AND SWAP1 SSTORE SWAP2 PUSH1 0x20 ADD SWAP2 SWAP1 PUSH1 0x1 ADD SWAP1 PUSH2 0x94A JUMP JUMPDEST JUMPDEST POP SWAP1 POP PUSH2 0x978 SWAP2 SWAP1 PUSH2 0x97C JUMP JUMPDEST POP SWAP1 JUMP JUMPDEST JUMPDEST DUP1 DUP3 GT ISZERO PUSH2 0x995 JUMPI PUSH1 0x0 DUP2 PUSH1 0x0 SWAP1 SSTORE POP PUSH1 0x1 ADD PUSH2 0x97D JUMP JUMPDEST POP SWAP1 JUMP JUMPDEST PUSH1 0x0 DUP2 SWAP1 POP SWAP2 SWAP1 POP JUMP JUMPDEST PUSH2 0x9AC DUP2 PUSH2 0x999 JUMP JUMPDEST DUP3 MSTORE POP POP JUMP JUMPDEST PUSH1 0x0 PUSH1 0x20 DUP3 ADD SWAP1 POP PUSH2 0x9C7 PUSH1 0x0 DUP4 ADD DUP5 PUSH2 0x9A3 JUMP JUMPDEST SWAP3 SWAP2 POP POP JUMP JUMPDEST PUSH1 0x0 PUSH32 0xFFFFFFFF00000000000000000000000000000000000000000000000000000000 DUP3 AND SWAP1 POP SWAP2 SWAP1 POP JUMP JUMPDEST PUSH2 0xA02 DUP2 PUSH2 0x9CD JUMP JUMPDEST DUP3 MSTORE POP POP JUMP JUMPDEST PUSH1 0x0 PUSH1 0x20 DUP3 ADD SWAP1 POP PUSH2 0xA1D PUSH1 0x0 DUP4 ADD DUP5 PUSH2 0x9F9 JUMP JUMPDEST SWAP3 SWAP2 POP POP JUMP JUMPDEST PUSH32 0x4E487B7100000000000000000000000000000000000000000000000000000000 PUSH1 0x0 MSTORE PUSH1 0x21 PUSH1 0x4 MSTORE PUSH1 0x24 PUSH1 0x0 REVERT JUMPDEST PUSH1 0x5 DUP2 LT PUSH2 0xA63 JUMPI PUSH2 0xA62 PUSH2 0xA23 JUMP JUMPDEST JUMPDEST POP JUMP JUMPDEST PUSH1 0x0 DUP2 SWAP1 POP PUSH2 0xA74 DUP3 PUSH2 0xA52 JUMP JUMPDEST SWAP2 SWAP1 POP JUMP JUMPDEST PUSH1 0x0 PUSH2 0xA84 DUP3 PUSH2 0xA66 JUMP JUMPDEST SWAP1 POP SWAP2 SWAP1 POP JUMP JUMPDEST PUSH2 0xA94 DUP2 PUSH2 0xA79 JUMP JUMPDEST DUP3 MSTORE POP POP JUMP JUMPDEST PUSH1 0x0 PUSH1 0x20 DUP3 ADD SWAP1 POP PUSH2 0xAAF PUSH1 0x0 DUP4 ADD DUP5 PUSH2 0xA8B JUMP JUMPDEST SWAP3 SWAP2 POP POP JUMP JUMPDEST PUSH1 0x0 DUP1 REVERT JUMPDEST PUSH2 0xAC3 DUP2 PUSH2 0x999 JUMP JUMPDEST DUP2 EQ PUSH2 0xACE JUMPI PUSH1 0x0 DUP1 REVERT JUMPDEST POP JUMP JUMPDEST PUSH1 0x0 DUP2 CALLDATALOAD SWAP1 POP PUSH2 0xAE0 DUP2 PUSH2 0xABA JUMP JUMPDEST SWAP3 SWAP2 POP POP JUMP JUMPDEST PUSH1 0x0 PUSH1 0x20 DUP3 DUP5 SUB SLT ISZERO PUSH2 0xAFC JUMPI PUSH2 0xAFB PUSH2 0xAB5 JUMP JUMPDEST JUMPDEST PUSH1 0x0 PUSH2 0xB0A DUP5 DUP3 DUP6 ADD PUSH2 0xAD1 JUMP JUMPDEST SWAP2 POP POP SWAP3 SWAP2 POP POP JUMP JUMPDEST PUSH1 0x0 DUP2 MLOAD SWAP1 POP SWAP2 SWAP1 POP JUMP JUMPDEST PUSH1 0x0 DUP3 DUP3 MSTORE PUSH1 0x20 DUP3 ADD SWAP1 POP SWAP3 SWAP2 POP POP JUMP JUMPDEST PUSH1 0x0 DUP2 SWAP1 POP PUSH1 0x20 DUP3 ADD SWAP1 POP SWAP2 SWAP1 POP JUMP JUMPDEST PUSH2 0xB48 DUP2 PUSH2 0x999 JUMP JUMPDEST DUP3 MSTORE POP POP JUMP JUMPDEST PUSH1 0x0 PUSH2 0xB5A DUP4 DUP4 PUSH2 0xB3F JUMP JUMPDEST PUSH1 0x20 DUP4 ADD SWAP1 POP SWAP3 SWAP2 POP POP JUMP JUMPDEST PUSH1 0x0 PUSH1 0x20 DUP3 ADD SWAP1 POP SWAP2 SWAP1 POP JUMP JUMPDEST PUSH1 0x0 PUSH2 0xB7E DUP3 PUSH2 0xB13 JUMP JUMPDEST PUSH2 0xB88 DUP2 DUP6 PUSH2 0xB1E JUMP JUMPDEST SWAP4 POP PUSH2 0xB93 DUP4 PUSH2 0xB2F JUMP JUMPDEST DUP1 PUSH1 0x0 JUMPDEST DUP4 DUP2 LT ISZERO PUSH2 0xBC4 JUMPI DUP2 MLOAD PUSH2 0xBAB DUP9 DUP3 PUSH2 0xB4E JUMP JUMPDEST SWAP8 POP PUSH2 0xBB6 DUP4 PUSH2 0xB66 JUMP JUMPDEST SWAP3 POP POP PUSH1 0x1 DUP2 ADD SWAP1 POP PUSH2 0xB97 JUMP JUMPDEST POP DUP6 SWAP4 POP POP POP POP SWAP3 SWAP2 POP POP JUMP JUMPDEST PUSH1 0x0 PUSH1 0x20 DUP3 ADD SWAP1 POP DUP2 DUP2 SUB PUSH1 0x0 DUP4 ADD MSTORE PUSH2 0xBEB DUP2 DUP5 PUSH2 0xB73 JUMP JUMPDEST SWAP1 POP SWAP3 SWAP2 POP POP JUMP JUMPDEST PUSH1 0x0 PUSH32 0xFF00000000000000000000000000000000000000000000000000000000000000 DUP3 AND SWAP1 POP SWAP2 SWAP1 POP JUMP JUMPDEST PUSH2 0xC28 DUP2 PUSH2 0xBF3 JUMP JUMPDEST DUP3 MSTORE POP POP JUMP JUMPDEST PUSH1 0x0 PUSH1 0x20 DUP3 ADD SWAP1 POP PUSH2 0xC43 PUSH1 0x0 DUP4 ADD DUP5 PUSH2 0xC1F JUMP JUMPDEST SWAP3 SWAP2 POP POP JUMP JUMPDEST PUSH1 0x0 DUP2 MLOAD SWAP1 POP SWAP2 SWAP1 POP JUMP JUMPDEST PUSH1 0x0 DUP3 DUP3 MSTORE PUSH1 0x20 DUP3 ADD SWAP1 POP SWAP3 SWAP2 POP POP JUMP JUMPDEST PUSH1 0x0 JUMPDEST DUP4 DUP2 LT ISZERO PUSH2 0xC83 JUMPI DUP1 DUP3 ADD MLOAD DUP2 DUP5 ADD MSTORE PUSH1 0x20 DUP2 ADD SWAP1 POP PUSH2 0xC68 JUMP JUMPDEST DUP4 DUP2 GT ISZERO PUSH2 0xC92 JUMPI PUSH1 0x0 DUP5 DUP5 ADD MSTORE JUMPDEST POP POP POP POP JUMP JUMPDEST PUSH1 0x0 PUSH1 0x1F NOT PUSH1 0x1F DUP4 ADD AND SWAP1 POP SWAP2 SWAP1 POP JUMP JUMPDEST PUSH1 0x0 PUSH2 0xCB4 DUP3 PUSH2 0xC49 JUMP JUMPDEST PUSH2 0xCBE DUP2 DUP6 PUSH2 0xC54 JUMP JUMPDEST SWAP4 POP PUSH2 0xCCE DUP2 DUP6 PUSH1 0x20 DUP7 ADD PUSH2 0xC65 JUMP JUMPDEST PUSH2 0xCD7 DUP2 PUSH2 0xC98 JUMP JUMPDEST DUP5 ADD SWAP2 POP POP SWAP3 SWAP2 POP POP JUMP JUMPDEST PUSH1 0x0 PUSH1 0x40 DUP3 ADD SWAP1 POP PUSH2 0xCF7 PUSH1 0x0 DUP4 ADD DUP6 PUSH2 0x9A3 JUMP JUMPDEST DUP2 DUP2 SUB PUSH1 0x20 DUP4 ADD MSTORE PUSH2 0xD09 DUP2 DUP5 PUSH2 0xCA9 JUMP JUMPDEST SWAP1 POP SWAP4 SWAP3 POP POP POP JUMP JUMPDEST PUSH1 0x0 DUP2 SWAP1 POP SWAP2 SWAP1 POP JUMP JUMPDEST PUSH2 0xD25 DUP2 PUSH2 0xD12 JUMP JUMPDEST DUP3 MSTORE POP POP JUMP JUMPDEST PUSH1 0x0 PUSH1 0x20 DUP3 ADD SWAP1 POP PUSH2 0xD40 PUSH1 0x0 DUP4 ADD DUP5 PUSH2 0xD1C JUMP JUMPDEST SWAP3 SWAP2 POP POP JUMP JUMPDEST PUSH1 0x0 DUP3 DUP3 MSTORE PUSH1 0x20 DUP3 ADD SWAP1 POP SWAP3 SWAP2 POP POP JUMP JUMPDEST PUSH1 0x0 PUSH2 0xD62 DUP3 PUSH2 0xC49 JUMP JUMPDEST PUSH2 0xD6C DUP2 DUP6 PUSH2 0xD46 JUMP JUMPDEST SWAP4 POP PUSH2 0xD7C DUP2 DUP6 PUSH1 0x20 DUP7 ADD PUSH2 0xC65 JUMP JUMPDEST PUSH2 0xD85 DUP2 PUSH2 0xC98 JUMP JUMPDEST DUP5 ADD SWAP2 POP POP SWAP3 SWAP2 POP POP JUMP JUMPDEST PUSH1 0x0 DUP2 MLOAD SWAP1 POP SWAP2 SWAP1 POP JUMP JUMPDEST PUSH1 0x0 DUP3 DUP3 MSTORE PUSH1 0x20 DUP3 ADD SWAP1 POP SWAP3 SWAP2 POP POP JUMP JUMPDEST PUSH1 0x0 DUP2 SWAP1 POP PUSH1 0x20 DUP3 ADD SWAP1 POP SWAP2 SWAP1 POP JUMP JUMPDEST PUSH1 0x0 PUSH2 0xDC8 DUP4 DUP4 PUSH2 0xD57 JUMP JUMPDEST SWAP1 POP SWAP3 SWAP2 POP POP JUMP JUMPDEST PUSH1 0x0 PUSH1 0x20 DUP3 ADD SWAP1 POP SWAP2 SWAP1 POP JUMP JUMPDEST PUSH1 0x0 PUSH2 0xDE8 DUP3 PUSH2 0xD90 JUMP JUMPDEST PUSH2 0xDF2 DUP2 DUP6 PUSH2 0xD9B JUMP JUMPDEST SWAP4 POP DUP4 PUSH1 0x20 DUP3 MUL DUP6 ADD PUSH2 0xE04 DUP6 PUSH2 0xDAC JUMP JUMPDEST DUP1 PUSH1 0x0 JUMPDEST DUP6 DUP2 LT ISZERO PUSH2 0xE40 JUMPI DUP5 DUP5 SUB DUP10 MSTORE DUP2 MLOAD PUSH2 0xE21 DUP6 DUP3 PUSH2 0xDBC JUMP JUMPDEST SWAP5 POP PUSH2 0xE2C DUP4 PUSH2 0xDD0 JUMP JUMPDEST SWAP3 POP PUSH1 0x20 DUP11 ADD SWAP10 POP POP PUSH1 0x1 DUP2 ADD SWAP1 POP PUSH2 0xE08 JUMP JUMPDEST POP DUP3 SWAP8 POP DUP8 SWAP6 POP POP POP POP POP POP SWAP3 SWAP2 POP POP JUMP JUMPDEST PUSH1 0x0 PUSH1 0x60 DUP4 ADD PUSH1 0x0 DUP4 ADD MLOAD PUSH2 0xE6A PUSH1 0x0 DUP7 ADD DUP3 PUSH2 0xB3F JUMP JUMPDEST POP PUSH1 0x20 DUP4 ADD MLOAD DUP5 DUP3 SUB PUSH1 0x20 DUP7 ADD MSTORE PUSH2 0xE82 DUP3 DUP3 PUSH2 0xD57 JUMP JUMPDEST SWAP2 POP POP PUSH1 0x40 DUP4 ADD MLOAD DUP5 DUP3 SUB PUSH1 0x40 DUP7 ADD MSTORE PUSH2 0xE9C DUP3 DUP3 PUSH2 0xDDD JUMP JUMPDEST SWAP2 POP POP DUP1 SWAP2 POP POP SWAP3 SWAP2 POP POP JUMP JUMPDEST PUSH1 0x0 PUSH1 0x20 DUP3 ADD SWAP1 POP DUP2 DUP2 SUB PUSH1 0x0 DUP4 ADD MSTORE PUSH2 0xEC3 DUP2 DUP5 PUSH2 0xE52 JUMP JUMPDEST SWAP1 POP SWAP3 SWAP2 POP POP JUMP JUMPDEST PUSH1 0x0 PUSH1 0x20 DUP3 ADD SWAP1 POP DUP2 DUP2 SUB PUSH1 0x0 DUP4 ADD MSTORE PUSH2 0xEE5 DUP2 DUP5 PUSH2 0xCA9 JUMP JUMPDEST SWAP1 POP SWAP3 SWAP2 POP POP JUMP JUMPDEST PUSH32 0x4E487B7100000000000000000000000000000000000000000000000000000000 PUSH1 0x0 MSTORE PUSH1 0x11 PUSH1 0x4 MSTORE PUSH1 0x24 PUSH1 0x0 REVERT JUMPDEST PUSH1 0x0 PUSH2 0xF27 DUP3 PUSH2 0x999 JUMP JUMPDEST SWAP2 POP PUSH2 0xF32 DUP4 PUSH2 0x999 JUMP JUMPDEST SWAP3 POP DUP3 PUSH32 0xFFFFFFFFFFFFFFFFFFFFFFFFFFFFFFFFFFFFFFFFFFFFFFFFFFFFFFFFFFFFFFFF SUB DUP3 GT ISZERO PUSH2 0xF67 JUMPI PUSH2 0xF66 PUSH2 0xEED JUMP JUMPDEST JUMPDEST DUP3 DUP3 ADD SWAP1 POP SWAP3 SWAP2 POP POP JUMP JUMPDEST PUSH32 0x696E646578206F7574206F6620626F756E640000000000000000000000000000 PUSH1 0x0 DUP3 ADD MSTORE POP JUMP JUMPDEST PUSH1 0x0 PUSH2 0xFA8 PUSH1 0x12 DUP4 PUSH2 0xC54 JUMP JUMPDEST SWAP2 POP PUSH2 0xFB3 DUP3 PUSH2 0xF72 JUMP JUMPDEST PUSH1 0x20 DUP3 ADD SWAP1 POP SWAP2 SWAP1 POP JUMP JUMPDEST PUSH1 0x0 PUSH1 0x20 DUP3 ADD SWAP1 POP DUP2 DUP2 SUB PUSH1 0x0 DUP4 ADD MSTORE PUSH2 0xFD7 DUP2 PUSH2 0xF9B JUMP JUMPDEST SWAP1 POP SWAP2 SWAP1 POP JUMP JUMPDEST PUSH1 0x0 PUSH2 0xFE9 DUP3 PUSH2 0x999 JUMP JUMPDEST SWAP2 POP PUSH2 0xFF4 DUP4 PUSH2 0x999 JUMP JUMPDEST SWAP3 POP DUP3 DUP3 LT ISZERO PUSH2 0x1007 JUMPI PUSH2 0x1006 PUSH2 0xEED JUMP JUMPDEST JUMPDEST DUP3 DUP3 SUB SWAP1 POP SWAP3 SWAP2 POP POP JUMP JUMPDEST PUSH32 0x4E487B7100000000000000000000000000000000000000000000000000000000 PUSH1 0x0 MSTORE PUSH1 0x32 PUSH1 0x4 MSTORE PUSH1 0x24 PUSH1 0x0 REVERT JUMPDEST PUSH1 0x0 PUSH2 0x104C DUP3 PUSH2 0x999 JUMP JUMPDEST SWAP2 POP PUSH32 0xFFFFFFFFFFFFFFFFFFFFFFFFFFFFFFFFFFFFFFFFFFFFFFFFFFFFFFFFFFFFFFFF DUP3 EQ ISZERO PUSH2 0x107F JUMPI PUSH2 0x107E PUSH2 0xEED JUMP JUMPDEST JUMPDEST PUSH1 0x1 DUP3 ADD SWAP1 POP SWAP2 SWAP1 POP JUMP JUMPDEST PUSH32 0x4E487B7100000000000000000000000000000000000000000000000000000000 PUSH1 0x0 MSTORE PUSH1 0x31 PUSH1 0x4 MSTORE PUSH1 0x24 PUSH1 0x0 REVERT JUMPDEST PUSH32 0x4E487B7100000000000000000000000000000000000000000000000000000000 PUSH1 0x0 MSTORE PUSH1 0x22 PUSH1 0x4 MSTORE PUSH1 0x24 PUSH1 0x0 REVERT JUMPDEST PUSH1 0x0 PUSH1 0x2 DUP3 DIV SWAP1 POP PUSH1 0x1 DUP3 AND DUP1 PUSH2 0x1100 JUMPI PUSH1 0x7F DUP3 AND SWAP2 POP JUMPDEST PUSH1 0x20 DUP3 LT DUP2 EQ ISZERO PUSH2 0x1114 JUMPI PUSH2 0x1113 PUSH2 0x10B9 JUMP JUMPDEST JUMPDEST POP SWAP2 SWAP1 POP JUMP JUMPDEST PUSH32 0x4E487B7100000000000000000000000000000000000000000000000000000000 PUSH1 0x0 MSTORE PUSH1 0x1 PUSH1 0x4 MSTORE PUSH1 0x24 PUSH1 0x0 REVERT INVALID LOG2 PUSH5 0x6970667358 0x22 SLT KECCAK256 0xA5 JUMPDEST RETURNDATACOPY 0xEC LOG3 CALLDATALOAD SLT SSTORE SWAP5 0x2F 0x23 SLOAD 0x5F 0xD9 PUSH20 0x99FA5E8E031A608F91E3999D69AFA2B96964736F PUSH13 0x63430008080033000000000000 "
				},
				"gasEstimates": {
					"creation": {
						"codeDepositCost": "895800",
						"executionCost": "infinite",
						"totalCost": "infinite"
					},
					"external": {
						"a()": "2517",
						"arr(uint256)": "infinite",
						"count()": "2461",
						"dec()": "infinite",
						"gasArr(uint256)": "infinite",
						"getByte()": "2603",
						"getGas()": "infinite",
						"getGasPrice()": "359",
						"getLargestValue()": "522",
						"getSmallestValue()": "513",
						"getStudent()": "infinite",
						"getWholeArr()": "infinite",
						"gets()": "2678",
						"greet()": "infinite",
						"inc()": "infinite",
						"maxInt()": "2474",
						"minInt()": "2496",
						"remove(uint256)": "infinite",
						"setGasArr()": "46712",
						"status()": "2628",
						"student()": "infinite",
						"test()": "infinite"
					}
				},
				"methodIdentifiers": {
					"a()": "0dbe671f",
					"arr(uint256)": "71e5ee5f",
					"count()": "06661abd",
					"dec()": "b3bcfa82",
					"gasArr(uint256)": "c42f3bab",
					"getByte()": "60585358",
					"getGas()": "66a83a4f",
					"getGasPrice()": "455259cb",
					"getLargestValue()": "2e63c301",
					"getSmallestValue()": "85f73fe9",
					"getStudent()": "b439548d",
					"getWholeArr()": "52eefbf0",
					"gets()": "ebea52e6",
					"greet()": "cfae3217",
					"inc()": "371303c0",
					"maxInt()": "7a4c2571",
					"minInt()": "7e4e14cc",
					"remove(uint256)": "4cc82215",
					"setGasArr()": "a71913cc",
					"status()": "200d2ed2",
					"student()": "699450e8",
					"test()": "f8a8fd6d"
				}
			},
			"storageLayout": {
				"storage": [
					{
						"astId": 4,
						"contract": "contracts/Examples.sol:Counter",
						"label": "greet",
						"offset": 0,
						"slot": "0",
						"type": "t_string_storage"
					},
					{
						"astId": 6,
						"contract": "contracts/Examples.sol:Counter",
						"label": "ct",
						"offset": 0,
						"slot": "1",
						"type": "t_uint256"
					},
					{
						"astId": 13,
						"contract": "contracts/Examples.sol:Counter",
						"label": "minInt",
						"offset": 0,
						"slot": "2",
						"type": "t_int256"
					},
					{
						"astId": 20,
						"contract": "contracts/Examples.sol:Counter",
						"label": "maxInt",
						"offset": 0,
						"slot": "3",
						"type": "t_int256"
					},
					{
						"astId": 22,
						"contract": "contracts/Examples.sol:Counter",
						"label": "a",
						"offset": 0,
						"slot": "4",
						"type": "t_bytes4"
					},
					{
						"astId": 67,
						"contract": "contracts/Examples.sol:Counter",
						"label": "arr",
						"offset": 0,
						"slot": "5",
						"type": "t_array(t_uint256)dyn_storage"
					},
					{
						"astId": 192,
						"contract": "contracts/Examples.sol:Counter",
						"label": "status",
						"offset": 0,
						"slot": "6",
						"type": "t_enum(Status)189"
					},
					{
						"astId": 236,
						"contract": "contracts/Examples.sol:Counter",
						"label": "student",
						"offset": 0,
						"slot": "7",
						"type": "t_struct(Instructor)233_storage"
					},
					{
						"astId": 248,
						"contract": "contracts/Examples.sol:Counter",
						"label": "gasArr",
						"offset": 0,
						"slot": "10",
						"type": "t_array(t_uint256)dyn_storage"
					}
				],
				"types": {
					"t_array(t_string_storage)dyn_storage": {
						"base": "t_string_storage",
						"encoding": "dynamic_array",
						"label": "string[]",
						"numberOfBytes": "32"
					},
					"t_array(t_uint256)dyn_storage": {
						"base": "t_uint256",
						"encoding": "dynamic_array",
						"label": "uint256[]",
						"numberOfBytes": "32"
					},
					"t_bytes4": {
						"encoding": "inplace",
						"label": "bytes4",
						"numberOfBytes": "4"
					},
					"t_enum(Status)189": {
						"encoding": "inplace",
						"label": "enum Counter.Status",
						"numberOfBytes": "1"
					},
					"t_int256": {
						"encoding": "inplace",
						"label": "int256",
						"numberOfBytes": "32"
					},
					"t_string_storage": {
						"encoding": "bytes",
						"label": "string",
						"numberOfBytes": "32"
					},
					"t_struct(Instructor)233_storage": {
						"encoding": "inplace",
						"label": "struct Counter.Instructor",
						"members": [
							{
								"astId": 227,
								"contract": "contracts/Examples.sol:Counter",
								"label": "age",
								"offset": 0,
								"slot": "0",
								"type": "t_uint256"
							},
							{
								"astId": 229,
								"contract": "contracts/Examples.sol:Counter",
								"label": "name",
								"offset": 0,
								"slot": "1",
								"type": "t_string_storage"
							},
							{
								"astId": 232,
								"contract": "contracts/Examples.sol:Counter",
								"label": "favorites",
								"offset": 0,
								"slot": "2",
								"type": "t_array(t_string_storage)dyn_storage"
							}
						],
						"numberOfBytes": "96"
					},
					"t_uint256": {
						"encoding": "inplace",
						"label": "uint256",
						"numberOfBytes": "32"
					}
				}
			},
			"userdoc": {
				"kind": "user",
				"methods": {},
				"version": 1
			}
		}
	}
}