{
	"contracts/MyContract.sol": {
		"myContract": {
			"abi": [
				{
					"inputs": [],
					"stateMutability": "nonpayable",
					"type": "constructor"
				},
				{
					"inputs": [
						{
							"internalType": "uint256",
							"name": "_id",
							"type": "uint256"
						},
						{
							"internalType": "string",
							"name": "_title",
							"type": "string"
						},
						{
							"internalType": "string",
							"name": "_author",
							"type": "string"
						}
					],
					"name": "addBook",
					"outputs": [],
					"stateMutability": "nonpayable",
					"type": "function"
				},
				{
					"inputs": [
						{
							"internalType": "uint256",
							"name": "_id",
							"type": "uint256"
						},
						{
							"internalType": "string",
							"name": "_title",
							"type": "string"
						},
						{
							"internalType": "string",
							"name": "_author",
							"type": "string"
						}
					],
					"name": "addMyBook",
					"outputs": [],
					"stateMutability": "nonpayable",
					"type": "function"
				},
				{
					"inputs": [
						{
							"internalType": "string",
							"name": "_firstName",
							"type": "string"
						},
						{
							"internalType": "string",
							"name": "_lastName",
							"type": "string"
						}
					],
					"name": "addName",
					"outputs": [],
					"stateMutability": "nonpayable",
					"type": "function"
				},
				{
					"inputs": [
						{
							"internalType": "uint256",
							"name": "",
							"type": "uint256"
						}
					],
					"name": "books",
					"outputs": [
						{
							"internalType": "string",
							"name": "title",
							"type": "string"
						},
						{
							"internalType": "string",
							"name": "author",
							"type": "string"
						}
					],
					"stateMutability": "view",
					"type": "function"
				},
				{
					"inputs": [],
					"name": "countEvenNumber",
					"outputs": [
						{
							"internalType": "uint256",
							"name": "",
							"type": "uint256"
						}
					],
					"stateMutability": "view",
					"type": "function"
				},
				{
					"inputs": [],
					"name": "getValue",
					"outputs": [
						{
							"internalType": "uint256",
							"name": "",
							"type": "uint256"
						}
					],
					"stateMutability": "pure",
					"type": "function"
				},
				{
					"inputs": [
						{
							"internalType": "uint256",
							"name": "_number",
							"type": "uint256"
						}
					],
					"name": "isEven",
					"outputs": [
						{
							"internalType": "bool",
							"name": "value",
							"type": "bool"
						}
					],
					"stateMutability": "pure",
					"type": "function"
				},
				{
					"inputs": [],
					"name": "isOwner",
					"outputs": [
						{
							"internalType": "bool",
							"name": "",
							"type": "bool"
						}
					],
					"stateMutability": "view",
					"type": "function"
				},
				{
					"inputs": [
						{
							"internalType": "address",
							"name": "",
							"type": "address"
						},
						{
							"internalType": "uint256",
							"name": "",
							"type": "uint256"
						}
					],
					"name": "myBooks",
					"outputs": [
						{
							"internalType": "string",
							"name": "title",
							"type": "string"
						},
						{
							"internalType": "string",
							"name": "author",
							"type": "string"
						}
					],
					"stateMutability": "view",
					"type": "function"
				},
				{
					"inputs": [
						{
							"internalType": "address",
							"name": "",
							"type": "address"
						},
						{
							"internalType": "string",
							"name": "",
							"type": "string"
						}
					],
					"name": "name",
					"outputs": [
						{
							"internalType": "string",
							"name": "",
							"type": "string"
						}
					],
					"stateMutability": "view",
					"type": "function"
				},
				{
					"inputs": [
						{
							"internalType": "uint256",
							"name": "",
							"type": "uint256"
						}
					],
					"name": "numbers",
					"outputs": [
						{
							"internalType": "uint256",
							"name": "",
							"type": "uint256"
						}
					],
					"stateMutability": "view",
					"type": "function"
				},
				{
					"inputs": [],
					"name": "owner",
					"outputs": [
						{
							"internalType": "address",
							"name": "",
							"type": "address"
						}
					],
					"stateMutability": "view",
					"type": "function"
				},
				{
					"inputs": [],
					"name": "person",
					"outputs": [
						{
							"internalType": "uint256",
							"name": "favNumber",
							"type": "uint256"
						},
						{
							"internalType": "string",
							"name": "name",
							"type": "string"
						}
					],
					"stateMutability": "view",
					"type": "function"
				}
			],
			"devdoc": {
				"kind": "dev",
				"methods": {},
				"version": 1
			},
			"evm": {
				"assembly": "    /* \"contracts/MyContract.sol\":62:2016  contract myContract {... */\n  mstore(0x40, 0x80)\n    /* \"contracts/MyContract.sol\":207:208  1 */\n  0x01\n    /* \"contracts/MyContract.sol\":193:208  uint myUint = 1 */\n  0x00\n  sstore\n    /* \"contracts/MyContract.sol\":227:229  -1 */\n  0xffffffffffffffffffffffffffffffffffffffffffffffffffffffffffffffff\n    /* \"contracts/MyContract.sol\":215:229  int myInt = -1 */\n  0x01\n  sstore\n    /* \"contracts/MyContract.sol\":433:495  People({... */\n  mload(0x40)\n  dup1\n  0x40\n  add\n  0x40\n  mstore\n  dup1\n    /* \"contracts/MyContract.sol\":465:466  5 */\n  0x05\n    /* \"contracts/MyContract.sol\":433:495  People({... */\n  dup2\n  mstore\n  0x20\n  add\n  mload(0x40)\n  dup1\n  0x40\n  add\n  0x40\n  mstore\n  dup1\n  0x06\n  dup2\n  mstore\n  0x20\n  add\n  0x4a61796d616e0000000000000000000000000000000000000000000000000000\n  dup2\n  mstore\n  pop\n  dup2\n  mstore\n  pop\n    /* \"contracts/MyContract.sol\":410:495  People public person = People({... */\n  0x03\n  0x00\n  dup3\n  add\n  mload\n  dup2\n  0x00\n  add\n  sstore\n  0x20\n  dup3\n  add\n  mload\n  dup2\n  0x01\n  add\n  swap1\n  dup2\n  tag_1\n  swap2\n  swap1\n  tag_2\n  jump\t// in\ntag_1:\n  pop\n  pop\n  pop\n    /* \"contracts/MyContract.sol\":691:740  uint[] public  numbers = [1, 2, 3,4,5,6,7,8,9,10] */\n  mload(0x40)\n  dup1\n  0x0140\n  add\n  0x40\n  mstore\n  dup1\n    /* \"contracts/MyContract.sol\":717:718  1 */\n  0x01\n    /* \"contracts/MyContract.sol\":691:740  uint[] public  numbers = [1, 2, 3,4,5,6,7,8,9,10] */\n  0xff\n  and\n  dup2\n  mstore\n  0x20\n  add\n    /* \"contracts/MyContract.sol\":720:721  2 */\n  0x02\n    /* \"contracts/MyContract.sol\":691:740  uint[] public  numbers = [1, 2, 3,4,5,6,7,8,9,10] */\n  0xff\n  and\n  dup2\n  mstore\n  0x20\n  add\n    /* \"contracts/MyContract.sol\":723:724  3 */\n  0x03\n    /* \"contracts/MyContract.sol\":691:740  uint[] public  numbers = [1, 2, 3,4,5,6,7,8,9,10] */\n  0xff\n  and\n  dup2\n  mstore\n  0x20\n  add\n    /* \"contracts/MyContract.sol\":725:726  4 */\n  0x04\n    /* \"contracts/MyContract.sol\":691:740  uint[] public  numbers = [1, 2, 3,4,5,6,7,8,9,10] */\n  0xff\n  and\n  dup2\n  mstore\n  0x20\n  add\n    /* \"contracts/MyContract.sol\":727:728  5 */\n  0x05\n    /* \"contracts/MyContract.sol\":691:740  uint[] public  numbers = [1, 2, 3,4,5,6,7,8,9,10] */\n  0xff\n  and\n  dup2\n  mstore\n  0x20\n  add\n    /* \"contracts/MyContract.sol\":729:730  6 */\n  0x06\n    /* \"contracts/MyContract.sol\":691:740  uint[] public  numbers = [1, 2, 3,4,5,6,7,8,9,10] */\n  0xff\n  and\n  dup2\n  mstore\n  0x20\n  add\n    /* \"contracts/MyContract.sol\":731:732  7 */\n  0x07\n    /* \"contracts/MyContract.sol\":691:740  uint[] public  numbers = [1, 2, 3,4,5,6,7,8,9,10] */\n  0xff\n  and\n  dup2\n  mstore\n  0x20\n  add\n    /* \"contracts/MyContract.sol\":733:734  8 */\n  0x08\n    /* \"contracts/MyContract.sol\":691:740  uint[] public  numbers = [1, 2, 3,4,5,6,7,8,9,10] */\n  0xff\n  and\n  dup2\n  mstore\n  0x20\n  add\n    /* \"contracts/MyContract.sol\":735:736  9 */\n  0x09\n    /* \"contracts/MyContract.sol\":691:740  uint[] public  numbers = [1, 2, 3,4,5,6,7,8,9,10] */\n  0xff\n  and\n  dup2\n  mstore\n  0x20\n  add\n    /* \"contracts/MyContract.sol\":737:739  10 */\n  0x0a\n    /* \"contracts/MyContract.sol\":691:740  uint[] public  numbers = [1, 2, 3,4,5,6,7,8,9,10] */\n  0xff\n  and\n  dup2\n  mstore\n  pop\n  0x07\n  swap1\n  0x0a\n  tag_3\n  swap3\n  swap2\n  swap1\n  tag_4\n  jump\t// in\ntag_3:\n  pop\n    /* \"contracts/MyContract.sol\":268:319  constructor() {... */\n  callvalue\n  dup1\n  iszero\n  tag_5\n  jumpi\n  0x00\n  dup1\n  revert\ntag_5:\n  pop\n    /* \"contracts/MyContract.sol\":301:311  msg.sender */\n  caller\n    /* \"contracts/MyContract.sol\":293:298  owner */\n  0x02\n  0x00\n    /* \"contracts/MyContract.sol\":293:311  owner = msg.sender */\n  0x0100\n  exp\n  dup2\n  sload\n  dup2\n  0xffffffffffffffffffffffffffffffffffffffff\n  mul\n  not\n  and\n  swap1\n  dup4\n  0xffffffffffffffffffffffffffffffffffffffff\n  and\n  mul\n  or\n  swap1\n  sstore\n  pop\n    /* \"contracts/MyContract.sol\":62:2016  contract myContract {... */\n  jump(tag_8)\ntag_4:\n  dup3\n  dup1\n  sload\n  dup3\n  dup3\n  sstore\n  swap1\n  0x00\n  mstore\n  keccak256(0x00, 0x20)\n  swap1\n  dup2\n  add\n  swap3\n  dup3\n  iszero\n  tag_9\n  jumpi\n  swap2\n  0x20\n  mul\n  dup3\n  add\ntag_10:\n  dup3\n  dup2\n  gt\n  iszero\n  tag_11\n  jumpi\n  dup3\n  mload\n  dup3\n  swap1\n  0xff\n  and\n  swap1\n  sstore\n  swap2\n  0x20\n  add\n  swap2\n  swap1\n  0x01\n  add\n  swap1\n  jump(tag_10)\ntag_11:\ntag_9:\n  pop\n  swap1\n  pop\n  tag_12\n  swap2\n  swap1\n  tag_13\n  jump\t// in\ntag_12:\n  pop\n  swap1\n  jump\t// out\ntag_13:\ntag_14:\n  dup1\n  dup3\n  gt\n  iszero\n  tag_15\n  jumpi\n  0x00\n  dup2\n  0x00\n  swap1\n  sstore\n  pop\n  0x01\n  add\n  jump(tag_14)\ntag_15:\n  pop\n  swap1\n  jump\t// out\n    /* \"#utility.yul\":7:106   */\ntag_16:\n    /* \"#utility.yul\":59:65   */\n  0x00\n    /* \"#utility.yul\":93:98   */\n  dup2\n    /* \"#utility.yul\":87:99   */\n  mload\n    /* \"#utility.yul\":77:99   */\n  swap1\n  pop\n    /* \"#utility.yul\":7:106   */\n  swap2\n  swap1\n  pop\n  jump\t// out\n    /* \"#utility.yul\":112:292   */\ntag_17:\n    /* \"#utility.yul\":160:237   */\n  0x4e487b7100000000000000000000000000000000000000000000000000000000\n    /* \"#utility.yul\":157:158   */\n  0x00\n    /* \"#utility.yul\":150:238   */\n  mstore\n    /* \"#utility.yul\":257:261   */\n  0x41\n    /* \"#utility.yul\":254:255   */\n  0x04\n    /* \"#utility.yul\":247:262   */\n  mstore\n    /* \"#utility.yul\":281:285   */\n  0x24\n    /* \"#utility.yul\":278:279   */\n  0x00\n    /* \"#utility.yul\":271:286   */\n  revert\n    /* \"#utility.yul\":298:478   */\ntag_18:\n    /* \"#utility.yul\":346:423   */\n  0x4e487b7100000000000000000000000000000000000000000000000000000000\n    /* \"#utility.yul\":343:344   */\n  0x00\n    /* \"#utility.yul\":336:424   */\n  mstore\n    /* \"#utility.yul\":443:447   */\n  0x22\n    /* \"#utility.yul\":440:441   */\n  0x04\n    /* \"#utility.yul\":433:448   */\n  mstore\n    /* \"#utility.yul\":467:471   */\n  0x24\n    /* \"#utility.yul\":464:465   */\n  0x00\n    /* \"#utility.yul\":457:472   */\n  revert\n    /* \"#utility.yul\":484:804   */\ntag_19:\n    /* \"#utility.yul\":528:534   */\n  0x00\n    /* \"#utility.yul\":565:566   */\n  0x02\n    /* \"#utility.yul\":559:563   */\n  dup3\n    /* \"#utility.yul\":555:567   */\n  div\n    /* \"#utility.yul\":545:567   */\n  swap1\n  pop\n    /* \"#utility.yul\":612:613   */\n  0x01\n    /* \"#utility.yul\":606:610   */\n  dup3\n    /* \"#utility.yul\":602:614   */\n  and\n    /* \"#utility.yul\":633:651   */\n  dup1\n    /* \"#utility.yul\":623:704   */\n  tag_41\n  jumpi\n    /* \"#utility.yul\":689:693   */\n  0x7f\n    /* \"#utility.yul\":681:687   */\n  dup3\n    /* \"#utility.yul\":677:694   */\n  and\n    /* \"#utility.yul\":667:694   */\n  swap2\n  pop\n    /* \"#utility.yul\":623:704   */\ntag_41:\n    /* \"#utility.yul\":751:753   */\n  0x20\n    /* \"#utility.yul\":743:749   */\n  dup3\n    /* \"#utility.yul\":740:754   */\n  lt\n    /* \"#utility.yul\":720:738   */\n  dup2\n    /* \"#utility.yul\":717:755   */\n  sub\n    /* \"#utility.yul\":714:798   */\n  tag_42\n  jumpi\n    /* \"#utility.yul\":770:788   */\n  tag_43\n  tag_18\n  jump\t// in\ntag_43:\n    /* \"#utility.yul\":714:798   */\ntag_42:\n    /* \"#utility.yul\":535:804   */\n  pop\n    /* \"#utility.yul\":484:804   */\n  swap2\n  swap1\n  pop\n  jump\t// out\n    /* \"#utility.yul\":810:951   */\ntag_20:\n    /* \"#utility.yul\":859:863   */\n  0x00\n    /* \"#utility.yul\":882:885   */\n  dup2\n    /* \"#utility.yul\":874:885   */\n  swap1\n  pop\n    /* \"#utility.yul\":905:908   */\n  dup2\n    /* \"#utility.yul\":902:903   */\n  0x00\n    /* \"#utility.yul\":895:909   */\n  mstore\n    /* \"#utility.yul\":939:943   */\n  0x20\n    /* \"#utility.yul\":936:937   */\n  0x00\n    /* \"#utility.yul\":926:944   */\n  keccak256\n    /* \"#utility.yul\":918:944   */\n  swap1\n  pop\n    /* \"#utility.yul\":810:951   */\n  swap2\n  swap1\n  pop\n  jump\t// out\n    /* \"#utility.yul\":957:1050   */\ntag_21:\n    /* \"#utility.yul\":994:1000   */\n  0x00\n    /* \"#utility.yul\":1041:1043   */\n  0x20\n    /* \"#utility.yul\":1036:1038   */\n  0x1f\n    /* \"#utility.yul\":1029:1034   */\n  dup4\n    /* \"#utility.yul\":1025:1039   */\n  add\n    /* \"#utility.yul\":1021:1044   */\n  div\n    /* \"#utility.yul\":1011:1044   */\n  swap1\n  pop\n    /* \"#utility.yul\":957:1050   */\n  swap2\n  swap1\n  pop\n  jump\t// out\n    /* \"#utility.yul\":1056:1163   */\ntag_22:\n    /* \"#utility.yul\":1100:1108   */\n  0x00\n    /* \"#utility.yul\":1150:1155   */\n  dup3\n    /* \"#utility.yul\":1144:1148   */\n  dup3\n    /* \"#utility.yul\":1140:1156   */\n  shl\n    /* \"#utility.yul\":1119:1156   */\n  swap1\n  pop\n    /* \"#utility.yul\":1056:1163   */\n  swap3\n  swap2\n  pop\n  pop\n  jump\t// out\n    /* \"#utility.yul\":1169:1562   */\ntag_23:\n    /* \"#utility.yul\":1238:1244   */\n  0x00\n    /* \"#utility.yul\":1288:1289   */\n  0x08\n    /* \"#utility.yul\":1276:1286   */\n  dup4\n    /* \"#utility.yul\":1272:1290   */\n  mul\n    /* \"#utility.yul\":1311:1408   */\n  tag_48\n    /* \"#utility.yul\":1341:1407   */\n  0xffffffffffffffffffffffffffffffffffffffffffffffffffffffffffffffff\n    /* \"#utility.yul\":1330:1339   */\n  dup3\n    /* \"#utility.yul\":1311:1408   */\n  tag_22\n  jump\t// in\ntag_48:\n    /* \"#utility.yul\":1429:1468   */\n  tag_49\n    /* \"#utility.yul\":1459:1467   */\n  dup7\n    /* \"#utility.yul\":1448:1457   */\n  dup4\n    /* \"#utility.yul\":1429:1468   */\n  tag_22\n  jump\t// in\ntag_49:\n    /* \"#utility.yul\":1417:1468   */\n  swap6\n  pop\n    /* \"#utility.yul\":1501:1505   */\n  dup1\n    /* \"#utility.yul\":1497:1506   */\n  not\n    /* \"#utility.yul\":1490:1495   */\n  dup5\n    /* \"#utility.yul\":1486:1507   */\n  and\n    /* \"#utility.yul\":1477:1507   */\n  swap4\n  pop\n    /* \"#utility.yul\":1550:1554   */\n  dup1\n    /* \"#utility.yul\":1540:1548   */\n  dup7\n    /* \"#utility.yul\":1536:1555   */\n  and\n    /* \"#utility.yul\":1529:1534   */\n  dup5\n    /* \"#utility.yul\":1526:1556   */\n  or\n    /* \"#utility.yul\":1516:1556   */\n  swap3\n  pop\n    /* \"#utility.yul\":1245:1562   */\n  pop\n  pop\n    /* \"#utility.yul\":1169:1562   */\n  swap4\n  swap3\n  pop\n  pop\n  pop\n  jump\t// out\n    /* \"#utility.yul\":1568:1645   */\ntag_24:\n    /* \"#utility.yul\":1605:1612   */\n  0x00\n    /* \"#utility.yul\":1634:1639   */\n  dup2\n    /* \"#utility.yul\":1623:1639   */\n  swap1\n  pop\n    /* \"#utility.yul\":1568:1645   */\n  swap2\n  swap1\n  pop\n  jump\t// out\n    /* \"#utility.yul\":1651:1711   */\ntag_25:\n    /* \"#utility.yul\":1679:1682   */\n  0x00\n    /* \"#utility.yul\":1700:1705   */\n  dup2\n    /* \"#utility.yul\":1693:1705   */\n  swap1\n  pop\n    /* \"#utility.yul\":1651:1711   */\n  swap2\n  swap1\n  pop\n  jump\t// out\n    /* \"#utility.yul\":1717:1859   */\ntag_26:\n    /* \"#utility.yul\":1767:1776   */\n  0x00\n    /* \"#utility.yul\":1800:1853   */\n  tag_53\n    /* \"#utility.yul\":1818:1852   */\n  tag_54\n    /* \"#utility.yul\":1827:1851   */\n  tag_55\n    /* \"#utility.yul\":1845:1850   */\n  dup5\n    /* \"#utility.yul\":1827:1851   */\n  tag_24\n  jump\t// in\ntag_55:\n    /* \"#utility.yul\":1818:1852   */\n  tag_25\n  jump\t// in\ntag_54:\n    /* \"#utility.yul\":1800:1853   */\n  tag_24\n  jump\t// in\ntag_53:\n    /* \"#utility.yul\":1787:1853   */\n  swap1\n  pop\n    /* \"#utility.yul\":1717:1859   */\n  swap2\n  swap1\n  pop\n  jump\t// out\n    /* \"#utility.yul\":1865:1940   */\ntag_27:\n    /* \"#utility.yul\":1908:1911   */\n  0x00\n    /* \"#utility.yul\":1929:1934   */\n  dup2\n    /* \"#utility.yul\":1922:1934   */\n  swap1\n  pop\n    /* \"#utility.yul\":1865:1940   */\n  swap2\n  swap1\n  pop\n  jump\t// out\n    /* \"#utility.yul\":1946:2215   */\ntag_28:\n    /* \"#utility.yul\":2056:2095   */\n  tag_58\n    /* \"#utility.yul\":2087:2094   */\n  dup4\n    /* \"#utility.yul\":2056:2095   */\n  tag_26\n  jump\t// in\ntag_58:\n    /* \"#utility.yul\":2117:2208   */\n  tag_59\n    /* \"#utility.yul\":2166:2207   */\n  tag_60\n    /* \"#utility.yul\":2190:2206   */\n  dup3\n    /* \"#utility.yul\":2166:2207   */\n  tag_27\n  jump\t// in\ntag_60:\n    /* \"#utility.yul\":2158:2164   */\n  dup5\n    /* \"#utility.yul\":2151:2155   */\n  dup5\n    /* \"#utility.yul\":2145:2156   */\n  sload\n    /* \"#utility.yul\":2117:2208   */\n  tag_23\n  jump\t// in\ntag_59:\n    /* \"#utility.yul\":2111:2115   */\n  dup3\n    /* \"#utility.yul\":2104:2209   */\n  sstore\n    /* \"#utility.yul\":2022:2215   */\n  pop\n    /* \"#utility.yul\":1946:2215   */\n  pop\n  pop\n  pop\n  jump\t// out\n    /* \"#utility.yul\":2221:2294   */\ntag_29:\n    /* \"#utility.yul\":2266:2269   */\n  0x00\n    /* \"#utility.yul\":2221:2294   */\n  swap1\n  jump\t// out\n    /* \"#utility.yul\":2300:2489   */\ntag_30:\n    /* \"#utility.yul\":2377:2409   */\n  tag_63\n  tag_29\n  jump\t// in\ntag_63:\n    /* \"#utility.yul\":2418:2483   */\n  tag_64\n    /* \"#utility.yul\":2476:2482   */\n  dup2\n    /* \"#utility.yul\":2468:2474   */\n  dup5\n    /* \"#utility.yul\":2462:2466   */\n  dup5\n    /* \"#utility.yul\":2418:2483   */\n  tag_28\n  jump\t// in\ntag_64:\n    /* \"#utility.yul\":2353:2489   */\n  pop\n    /* \"#utility.yul\":2300:2489   */\n  pop\n  pop\n  jump\t// out\n    /* \"#utility.yul\":2495:2681   */\ntag_31:\n    /* \"#utility.yul\":2555:2675   */\ntag_66:\n    /* \"#utility.yul\":2572:2575   */\n  dup2\n    /* \"#utility.yul\":2565:2570   */\n  dup2\n    /* \"#utility.yul\":2562:2576   */\n  lt\n    /* \"#utility.yul\":2555:2675   */\n  iszero\n  tag_68\n  jumpi\n    /* \"#utility.yul\":2626:2665   */\n  tag_69\n    /* \"#utility.yul\":2663:2664   */\n  0x00\n    /* \"#utility.yul\":2656:2661   */\n  dup3\n    /* \"#utility.yul\":2626:2665   */\n  tag_30\n  jump\t// in\ntag_69:\n    /* \"#utility.yul\":2599:2600   */\n  0x01\n    /* \"#utility.yul\":2592:2597   */\n  dup2\n    /* \"#utility.yul\":2588:2601   */\n  add\n    /* \"#utility.yul\":2579:2601   */\n  swap1\n  pop\n    /* \"#utility.yul\":2555:2675   */\n  jump(tag_66)\ntag_68:\n    /* \"#utility.yul\":2495:2681   */\n  pop\n  pop\n  jump\t// out\n    /* \"#utility.yul\":2687:3230   */\ntag_32:\n    /* \"#utility.yul\":2788:2790   */\n  0x1f\n    /* \"#utility.yul\":2783:2786   */\n  dup3\n    /* \"#utility.yul\":2780:2791   */\n  gt\n    /* \"#utility.yul\":2777:3223   */\n  iszero\n  tag_71\n  jumpi\n    /* \"#utility.yul\":2822:2860   */\n  tag_72\n    /* \"#utility.yul\":2854:2859   */\n  dup2\n    /* \"#utility.yul\":2822:2860   */\n  tag_20\n  jump\t// in\ntag_72:\n    /* \"#utility.yul\":2906:2935   */\n  tag_73\n    /* \"#utility.yul\":2924:2934   */\n  dup5\n    /* \"#utility.yul\":2906:2935   */\n  tag_21\n  jump\t// in\ntag_73:\n    /* \"#utility.yul\":2896:2904   */\n  dup2\n    /* \"#utility.yul\":2892:2936   */\n  add\n    /* \"#utility.yul\":3089:3091   */\n  0x20\n    /* \"#utility.yul\":3077:3087   */\n  dup6\n    /* \"#utility.yul\":3074:3092   */\n  lt\n    /* \"#utility.yul\":3071:3120   */\n  iszero\n  tag_74\n  jumpi\n    /* \"#utility.yul\":3110:3118   */\n  dup2\n    /* \"#utility.yul\":3095:3118   */\n  swap1\n  pop\n    /* \"#utility.yul\":3071:3120   */\ntag_74:\n    /* \"#utility.yul\":3133:3213   */\n  tag_75\n    /* \"#utility.yul\":3189:3211   */\n  tag_76\n    /* \"#utility.yul\":3207:3210   */\n  dup6\n    /* \"#utility.yul\":3189:3211   */\n  tag_21\n  jump\t// in\ntag_76:\n    /* \"#utility.yul\":3179:3187   */\n  dup4\n    /* \"#utility.yul\":3175:3212   */\n  add\n    /* \"#utility.yul\":3162:3173   */\n  dup3\n    /* \"#utility.yul\":3133:3213   */\n  tag_31\n  jump\t// in\ntag_75:\n    /* \"#utility.yul\":2792:3223   */\n  pop\n  pop\n    /* \"#utility.yul\":2777:3223   */\ntag_71:\n    /* \"#utility.yul\":2687:3230   */\n  pop\n  pop\n  pop\n  jump\t// out\n    /* \"#utility.yul\":3236:3353   */\ntag_33:\n    /* \"#utility.yul\":3290:3298   */\n  0x00\n    /* \"#utility.yul\":3340:3345   */\n  dup3\n    /* \"#utility.yul\":3334:3338   */\n  dup3\n    /* \"#utility.yul\":3330:3346   */\n  shr\n    /* \"#utility.yul\":3309:3346   */\n  swap1\n  pop\n    /* \"#utility.yul\":3236:3353   */\n  swap3\n  swap2\n  pop\n  pop\n  jump\t// out\n    /* \"#utility.yul\":3359:3528   */\ntag_34:\n    /* \"#utility.yul\":3403:3409   */\n  0x00\n    /* \"#utility.yul\":3436:3487   */\n  tag_79\n    /* \"#utility.yul\":3484:3485   */\n  0x00\n    /* \"#utility.yul\":3480:3486   */\n  not\n    /* \"#utility.yul\":3472:3477   */\n  dup5\n    /* \"#utility.yul\":3469:3470   */\n  0x08\n    /* \"#utility.yul\":3465:3478   */\n  mul\n    /* \"#utility.yul\":3436:3487   */\n  tag_33\n  jump\t// in\ntag_79:\n    /* \"#utility.yul\":3432:3488   */\n  not\n    /* \"#utility.yul\":3517:3521   */\n  dup1\n    /* \"#utility.yul\":3511:3515   */\n  dup4\n    /* \"#utility.yul\":3507:3522   */\n  and\n    /* \"#utility.yul\":3497:3522   */\n  swap2\n  pop\n    /* \"#utility.yul\":3410:3528   */\n  pop\n    /* \"#utility.yul\":3359:3528   */\n  swap3\n  swap2\n  pop\n  pop\n  jump\t// out\n    /* \"#utility.yul\":3533:3828   */\ntag_35:\n    /* \"#utility.yul\":3609:3613   */\n  0x00\n    /* \"#utility.yul\":3755:3784   */\n  tag_81\n    /* \"#utility.yul\":3780:3783   */\n  dup4\n    /* \"#utility.yul\":3774:3778   */\n  dup4\n    /* \"#utility.yul\":3755:3784   */\n  tag_34\n  jump\t// in\ntag_81:\n    /* \"#utility.yul\":3747:3784   */\n  swap2\n  pop\n    /* \"#utility.yul\":3817:3820   */\n  dup3\n    /* \"#utility.yul\":3814:3815   */\n  0x02\n    /* \"#utility.yul\":3810:3821   */\n  mul\n    /* \"#utility.yul\":3804:3808   */\n  dup3\n    /* \"#utility.yul\":3801:3822   */\n  or\n    /* \"#utility.yul\":3793:3822   */\n  swap1\n  pop\n    /* \"#utility.yul\":3533:3828   */\n  swap3\n  swap2\n  pop\n  pop\n  jump\t// out\n    /* \"#utility.yul\":3833:5228   */\ntag_2:\n    /* \"#utility.yul\":3950:3987   */\n  tag_83\n    /* \"#utility.yul\":3983:3986   */\n  dup3\n    /* \"#utility.yul\":3950:3987   */\n  tag_16\n  jump\t// in\ntag_83:\n    /* \"#utility.yul\":4052:4070   */\n  0xffffffffffffffff\n    /* \"#utility.yul\":4044:4050   */\n  dup2\n    /* \"#utility.yul\":4041:4071   */\n  gt\n    /* \"#utility.yul\":4038:4094   */\n  iszero\n  tag_84\n  jumpi\n    /* \"#utility.yul\":4074:4092   */\n  tag_85\n  tag_17\n  jump\t// in\ntag_85:\n    /* \"#utility.yul\":4038:4094   */\ntag_84:\n    /* \"#utility.yul\":4118:4156   */\n  tag_86\n    /* \"#utility.yul\":4150:4154   */\n  dup3\n    /* \"#utility.yul\":4144:4155   */\n  sload\n    /* \"#utility.yul\":4118:4156   */\n  tag_19\n  jump\t// in\ntag_86:\n    /* \"#utility.yul\":4203:4270   */\n  tag_87\n    /* \"#utility.yul\":4263:4269   */\n  dup3\n    /* \"#utility.yul\":4255:4261   */\n  dup3\n    /* \"#utility.yul\":4249:4253   */\n  dup6\n    /* \"#utility.yul\":4203:4270   */\n  tag_32\n  jump\t// in\ntag_87:\n    /* \"#utility.yul\":4297:4298   */\n  0x00\n    /* \"#utility.yul\":4321:4325   */\n  0x20\n    /* \"#utility.yul\":4308:4325   */\n  swap1\n  pop\n    /* \"#utility.yul\":4353:4355   */\n  0x1f\n    /* \"#utility.yul\":4345:4351   */\n  dup4\n    /* \"#utility.yul\":4342:4356   */\n  gt\n    /* \"#utility.yul\":4370:4371   */\n  0x01\n    /* \"#utility.yul\":4365:4983   */\n  dup2\n  eq\n  tag_89\n  jumpi\n    /* \"#utility.yul\":5027:5028   */\n  0x00\n    /* \"#utility.yul\":5044:5050   */\n  dup5\n    /* \"#utility.yul\":5041:5118   */\n  iszero\n  tag_90\n  jumpi\n    /* \"#utility.yul\":5093:5102   */\n  dup3\n    /* \"#utility.yul\":5088:5091   */\n  dup8\n    /* \"#utility.yul\":5084:5103   */\n  add\n    /* \"#utility.yul\":5078:5104   */\n  mload\n    /* \"#utility.yul\":5069:5104   */\n  swap1\n  pop\n    /* \"#utility.yul\":5041:5118   */\ntag_90:\n    /* \"#utility.yul\":5144:5211   */\n  tag_91\n    /* \"#utility.yul\":5204:5210   */\n  dup6\n    /* \"#utility.yul\":5197:5202   */\n  dup3\n    /* \"#utility.yul\":5144:5211   */\n  tag_35\n  jump\t// in\ntag_91:\n    /* \"#utility.yul\":5138:5142   */\n  dup7\n    /* \"#utility.yul\":5131:5212   */\n  sstore\n    /* \"#utility.yul\":5000:5222   */\n  pop\n    /* \"#utility.yul\":4335:5222   */\n  jump(tag_88)\n    /* \"#utility.yul\":4365:4983   */\ntag_89:\n    /* \"#utility.yul\":4417:4421   */\n  0x1f\n    /* \"#utility.yul\":4413:4422   */\n  not\n    /* \"#utility.yul\":4405:4411   */\n  dup5\n    /* \"#utility.yul\":4401:4423   */\n  and\n    /* \"#utility.yul\":4451:4488   */\n  tag_92\n    /* \"#utility.yul\":4483:4487   */\n  dup7\n    /* \"#utility.yul\":4451:4488   */\n  tag_20\n  jump\t// in\ntag_92:\n    /* \"#utility.yul\":4510:4511   */\n  0x00\n    /* \"#utility.yul\":4524:4732   */\ntag_93:\n    /* \"#utility.yul\":4538:4545   */\n  dup3\n    /* \"#utility.yul\":4535:4536   */\n  dup2\n    /* \"#utility.yul\":4532:4546   */\n  lt\n    /* \"#utility.yul\":4524:4732   */\n  iszero\n  tag_95\n  jumpi\n    /* \"#utility.yul\":4617:4626   */\n  dup5\n    /* \"#utility.yul\":4612:4615   */\n  dup10\n    /* \"#utility.yul\":4608:4627   */\n  add\n    /* \"#utility.yul\":4602:4628   */\n  mload\n    /* \"#utility.yul\":4594:4600   */\n  dup3\n    /* \"#utility.yul\":4587:4629   */\n  sstore\n    /* \"#utility.yul\":4668:4669   */\n  0x01\n    /* \"#utility.yul\":4660:4666   */\n  dup3\n    /* \"#utility.yul\":4656:4670   */\n  add\n    /* \"#utility.yul\":4646:4670   */\n  swap2\n  pop\n    /* \"#utility.yul\":4715:4717   */\n  0x20\n    /* \"#utility.yul\":4704:4713   */\n  dup6\n    /* \"#utility.yul\":4700:4718   */\n  add\n    /* \"#utility.yul\":4687:4718   */\n  swap5\n  pop\n    /* \"#utility.yul\":4561:4565   */\n  0x20\n    /* \"#utility.yul\":4558:4559   */\n  dup2\n    /* \"#utility.yul\":4554:4566   */\n  add\n    /* \"#utility.yul\":4549:4566   */\n  swap1\n  pop\n    /* \"#utility.yul\":4524:4732   */\n  jump(tag_93)\ntag_95:\n    /* \"#utility.yul\":4760:4766   */\n  dup7\n    /* \"#utility.yul\":4751:4758   */\n  dup4\n    /* \"#utility.yul\":4748:4767   */\n  lt\n    /* \"#utility.yul\":4745:4924   */\n  iszero\n  tag_96\n  jumpi\n    /* \"#utility.yul\":4818:4827   */\n  dup5\n    /* \"#utility.yul\":4813:4816   */\n  dup10\n    /* \"#utility.yul\":4809:4828   */\n  add\n    /* \"#utility.yul\":4803:4829   */\n  mload\n    /* \"#utility.yul\":4861:4909   */\n  tag_97\n    /* \"#utility.yul\":4903:4907   */\n  0x1f\n    /* \"#utility.yul\":4895:4901   */\n  dup10\n    /* \"#utility.yul\":4891:4908   */\n  and\n    /* \"#utility.yul\":4880:4889   */\n  dup3\n    /* \"#utility.yul\":4861:4909   */\n  tag_34\n  jump\t// in\ntag_97:\n    /* \"#utility.yul\":4853:4859   */\n  dup4\n    /* \"#utility.yul\":4846:4910   */\n  sstore\n    /* \"#utility.yul\":4768:4924   */\n  pop\n    /* \"#utility.yul\":4745:4924   */\ntag_96:\n    /* \"#utility.yul\":4970:4971   */\n  0x01\n    /* \"#utility.yul\":4966:4967   */\n  0x02\n    /* \"#utility.yul\":4958:4964   */\n  dup9\n    /* \"#utility.yul\":4954:4968   */\n  mul\n    /* \"#utility.yul\":4950:4972   */\n  add\n    /* \"#utility.yul\":4944:4948   */\n  dup9\n    /* \"#utility.yul\":4937:4973   */\n  sstore\n    /* \"#utility.yul\":4372:4983   */\n  pop\n  pop\n  pop\n    /* \"#utility.yul\":4335:5222   */\ntag_88:\n  pop\n    /* \"#utility.yul\":3925:5228   */\n  pop\n  pop\n  pop\n    /* \"#utility.yul\":3833:5228   */\n  pop\n  pop\n  jump\t// out\n    /* \"contracts/MyContract.sol\":62:2016  contract myContract {... */\ntag_8:\n  dataSize(sub_0)\n  dup1\n  dataOffset(sub_0)\n  0x00\n  codecopy\n  0x00\n  return\nstop\n\nsub_0: assembly {\n        /* \"contracts/MyContract.sol\":62:2016  contract myContract {... */\n      mstore(0x40, 0x80)\n      callvalue\n      dup1\n      iszero\n      tag_1\n      jumpi\n      0x00\n      dup1\n      revert\n    tag_1:\n      pop\n      jumpi(tag_2, lt(calldatasize, 0x04))\n      shr(0xe0, calldataload(0x00))\n      dup1\n      0x493ec707\n      gt\n      tag_16\n      jumpi\n      dup1\n      0x8da5cb5b\n      gt\n      tag_17\n      jumpi\n      dup1\n      0x8da5cb5b\n      eq\n      tag_12\n      jumpi\n      dup1\n      0x8f32d59b\n      eq\n      tag_13\n      jumpi\n      dup1\n      0x9dcccf04\n      eq\n      tag_14\n      jumpi\n      dup1\n      0xd39fa233\n      eq\n      tag_15\n      jumpi\n      jump(tag_2)\n    tag_17:\n      dup1\n      0x493ec707\n      eq\n      tag_9\n      jumpi\n      dup1\n      0x68744046\n      eq\n      tag_10\n      jumpi\n      dup1\n      0x77ec2b55\n      eq\n      tag_11\n      jumpi\n      jump(tag_2)\n    tag_16:\n      dup1\n      0x028414f2\n      eq\n      tag_3\n      jumpi\n      dup1\n      0x20965255\n      eq\n      tag_4\n      jumpi\n      dup1\n      0x2146e086\n      eq\n      tag_5\n      jumpi\n      dup1\n      0x27d3553f\n      eq\n      tag_6\n      jumpi\n      dup1\n      0x2a2e1320\n      eq\n      tag_7\n      jumpi\n      dup1\n      0x34ad75e9\n      eq\n      tag_8\n      jumpi\n    tag_2:\n      0x00\n      dup1\n      revert\n        /* \"contracts/MyContract.sol\":1371:1499  function addBook(uint _id, string memory _title, string memory _author) public {... */\n    tag_3:\n      tag_18\n      0x04\n      dup1\n      calldatasize\n      sub\n      dup2\n      add\n      swap1\n      tag_19\n      swap2\n      swap1\n      tag_20\n      jump\t// in\n    tag_19:\n      tag_21\n      jump\t// in\n    tag_18:\n      stop\n        /* \"contracts/MyContract.sol\":1665:1912  function getValue () public  pure returns(uint) {... */\n    tag_4:\n      tag_22\n      tag_23\n      jump\t// in\n    tag_22:\n      mload(0x40)\n      tag_24\n      swap2\n      swap1\n      tag_25\n      jump\t// in\n    tag_24:\n      mload(0x40)\n      dup1\n      swap2\n      sub\n      swap1\n      return\n        /* \"contracts/MyContract.sol\":1226:1363  function addName(string memory _firstName, string memory _lastName) public  {... */\n    tag_5:\n      tag_26\n      0x04\n      dup1\n      calldatasize\n      sub\n      dup2\n      add\n      swap1\n      tag_27\n      swap2\n      swap1\n      tag_28\n      jump\t// in\n    tag_27:\n      tag_29\n      jump\t// in\n    tag_26:\n      stop\n        /* \"contracts/MyContract.sol\":548:605  mapping (address => mapping(uint => Book)) public myBooks */\n    tag_6:\n      tag_30\n      0x04\n      dup1\n      calldatasize\n      sub\n      dup2\n      add\n      swap1\n      tag_31\n      swap2\n      swap1\n      tag_32\n      jump\t// in\n    tag_31:\n      tag_33\n      jump\t// in\n    tag_30:\n      mload(0x40)\n      tag_34\n      swap3\n      swap2\n      swap1\n      tag_35\n      jump\t// in\n    tag_34:\n      mload(0x40)\n      dup1\n      swap2\n      sub\n      swap1\n      return\n        /* \"contracts/MyContract.sol\":982:1144  function isEven(uint _number) public pure returns(bool value) {... */\n    tag_7:\n      tag_36\n      0x04\n      dup1\n      calldatasize\n      sub\n      dup2\n      add\n      swap1\n      tag_37\n      swap2\n      swap1\n      tag_38\n      jump\t// in\n    tag_37:\n      tag_39\n      jump\t// in\n    tag_36:\n      mload(0x40)\n      tag_40\n      swap2\n      swap1\n      tag_41\n      jump\t// in\n    tag_40:\n      mload(0x40)\n      dup1\n      swap2\n      sub\n      swap1\n      return\n        /* \"contracts/MyContract.sol\":1160:1217  mapping(address => mapping(string => string)) public name */\n    tag_8:\n      tag_42\n      0x04\n      dup1\n      calldatasize\n      sub\n      dup2\n      add\n      swap1\n      tag_43\n      swap2\n      swap1\n      tag_44\n      jump\t// in\n    tag_43:\n      tag_45\n      jump\t// in\n    tag_42:\n      mload(0x40)\n      tag_46\n      swap2\n      swap1\n      tag_47\n      jump\t// in\n    tag_46:\n      mload(0x40)\n      dup1\n      swap2\n      sub\n      swap1\n      return\n        /* \"contracts/MyContract.sol\":1507:1651  function addMyBook(uint _id, string memory _title, string memory _author) public {... */\n    tag_9:\n      tag_48\n      0x04\n      dup1\n      calldatasize\n      sub\n      dup2\n      add\n      swap1\n      tag_49\n      swap2\n      swap1\n      tag_20\n      jump\t// in\n    tag_49:\n      tag_50\n      jump\t// in\n    tag_48:\n      stop\n        /* \"contracts/MyContract.sol\":507:541  mapping(uint => Book) public books */\n    tag_10:\n      tag_51\n      0x04\n      dup1\n      calldatasize\n      sub\n      dup2\n      add\n      swap1\n      tag_52\n      swap2\n      swap1\n      tag_38\n      jump\t// in\n    tag_52:\n      tag_53\n      jump\t// in\n    tag_51:\n      mload(0x40)\n      tag_54\n      swap3\n      swap2\n      swap1\n      tag_35\n      jump\t// in\n    tag_54:\n      mload(0x40)\n      dup1\n      swap2\n      sub\n      swap1\n      return\n        /* \"contracts/MyContract.sol\":410:495  People public person = People({... */\n    tag_11:\n      tag_55\n      tag_56\n      jump\t// in\n    tag_55:\n      mload(0x40)\n      tag_57\n      swap3\n      swap2\n      swap1\n      tag_58\n      jump\t// in\n    tag_57:\n      mload(0x40)\n      dup1\n      swap2\n      sub\n      swap1\n      return\n        /* \"contracts/MyContract.sol\":238:259  address public  owner */\n    tag_12:\n      tag_59\n      tag_60\n      jump\t// in\n    tag_59:\n      mload(0x40)\n      tag_61\n      swap2\n      swap1\n      tag_62\n      jump\t// in\n    tag_61:\n      mload(0x40)\n      dup1\n      swap2\n      sub\n      swap1\n      return\n        /* \"contracts/MyContract.sol\":1922:2013  function isOwner() public  view returns(bool){... */\n    tag_13:\n      tag_63\n      tag_64\n      jump\t// in\n    tag_63:\n      mload(0x40)\n      tag_65\n      swap2\n      swap1\n      tag_41\n      jump\t// in\n    tag_65:\n      mload(0x40)\n      dup1\n      swap2\n      sub\n      swap1\n      return\n        /* \"contracts/MyContract.sol\":749:974  function countEvenNumber() public  view returns(uint) {... */\n    tag_14:\n      tag_66\n      tag_67\n      jump\t// in\n    tag_66:\n      mload(0x40)\n      tag_68\n      swap2\n      swap1\n      tag_25\n      jump\t// in\n    tag_68:\n      mload(0x40)\n      dup1\n      swap2\n      sub\n      swap1\n      return\n        /* \"contracts/MyContract.sol\":691:740  uint[] public  numbers = [1, 2, 3,4,5,6,7,8,9,10] */\n    tag_15:\n      tag_69\n      0x04\n      dup1\n      calldatasize\n      sub\n      dup2\n      add\n      swap1\n      tag_70\n      swap2\n      swap1\n      tag_38\n      jump\t// in\n    tag_70:\n      tag_71\n      jump\t// in\n    tag_69:\n      mload(0x40)\n      tag_72\n      swap2\n      swap1\n      tag_25\n      jump\t// in\n    tag_72:\n      mload(0x40)\n      dup1\n      swap2\n      sub\n      swap1\n      return\n        /* \"contracts/MyContract.sol\":1371:1499  function addBook(uint _id, string memory _title, string memory _author) public {... */\n    tag_21:\n        /* \"contracts/MyContract.sol\":1474:1495  Book(_title, _author) */\n      mload(0x40)\n      dup1\n      0x40\n      add\n      0x40\n      mstore\n      dup1\n        /* \"contracts/MyContract.sol\":1479:1485  _title */\n      dup4\n        /* \"contracts/MyContract.sol\":1474:1495  Book(_title, _author) */\n      dup2\n      mstore\n      0x20\n      add\n        /* \"contracts/MyContract.sol\":1487:1494  _author */\n      dup3\n        /* \"contracts/MyContract.sol\":1474:1495  Book(_title, _author) */\n      dup2\n      mstore\n      pop\n        /* \"contracts/MyContract.sol\":1461:1466  books */\n      0x05\n        /* \"contracts/MyContract.sol\":1461:1471  books[_id] */\n      0x00\n        /* \"contracts/MyContract.sol\":1467:1470  _id */\n      dup6\n        /* \"contracts/MyContract.sol\":1461:1471  books[_id] */\n      dup2\n      mstore\n      0x20\n      add\n      swap1\n      dup2\n      mstore\n      0x20\n      add\n      0x00\n      keccak256\n        /* \"contracts/MyContract.sol\":1461:1495  books[_id] = Book(_title, _author) */\n      0x00\n      dup3\n      add\n      mload\n      dup2\n      0x00\n      add\n      swap1\n      dup2\n      tag_74\n      swap2\n      swap1\n      tag_75\n      jump\t// in\n    tag_74:\n      pop\n      0x20\n      dup3\n      add\n      mload\n      dup2\n      0x01\n      add\n      swap1\n      dup2\n      tag_76\n      swap2\n      swap1\n      tag_75\n      jump\t// in\n    tag_76:\n      pop\n      swap1\n      pop\n      pop\n        /* \"contracts/MyContract.sol\":1371:1499  function addBook(uint _id, string memory _title, string memory _author) public {... */\n      pop\n      pop\n      pop\n      jump\t// out\n        /* \"contracts/MyContract.sol\":1665:1912  function getValue () public  pure returns(uint) {... */\n    tag_23:\n        /* \"contracts/MyContract.sol\":1707:1711  uint */\n      0x00\n        /* \"contracts/MyContract.sol\":1856:1866  uint value */\n      dup1\n        /* \"contracts/MyContract.sol\":1869:1870  1 */\n      0x01\n        /* \"contracts/MyContract.sol\":1856:1870  uint value = 1 */\n      swap1\n      pop\n        /* \"contracts/MyContract.sol\":1899:1904  value */\n      dup1\n        /* \"contracts/MyContract.sol\":1891:1904  return  value */\n      swap2\n      pop\n      pop\n        /* \"contracts/MyContract.sol\":1665:1912  function getValue () public  pure returns(uint) {... */\n      swap1\n      jump\t// out\n        /* \"contracts/MyContract.sol\":1226:1363  function addName(string memory _firstName, string memory _lastName) public  {... */\n    tag_29:\n        /* \"contracts/MyContract.sol\":1344:1353  _lastName */\n      dup1\n        /* \"contracts/MyContract.sol\":1313:1317  name */\n      0x08\n        /* \"contracts/MyContract.sol\":1313:1329  name[msg.sender] */\n      0x00\n        /* \"contracts/MyContract.sol\":1318:1328  msg.sender */\n      caller\n        /* \"contracts/MyContract.sol\":1313:1329  name[msg.sender] */\n      0xffffffffffffffffffffffffffffffffffffffff\n      and\n      0xffffffffffffffffffffffffffffffffffffffff\n      and\n      dup2\n      mstore\n      0x20\n      add\n      swap1\n      dup2\n      mstore\n      0x20\n      add\n      0x00\n      keccak256\n        /* \"contracts/MyContract.sol\":1330:1340  _firstName */\n      dup4\n        /* \"contracts/MyContract.sol\":1313:1341  name[msg.sender][_firstName] */\n      mload(0x40)\n      tag_79\n      swap2\n      swap1\n      tag_80\n      jump\t// in\n    tag_79:\n      swap1\n      dup2\n      mstore\n      0x20\n      add\n      mload(0x40)\n      dup1\n      swap2\n      sub\n      swap1\n      keccak256\n        /* \"contracts/MyContract.sol\":1313:1353  name[msg.sender][_firstName] = _lastName */\n      swap1\n      dup2\n      tag_81\n      swap2\n      swap1\n      tag_75\n      jump\t// in\n    tag_81:\n      pop\n        /* \"contracts/MyContract.sol\":1226:1363  function addName(string memory _firstName, string memory _lastName) public  {... */\n      pop\n      pop\n      jump\t// out\n        /* \"contracts/MyContract.sol\":548:605  mapping (address => mapping(uint => Book)) public myBooks */\n    tag_33:\n      mstore(0x20, 0x06)\n      dup2\n      0x00\n      mstore\n      mstore(0x20, keccak256(0x00, 0x40))\n      dup1\n      0x00\n      mstore\n      keccak256(0x00, 0x40)\n      0x00\n      swap2\n      pop\n      swap2\n      pop\n      pop\n      dup1\n      0x00\n      add\n      dup1\n      sload\n      tag_82\n      swap1\n      tag_83\n      jump\t// in\n    tag_82:\n      dup1\n      0x1f\n      add\n      0x20\n      dup1\n      swap2\n      div\n      mul\n      0x20\n      add\n      mload(0x40)\n      swap1\n      dup2\n      add\n      0x40\n      mstore\n      dup1\n      swap3\n      swap2\n      swap1\n      dup2\n      dup2\n      mstore\n      0x20\n      add\n      dup3\n      dup1\n      sload\n      tag_84\n      swap1\n      tag_83\n      jump\t// in\n    tag_84:\n      dup1\n      iszero\n      tag_85\n      jumpi\n      dup1\n      0x1f\n      lt\n      tag_86\n      jumpi\n      0x0100\n      dup1\n      dup4\n      sload\n      div\n      mul\n      dup4\n      mstore\n      swap2\n      0x20\n      add\n      swap2\n      jump(tag_85)\n    tag_86:\n      dup3\n      add\n      swap2\n      swap1\n      0x00\n      mstore\n      keccak256(0x00, 0x20)\n      swap1\n    tag_87:\n      dup2\n      sload\n      dup2\n      mstore\n      swap1\n      0x01\n      add\n      swap1\n      0x20\n      add\n      dup1\n      dup4\n      gt\n      tag_87\n      jumpi\n      dup3\n      swap1\n      sub\n      0x1f\n      and\n      dup3\n      add\n      swap2\n    tag_85:\n      pop\n      pop\n      pop\n      pop\n      pop\n      swap1\n      dup1\n      0x01\n      add\n      dup1\n      sload\n      tag_88\n      swap1\n      tag_83\n      jump\t// in\n    tag_88:\n      dup1\n      0x1f\n      add\n      0x20\n      dup1\n      swap2\n      div\n      mul\n      0x20\n      add\n      mload(0x40)\n      swap1\n      dup2\n      add\n      0x40\n      mstore\n      dup1\n      swap3\n      swap2\n      swap1\n      dup2\n      dup2\n      mstore\n      0x20\n      add\n      dup3\n      dup1\n      sload\n      tag_89\n      swap1\n      tag_83\n      jump\t// in\n    tag_89:\n      dup1\n      iszero\n      tag_90\n      jumpi\n      dup1\n      0x1f\n      lt\n      tag_91\n      jumpi\n      0x0100\n      dup1\n      dup4\n      sload\n      div\n      mul\n      dup4\n      mstore\n      swap2\n      0x20\n      add\n      swap2\n      jump(tag_90)\n    tag_91:\n      dup3\n      add\n      swap2\n      swap1\n      0x00\n      mstore\n      keccak256(0x00, 0x20)\n      swap1\n    tag_92:\n      dup2\n      sload\n      dup2\n      mstore\n      swap1\n      0x01\n      add\n      swap1\n      0x20\n      add\n      dup1\n      dup4\n      gt\n      tag_92\n      jumpi\n      dup3\n      swap1\n      sub\n      0x1f\n      and\n      dup3\n      add\n      swap2\n    tag_90:\n      pop\n      pop\n      pop\n      pop\n      pop\n      swap1\n      pop\n      dup3\n      jump\t// out\n        /* \"contracts/MyContract.sol\":982:1144  function isEven(uint _number) public pure returns(bool value) {... */\n    tag_39:\n        /* \"contracts/MyContract.sol\":1032:1042  bool value */\n      0x00\n        /* \"contracts/MyContract.sol\":1077:1078  0 */\n      dup1\n        /* \"contracts/MyContract.sol\":1072:1073  2 */\n      0x02\n        /* \"contracts/MyContract.sol\":1062:1069  _number */\n      dup4\n        /* \"contracts/MyContract.sol\":1062:1073  _number % 2 */\n      tag_94\n      swap2\n      swap1\n      tag_95\n      jump\t// in\n    tag_94:\n        /* \"contracts/MyContract.sol\":1062:1078  _number % 2 == 0 */\n      sub\n        /* \"contracts/MyContract.sol\":1059:1092  if(_number % 2 == 0) return  true */\n      tag_96\n      jumpi\n        /* \"contracts/MyContract.sol\":1088:1092  true */\n      0x01\n        /* \"contracts/MyContract.sol\":1080:1092  return  true */\n      swap1\n      pop\n      jump(tag_93)\n        /* \"contracts/MyContract.sol\":1059:1092  if(_number % 2 == 0) return  true */\n    tag_96:\n        /* \"contracts/MyContract.sol\":1117:1122  false */\n      0x00\n        /* \"contracts/MyContract.sol\":1109:1122  return  false */\n      swap1\n      pop\n        /* \"contracts/MyContract.sol\":982:1144  function isEven(uint _number) public pure returns(bool value) {... */\n    tag_93:\n      swap2\n      swap1\n      pop\n      jump\t// out\n        /* \"contracts/MyContract.sol\":1160:1217  mapping(address => mapping(string => string)) public name */\n    tag_45:\n      mstore(0x20, 0x08)\n      dup2\n      0x00\n      mstore\n      keccak256(0x00, 0x40)\n      dup2\n      dup1\n      mload\n      0x20\n      dup2\n      add\n      dup3\n      add\n      dup1\n      mload\n      dup5\n      dup3\n      mstore\n      0x20\n      dup4\n      add\n      0x20\n      dup6\n      add\n      keccak256\n      dup2\n      dup4\n      mstore\n      dup1\n      swap6\n      pop\n      pop\n      pop\n      pop\n      pop\n      pop\n      0x00\n      swap2\n      pop\n      swap2\n      pop\n      pop\n      dup1\n      sload\n      tag_97\n      swap1\n      tag_83\n      jump\t// in\n    tag_97:\n      dup1\n      0x1f\n      add\n      0x20\n      dup1\n      swap2\n      div\n      mul\n      0x20\n      add\n      mload(0x40)\n      swap1\n      dup2\n      add\n      0x40\n      mstore\n      dup1\n      swap3\n      swap2\n      swap1\n      dup2\n      dup2\n      mstore\n      0x20\n      add\n      dup3\n      dup1\n      sload\n      tag_98\n      swap1\n      tag_83\n      jump\t// in\n    tag_98:\n      dup1\n      iszero\n      tag_99\n      jumpi\n      dup1\n      0x1f\n      lt\n      tag_100\n      jumpi\n      0x0100\n      dup1\n      dup4\n      sload\n      div\n      mul\n      dup4\n      mstore\n      swap2\n      0x20\n      add\n      swap2\n      jump(tag_99)\n    tag_100:\n      dup3\n      add\n      swap2\n      swap1\n      0x00\n      mstore\n      keccak256(0x00, 0x20)\n      swap1\n    tag_101:\n      dup2\n      sload\n      dup2\n      mstore\n      swap1\n      0x01\n      add\n      swap1\n      0x20\n      add\n      dup1\n      dup4\n      gt\n      tag_101\n      jumpi\n      dup3\n      swap1\n      sub\n      0x1f\n      and\n      dup3\n      add\n      swap2\n    tag_99:\n      pop\n      pop\n      pop\n      pop\n      pop\n      dup2\n      jump\t// out\n        /* \"contracts/MyContract.sol\":1507:1651  function addMyBook(uint _id, string memory _title, string memory _author) public {... */\n    tag_50:\n        /* \"contracts/MyContract.sol\":1626:1647  Book(_title, _author) */\n      mload(0x40)\n      dup1\n      0x40\n      add\n      0x40\n      mstore\n      dup1\n        /* \"contracts/MyContract.sol\":1631:1637  _title */\n      dup4\n        /* \"contracts/MyContract.sol\":1626:1647  Book(_title, _author) */\n      dup2\n      mstore\n      0x20\n      add\n        /* \"contracts/MyContract.sol\":1639:1646  _author */\n      dup3\n        /* \"contracts/MyContract.sol\":1626:1647  Book(_title, _author) */\n      dup2\n      mstore\n      pop\n        /* \"contracts/MyContract.sol\":1599:1606  myBooks */\n      0x06\n        /* \"contracts/MyContract.sol\":1599:1618  myBooks[msg.sender] */\n      0x00\n        /* \"contracts/MyContract.sol\":1607:1617  msg.sender */\n      caller\n        /* \"contracts/MyContract.sol\":1599:1618  myBooks[msg.sender] */\n      0xffffffffffffffffffffffffffffffffffffffff\n      and\n      0xffffffffffffffffffffffffffffffffffffffff\n      and\n      dup2\n      mstore\n      0x20\n      add\n      swap1\n      dup2\n      mstore\n      0x20\n      add\n      0x00\n      keccak256\n        /* \"contracts/MyContract.sol\":1599:1623  myBooks[msg.sender][_id] */\n      0x00\n        /* \"contracts/MyContract.sol\":1619:1622  _id */\n      dup6\n        /* \"contracts/MyContract.sol\":1599:1623  myBooks[msg.sender][_id] */\n      dup2\n      mstore\n      0x20\n      add\n      swap1\n      dup2\n      mstore\n      0x20\n      add\n      0x00\n      keccak256\n        /* \"contracts/MyContract.sol\":1599:1647  myBooks[msg.sender][_id] = Book(_title, _author) */\n      0x00\n      dup3\n      add\n      mload\n      dup2\n      0x00\n      add\n      swap1\n      dup2\n      tag_103\n      swap2\n      swap1\n      tag_75\n      jump\t// in\n    tag_103:\n      pop\n      0x20\n      dup3\n      add\n      mload\n      dup2\n      0x01\n      add\n      swap1\n      dup2\n      tag_104\n      swap2\n      swap1\n      tag_75\n      jump\t// in\n    tag_104:\n      pop\n      swap1\n      pop\n      pop\n        /* \"contracts/MyContract.sol\":1507:1651  function addMyBook(uint _id, string memory _title, string memory _author) public {... */\n      pop\n      pop\n      pop\n      jump\t// out\n        /* \"contracts/MyContract.sol\":507:541  mapping(uint => Book) public books */\n    tag_53:\n      mstore(0x20, 0x05)\n      dup1\n      0x00\n      mstore\n      keccak256(0x00, 0x40)\n      0x00\n      swap2\n      pop\n      swap1\n      pop\n      dup1\n      0x00\n      add\n      dup1\n      sload\n      tag_105\n      swap1\n      tag_83\n      jump\t// in\n    tag_105:\n      dup1\n      0x1f\n      add\n      0x20\n      dup1\n      swap2\n      div\n      mul\n      0x20\n      add\n      mload(0x40)\n      swap1\n      dup2\n      add\n      0x40\n      mstore\n      dup1\n      swap3\n      swap2\n      swap1\n      dup2\n      dup2\n      mstore\n      0x20\n      add\n      dup3\n      dup1\n      sload\n      tag_106\n      swap1\n      tag_83\n      jump\t// in\n    tag_106:\n      dup1\n      iszero\n      tag_107\n      jumpi\n      dup1\n      0x1f\n      lt\n      tag_108\n      jumpi\n      0x0100\n      dup1\n      dup4\n      sload\n      div\n      mul\n      dup4\n      mstore\n      swap2\n      0x20\n      add\n      swap2\n      jump(tag_107)\n    tag_108:\n      dup3\n      add\n      swap2\n      swap1\n      0x00\n      mstore\n      keccak256(0x00, 0x20)\n      swap1\n    tag_109:\n      dup2\n      sload\n      dup2\n      mstore\n      swap1\n      0x01\n      add\n      swap1\n      0x20\n      add\n      dup1\n      dup4\n      gt\n      tag_109\n      jumpi\n      dup3\n      swap1\n      sub\n      0x1f\n      and\n      dup3\n      add\n      swap2\n    tag_107:\n      pop\n      pop\n      pop\n      pop\n      pop\n      swap1\n      dup1\n      0x01\n      add\n      dup1\n      sload\n      tag_110\n      swap1\n      tag_83\n      jump\t// in\n    tag_110:\n      dup1\n      0x1f\n      add\n      0x20\n      dup1\n      swap2\n      div\n      mul\n      0x20\n      add\n      mload(0x40)\n      swap1\n      dup2\n      add\n      0x40\n      mstore\n      dup1\n      swap3\n      swap2\n      swap1\n      dup2\n      dup2\n      mstore\n      0x20\n      add\n      dup3\n      dup1\n      sload\n      tag_111\n      swap1\n      tag_83\n      jump\t// in\n    tag_111:\n      dup1\n      iszero\n      tag_112\n      jumpi\n      dup1\n      0x1f\n      lt\n      tag_113\n      jumpi\n      0x0100\n      dup1\n      dup4\n      sload\n      div\n      mul\n      dup4\n      mstore\n      swap2\n      0x20\n      add\n      swap2\n      jump(tag_112)\n    tag_113:\n      dup3\n      add\n      swap2\n      swap1\n      0x00\n      mstore\n      keccak256(0x00, 0x20)\n      swap1\n    tag_114:\n      dup2\n      sload\n      dup2\n      mstore\n      swap1\n      0x01\n      add\n      swap1\n      0x20\n      add\n      dup1\n      dup4\n      gt\n      tag_114\n      jumpi\n      dup3\n      swap1\n      sub\n      0x1f\n      and\n      dup3\n      add\n      swap2\n    tag_112:\n      pop\n      pop\n      pop\n      pop\n      pop\n      swap1\n      pop\n      dup3\n      jump\t// out\n        /* \"contracts/MyContract.sol\":410:495  People public person = People({... */\n    tag_56:\n      0x03\n      dup1\n      0x00\n      add\n      sload\n      swap1\n      dup1\n      0x01\n      add\n      dup1\n      sload\n      tag_115\n      swap1\n      tag_83\n      jump\t// in\n    tag_115:\n      dup1\n      0x1f\n      add\n      0x20\n      dup1\n      swap2\n      div\n      mul\n      0x20\n      add\n      mload(0x40)\n      swap1\n      dup2\n      add\n      0x40\n      mstore\n      dup1\n      swap3\n      swap2\n      swap1\n      dup2\n      dup2\n      mstore\n      0x20\n      add\n      dup3\n      dup1\n      sload\n      tag_116\n      swap1\n      tag_83\n      jump\t// in\n    tag_116:\n      dup1\n      iszero\n      tag_117\n      jumpi\n      dup1\n      0x1f\n      lt\n      tag_118\n      jumpi\n      0x0100\n      dup1\n      dup4\n      sload\n      div\n      mul\n      dup4\n      mstore\n      swap2\n      0x20\n      add\n      swap2\n      jump(tag_117)\n    tag_118:\n      dup3\n      add\n      swap2\n      swap1\n      0x00\n      mstore\n      keccak256(0x00, 0x20)\n      swap1\n    tag_119:\n      dup2\n      sload\n      dup2\n      mstore\n      swap1\n      0x01\n      add\n      swap1\n      0x20\n      add\n      dup1\n      dup4\n      gt\n      tag_119\n      jumpi\n      dup3\n      swap1\n      sub\n      0x1f\n      and\n      dup3\n      add\n      swap2\n    tag_117:\n      pop\n      pop\n      pop\n      pop\n      pop\n      swap1\n      pop\n      dup3\n      jump\t// out\n        /* \"contracts/MyContract.sol\":238:259  address public  owner */\n    tag_60:\n      0x02\n      0x00\n      swap1\n      sload\n      swap1\n      0x0100\n      exp\n      swap1\n      div\n      0xffffffffffffffffffffffffffffffffffffffff\n      and\n      dup2\n      jump\t// out\n        /* \"contracts/MyContract.sol\":1922:2013  function isOwner() public  view returns(bool){... */\n    tag_64:\n        /* \"contracts/MyContract.sol\":1962:1966  bool */\n      0x00\n        /* \"contracts/MyContract.sol\":1994:2004  msg.sender */\n      caller\n        /* \"contracts/MyContract.sol\":1985:2004  owner == msg.sender */\n      0xffffffffffffffffffffffffffffffffffffffff\n      and\n        /* \"contracts/MyContract.sol\":1985:1990  owner */\n      0x02\n      0x00\n      swap1\n      sload\n      swap1\n      0x0100\n      exp\n      swap1\n      div\n      0xffffffffffffffffffffffffffffffffffffffff\n      and\n        /* \"contracts/MyContract.sol\":1985:2004  owner == msg.sender */\n      0xffffffffffffffffffffffffffffffffffffffff\n      and\n      eq\n        /* \"contracts/MyContract.sol\":1978:2005  return(owner == msg.sender) */\n      swap1\n      pop\n        /* \"contracts/MyContract.sol\":1922:2013  function isOwner() public  view returns(bool){... */\n      swap1\n      jump\t// out\n        /* \"contracts/MyContract.sol\":749:974  function countEvenNumber() public  view returns(uint) {... */\n    tag_67:\n        /* \"contracts/MyContract.sol\":797:801  uint */\n      0x00\n        /* \"contracts/MyContract.sol\":814:824  uint count */\n      dup1\n        /* \"contracts/MyContract.sol\":827:828  0 */\n      0x00\n        /* \"contracts/MyContract.sol\":814:828  uint count = 0 */\n      swap1\n      pop\n        /* \"contracts/MyContract.sol\":845:851  uint i */\n      0x00\n        /* \"contracts/MyContract.sol\":841:939  for(uint i = 0; i < numbers.length; i++) {... */\n    tag_122:\n        /* \"contracts/MyContract.sol\":861:868  numbers */\n      0x07\n        /* \"contracts/MyContract.sol\":861:875  numbers.length */\n      dup1\n      sload\n      swap1\n      pop\n        /* \"contracts/MyContract.sol\":857:858  i */\n      dup2\n        /* \"contracts/MyContract.sol\":857:875  i < numbers.length */\n      lt\n        /* \"contracts/MyContract.sol\":841:939  for(uint i = 0; i < numbers.length; i++) {... */\n      iszero\n      tag_123\n      jumpi\n        /* \"contracts/MyContract.sol\":900:918  isEven(numbers[i]) */\n      tag_125\n        /* \"contracts/MyContract.sol\":907:914  numbers */\n      0x07\n        /* \"contracts/MyContract.sol\":915:916  i */\n      dup3\n        /* \"contracts/MyContract.sol\":907:917  numbers[i] */\n      dup2\n      sload\n      dup2\n      lt\n      tag_126\n      jumpi\n      tag_127\n      tag_128\n      jump\t// in\n    tag_127:\n    tag_126:\n      swap1\n      0x00\n      mstore\n      keccak256(0x00, 0x20)\n      add\n      sload\n        /* \"contracts/MyContract.sol\":900:906  isEven */\n      tag_39\n        /* \"contracts/MyContract.sol\":900:918  isEven(numbers[i]) */\n      jump\t// in\n    tag_125:\n        /* \"contracts/MyContract.sol\":897:927  if(isEven(numbers[i])) count++ */\n      iszero\n      tag_130\n      jumpi\n        /* \"contracts/MyContract.sol\":920:927  count++ */\n      dup2\n      dup1\n      tag_131\n      swap1\n      tag_132\n      jump\t// in\n    tag_131:\n      swap3\n      pop\n      pop\n        /* \"contracts/MyContract.sol\":897:927  if(isEven(numbers[i])) count++ */\n    tag_130:\n        /* \"contracts/MyContract.sol\":877:880  i++ */\n      dup1\n      dup1\n      0x01\n      add\n      swap2\n      pop\n      pop\n        /* \"contracts/MyContract.sol\":841:939  for(uint i = 0; i < numbers.length; i++) {... */\n      jump(tag_122)\n    tag_123:\n      pop\n        /* \"contracts/MyContract.sol\":959:964  count */\n      dup1\n        /* \"contracts/MyContract.sol\":951:964  return  count */\n      swap2\n      pop\n      pop\n        /* \"contracts/MyContract.sol\":749:974  function countEvenNumber() public  view returns(uint) {... */\n      swap1\n      jump\t// out\n        /* \"contracts/MyContract.sol\":691:740  uint[] public  numbers = [1, 2, 3,4,5,6,7,8,9,10] */\n    tag_71:\n      0x07\n      dup2\n      dup2\n      sload\n      dup2\n      lt\n      tag_133\n      jumpi\n      0x00\n      dup1\n      revert\n    tag_133:\n      swap1\n      0x00\n      mstore\n      keccak256(0x00, 0x20)\n      add\n      0x00\n      swap2\n      pop\n      swap1\n      pop\n      sload\n      dup2\n      jump\t// out\n        /* \"#utility.yul\":7:82   */\n    tag_135:\n        /* \"#utility.yul\":40:46   */\n      0x00\n        /* \"#utility.yul\":73:75   */\n      0x40\n        /* \"#utility.yul\":67:76   */\n      mload\n        /* \"#utility.yul\":57:76   */\n      swap1\n      pop\n        /* \"#utility.yul\":7:82   */\n      swap1\n      jump\t// out\n        /* \"#utility.yul\":88:205   */\n    tag_136:\n        /* \"#utility.yul\":197:198   */\n      0x00\n        /* \"#utility.yul\":194:195   */\n      dup1\n        /* \"#utility.yul\":187:199   */\n      revert\n        /* \"#utility.yul\":211:328   */\n    tag_137:\n        /* \"#utility.yul\":320:321   */\n      0x00\n        /* \"#utility.yul\":317:318   */\n      dup1\n        /* \"#utility.yul\":310:322   */\n      revert\n        /* \"#utility.yul\":334:411   */\n    tag_138:\n        /* \"#utility.yul\":371:378   */\n      0x00\n        /* \"#utility.yul\":400:405   */\n      dup2\n        /* \"#utility.yul\":389:405   */\n      swap1\n      pop\n        /* \"#utility.yul\":334:411   */\n      swap2\n      swap1\n      pop\n      jump\t// out\n        /* \"#utility.yul\":417:539   */\n    tag_139:\n        /* \"#utility.yul\":490:514   */\n      tag_189\n        /* \"#utility.yul\":508:513   */\n      dup2\n        /* \"#utility.yul\":490:514   */\n      tag_138\n      jump\t// in\n    tag_189:\n        /* \"#utility.yul\":483:488   */\n      dup2\n        /* \"#utility.yul\":480:515   */\n      eq\n        /* \"#utility.yul\":470:533   */\n      tag_190\n      jumpi\n        /* \"#utility.yul\":529:530   */\n      0x00\n        /* \"#utility.yul\":526:527   */\n      dup1\n        /* \"#utility.yul\":519:531   */\n      revert\n        /* \"#utility.yul\":470:533   */\n    tag_190:\n        /* \"#utility.yul\":417:539   */\n      pop\n      jump\t// out\n        /* \"#utility.yul\":545:684   */\n    tag_140:\n        /* \"#utility.yul\":591:596   */\n      0x00\n        /* \"#utility.yul\":629:635   */\n      dup2\n        /* \"#utility.yul\":616:636   */\n      calldataload\n        /* \"#utility.yul\":607:636   */\n      swap1\n      pop\n        /* \"#utility.yul\":645:678   */\n      tag_192\n        /* \"#utility.yul\":672:677   */\n      dup2\n        /* \"#utility.yul\":645:678   */\n      tag_139\n      jump\t// in\n    tag_192:\n        /* \"#utility.yul\":545:684   */\n      swap3\n      swap2\n      pop\n      pop\n      jump\t// out\n        /* \"#utility.yul\":690:807   */\n    tag_141:\n        /* \"#utility.yul\":799:800   */\n      0x00\n        /* \"#utility.yul\":796:797   */\n      dup1\n        /* \"#utility.yul\":789:801   */\n      revert\n        /* \"#utility.yul\":813:930   */\n    tag_142:\n        /* \"#utility.yul\":922:923   */\n      0x00\n        /* \"#utility.yul\":919:920   */\n      dup1\n        /* \"#utility.yul\":912:924   */\n      revert\n        /* \"#utility.yul\":936:1038   */\n    tag_143:\n        /* \"#utility.yul\":977:983   */\n      0x00\n        /* \"#utility.yul\":1028:1030   */\n      0x1f\n        /* \"#utility.yul\":1024:1031   */\n      not\n        /* \"#utility.yul\":1019:1021   */\n      0x1f\n        /* \"#utility.yul\":1012:1017   */\n      dup4\n        /* \"#utility.yul\":1008:1022   */\n      add\n        /* \"#utility.yul\":1004:1032   */\n      and\n        /* \"#utility.yul\":994:1032   */\n      swap1\n      pop\n        /* \"#utility.yul\":936:1038   */\n      swap2\n      swap1\n      pop\n      jump\t// out\n        /* \"#utility.yul\":1044:1224   */\n    tag_144:\n        /* \"#utility.yul\":1092:1169   */\n      0x4e487b7100000000000000000000000000000000000000000000000000000000\n        /* \"#utility.yul\":1089:1090   */\n      0x00\n        /* \"#utility.yul\":1082:1170   */\n      mstore\n        /* \"#utility.yul\":1189:1193   */\n      0x41\n        /* \"#utility.yul\":1186:1187   */\n      0x04\n        /* \"#utility.yul\":1179:1194   */\n      mstore\n        /* \"#utility.yul\":1213:1217   */\n      0x24\n        /* \"#utility.yul\":1210:1211   */\n      0x00\n        /* \"#utility.yul\":1203:1218   */\n      revert\n        /* \"#utility.yul\":1230:1511   */\n    tag_145:\n        /* \"#utility.yul\":1313:1340   */\n      tag_198\n        /* \"#utility.yul\":1335:1339   */\n      dup3\n        /* \"#utility.yul\":1313:1340   */\n      tag_143\n      jump\t// in\n    tag_198:\n        /* \"#utility.yul\":1305:1311   */\n      dup2\n        /* \"#utility.yul\":1301:1341   */\n      add\n        /* \"#utility.yul\":1443:1449   */\n      dup2\n        /* \"#utility.yul\":1431:1441   */\n      dup2\n        /* \"#utility.yul\":1428:1450   */\n      lt\n        /* \"#utility.yul\":1407:1425   */\n      0xffffffffffffffff\n        /* \"#utility.yul\":1395:1405   */\n      dup3\n        /* \"#utility.yul\":1392:1426   */\n      gt\n        /* \"#utility.yul\":1389:1451   */\n      or\n        /* \"#utility.yul\":1386:1474   */\n      iszero\n      tag_199\n      jumpi\n        /* \"#utility.yul\":1454:1472   */\n      tag_200\n      tag_144\n      jump\t// in\n    tag_200:\n        /* \"#utility.yul\":1386:1474   */\n    tag_199:\n        /* \"#utility.yul\":1494:1504   */\n      dup1\n        /* \"#utility.yul\":1490:1492   */\n      0x40\n        /* \"#utility.yul\":1483:1505   */\n      mstore\n        /* \"#utility.yul\":1273:1511   */\n      pop\n        /* \"#utility.yul\":1230:1511   */\n      pop\n      pop\n      jump\t// out\n        /* \"#utility.yul\":1517:1646   */\n    tag_146:\n        /* \"#utility.yul\":1551:1557   */\n      0x00\n        /* \"#utility.yul\":1578:1598   */\n      tag_202\n      tag_135\n      jump\t// in\n    tag_202:\n        /* \"#utility.yul\":1568:1598   */\n      swap1\n      pop\n        /* \"#utility.yul\":1607:1640   */\n      tag_203\n        /* \"#utility.yul\":1635:1639   */\n      dup3\n        /* \"#utility.yul\":1627:1633   */\n      dup3\n        /* \"#utility.yul\":1607:1640   */\n      tag_145\n      jump\t// in\n    tag_203:\n        /* \"#utility.yul\":1517:1646   */\n      swap2\n      swap1\n      pop\n      jump\t// out\n        /* \"#utility.yul\":1652:1960   */\n    tag_147:\n        /* \"#utility.yul\":1714:1718   */\n      0x00\n        /* \"#utility.yul\":1804:1822   */\n      0xffffffffffffffff\n        /* \"#utility.yul\":1796:1802   */\n      dup3\n        /* \"#utility.yul\":1793:1823   */\n      gt\n        /* \"#utility.yul\":1790:1846   */\n      iszero\n      tag_205\n      jumpi\n        /* \"#utility.yul\":1826:1844   */\n      tag_206\n      tag_144\n      jump\t// in\n    tag_206:\n        /* \"#utility.yul\":1790:1846   */\n    tag_205:\n        /* \"#utility.yul\":1864:1893   */\n      tag_207\n        /* \"#utility.yul\":1886:1892   */\n      dup3\n        /* \"#utility.yul\":1864:1893   */\n      tag_143\n      jump\t// in\n    tag_207:\n        /* \"#utility.yul\":1856:1893   */\n      swap1\n      pop\n        /* \"#utility.yul\":1948:1952   */\n      0x20\n        /* \"#utility.yul\":1942:1946   */\n      dup2\n        /* \"#utility.yul\":1938:1953   */\n      add\n        /* \"#utility.yul\":1930:1953   */\n      swap1\n      pop\n        /* \"#utility.yul\":1652:1960   */\n      swap2\n      swap1\n      pop\n      jump\t// out\n        /* \"#utility.yul\":1966:2114   */\n    tag_148:\n        /* \"#utility.yul\":2064:2070   */\n      dup3\n        /* \"#utility.yul\":2059:2062   */\n      dup2\n        /* \"#utility.yul\":2054:2057   */\n      dup4\n        /* \"#utility.yul\":2041:2071   */\n      calldatacopy\n        /* \"#utility.yul\":2105:2106   */\n      0x00\n        /* \"#utility.yul\":2096:2102   */\n      dup4\n        /* \"#utility.yul\":2091:2094   */\n      dup4\n        /* \"#utility.yul\":2087:2103   */\n      add\n        /* \"#utility.yul\":2080:2107   */\n      mstore\n        /* \"#utility.yul\":1966:2114   */\n      pop\n      pop\n      pop\n      jump\t// out\n        /* \"#utility.yul\":2120:2545   */\n    tag_149:\n        /* \"#utility.yul\":2198:2203   */\n      0x00\n        /* \"#utility.yul\":2223:2289   */\n      tag_210\n        /* \"#utility.yul\":2239:2288   */\n      tag_211\n        /* \"#utility.yul\":2281:2287   */\n      dup5\n        /* \"#utility.yul\":2239:2288   */\n      tag_147\n      jump\t// in\n    tag_211:\n        /* \"#utility.yul\":2223:2289   */\n      tag_146\n      jump\t// in\n    tag_210:\n        /* \"#utility.yul\":2214:2289   */\n      swap1\n      pop\n        /* \"#utility.yul\":2312:2318   */\n      dup3\n        /* \"#utility.yul\":2305:2310   */\n      dup2\n        /* \"#utility.yul\":2298:2319   */\n      mstore\n        /* \"#utility.yul\":2350:2354   */\n      0x20\n        /* \"#utility.yul\":2343:2348   */\n      dup2\n        /* \"#utility.yul\":2339:2355   */\n      add\n        /* \"#utility.yul\":2388:2391   */\n      dup5\n        /* \"#utility.yul\":2379:2385   */\n      dup5\n        /* \"#utility.yul\":2374:2377   */\n      dup5\n        /* \"#utility.yul\":2370:2386   */\n      add\n        /* \"#utility.yul\":2367:2392   */\n      gt\n        /* \"#utility.yul\":2364:2476   */\n      iszero\n      tag_212\n      jumpi\n        /* \"#utility.yul\":2395:2474   */\n      tag_213\n      tag_142\n      jump\t// in\n    tag_213:\n        /* \"#utility.yul\":2364:2476   */\n    tag_212:\n        /* \"#utility.yul\":2485:2539   */\n      tag_214\n        /* \"#utility.yul\":2532:2538   */\n      dup5\n        /* \"#utility.yul\":2527:2530   */\n      dup3\n        /* \"#utility.yul\":2522:2525   */\n      dup6\n        /* \"#utility.yul\":2485:2539   */\n      tag_148\n      jump\t// in\n    tag_214:\n        /* \"#utility.yul\":2204:2545   */\n      pop\n        /* \"#utility.yul\":2120:2545   */\n      swap4\n      swap3\n      pop\n      pop\n      pop\n      jump\t// out\n        /* \"#utility.yul\":2565:2905   */\n    tag_150:\n        /* \"#utility.yul\":2621:2626   */\n      0x00\n        /* \"#utility.yul\":2670:2673   */\n      dup3\n        /* \"#utility.yul\":2663:2667   */\n      0x1f\n        /* \"#utility.yul\":2655:2661   */\n      dup4\n        /* \"#utility.yul\":2651:2668   */\n      add\n        /* \"#utility.yul\":2647:2674   */\n      slt\n        /* \"#utility.yul\":2637:2759   */\n      tag_216\n      jumpi\n        /* \"#utility.yul\":2678:2757   */\n      tag_217\n      tag_141\n      jump\t// in\n    tag_217:\n        /* \"#utility.yul\":2637:2759   */\n    tag_216:\n        /* \"#utility.yul\":2795:2801   */\n      dup2\n        /* \"#utility.yul\":2782:2802   */\n      calldataload\n        /* \"#utility.yul\":2820:2899   */\n      tag_218\n        /* \"#utility.yul\":2895:2898   */\n      dup5\n        /* \"#utility.yul\":2887:2893   */\n      dup3\n        /* \"#utility.yul\":2880:2884   */\n      0x20\n        /* \"#utility.yul\":2872:2878   */\n      dup7\n        /* \"#utility.yul\":2868:2885   */\n      add\n        /* \"#utility.yul\":2820:2899   */\n      tag_149\n      jump\t// in\n    tag_218:\n        /* \"#utility.yul\":2811:2899   */\n      swap2\n      pop\n        /* \"#utility.yul\":2627:2905   */\n      pop\n        /* \"#utility.yul\":2565:2905   */\n      swap3\n      swap2\n      pop\n      pop\n      jump\t// out\n        /* \"#utility.yul\":2911:3890   */\n    tag_20:\n        /* \"#utility.yul\":3008:3014   */\n      0x00\n        /* \"#utility.yul\":3016:3022   */\n      dup1\n        /* \"#utility.yul\":3024:3030   */\n      0x00\n        /* \"#utility.yul\":3073:3075   */\n      0x60\n        /* \"#utility.yul\":3061:3070   */\n      dup5\n        /* \"#utility.yul\":3052:3059   */\n      dup7\n        /* \"#utility.yul\":3048:3071   */\n      sub\n        /* \"#utility.yul\":3044:3076   */\n      slt\n        /* \"#utility.yul\":3041:3160   */\n      iszero\n      tag_220\n      jumpi\n        /* \"#utility.yul\":3079:3158   */\n      tag_221\n      tag_136\n      jump\t// in\n    tag_221:\n        /* \"#utility.yul\":3041:3160   */\n    tag_220:\n        /* \"#utility.yul\":3199:3200   */\n      0x00\n        /* \"#utility.yul\":3224:3277   */\n      tag_222\n        /* \"#utility.yul\":3269:3276   */\n      dup7\n        /* \"#utility.yul\":3260:3266   */\n      dup3\n        /* \"#utility.yul\":3249:3258   */\n      dup8\n        /* \"#utility.yul\":3245:3267   */\n      add\n        /* \"#utility.yul\":3224:3277   */\n      tag_140\n      jump\t// in\n    tag_222:\n        /* \"#utility.yul\":3214:3277   */\n      swap4\n      pop\n        /* \"#utility.yul\":3170:3287   */\n      pop\n        /* \"#utility.yul\":3354:3356   */\n      0x20\n        /* \"#utility.yul\":3343:3352   */\n      dup5\n        /* \"#utility.yul\":3339:3357   */\n      add\n        /* \"#utility.yul\":3326:3358   */\n      calldataload\n        /* \"#utility.yul\":3385:3403   */\n      0xffffffffffffffff\n        /* \"#utility.yul\":3377:3383   */\n      dup2\n        /* \"#utility.yul\":3374:3404   */\n      gt\n        /* \"#utility.yul\":3371:3488   */\n      iszero\n      tag_223\n      jumpi\n        /* \"#utility.yul\":3407:3486   */\n      tag_224\n      tag_137\n      jump\t// in\n    tag_224:\n        /* \"#utility.yul\":3371:3488   */\n    tag_223:\n        /* \"#utility.yul\":3512:3575   */\n      tag_225\n        /* \"#utility.yul\":3567:3574   */\n      dup7\n        /* \"#utility.yul\":3558:3564   */\n      dup3\n        /* \"#utility.yul\":3547:3556   */\n      dup8\n        /* \"#utility.yul\":3543:3565   */\n      add\n        /* \"#utility.yul\":3512:3575   */\n      tag_150\n      jump\t// in\n    tag_225:\n        /* \"#utility.yul\":3502:3575   */\n      swap3\n      pop\n        /* \"#utility.yul\":3297:3585   */\n      pop\n        /* \"#utility.yul\":3652:3654   */\n      0x40\n        /* \"#utility.yul\":3641:3650   */\n      dup5\n        /* \"#utility.yul\":3637:3655   */\n      add\n        /* \"#utility.yul\":3624:3656   */\n      calldataload\n        /* \"#utility.yul\":3683:3701   */\n      0xffffffffffffffff\n        /* \"#utility.yul\":3675:3681   */\n      dup2\n        /* \"#utility.yul\":3672:3702   */\n      gt\n        /* \"#utility.yul\":3669:3786   */\n      iszero\n      tag_226\n      jumpi\n        /* \"#utility.yul\":3705:3784   */\n      tag_227\n      tag_137\n      jump\t// in\n    tag_227:\n        /* \"#utility.yul\":3669:3786   */\n    tag_226:\n        /* \"#utility.yul\":3810:3873   */\n      tag_228\n        /* \"#utility.yul\":3865:3872   */\n      dup7\n        /* \"#utility.yul\":3856:3862   */\n      dup3\n        /* \"#utility.yul\":3845:3854   */\n      dup8\n        /* \"#utility.yul\":3841:3863   */\n      add\n        /* \"#utility.yul\":3810:3873   */\n      tag_150\n      jump\t// in\n    tag_228:\n        /* \"#utility.yul\":3800:3873   */\n      swap2\n      pop\n        /* \"#utility.yul\":3595:3883   */\n      pop\n        /* \"#utility.yul\":2911:3890   */\n      swap3\n      pop\n      swap3\n      pop\n      swap3\n      jump\t// out\n        /* \"#utility.yul\":3896:4014   */\n    tag_151:\n        /* \"#utility.yul\":3983:4007   */\n      tag_230\n        /* \"#utility.yul\":4001:4006   */\n      dup2\n        /* \"#utility.yul\":3983:4007   */\n      tag_138\n      jump\t// in\n    tag_230:\n        /* \"#utility.yul\":3978:3981   */\n      dup3\n        /* \"#utility.yul\":3971:4008   */\n      mstore\n        /* \"#utility.yul\":3896:4014   */\n      pop\n      pop\n      jump\t// out\n        /* \"#utility.yul\":4020:4242   */\n    tag_25:\n        /* \"#utility.yul\":4113:4117   */\n      0x00\n        /* \"#utility.yul\":4151:4153   */\n      0x20\n        /* \"#utility.yul\":4140:4149   */\n      dup3\n        /* \"#utility.yul\":4136:4154   */\n      add\n        /* \"#utility.yul\":4128:4154   */\n      swap1\n      pop\n        /* \"#utility.yul\":4164:4235   */\n      tag_232\n        /* \"#utility.yul\":4232:4233   */\n      0x00\n        /* \"#utility.yul\":4221:4230   */\n      dup4\n        /* \"#utility.yul\":4217:4234   */\n      add\n        /* \"#utility.yul\":4208:4214   */\n      dup5\n        /* \"#utility.yul\":4164:4235   */\n      tag_151\n      jump\t// in\n    tag_232:\n        /* \"#utility.yul\":4020:4242   */\n      swap3\n      swap2\n      pop\n      pop\n      jump\t// out\n        /* \"#utility.yul\":4248:5082   */\n    tag_28:\n        /* \"#utility.yul\":4336:4342   */\n      0x00\n        /* \"#utility.yul\":4344:4350   */\n      dup1\n        /* \"#utility.yul\":4393:4395   */\n      0x40\n        /* \"#utility.yul\":4381:4390   */\n      dup4\n        /* \"#utility.yul\":4372:4379   */\n      dup6\n        /* \"#utility.yul\":4368:4391   */\n      sub\n        /* \"#utility.yul\":4364:4396   */\n      slt\n        /* \"#utility.yul\":4361:4480   */\n      iszero\n      tag_234\n      jumpi\n        /* \"#utility.yul\":4399:4478   */\n      tag_235\n      tag_136\n      jump\t// in\n    tag_235:\n        /* \"#utility.yul\":4361:4480   */\n    tag_234:\n        /* \"#utility.yul\":4547:4548   */\n      0x00\n        /* \"#utility.yul\":4536:4545   */\n      dup4\n        /* \"#utility.yul\":4532:4549   */\n      add\n        /* \"#utility.yul\":4519:4550   */\n      calldataload\n        /* \"#utility.yul\":4577:4595   */\n      0xffffffffffffffff\n        /* \"#utility.yul\":4569:4575   */\n      dup2\n        /* \"#utility.yul\":4566:4596   */\n      gt\n        /* \"#utility.yul\":4563:4680   */\n      iszero\n      tag_236\n      jumpi\n        /* \"#utility.yul\":4599:4678   */\n      tag_237\n      tag_137\n      jump\t// in\n    tag_237:\n        /* \"#utility.yul\":4563:4680   */\n    tag_236:\n        /* \"#utility.yul\":4704:4767   */\n      tag_238\n        /* \"#utility.yul\":4759:4766   */\n      dup6\n        /* \"#utility.yul\":4750:4756   */\n      dup3\n        /* \"#utility.yul\":4739:4748   */\n      dup7\n        /* \"#utility.yul\":4735:4757   */\n      add\n        /* \"#utility.yul\":4704:4767   */\n      tag_150\n      jump\t// in\n    tag_238:\n        /* \"#utility.yul\":4694:4767   */\n      swap3\n      pop\n        /* \"#utility.yul\":4490:4777   */\n      pop\n        /* \"#utility.yul\":4844:4846   */\n      0x20\n        /* \"#utility.yul\":4833:4842   */\n      dup4\n        /* \"#utility.yul\":4829:4847   */\n      add\n        /* \"#utility.yul\":4816:4848   */\n      calldataload\n        /* \"#utility.yul\":4875:4893   */\n      0xffffffffffffffff\n        /* \"#utility.yul\":4867:4873   */\n      dup2\n        /* \"#utility.yul\":4864:4894   */\n      gt\n        /* \"#utility.yul\":4861:4978   */\n      iszero\n      tag_239\n      jumpi\n        /* \"#utility.yul\":4897:4976   */\n      tag_240\n      tag_137\n      jump\t// in\n    tag_240:\n        /* \"#utility.yul\":4861:4978   */\n    tag_239:\n        /* \"#utility.yul\":5002:5065   */\n      tag_241\n        /* \"#utility.yul\":5057:5064   */\n      dup6\n        /* \"#utility.yul\":5048:5054   */\n      dup3\n        /* \"#utility.yul\":5037:5046   */\n      dup7\n        /* \"#utility.yul\":5033:5055   */\n      add\n        /* \"#utility.yul\":5002:5065   */\n      tag_150\n      jump\t// in\n    tag_241:\n        /* \"#utility.yul\":4992:5065   */\n      swap2\n      pop\n        /* \"#utility.yul\":4787:5075   */\n      pop\n        /* \"#utility.yul\":4248:5082   */\n      swap3\n      pop\n      swap3\n      swap1\n      pop\n      jump\t// out\n        /* \"#utility.yul\":5088:5214   */\n    tag_152:\n        /* \"#utility.yul\":5125:5132   */\n      0x00\n        /* \"#utility.yul\":5165:5207   */\n      0xffffffffffffffffffffffffffffffffffffffff\n        /* \"#utility.yul\":5158:5163   */\n      dup3\n        /* \"#utility.yul\":5154:5208   */\n      and\n        /* \"#utility.yul\":5143:5208   */\n      swap1\n      pop\n        /* \"#utility.yul\":5088:5214   */\n      swap2\n      swap1\n      pop\n      jump\t// out\n        /* \"#utility.yul\":5220:5316   */\n    tag_153:\n        /* \"#utility.yul\":5257:5264   */\n      0x00\n        /* \"#utility.yul\":5286:5310   */\n      tag_244\n        /* \"#utility.yul\":5304:5309   */\n      dup3\n        /* \"#utility.yul\":5286:5310   */\n      tag_152\n      jump\t// in\n    tag_244:\n        /* \"#utility.yul\":5275:5310   */\n      swap1\n      pop\n        /* \"#utility.yul\":5220:5316   */\n      swap2\n      swap1\n      pop\n      jump\t// out\n        /* \"#utility.yul\":5322:5444   */\n    tag_154:\n        /* \"#utility.yul\":5395:5419   */\n      tag_246\n        /* \"#utility.yul\":5413:5418   */\n      dup2\n        /* \"#utility.yul\":5395:5419   */\n      tag_153\n      jump\t// in\n    tag_246:\n        /* \"#utility.yul\":5388:5393   */\n      dup2\n        /* \"#utility.yul\":5385:5420   */\n      eq\n        /* \"#utility.yul\":5375:5438   */\n      tag_247\n      jumpi\n        /* \"#utility.yul\":5434:5435   */\n      0x00\n        /* \"#utility.yul\":5431:5432   */\n      dup1\n        /* \"#utility.yul\":5424:5436   */\n      revert\n        /* \"#utility.yul\":5375:5438   */\n    tag_247:\n        /* \"#utility.yul\":5322:5444   */\n      pop\n      jump\t// out\n        /* \"#utility.yul\":5450:5589   */\n    tag_155:\n        /* \"#utility.yul\":5496:5501   */\n      0x00\n        /* \"#utility.yul\":5534:5540   */\n      dup2\n        /* \"#utility.yul\":5521:5541   */\n      calldataload\n        /* \"#utility.yul\":5512:5541   */\n      swap1\n      pop\n        /* \"#utility.yul\":5550:5583   */\n      tag_249\n        /* \"#utility.yul\":5577:5582   */\n      dup2\n        /* \"#utility.yul\":5550:5583   */\n      tag_154\n      jump\t// in\n    tag_249:\n        /* \"#utility.yul\":5450:5589   */\n      swap3\n      swap2\n      pop\n      pop\n      jump\t// out\n        /* \"#utility.yul\":5595:6069   */\n    tag_32:\n        /* \"#utility.yul\":5663:5669   */\n      0x00\n        /* \"#utility.yul\":5671:5677   */\n      dup1\n        /* \"#utility.yul\":5720:5722   */\n      0x40\n        /* \"#utility.yul\":5708:5717   */\n      dup4\n        /* \"#utility.yul\":5699:5706   */\n      dup6\n        /* \"#utility.yul\":5695:5718   */\n      sub\n        /* \"#utility.yul\":5691:5723   */\n      slt\n        /* \"#utility.yul\":5688:5807   */\n      iszero\n      tag_251\n      jumpi\n        /* \"#utility.yul\":5726:5805   */\n      tag_252\n      tag_136\n      jump\t// in\n    tag_252:\n        /* \"#utility.yul\":5688:5807   */\n    tag_251:\n        /* \"#utility.yul\":5846:5847   */\n      0x00\n        /* \"#utility.yul\":5871:5924   */\n      tag_253\n        /* \"#utility.yul\":5916:5923   */\n      dup6\n        /* \"#utility.yul\":5907:5913   */\n      dup3\n        /* \"#utility.yul\":5896:5905   */\n      dup7\n        /* \"#utility.yul\":5892:5914   */\n      add\n        /* \"#utility.yul\":5871:5924   */\n      tag_155\n      jump\t// in\n    tag_253:\n        /* \"#utility.yul\":5861:5924   */\n      swap3\n      pop\n        /* \"#utility.yul\":5817:5934   */\n      pop\n        /* \"#utility.yul\":5973:5975   */\n      0x20\n        /* \"#utility.yul\":5999:6052   */\n      tag_254\n        /* \"#utility.yul\":6044:6051   */\n      dup6\n        /* \"#utility.yul\":6035:6041   */\n      dup3\n        /* \"#utility.yul\":6024:6033   */\n      dup7\n        /* \"#utility.yul\":6020:6042   */\n      add\n        /* \"#utility.yul\":5999:6052   */\n      tag_140\n      jump\t// in\n    tag_254:\n        /* \"#utility.yul\":5989:6052   */\n      swap2\n      pop\n        /* \"#utility.yul\":5944:6062   */\n      pop\n        /* \"#utility.yul\":5595:6069   */\n      swap3\n      pop\n      swap3\n      swap1\n      pop\n      jump\t// out\n        /* \"#utility.yul\":6075:6174   */\n    tag_156:\n        /* \"#utility.yul\":6127:6133   */\n      0x00\n        /* \"#utility.yul\":6161:6166   */\n      dup2\n        /* \"#utility.yul\":6155:6167   */\n      mload\n        /* \"#utility.yul\":6145:6167   */\n      swap1\n      pop\n        /* \"#utility.yul\":6075:6174   */\n      swap2\n      swap1\n      pop\n      jump\t// out\n        /* \"#utility.yul\":6180:6349   */\n    tag_157:\n        /* \"#utility.yul\":6264:6275   */\n      0x00\n        /* \"#utility.yul\":6298:6304   */\n      dup3\n        /* \"#utility.yul\":6293:6296   */\n      dup3\n        /* \"#utility.yul\":6286:6305   */\n      mstore\n        /* \"#utility.yul\":6338:6342   */\n      0x20\n        /* \"#utility.yul\":6333:6336   */\n      dup3\n        /* \"#utility.yul\":6329:6343   */\n      add\n        /* \"#utility.yul\":6314:6343   */\n      swap1\n      pop\n        /* \"#utility.yul\":6180:6349   */\n      swap3\n      swap2\n      pop\n      pop\n      jump\t// out\n        /* \"#utility.yul\":6355:6494   */\n    tag_158:\n        /* \"#utility.yul\":6444:6450   */\n      dup3\n        /* \"#utility.yul\":6439:6442   */\n      dup2\n        /* \"#utility.yul\":6434:6437   */\n      dup4\n        /* \"#utility.yul\":6428:6451   */\n      mcopy\n        /* \"#utility.yul\":6485:6486   */\n      0x00\n        /* \"#utility.yul\":6476:6482   */\n      dup4\n        /* \"#utility.yul\":6471:6474   */\n      dup4\n        /* \"#utility.yul\":6467:6483   */\n      add\n        /* \"#utility.yul\":6460:6487   */\n      mstore\n        /* \"#utility.yul\":6355:6494   */\n      pop\n      pop\n      pop\n      jump\t// out\n        /* \"#utility.yul\":6500:6877   */\n    tag_159:\n        /* \"#utility.yul\":6588:6591   */\n      0x00\n        /* \"#utility.yul\":6616:6655   */\n      tag_259\n        /* \"#utility.yul\":6649:6654   */\n      dup3\n        /* \"#utility.yul\":6616:6655   */\n      tag_156\n      jump\t// in\n    tag_259:\n        /* \"#utility.yul\":6671:6742   */\n      tag_260\n        /* \"#utility.yul\":6735:6741   */\n      dup2\n        /* \"#utility.yul\":6730:6733   */\n      dup6\n        /* \"#utility.yul\":6671:6742   */\n      tag_157\n      jump\t// in\n    tag_260:\n        /* \"#utility.yul\":6664:6742   */\n      swap4\n      pop\n        /* \"#utility.yul\":6751:6816   */\n      tag_261\n        /* \"#utility.yul\":6809:6815   */\n      dup2\n        /* \"#utility.yul\":6804:6807   */\n      dup6\n        /* \"#utility.yul\":6797:6801   */\n      0x20\n        /* \"#utility.yul\":6790:6795   */\n      dup7\n        /* \"#utility.yul\":6786:6802   */\n      add\n        /* \"#utility.yul\":6751:6816   */\n      tag_158\n      jump\t// in\n    tag_261:\n        /* \"#utility.yul\":6841:6870   */\n      tag_262\n        /* \"#utility.yul\":6863:6869   */\n      dup2\n        /* \"#utility.yul\":6841:6870   */\n      tag_143\n      jump\t// in\n    tag_262:\n        /* \"#utility.yul\":6836:6839   */\n      dup5\n        /* \"#utility.yul\":6832:6871   */\n      add\n        /* \"#utility.yul\":6825:6871   */\n      swap2\n      pop\n        /* \"#utility.yul\":6592:6877   */\n      pop\n        /* \"#utility.yul\":6500:6877   */\n      swap3\n      swap2\n      pop\n      pop\n      jump\t// out\n        /* \"#utility.yul\":6883:7397   */\n    tag_35:\n        /* \"#utility.yul\":7044:7048   */\n      0x00\n        /* \"#utility.yul\":7082:7084   */\n      0x40\n        /* \"#utility.yul\":7071:7080   */\n      dup3\n        /* \"#utility.yul\":7067:7085   */\n      add\n        /* \"#utility.yul\":7059:7085   */\n      swap1\n      pop\n        /* \"#utility.yul\":7131:7140   */\n      dup2\n        /* \"#utility.yul\":7125:7129   */\n      dup2\n        /* \"#utility.yul\":7121:7141   */\n      sub\n        /* \"#utility.yul\":7117:7118   */\n      0x00\n        /* \"#utility.yul\":7106:7115   */\n      dup4\n        /* \"#utility.yul\":7102:7119   */\n      add\n        /* \"#utility.yul\":7095:7142   */\n      mstore\n        /* \"#utility.yul\":7159:7237   */\n      tag_264\n        /* \"#utility.yul\":7232:7236   */\n      dup2\n        /* \"#utility.yul\":7223:7229   */\n      dup6\n        /* \"#utility.yul\":7159:7237   */\n      tag_159\n      jump\t// in\n    tag_264:\n        /* \"#utility.yul\":7151:7237   */\n      swap1\n      pop\n        /* \"#utility.yul\":7284:7293   */\n      dup2\n        /* \"#utility.yul\":7278:7282   */\n      dup2\n        /* \"#utility.yul\":7274:7294   */\n      sub\n        /* \"#utility.yul\":7269:7271   */\n      0x20\n        /* \"#utility.yul\":7258:7267   */\n      dup4\n        /* \"#utility.yul\":7254:7272   */\n      add\n        /* \"#utility.yul\":7247:7295   */\n      mstore\n        /* \"#utility.yul\":7312:7390   */\n      tag_265\n        /* \"#utility.yul\":7385:7389   */\n      dup2\n        /* \"#utility.yul\":7376:7382   */\n      dup5\n        /* \"#utility.yul\":7312:7390   */\n      tag_159\n      jump\t// in\n    tag_265:\n        /* \"#utility.yul\":7304:7390   */\n      swap1\n      pop\n        /* \"#utility.yul\":6883:7397   */\n      swap4\n      swap3\n      pop\n      pop\n      pop\n      jump\t// out\n        /* \"#utility.yul\":7403:7732   */\n    tag_38:\n        /* \"#utility.yul\":7462:7468   */\n      0x00\n        /* \"#utility.yul\":7511:7513   */\n      0x20\n        /* \"#utility.yul\":7499:7508   */\n      dup3\n        /* \"#utility.yul\":7490:7497   */\n      dup5\n        /* \"#utility.yul\":7486:7509   */\n      sub\n        /* \"#utility.yul\":7482:7514   */\n      slt\n        /* \"#utility.yul\":7479:7598   */\n      iszero\n      tag_267\n      jumpi\n        /* \"#utility.yul\":7517:7596   */\n      tag_268\n      tag_136\n      jump\t// in\n    tag_268:\n        /* \"#utility.yul\":7479:7598   */\n    tag_267:\n        /* \"#utility.yul\":7637:7638   */\n      0x00\n        /* \"#utility.yul\":7662:7715   */\n      tag_269\n        /* \"#utility.yul\":7707:7714   */\n      dup5\n        /* \"#utility.yul\":7698:7704   */\n      dup3\n        /* \"#utility.yul\":7687:7696   */\n      dup6\n        /* \"#utility.yul\":7683:7705   */\n      add\n        /* \"#utility.yul\":7662:7715   */\n      tag_140\n      jump\t// in\n    tag_269:\n        /* \"#utility.yul\":7652:7715   */\n      swap2\n      pop\n        /* \"#utility.yul\":7608:7725   */\n      pop\n        /* \"#utility.yul\":7403:7732   */\n      swap3\n      swap2\n      pop\n      pop\n      jump\t// out\n        /* \"#utility.yul\":7738:7828   */\n    tag_160:\n        /* \"#utility.yul\":7772:7779   */\n      0x00\n        /* \"#utility.yul\":7815:7820   */\n      dup2\n        /* \"#utility.yul\":7808:7821   */\n      iszero\n        /* \"#utility.yul\":7801:7822   */\n      iszero\n        /* \"#utility.yul\":7790:7822   */\n      swap1\n      pop\n        /* \"#utility.yul\":7738:7828   */\n      swap2\n      swap1\n      pop\n      jump\t// out\n        /* \"#utility.yul\":7834:7943   */\n    tag_161:\n        /* \"#utility.yul\":7915:7936   */\n      tag_272\n        /* \"#utility.yul\":7930:7935   */\n      dup2\n        /* \"#utility.yul\":7915:7936   */\n      tag_160\n      jump\t// in\n    tag_272:\n        /* \"#utility.yul\":7910:7913   */\n      dup3\n        /* \"#utility.yul\":7903:7937   */\n      mstore\n        /* \"#utility.yul\":7834:7943   */\n      pop\n      pop\n      jump\t// out\n        /* \"#utility.yul\":7949:8159   */\n    tag_41:\n        /* \"#utility.yul\":8036:8040   */\n      0x00\n        /* \"#utility.yul\":8074:8076   */\n      0x20\n        /* \"#utility.yul\":8063:8072   */\n      dup3\n        /* \"#utility.yul\":8059:8077   */\n      add\n        /* \"#utility.yul\":8051:8077   */\n      swap1\n      pop\n        /* \"#utility.yul\":8087:8152   */\n      tag_274\n        /* \"#utility.yul\":8149:8150   */\n      0x00\n        /* \"#utility.yul\":8138:8147   */\n      dup4\n        /* \"#utility.yul\":8134:8151   */\n      add\n        /* \"#utility.yul\":8125:8131   */\n      dup5\n        /* \"#utility.yul\":8087:8152   */\n      tag_161\n      jump\t// in\n    tag_274:\n        /* \"#utility.yul\":7949:8159   */\n      swap3\n      swap2\n      pop\n      pop\n      jump\t// out\n        /* \"#utility.yul\":8165:8819   */\n    tag_44:\n        /* \"#utility.yul\":8243:8249   */\n      0x00\n        /* \"#utility.yul\":8251:8257   */\n      dup1\n        /* \"#utility.yul\":8300:8302   */\n      0x40\n        /* \"#utility.yul\":8288:8297   */\n      dup4\n        /* \"#utility.yul\":8279:8286   */\n      dup6\n        /* \"#utility.yul\":8275:8298   */\n      sub\n        /* \"#utility.yul\":8271:8303   */\n      slt\n        /* \"#utility.yul\":8268:8387   */\n      iszero\n      tag_276\n      jumpi\n        /* \"#utility.yul\":8306:8385   */\n      tag_277\n      tag_136\n      jump\t// in\n    tag_277:\n        /* \"#utility.yul\":8268:8387   */\n    tag_276:\n        /* \"#utility.yul\":8426:8427   */\n      0x00\n        /* \"#utility.yul\":8451:8504   */\n      tag_278\n        /* \"#utility.yul\":8496:8503   */\n      dup6\n        /* \"#utility.yul\":8487:8493   */\n      dup3\n        /* \"#utility.yul\":8476:8485   */\n      dup7\n        /* \"#utility.yul\":8472:8494   */\n      add\n        /* \"#utility.yul\":8451:8504   */\n      tag_155\n      jump\t// in\n    tag_278:\n        /* \"#utility.yul\":8441:8504   */\n      swap3\n      pop\n        /* \"#utility.yul\":8397:8514   */\n      pop\n        /* \"#utility.yul\":8581:8583   */\n      0x20\n        /* \"#utility.yul\":8570:8579   */\n      dup4\n        /* \"#utility.yul\":8566:8584   */\n      add\n        /* \"#utility.yul\":8553:8585   */\n      calldataload\n        /* \"#utility.yul\":8612:8630   */\n      0xffffffffffffffff\n        /* \"#utility.yul\":8604:8610   */\n      dup2\n        /* \"#utility.yul\":8601:8631   */\n      gt\n        /* \"#utility.yul\":8598:8715   */\n      iszero\n      tag_279\n      jumpi\n        /* \"#utility.yul\":8634:8713   */\n      tag_280\n      tag_137\n      jump\t// in\n    tag_280:\n        /* \"#utility.yul\":8598:8715   */\n    tag_279:\n        /* \"#utility.yul\":8739:8802   */\n      tag_281\n        /* \"#utility.yul\":8794:8801   */\n      dup6\n        /* \"#utility.yul\":8785:8791   */\n      dup3\n        /* \"#utility.yul\":8774:8783   */\n      dup7\n        /* \"#utility.yul\":8770:8792   */\n      add\n        /* \"#utility.yul\":8739:8802   */\n      tag_150\n      jump\t// in\n    tag_281:\n        /* \"#utility.yul\":8729:8802   */\n      swap2\n      pop\n        /* \"#utility.yul\":8524:8812   */\n      pop\n        /* \"#utility.yul\":8165:8819   */\n      swap3\n      pop\n      swap3\n      swap1\n      pop\n      jump\t// out\n        /* \"#utility.yul\":8825:9138   */\n    tag_47:\n        /* \"#utility.yul\":8938:8942   */\n      0x00\n        /* \"#utility.yul\":8976:8978   */\n      0x20\n        /* \"#utility.yul\":8965:8974   */\n      dup3\n        /* \"#utility.yul\":8961:8979   */\n      add\n        /* \"#utility.yul\":8953:8979   */\n      swap1\n      pop\n        /* \"#utility.yul\":9025:9034   */\n      dup2\n        /* \"#utility.yul\":9019:9023   */\n      dup2\n        /* \"#utility.yul\":9015:9035   */\n      sub\n        /* \"#utility.yul\":9011:9012   */\n      0x00\n        /* \"#utility.yul\":9000:9009   */\n      dup4\n        /* \"#utility.yul\":8996:9013   */\n      add\n        /* \"#utility.yul\":8989:9036   */\n      mstore\n        /* \"#utility.yul\":9053:9131   */\n      tag_283\n        /* \"#utility.yul\":9126:9130   */\n      dup2\n        /* \"#utility.yul\":9117:9123   */\n      dup5\n        /* \"#utility.yul\":9053:9131   */\n      tag_159\n      jump\t// in\n    tag_283:\n        /* \"#utility.yul\":9045:9131   */\n      swap1\n      pop\n        /* \"#utility.yul\":8825:9138   */\n      swap3\n      swap2\n      pop\n      pop\n      jump\t// out\n        /* \"#utility.yul\":9144:9567   */\n    tag_58:\n        /* \"#utility.yul\":9285:9289   */\n      0x00\n        /* \"#utility.yul\":9323:9325   */\n      0x40\n        /* \"#utility.yul\":9312:9321   */\n      dup3\n        /* \"#utility.yul\":9308:9326   */\n      add\n        /* \"#utility.yul\":9300:9326   */\n      swap1\n      pop\n        /* \"#utility.yul\":9336:9407   */\n      tag_285\n        /* \"#utility.yul\":9404:9405   */\n      0x00\n        /* \"#utility.yul\":9393:9402   */\n      dup4\n        /* \"#utility.yul\":9389:9406   */\n      add\n        /* \"#utility.yul\":9380:9386   */\n      dup6\n        /* \"#utility.yul\":9336:9407   */\n      tag_151\n      jump\t// in\n    tag_285:\n        /* \"#utility.yul\":9454:9463   */\n      dup2\n        /* \"#utility.yul\":9448:9452   */\n      dup2\n        /* \"#utility.yul\":9444:9464   */\n      sub\n        /* \"#utility.yul\":9439:9441   */\n      0x20\n        /* \"#utility.yul\":9428:9437   */\n      dup4\n        /* \"#utility.yul\":9424:9442   */\n      add\n        /* \"#utility.yul\":9417:9465   */\n      mstore\n        /* \"#utility.yul\":9482:9560   */\n      tag_286\n        /* \"#utility.yul\":9555:9559   */\n      dup2\n        /* \"#utility.yul\":9546:9552   */\n      dup5\n        /* \"#utility.yul\":9482:9560   */\n      tag_159\n      jump\t// in\n    tag_286:\n        /* \"#utility.yul\":9474:9560   */\n      swap1\n      pop\n        /* \"#utility.yul\":9144:9567   */\n      swap4\n      swap3\n      pop\n      pop\n      pop\n      jump\t// out\n        /* \"#utility.yul\":9573:9691   */\n    tag_162:\n        /* \"#utility.yul\":9660:9684   */\n      tag_288\n        /* \"#utility.yul\":9678:9683   */\n      dup2\n        /* \"#utility.yul\":9660:9684   */\n      tag_153\n      jump\t// in\n    tag_288:\n        /* \"#utility.yul\":9655:9658   */\n      dup3\n        /* \"#utility.yul\":9648:9685   */\n      mstore\n        /* \"#utility.yul\":9573:9691   */\n      pop\n      pop\n      jump\t// out\n        /* \"#utility.yul\":9697:9919   */\n    tag_62:\n        /* \"#utility.yul\":9790:9794   */\n      0x00\n        /* \"#utility.yul\":9828:9830   */\n      0x20\n        /* \"#utility.yul\":9817:9826   */\n      dup3\n        /* \"#utility.yul\":9813:9831   */\n      add\n        /* \"#utility.yul\":9805:9831   */\n      swap1\n      pop\n        /* \"#utility.yul\":9841:9912   */\n      tag_290\n        /* \"#utility.yul\":9909:9910   */\n      0x00\n        /* \"#utility.yul\":9898:9907   */\n      dup4\n        /* \"#utility.yul\":9894:9911   */\n      add\n        /* \"#utility.yul\":9885:9891   */\n      dup5\n        /* \"#utility.yul\":9841:9912   */\n      tag_162\n      jump\t// in\n    tag_290:\n        /* \"#utility.yul\":9697:9919   */\n      swap3\n      swap2\n      pop\n      pop\n      jump\t// out\n        /* \"#utility.yul\":9925:10105   */\n    tag_163:\n        /* \"#utility.yul\":9973:10050   */\n      0x4e487b7100000000000000000000000000000000000000000000000000000000\n        /* \"#utility.yul\":9970:9971   */\n      0x00\n        /* \"#utility.yul\":9963:10051   */\n      mstore\n        /* \"#utility.yul\":10070:10074   */\n      0x22\n        /* \"#utility.yul\":10067:10068   */\n      0x04\n        /* \"#utility.yul\":10060:10075   */\n      mstore\n        /* \"#utility.yul\":10094:10098   */\n      0x24\n        /* \"#utility.yul\":10091:10092   */\n      0x00\n        /* \"#utility.yul\":10084:10099   */\n      revert\n        /* \"#utility.yul\":10111:10431   */\n    tag_83:\n        /* \"#utility.yul\":10155:10161   */\n      0x00\n        /* \"#utility.yul\":10192:10193   */\n      0x02\n        /* \"#utility.yul\":10186:10190   */\n      dup3\n        /* \"#utility.yul\":10182:10194   */\n      div\n        /* \"#utility.yul\":10172:10194   */\n      swap1\n      pop\n        /* \"#utility.yul\":10239:10240   */\n      0x01\n        /* \"#utility.yul\":10233:10237   */\n      dup3\n        /* \"#utility.yul\":10229:10241   */\n      and\n        /* \"#utility.yul\":10260:10278   */\n      dup1\n        /* \"#utility.yul\":10250:10331   */\n      tag_293\n      jumpi\n        /* \"#utility.yul\":10316:10320   */\n      0x7f\n        /* \"#utility.yul\":10308:10314   */\n      dup3\n        /* \"#utility.yul\":10304:10321   */\n      and\n        /* \"#utility.yul\":10294:10321   */\n      swap2\n      pop\n        /* \"#utility.yul\":10250:10331   */\n    tag_293:\n        /* \"#utility.yul\":10378:10380   */\n      0x20\n        /* \"#utility.yul\":10370:10376   */\n      dup3\n        /* \"#utility.yul\":10367:10381   */\n      lt\n        /* \"#utility.yul\":10347:10365   */\n      dup2\n        /* \"#utility.yul\":10344:10382   */\n      sub\n        /* \"#utility.yul\":10341:10425   */\n      tag_294\n      jumpi\n        /* \"#utility.yul\":10397:10415   */\n      tag_295\n      tag_163\n      jump\t// in\n    tag_295:\n        /* \"#utility.yul\":10341:10425   */\n    tag_294:\n        /* \"#utility.yul\":10162:10431   */\n      pop\n        /* \"#utility.yul\":10111:10431   */\n      swap2\n      swap1\n      pop\n      jump\t// out\n        /* \"#utility.yul\":10437:10578   */\n    tag_164:\n        /* \"#utility.yul\":10486:10490   */\n      0x00\n        /* \"#utility.yul\":10509:10512   */\n      dup2\n        /* \"#utility.yul\":10501:10512   */\n      swap1\n      pop\n        /* \"#utility.yul\":10532:10535   */\n      dup2\n        /* \"#utility.yul\":10529:10530   */\n      0x00\n        /* \"#utility.yul\":10522:10536   */\n      mstore\n        /* \"#utility.yul\":10566:10570   */\n      0x20\n        /* \"#utility.yul\":10563:10564   */\n      0x00\n        /* \"#utility.yul\":10553:10571   */\n      keccak256\n        /* \"#utility.yul\":10545:10571   */\n      swap1\n      pop\n        /* \"#utility.yul\":10437:10578   */\n      swap2\n      swap1\n      pop\n      jump\t// out\n        /* \"#utility.yul\":10584:10677   */\n    tag_165:\n        /* \"#utility.yul\":10621:10627   */\n      0x00\n        /* \"#utility.yul\":10668:10670   */\n      0x20\n        /* \"#utility.yul\":10663:10665   */\n      0x1f\n        /* \"#utility.yul\":10656:10661   */\n      dup4\n        /* \"#utility.yul\":10652:10666   */\n      add\n        /* \"#utility.yul\":10648:10671   */\n      div\n        /* \"#utility.yul\":10638:10671   */\n      swap1\n      pop\n        /* \"#utility.yul\":10584:10677   */\n      swap2\n      swap1\n      pop\n      jump\t// out\n        /* \"#utility.yul\":10683:10790   */\n    tag_166:\n        /* \"#utility.yul\":10727:10735   */\n      0x00\n        /* \"#utility.yul\":10777:10782   */\n      dup3\n        /* \"#utility.yul\":10771:10775   */\n      dup3\n        /* \"#utility.yul\":10767:10783   */\n      shl\n        /* \"#utility.yul\":10746:10783   */\n      swap1\n      pop\n        /* \"#utility.yul\":10683:10790   */\n      swap3\n      swap2\n      pop\n      pop\n      jump\t// out\n        /* \"#utility.yul\":10796:11189   */\n    tag_167:\n        /* \"#utility.yul\":10865:10871   */\n      0x00\n        /* \"#utility.yul\":10915:10916   */\n      0x08\n        /* \"#utility.yul\":10903:10913   */\n      dup4\n        /* \"#utility.yul\":10899:10917   */\n      mul\n        /* \"#utility.yul\":10938:11035   */\n      tag_300\n        /* \"#utility.yul\":10968:11034   */\n      0xffffffffffffffffffffffffffffffffffffffffffffffffffffffffffffffff\n        /* \"#utility.yul\":10957:10966   */\n      dup3\n        /* \"#utility.yul\":10938:11035   */\n      tag_166\n      jump\t// in\n    tag_300:\n        /* \"#utility.yul\":11056:11095   */\n      tag_301\n        /* \"#utility.yul\":11086:11094   */\n      dup7\n        /* \"#utility.yul\":11075:11084   */\n      dup4\n        /* \"#utility.yul\":11056:11095   */\n      tag_166\n      jump\t// in\n    tag_301:\n        /* \"#utility.yul\":11044:11095   */\n      swap6\n      pop\n        /* \"#utility.yul\":11128:11132   */\n      dup1\n        /* \"#utility.yul\":11124:11133   */\n      not\n        /* \"#utility.yul\":11117:11122   */\n      dup5\n        /* \"#utility.yul\":11113:11134   */\n      and\n        /* \"#utility.yul\":11104:11134   */\n      swap4\n      pop\n        /* \"#utility.yul\":11177:11181   */\n      dup1\n        /* \"#utility.yul\":11167:11175   */\n      dup7\n        /* \"#utility.yul\":11163:11182   */\n      and\n        /* \"#utility.yul\":11156:11161   */\n      dup5\n        /* \"#utility.yul\":11153:11183   */\n      or\n        /* \"#utility.yul\":11143:11183   */\n      swap3\n      pop\n        /* \"#utility.yul\":10872:11189   */\n      pop\n      pop\n        /* \"#utility.yul\":10796:11189   */\n      swap4\n      swap3\n      pop\n      pop\n      pop\n      jump\t// out\n        /* \"#utility.yul\":11195:11255   */\n    tag_168:\n        /* \"#utility.yul\":11223:11226   */\n      0x00\n        /* \"#utility.yul\":11244:11249   */\n      dup2\n        /* \"#utility.yul\":11237:11249   */\n      swap1\n      pop\n        /* \"#utility.yul\":11195:11255   */\n      swap2\n      swap1\n      pop\n      jump\t// out\n        /* \"#utility.yul\":11261:11403   */\n    tag_169:\n        /* \"#utility.yul\":11311:11320   */\n      0x00\n        /* \"#utility.yul\":11344:11397   */\n      tag_304\n        /* \"#utility.yul\":11362:11396   */\n      tag_305\n        /* \"#utility.yul\":11371:11395   */\n      tag_306\n        /* \"#utility.yul\":11389:11394   */\n      dup5\n        /* \"#utility.yul\":11371:11395   */\n      tag_138\n      jump\t// in\n    tag_306:\n        /* \"#utility.yul\":11362:11396   */\n      tag_168\n      jump\t// in\n    tag_305:\n        /* \"#utility.yul\":11344:11397   */\n      tag_138\n      jump\t// in\n    tag_304:\n        /* \"#utility.yul\":11331:11397   */\n      swap1\n      pop\n        /* \"#utility.yul\":11261:11403   */\n      swap2\n      swap1\n      pop\n      jump\t// out\n        /* \"#utility.yul\":11409:11484   */\n    tag_170:\n        /* \"#utility.yul\":11452:11455   */\n      0x00\n        /* \"#utility.yul\":11473:11478   */\n      dup2\n        /* \"#utility.yul\":11466:11478   */\n      swap1\n      pop\n        /* \"#utility.yul\":11409:11484   */\n      swap2\n      swap1\n      pop\n      jump\t// out\n        /* \"#utility.yul\":11490:11759   */\n    tag_171:\n        /* \"#utility.yul\":11600:11639   */\n      tag_309\n        /* \"#utility.yul\":11631:11638   */\n      dup4\n        /* \"#utility.yul\":11600:11639   */\n      tag_169\n      jump\t// in\n    tag_309:\n        /* \"#utility.yul\":11661:11752   */\n      tag_310\n        /* \"#utility.yul\":11710:11751   */\n      tag_311\n        /* \"#utility.yul\":11734:11750   */\n      dup3\n        /* \"#utility.yul\":11710:11751   */\n      tag_170\n      jump\t// in\n    tag_311:\n        /* \"#utility.yul\":11702:11708   */\n      dup5\n        /* \"#utility.yul\":11695:11699   */\n      dup5\n        /* \"#utility.yul\":11689:11700   */\n      sload\n        /* \"#utility.yul\":11661:11752   */\n      tag_167\n      jump\t// in\n    tag_310:\n        /* \"#utility.yul\":11655:11659   */\n      dup3\n        /* \"#utility.yul\":11648:11753   */\n      sstore\n        /* \"#utility.yul\":11566:11759   */\n      pop\n        /* \"#utility.yul\":11490:11759   */\n      pop\n      pop\n      pop\n      jump\t// out\n        /* \"#utility.yul\":11765:11838   */\n    tag_172:\n        /* \"#utility.yul\":11810:11813   */\n      0x00\n        /* \"#utility.yul\":11765:11838   */\n      swap1\n      jump\t// out\n        /* \"#utility.yul\":11844:12033   */\n    tag_173:\n        /* \"#utility.yul\":11921:11953   */\n      tag_314\n      tag_172\n      jump\t// in\n    tag_314:\n        /* \"#utility.yul\":11962:12027   */\n      tag_315\n        /* \"#utility.yul\":12020:12026   */\n      dup2\n        /* \"#utility.yul\":12012:12018   */\n      dup5\n        /* \"#utility.yul\":12006:12010   */\n      dup5\n        /* \"#utility.yul\":11962:12027   */\n      tag_171\n      jump\t// in\n    tag_315:\n        /* \"#utility.yul\":11897:12033   */\n      pop\n        /* \"#utility.yul\":11844:12033   */\n      pop\n      pop\n      jump\t// out\n        /* \"#utility.yul\":12039:12225   */\n    tag_174:\n        /* \"#utility.yul\":12099:12219   */\n    tag_317:\n        /* \"#utility.yul\":12116:12119   */\n      dup2\n        /* \"#utility.yul\":12109:12114   */\n      dup2\n        /* \"#utility.yul\":12106:12120   */\n      lt\n        /* \"#utility.yul\":12099:12219   */\n      iszero\n      tag_319\n      jumpi\n        /* \"#utility.yul\":12170:12209   */\n      tag_320\n        /* \"#utility.yul\":12207:12208   */\n      0x00\n        /* \"#utility.yul\":12200:12205   */\n      dup3\n        /* \"#utility.yul\":12170:12209   */\n      tag_173\n      jump\t// in\n    tag_320:\n        /* \"#utility.yul\":12143:12144   */\n      0x01\n        /* \"#utility.yul\":12136:12141   */\n      dup2\n        /* \"#utility.yul\":12132:12145   */\n      add\n        /* \"#utility.yul\":12123:12145   */\n      swap1\n      pop\n        /* \"#utility.yul\":12099:12219   */\n      jump(tag_317)\n    tag_319:\n        /* \"#utility.yul\":12039:12225   */\n      pop\n      pop\n      jump\t// out\n        /* \"#utility.yul\":12231:12774   */\n    tag_175:\n        /* \"#utility.yul\":12332:12334   */\n      0x1f\n        /* \"#utility.yul\":12327:12330   */\n      dup3\n        /* \"#utility.yul\":12324:12335   */\n      gt\n        /* \"#utility.yul\":12321:12767   */\n      iszero\n      tag_322\n      jumpi\n        /* \"#utility.yul\":12366:12404   */\n      tag_323\n        /* \"#utility.yul\":12398:12403   */\n      dup2\n        /* \"#utility.yul\":12366:12404   */\n      tag_164\n      jump\t// in\n    tag_323:\n        /* \"#utility.yul\":12450:12479   */\n      tag_324\n        /* \"#utility.yul\":12468:12478   */\n      dup5\n        /* \"#utility.yul\":12450:12479   */\n      tag_165\n      jump\t// in\n    tag_324:\n        /* \"#utility.yul\":12440:12448   */\n      dup2\n        /* \"#utility.yul\":12436:12480   */\n      add\n        /* \"#utility.yul\":12633:12635   */\n      0x20\n        /* \"#utility.yul\":12621:12631   */\n      dup6\n        /* \"#utility.yul\":12618:12636   */\n      lt\n        /* \"#utility.yul\":12615:12664   */\n      iszero\n      tag_325\n      jumpi\n        /* \"#utility.yul\":12654:12662   */\n      dup2\n        /* \"#utility.yul\":12639:12662   */\n      swap1\n      pop\n        /* \"#utility.yul\":12615:12664   */\n    tag_325:\n        /* \"#utility.yul\":12677:12757   */\n      tag_326\n        /* \"#utility.yul\":12733:12755   */\n      tag_327\n        /* \"#utility.yul\":12751:12754   */\n      dup6\n        /* \"#utility.yul\":12733:12755   */\n      tag_165\n      jump\t// in\n    tag_327:\n        /* \"#utility.yul\":12723:12731   */\n      dup4\n        /* \"#utility.yul\":12719:12756   */\n      add\n        /* \"#utility.yul\":12706:12717   */\n      dup3\n        /* \"#utility.yul\":12677:12757   */\n      tag_174\n      jump\t// in\n    tag_326:\n        /* \"#utility.yul\":12336:12767   */\n      pop\n      pop\n        /* \"#utility.yul\":12321:12767   */\n    tag_322:\n        /* \"#utility.yul\":12231:12774   */\n      pop\n      pop\n      pop\n      jump\t// out\n        /* \"#utility.yul\":12780:12897   */\n    tag_176:\n        /* \"#utility.yul\":12834:12842   */\n      0x00\n        /* \"#utility.yul\":12884:12889   */\n      dup3\n        /* \"#utility.yul\":12878:12882   */\n      dup3\n        /* \"#utility.yul\":12874:12890   */\n      shr\n        /* \"#utility.yul\":12853:12890   */\n      swap1\n      pop\n        /* \"#utility.yul\":12780:12897   */\n      swap3\n      swap2\n      pop\n      pop\n      jump\t// out\n        /* \"#utility.yul\":12903:13072   */\n    tag_177:\n        /* \"#utility.yul\":12947:12953   */\n      0x00\n        /* \"#utility.yul\":12980:13031   */\n      tag_330\n        /* \"#utility.yul\":13028:13029   */\n      0x00\n        /* \"#utility.yul\":13024:13030   */\n      not\n        /* \"#utility.yul\":13016:13021   */\n      dup5\n        /* \"#utility.yul\":13013:13014   */\n      0x08\n        /* \"#utility.yul\":13009:13022   */\n      mul\n        /* \"#utility.yul\":12980:13031   */\n      tag_176\n      jump\t// in\n    tag_330:\n        /* \"#utility.yul\":12976:13032   */\n      not\n        /* \"#utility.yul\":13061:13065   */\n      dup1\n        /* \"#utility.yul\":13055:13059   */\n      dup4\n        /* \"#utility.yul\":13051:13066   */\n      and\n        /* \"#utility.yul\":13041:13066   */\n      swap2\n      pop\n        /* \"#utility.yul\":12954:13072   */\n      pop\n        /* \"#utility.yul\":12903:13072   */\n      swap3\n      swap2\n      pop\n      pop\n      jump\t// out\n        /* \"#utility.yul\":13077:13372   */\n    tag_178:\n        /* \"#utility.yul\":13153:13157   */\n      0x00\n        /* \"#utility.yul\":13299:13328   */\n      tag_332\n        /* \"#utility.yul\":13324:13327   */\n      dup4\n        /* \"#utility.yul\":13318:13322   */\n      dup4\n        /* \"#utility.yul\":13299:13328   */\n      tag_177\n      jump\t// in\n    tag_332:\n        /* \"#utility.yul\":13291:13328   */\n      swap2\n      pop\n        /* \"#utility.yul\":13361:13364   */\n      dup3\n        /* \"#utility.yul\":13358:13359   */\n      0x02\n        /* \"#utility.yul\":13354:13365   */\n      mul\n        /* \"#utility.yul\":13348:13352   */\n      dup3\n        /* \"#utility.yul\":13345:13366   */\n      or\n        /* \"#utility.yul\":13337:13366   */\n      swap1\n      pop\n        /* \"#utility.yul\":13077:13372   */\n      swap3\n      swap2\n      pop\n      pop\n      jump\t// out\n        /* \"#utility.yul\":13377:14772   */\n    tag_75:\n        /* \"#utility.yul\":13494:13531   */\n      tag_334\n        /* \"#utility.yul\":13527:13530   */\n      dup3\n        /* \"#utility.yul\":13494:13531   */\n      tag_156\n      jump\t// in\n    tag_334:\n        /* \"#utility.yul\":13596:13614   */\n      0xffffffffffffffff\n        /* \"#utility.yul\":13588:13594   */\n      dup2\n        /* \"#utility.yul\":13585:13615   */\n      gt\n        /* \"#utility.yul\":13582:13638   */\n      iszero\n      tag_335\n      jumpi\n        /* \"#utility.yul\":13618:13636   */\n      tag_336\n      tag_144\n      jump\t// in\n    tag_336:\n        /* \"#utility.yul\":13582:13638   */\n    tag_335:\n        /* \"#utility.yul\":13662:13700   */\n      tag_337\n        /* \"#utility.yul\":13694:13698   */\n      dup3\n        /* \"#utility.yul\":13688:13699   */\n      sload\n        /* \"#utility.yul\":13662:13700   */\n      tag_83\n      jump\t// in\n    tag_337:\n        /* \"#utility.yul\":13747:13814   */\n      tag_338\n        /* \"#utility.yul\":13807:13813   */\n      dup3\n        /* \"#utility.yul\":13799:13805   */\n      dup3\n        /* \"#utility.yul\":13793:13797   */\n      dup6\n        /* \"#utility.yul\":13747:13814   */\n      tag_175\n      jump\t// in\n    tag_338:\n        /* \"#utility.yul\":13841:13842   */\n      0x00\n        /* \"#utility.yul\":13865:13869   */\n      0x20\n        /* \"#utility.yul\":13852:13869   */\n      swap1\n      pop\n        /* \"#utility.yul\":13897:13899   */\n      0x1f\n        /* \"#utility.yul\":13889:13895   */\n      dup4\n        /* \"#utility.yul\":13886:13900   */\n      gt\n        /* \"#utility.yul\":13914:13915   */\n      0x01\n        /* \"#utility.yul\":13909:14527   */\n      dup2\n      eq\n      tag_340\n      jumpi\n        /* \"#utility.yul\":14571:14572   */\n      0x00\n        /* \"#utility.yul\":14588:14594   */\n      dup5\n        /* \"#utility.yul\":14585:14662   */\n      iszero\n      tag_341\n      jumpi\n        /* \"#utility.yul\":14637:14646   */\n      dup3\n        /* \"#utility.yul\":14632:14635   */\n      dup8\n        /* \"#utility.yul\":14628:14647   */\n      add\n        /* \"#utility.yul\":14622:14648   */\n      mload\n        /* \"#utility.yul\":14613:14648   */\n      swap1\n      pop\n        /* \"#utility.yul\":14585:14662   */\n    tag_341:\n        /* \"#utility.yul\":14688:14755   */\n      tag_342\n        /* \"#utility.yul\":14748:14754   */\n      dup6\n        /* \"#utility.yul\":14741:14746   */\n      dup3\n        /* \"#utility.yul\":14688:14755   */\n      tag_178\n      jump\t// in\n    tag_342:\n        /* \"#utility.yul\":14682:14686   */\n      dup7\n        /* \"#utility.yul\":14675:14756   */\n      sstore\n        /* \"#utility.yul\":14544:14766   */\n      pop\n        /* \"#utility.yul\":13879:14766   */\n      jump(tag_339)\n        /* \"#utility.yul\":13909:14527   */\n    tag_340:\n        /* \"#utility.yul\":13961:13965   */\n      0x1f\n        /* \"#utility.yul\":13957:13966   */\n      not\n        /* \"#utility.yul\":13949:13955   */\n      dup5\n        /* \"#utility.yul\":13945:13967   */\n      and\n        /* \"#utility.yul\":13995:14032   */\n      tag_343\n        /* \"#utility.yul\":14027:14031   */\n      dup7\n        /* \"#utility.yul\":13995:14032   */\n      tag_164\n      jump\t// in\n    tag_343:\n        /* \"#utility.yul\":14054:14055   */\n      0x00\n        /* \"#utility.yul\":14068:14276   */\n    tag_344:\n        /* \"#utility.yul\":14082:14089   */\n      dup3\n        /* \"#utility.yul\":14079:14080   */\n      dup2\n        /* \"#utility.yul\":14076:14090   */\n      lt\n        /* \"#utility.yul\":14068:14276   */\n      iszero\n      tag_346\n      jumpi\n        /* \"#utility.yul\":14161:14170   */\n      dup5\n        /* \"#utility.yul\":14156:14159   */\n      dup10\n        /* \"#utility.yul\":14152:14171   */\n      add\n        /* \"#utility.yul\":14146:14172   */\n      mload\n        /* \"#utility.yul\":14138:14144   */\n      dup3\n        /* \"#utility.yul\":14131:14173   */\n      sstore\n        /* \"#utility.yul\":14212:14213   */\n      0x01\n        /* \"#utility.yul\":14204:14210   */\n      dup3\n        /* \"#utility.yul\":14200:14214   */\n      add\n        /* \"#utility.yul\":14190:14214   */\n      swap2\n      pop\n        /* \"#utility.yul\":14259:14261   */\n      0x20\n        /* \"#utility.yul\":14248:14257   */\n      dup6\n        /* \"#utility.yul\":14244:14262   */\n      add\n        /* \"#utility.yul\":14231:14262   */\n      swap5\n      pop\n        /* \"#utility.yul\":14105:14109   */\n      0x20\n        /* \"#utility.yul\":14102:14103   */\n      dup2\n        /* \"#utility.yul\":14098:14110   */\n      add\n        /* \"#utility.yul\":14093:14110   */\n      swap1\n      pop\n        /* \"#utility.yul\":14068:14276   */\n      jump(tag_344)\n    tag_346:\n        /* \"#utility.yul\":14304:14310   */\n      dup7\n        /* \"#utility.yul\":14295:14302   */\n      dup4\n        /* \"#utility.yul\":14292:14311   */\n      lt\n        /* \"#utility.yul\":14289:14468   */\n      iszero\n      tag_347\n      jumpi\n        /* \"#utility.yul\":14362:14371   */\n      dup5\n        /* \"#utility.yul\":14357:14360   */\n      dup10\n        /* \"#utility.yul\":14353:14372   */\n      add\n        /* \"#utility.yul\":14347:14373   */\n      mload\n        /* \"#utility.yul\":14405:14453   */\n      tag_348\n        /* \"#utility.yul\":14447:14451   */\n      0x1f\n        /* \"#utility.yul\":14439:14445   */\n      dup10\n        /* \"#utility.yul\":14435:14452   */\n      and\n        /* \"#utility.yul\":14424:14433   */\n      dup3\n        /* \"#utility.yul\":14405:14453   */\n      tag_177\n      jump\t// in\n    tag_348:\n        /* \"#utility.yul\":14397:14403   */\n      dup4\n        /* \"#utility.yul\":14390:14454   */\n      sstore\n        /* \"#utility.yul\":14312:14468   */\n      pop\n        /* \"#utility.yul\":14289:14468   */\n    tag_347:\n        /* \"#utility.yul\":14514:14515   */\n      0x01\n        /* \"#utility.yul\":14510:14511   */\n      0x02\n        /* \"#utility.yul\":14502:14508   */\n      dup9\n        /* \"#utility.yul\":14498:14512   */\n      mul\n        /* \"#utility.yul\":14494:14516   */\n      add\n        /* \"#utility.yul\":14488:14492   */\n      dup9\n        /* \"#utility.yul\":14481:14517   */\n      sstore\n        /* \"#utility.yul\":13916:14527   */\n      pop\n      pop\n      pop\n        /* \"#utility.yul\":13879:14766   */\n    tag_339:\n      pop\n        /* \"#utility.yul\":13469:14772   */\n      pop\n      pop\n      pop\n        /* \"#utility.yul\":13377:14772   */\n      pop\n      pop\n      jump\t// out\n        /* \"#utility.yul\":14778:14926   */\n    tag_179:\n        /* \"#utility.yul\":14880:14891   */\n      0x00\n        /* \"#utility.yul\":14917:14920   */\n      dup2\n        /* \"#utility.yul\":14902:14920   */\n      swap1\n      pop\n        /* \"#utility.yul\":14778:14926   */\n      swap3\n      swap2\n      pop\n      pop\n      jump\t// out\n        /* \"#utility.yul\":14932:15322   */\n    tag_180:\n        /* \"#utility.yul\":15038:15041   */\n      0x00\n        /* \"#utility.yul\":15066:15105   */\n      tag_351\n        /* \"#utility.yul\":15099:15104   */\n      dup3\n        /* \"#utility.yul\":15066:15105   */\n      tag_156\n      jump\t// in\n    tag_351:\n        /* \"#utility.yul\":15121:15210   */\n      tag_352\n        /* \"#utility.yul\":15203:15209   */\n      dup2\n        /* \"#utility.yul\":15198:15201   */\n      dup6\n        /* \"#utility.yul\":15121:15210   */\n      tag_179\n      jump\t// in\n    tag_352:\n        /* \"#utility.yul\":15114:15210   */\n      swap4\n      pop\n        /* \"#utility.yul\":15219:15284   */\n      tag_353\n        /* \"#utility.yul\":15277:15283   */\n      dup2\n        /* \"#utility.yul\":15272:15275   */\n      dup6\n        /* \"#utility.yul\":15265:15269   */\n      0x20\n        /* \"#utility.yul\":15258:15263   */\n      dup7\n        /* \"#utility.yul\":15254:15270   */\n      add\n        /* \"#utility.yul\":15219:15284   */\n      tag_158\n      jump\t// in\n    tag_353:\n        /* \"#utility.yul\":15309:15315   */\n      dup1\n        /* \"#utility.yul\":15304:15307   */\n      dup5\n        /* \"#utility.yul\":15300:15316   */\n      add\n        /* \"#utility.yul\":15293:15316   */\n      swap2\n      pop\n        /* \"#utility.yul\":15042:15322   */\n      pop\n        /* \"#utility.yul\":14932:15322   */\n      swap3\n      swap2\n      pop\n      pop\n      jump\t// out\n        /* \"#utility.yul\":15328:15603   */\n    tag_80:\n        /* \"#utility.yul\":15460:15463   */\n      0x00\n        /* \"#utility.yul\":15482:15577   */\n      tag_355\n        /* \"#utility.yul\":15573:15576   */\n      dup3\n        /* \"#utility.yul\":15564:15570   */\n      dup5\n        /* \"#utility.yul\":15482:15577   */\n      tag_180\n      jump\t// in\n    tag_355:\n        /* \"#utility.yul\":15475:15577   */\n      swap2\n      pop\n        /* \"#utility.yul\":15594:15597   */\n      dup2\n        /* \"#utility.yul\":15587:15597   */\n      swap1\n      pop\n        /* \"#utility.yul\":15328:15603   */\n      swap3\n      swap2\n      pop\n      pop\n      jump\t// out\n        /* \"#utility.yul\":15609:15789   */\n    tag_181:\n        /* \"#utility.yul\":15657:15734   */\n      0x4e487b7100000000000000000000000000000000000000000000000000000000\n        /* \"#utility.yul\":15654:15655   */\n      0x00\n        /* \"#utility.yul\":15647:15735   */\n      mstore\n        /* \"#utility.yul\":15754:15758   */\n      0x12\n        /* \"#utility.yul\":15751:15752   */\n      0x04\n        /* \"#utility.yul\":15744:15759   */\n      mstore\n        /* \"#utility.yul\":15778:15782   */\n      0x24\n        /* \"#utility.yul\":15775:15776   */\n      0x00\n        /* \"#utility.yul\":15768:15783   */\n      revert\n        /* \"#utility.yul\":15795:15971   */\n    tag_95:\n        /* \"#utility.yul\":15827:15828   */\n      0x00\n        /* \"#utility.yul\":15844:15864   */\n      tag_358\n        /* \"#utility.yul\":15862:15863   */\n      dup3\n        /* \"#utility.yul\":15844:15864   */\n      tag_138\n      jump\t// in\n    tag_358:\n        /* \"#utility.yul\":15839:15864   */\n      swap2\n      pop\n        /* \"#utility.yul\":15878:15898   */\n      tag_359\n        /* \"#utility.yul\":15896:15897   */\n      dup4\n        /* \"#utility.yul\":15878:15898   */\n      tag_138\n      jump\t// in\n    tag_359:\n        /* \"#utility.yul\":15873:15898   */\n      swap3\n      pop\n        /* \"#utility.yul\":15917:15918   */\n      dup3\n        /* \"#utility.yul\":15907:15942   */\n      tag_360\n      jumpi\n        /* \"#utility.yul\":15922:15940   */\n      tag_361\n      tag_181\n      jump\t// in\n    tag_361:\n        /* \"#utility.yul\":15907:15942   */\n    tag_360:\n        /* \"#utility.yul\":15963:15964   */\n      dup3\n        /* \"#utility.yul\":15960:15961   */\n      dup3\n        /* \"#utility.yul\":15956:15965   */\n      mod\n        /* \"#utility.yul\":15951:15965   */\n      swap1\n      pop\n        /* \"#utility.yul\":15795:15971   */\n      swap3\n      swap2\n      pop\n      pop\n      jump\t// out\n        /* \"#utility.yul\":15977:16157   */\n    tag_128:\n        /* \"#utility.yul\":16025:16102   */\n      0x4e487b7100000000000000000000000000000000000000000000000000000000\n        /* \"#utility.yul\":16022:16023   */\n      0x00\n        /* \"#utility.yul\":16015:16103   */\n      mstore\n        /* \"#utility.yul\":16122:16126   */\n      0x32\n        /* \"#utility.yul\":16119:16120   */\n      0x04\n        /* \"#utility.yul\":16112:16127   */\n      mstore\n        /* \"#utility.yul\":16146:16150   */\n      0x24\n        /* \"#utility.yul\":16143:16144   */\n      0x00\n        /* \"#utility.yul\":16136:16151   */\n      revert\n        /* \"#utility.yul\":16163:16343   */\n    tag_182:\n        /* \"#utility.yul\":16211:16288   */\n      0x4e487b7100000000000000000000000000000000000000000000000000000000\n        /* \"#utility.yul\":16208:16209   */\n      0x00\n        /* \"#utility.yul\":16201:16289   */\n      mstore\n        /* \"#utility.yul\":16308:16312   */\n      0x11\n        /* \"#utility.yul\":16305:16306   */\n      0x04\n        /* \"#utility.yul\":16298:16313   */\n      mstore\n        /* \"#utility.yul\":16332:16336   */\n      0x24\n        /* \"#utility.yul\":16329:16330   */\n      0x00\n        /* \"#utility.yul\":16322:16337   */\n      revert\n        /* \"#utility.yul\":16349:16582   */\n    tag_132:\n        /* \"#utility.yul\":16388:16391   */\n      0x00\n        /* \"#utility.yul\":16411:16435   */\n      tag_365\n        /* \"#utility.yul\":16429:16434   */\n      dup3\n        /* \"#utility.yul\":16411:16435   */\n      tag_138\n      jump\t// in\n    tag_365:\n        /* \"#utility.yul\":16402:16435   */\n      swap2\n      pop\n        /* \"#utility.yul\":16457:16523   */\n      0xffffffffffffffffffffffffffffffffffffffffffffffffffffffffffffffff\n        /* \"#utility.yul\":16450:16455   */\n      dup3\n        /* \"#utility.yul\":16447:16524   */\n      sub\n        /* \"#utility.yul\":16444:16547   */\n      tag_366\n      jumpi\n        /* \"#utility.yul\":16527:16545   */\n      tag_367\n      tag_182\n      jump\t// in\n    tag_367:\n        /* \"#utility.yul\":16444:16547   */\n    tag_366:\n        /* \"#utility.yul\":16574:16575   */\n      0x01\n        /* \"#utility.yul\":16567:16572   */\n      dup3\n        /* \"#utility.yul\":16563:16576   */\n      add\n        /* \"#utility.yul\":16556:16576   */\n      swap1\n      pop\n        /* \"#utility.yul\":16349:16582   */\n      swap2\n      swap1\n      pop\n      jump\t// out\n\n    auxdata: 0xa264697066735822122075b4f4d01504753eedd40a6db37a38634ba80493a4a2547c50b9ef6e9887444364736f6c634300081a0033\n}\n",
				"bytecode": {
					"linkReferences": {},
					"object": "608060405260015f557fffffffffffffffffffffffffffffffffffffffffffffffffffffffffffffffff6001556040518060400160405280600581526020016040518060400160405280600681526020017f4a61796d616e000000000000000000000000000000000000000000000000000081525081525060035f820151815f01556020820151816001019081610096919061040e565b505050604051806101400160405280600160ff168152602001600260ff168152602001600360ff168152602001600460ff168152602001600560ff168152602001600660ff168152602001600760ff168152602001600860ff168152602001600960ff168152602001600a60ff16815250600790600a610117929190610169565b50348015610123575f80fd5b503360025f6101000a81548173ffffffffffffffffffffffffffffffffffffffff021916908373ffffffffffffffffffffffffffffffffffffffff1602179055506104dd565b828054828255905f5260205f209081019282156101a8579160200282015b828111156101a7578251829060ff16905591602001919060010190610187565b5b5090506101b591906101b9565b5090565b5b808211156101d0575f815f9055506001016101ba565b5090565b5f81519050919050565b7f4e487b71000000000000000000000000000000000000000000000000000000005f52604160045260245ffd5b7f4e487b71000000000000000000000000000000000000000000000000000000005f52602260045260245ffd5b5f600282049050600182168061024f57607f821691505b6020821081036102625761026161020b565b5b50919050565b5f819050815f5260205f209050919050565b5f6020601f8301049050919050565b5f82821b905092915050565b5f600883026102c47fffffffffffffffffffffffffffffffffffffffffffffffffffffffffffffffff82610289565b6102ce8683610289565b95508019841693508086168417925050509392505050565b5f819050919050565b5f819050919050565b5f61031261030d610308846102e6565b6102ef565b6102e6565b9050919050565b5f819050919050565b61032b836102f8565b61033f61033782610319565b848454610295565b825550505050565b5f90565b610353610347565b61035e818484610322565b505050565b5b81811015610381576103765f8261034b565b600181019050610364565b5050565b601f8211156103c65761039781610268565b6103a08461027a565b810160208510156103af578190505b6103c36103bb8561027a565b830182610363565b50505b505050565b5f82821c905092915050565b5f6103e65f19846008026103cb565b1980831691505092915050565b5f6103fe83836103d7565b9150826002028217905092915050565b610417826101d4565b67ffffffffffffffff8111156104305761042f6101de565b5b61043a8254610238565b610445828285610385565b5f60209050601f831160018114610476575f8415610464578287015190505b61046e85826103f3565b8655506104d5565b601f19841661048486610268565b5f5b828110156104ab57848901518255600182019150602085019450602081019050610486565b868310156104c857848901516104c4601f8916826103d7565b8355505b6001600288020188555050505b505050505050565b61123a806104ea5f395ff3fe608060405234801561000f575f80fd5b50600436106100cd575f3560e01c8063493ec7071161008a5780638da5cb5b116100645780638da5cb5b146102245780638f32d59b146102425780639dcccf0414610260578063d39fa2331461027e576100cd565b8063493ec707146101b857806368744046146101d457806377ec2b5514610205576100cd565b8063028414f2146100d157806320965255146100ed5780632146e0861461010b57806327d3553f146101275780632a2e13201461015857806334ad75e914610188575b5f80fd5b6100eb60048036038101906100e69190610a6c565b6102ae565b005b6100f5610306565b6040516101029190610b03565b60405180910390f35b61012560048036038101906101209190610b1c565b610313565b005b610141600480360381019061013c9190610bec565b61037e565b60405161014f929190610c8a565b60405180910390f35b610172600480360381019061016d9190610cbf565b6104b5565b60405161017f9190610d04565b60405180910390f35b6101a2600480360381019061019d9190610d1d565b6104db565b6040516101af9190610d77565b60405180910390f35b6101d260048036038101906101cd9190610a6c565b610599565b005b6101ee60048036038101906101e99190610cbf565b61062c565b6040516101fc929190610c8a565b60405180910390f35b61020d610758565b60405161021b929190610d97565b60405180910390f35b61022c6107ef565b6040516102399190610dd4565b60405180910390f35b61024a610814565b6040516102579190610d04565b60405180910390f35b61026861086a565b6040516102759190610b03565b60405180910390f35b61029860048036038101906102939190610cbf565b6108cc565b6040516102a59190610b03565b60405180910390f35b60405180604001604052808381526020018281525060055f8581526020019081526020015f205f820151815f0190816102e79190610fe7565b5060208201518160010190816102fd9190610fe7565b50905050505050565b5f80600190508091505090565b8060085f3373ffffffffffffffffffffffffffffffffffffffff1673ffffffffffffffffffffffffffffffffffffffff1681526020019081526020015f208360405161035f91906110f0565b908152602001604051809103902090816103799190610fe7565b505050565b6006602052815f5260405f20602052805f5260405f205f9150915050805f0180546103a890610e1a565b80601f01602080910402602001604051908101604052809291908181526020018280546103d490610e1a565b801561041f5780601f106103f65761010080835404028352916020019161041f565b820191905f5260205f20905b81548152906001019060200180831161040257829003601f168201915b50505050509080600101805461043490610e1a565b80601f016020809104026020016040519081016040528092919081815260200182805461046090610e1a565b80156104ab5780601f10610482576101008083540402835291602001916104ab565b820191905f5260205f20905b81548152906001019060200180831161048e57829003601f168201915b5050505050905082565b5f806002836104c49190611133565b036104d257600190506104d6565b5f90505b919050565b6008602052815f5260405f20818051602081018201805184825260208301602085012081835280955050505050505f9150915050805461051a90610e1a565b80601f016020809104026020016040519081016040528092919081815260200182805461054690610e1a565b80156105915780601f1061056857610100808354040283529160200191610591565b820191905f5260205f20905b81548152906001019060200180831161057457829003601f168201915b505050505081565b60405180604001604052808381526020018281525060065f3373ffffffffffffffffffffffffffffffffffffffff1673ffffffffffffffffffffffffffffffffffffffff1681526020019081526020015f205f8581526020019081526020015f205f820151815f01908161060d9190610fe7565b5060208201518160010190816106239190610fe7565b50905050505050565b6005602052805f5260405f205f91509050805f01805461064b90610e1a565b80601f016020809104026020016040519081016040528092919081815260200182805461067790610e1a565b80156106c25780601f10610699576101008083540402835291602001916106c2565b820191905f5260205f20905b8154815290600101906020018083116106a557829003601f168201915b5050505050908060010180546106d790610e1a565b80601f016020809104026020016040519081016040528092919081815260200182805461070390610e1a565b801561074e5780601f106107255761010080835404028352916020019161074e565b820191905f5260205f20905b81548152906001019060200180831161073157829003601f168201915b5050505050905082565b6003805f01549080600101805461076e90610e1a565b80601f016020809104026020016040519081016040528092919081815260200182805461079a90610e1a565b80156107e55780601f106107bc576101008083540402835291602001916107e5565b820191905f5260205f20905b8154815290600101906020018083116107c857829003601f168201915b5050505050905082565b60025f9054906101000a900473ffffffffffffffffffffffffffffffffffffffff1681565b5f3373ffffffffffffffffffffffffffffffffffffffff1660025f9054906101000a900473ffffffffffffffffffffffffffffffffffffffff1673ffffffffffffffffffffffffffffffffffffffff1614905090565b5f805f90505f5b6007805490508110156108c4576108a36007828154811061089557610894611163565b5b905f5260205f2001546104b5565b156108b75781806108b3906111bd565b9250505b8080600101915050610871565b508091505090565b600781815481106108db575f80fd5b905f5260205f20015f915090505481565b5f604051905090565b5f80fd5b5f80fd5b5f819050919050565b61090f816108fd565b8114610919575f80fd5b50565b5f8135905061092a81610906565b92915050565b5f80fd5b5f80fd5b5f601f19601f8301169050919050565b7f4e487b71000000000000000000000000000000000000000000000000000000005f52604160045260245ffd5b61097e82610938565b810181811067ffffffffffffffff8211171561099d5761099c610948565b5b80604052505050565b5f6109af6108ec565b90506109bb8282610975565b919050565b5f67ffffffffffffffff8211156109da576109d9610948565b5b6109e382610938565b9050602081019050919050565b828183375f83830152505050565b5f610a10610a0b846109c0565b6109a6565b905082815260208101848484011115610a2c57610a2b610934565b5b610a378482856109f0565b509392505050565b5f82601f830112610a5357610a52610930565b5b8135610a638482602086016109fe565b91505092915050565b5f805f60608486031215610a8357610a826108f5565b5b5f610a908682870161091c565b935050602084013567ffffffffffffffff811115610ab157610ab06108f9565b5b610abd86828701610a3f565b925050604084013567ffffffffffffffff811115610ade57610add6108f9565b5b610aea86828701610a3f565b9150509250925092565b610afd816108fd565b82525050565b5f602082019050610b165f830184610af4565b92915050565b5f8060408385031215610b3257610b316108f5565b5b5f83013567ffffffffffffffff811115610b4f57610b4e6108f9565b5b610b5b85828601610a3f565b925050602083013567ffffffffffffffff811115610b7c57610b7b6108f9565b5b610b8885828601610a3f565b9150509250929050565b5f73ffffffffffffffffffffffffffffffffffffffff82169050919050565b5f610bbb82610b92565b9050919050565b610bcb81610bb1565b8114610bd5575f80fd5b50565b5f81359050610be681610bc2565b92915050565b5f8060408385031215610c0257610c016108f5565b5b5f610c0f85828601610bd8565b9250506020610c208582860161091c565b9150509250929050565b5f81519050919050565b5f82825260208201905092915050565b8281835e5f83830152505050565b5f610c5c82610c2a565b610c668185610c34565b9350610c76818560208601610c44565b610c7f81610938565b840191505092915050565b5f6040820190508181035f830152610ca28185610c52565b90508181036020830152610cb68184610c52565b90509392505050565b5f60208284031215610cd457610cd36108f5565b5b5f610ce18482850161091c565b91505092915050565b5f8115159050919050565b610cfe81610cea565b82525050565b5f602082019050610d175f830184610cf5565b92915050565b5f8060408385031215610d3357610d326108f5565b5b5f610d4085828601610bd8565b925050602083013567ffffffffffffffff811115610d6157610d606108f9565b5b610d6d85828601610a3f565b9150509250929050565b5f6020820190508181035f830152610d8f8184610c52565b905092915050565b5f604082019050610daa5f830185610af4565b8181036020830152610dbc8184610c52565b90509392505050565b610dce81610bb1565b82525050565b5f602082019050610de75f830184610dc5565b92915050565b7f4e487b71000000000000000000000000000000000000000000000000000000005f52602260045260245ffd5b5f6002820490506001821680610e3157607f821691505b602082108103610e4457610e43610ded565b5b50919050565b5f819050815f5260205f209050919050565b5f6020601f8301049050919050565b5f82821b905092915050565b5f60088302610ea67fffffffffffffffffffffffffffffffffffffffffffffffffffffffffffffffff82610e6b565b610eb08683610e6b565b95508019841693508086168417925050509392505050565b5f819050919050565b5f610eeb610ee6610ee1846108fd565b610ec8565b6108fd565b9050919050565b5f819050919050565b610f0483610ed1565b610f18610f1082610ef2565b848454610e77565b825550505050565b5f90565b610f2c610f20565b610f37818484610efb565b505050565b5b81811015610f5a57610f4f5f82610f24565b600181019050610f3d565b5050565b601f821115610f9f57610f7081610e4a565b610f7984610e5c565b81016020851015610f88578190505b610f9c610f9485610e5c565b830182610f3c565b50505b505050565b5f82821c905092915050565b5f610fbf5f1984600802610fa4565b1980831691505092915050565b5f610fd78383610fb0565b9150826002028217905092915050565b610ff082610c2a565b67ffffffffffffffff81111561100957611008610948565b5b6110138254610e1a565b61101e828285610f5e565b5f60209050601f83116001811461104f575f841561103d578287015190505b6110478582610fcc565b8655506110ae565b601f19841661105d86610e4a565b5f5b828110156110845784890151825560018201915060208501945060208101905061105f565b868310156110a1578489015161109d601f891682610fb0565b8355505b6001600288020188555050505b505050505050565b5f81905092915050565b5f6110ca82610c2a565b6110d481856110b6565b93506110e4818560208601610c44565b80840191505092915050565b5f6110fb82846110c0565b915081905092915050565b7f4e487b71000000000000000000000000000000000000000000000000000000005f52601260045260245ffd5b5f61113d826108fd565b9150611148836108fd565b92508261115857611157611106565b5b828206905092915050565b7f4e487b71000000000000000000000000000000000000000000000000000000005f52603260045260245ffd5b7f4e487b71000000000000000000000000000000000000000000000000000000005f52601160045260245ffd5b5f6111c7826108fd565b91507fffffffffffffffffffffffffffffffffffffffffffffffffffffffffffffffff82036111f9576111f8611190565b5b60018201905091905056fea264697066735822122075b4f4d01504753eedd40a6db37a38634ba80493a4a2547c50b9ef6e9887444364736f6c634300081a0033",
					"opcodes": "PUSH1 0x80 PUSH1 0x40 MSTORE PUSH1 0x1 PUSH0 SSTORE PUSH32 0xFFFFFFFFFFFFFFFFFFFFFFFFFFFFFFFFFFFFFFFFFFFFFFFFFFFFFFFFFFFFFFFF PUSH1 0x1 SSTORE PUSH1 0x40 MLOAD DUP1 PUSH1 0x40 ADD PUSH1 0x40 MSTORE DUP1 PUSH1 0x5 DUP2 MSTORE PUSH1 0x20 ADD PUSH1 0x40 MLOAD DUP1 PUSH1 0x40 ADD PUSH1 0x40 MSTORE DUP1 PUSH1 0x6 DUP2 MSTORE PUSH1 0x20 ADD PUSH32 0x4A61796D616E0000000000000000000000000000000000000000000000000000 DUP2 MSTORE POP DUP2 MSTORE POP PUSH1 0x3 PUSH0 DUP3 ADD MLOAD DUP2 PUSH0 ADD SSTORE PUSH1 0x20 DUP3 ADD MLOAD DUP2 PUSH1 0x1 ADD SWAP1 DUP2 PUSH2 0x96 SWAP2 SWAP1 PUSH2 0x40E JUMP JUMPDEST POP POP POP PUSH1 0x40 MLOAD DUP1 PUSH2 0x140 ADD PUSH1 0x40 MSTORE DUP1 PUSH1 0x1 PUSH1 0xFF AND DUP2 MSTORE PUSH1 0x20 ADD PUSH1 0x2 PUSH1 0xFF AND DUP2 MSTORE PUSH1 0x20 ADD PUSH1 0x3 PUSH1 0xFF AND DUP2 MSTORE PUSH1 0x20 ADD PUSH1 0x4 PUSH1 0xFF AND DUP2 MSTORE PUSH1 0x20 ADD PUSH1 0x5 PUSH1 0xFF AND DUP2 MSTORE PUSH1 0x20 ADD PUSH1 0x6 PUSH1 0xFF AND DUP2 MSTORE PUSH1 0x20 ADD PUSH1 0x7 PUSH1 0xFF AND DUP2 MSTORE PUSH1 0x20 ADD PUSH1 0x8 PUSH1 0xFF AND DUP2 MSTORE PUSH1 0x20 ADD PUSH1 0x9 PUSH1 0xFF AND DUP2 MSTORE PUSH1 0x20 ADD PUSH1 0xA PUSH1 0xFF AND DUP2 MSTORE POP PUSH1 0x7 SWAP1 PUSH1 0xA PUSH2 0x117 SWAP3 SWAP2 SWAP1 PUSH2 0x169 JUMP JUMPDEST POP CALLVALUE DUP1 ISZERO PUSH2 0x123 JUMPI PUSH0 DUP1 REVERT JUMPDEST POP CALLER PUSH1 0x2 PUSH0 PUSH2 0x100 EXP DUP2 SLOAD DUP2 PUSH20 0xFFFFFFFFFFFFFFFFFFFFFFFFFFFFFFFFFFFFFFFF MUL NOT AND SWAP1 DUP4 PUSH20 0xFFFFFFFFFFFFFFFFFFFFFFFFFFFFFFFFFFFFFFFF AND MUL OR SWAP1 SSTORE POP PUSH2 0x4DD JUMP JUMPDEST DUP3 DUP1 SLOAD DUP3 DUP3 SSTORE SWAP1 PUSH0 MSTORE PUSH1 0x20 PUSH0 KECCAK256 SWAP1 DUP2 ADD SWAP3 DUP3 ISZERO PUSH2 0x1A8 JUMPI SWAP2 PUSH1 0x20 MUL DUP3 ADD JUMPDEST DUP3 DUP2 GT ISZERO PUSH2 0x1A7 JUMPI DUP3 MLOAD DUP3 SWAP1 PUSH1 0xFF AND SWAP1 SSTORE SWAP2 PUSH1 0x20 ADD SWAP2 SWAP1 PUSH1 0x1 ADD SWAP1 PUSH2 0x187 JUMP JUMPDEST JUMPDEST POP SWAP1 POP PUSH2 0x1B5 SWAP2 SWAP1 PUSH2 0x1B9 JUMP JUMPDEST POP SWAP1 JUMP JUMPDEST JUMPDEST DUP1 DUP3 GT ISZERO PUSH2 0x1D0 JUMPI PUSH0 DUP2 PUSH0 SWAP1 SSTORE POP PUSH1 0x1 ADD PUSH2 0x1BA JUMP JUMPDEST POP SWAP1 JUMP JUMPDEST PUSH0 DUP2 MLOAD SWAP1 POP SWAP2 SWAP1 POP JUMP JUMPDEST PUSH32 0x4E487B7100000000000000000000000000000000000000000000000000000000 PUSH0 MSTORE PUSH1 0x41 PUSH1 0x4 MSTORE PUSH1 0x24 PUSH0 REVERT JUMPDEST PUSH32 0x4E487B7100000000000000000000000000000000000000000000000000000000 PUSH0 MSTORE PUSH1 0x22 PUSH1 0x4 MSTORE PUSH1 0x24 PUSH0 REVERT JUMPDEST PUSH0 PUSH1 0x2 DUP3 DIV SWAP1 POP PUSH1 0x1 DUP3 AND DUP1 PUSH2 0x24F JUMPI PUSH1 0x7F DUP3 AND SWAP2 POP JUMPDEST PUSH1 0x20 DUP3 LT DUP2 SUB PUSH2 0x262 JUMPI PUSH2 0x261 PUSH2 0x20B JUMP JUMPDEST JUMPDEST POP SWAP2 SWAP1 POP JUMP JUMPDEST PUSH0 DUP2 SWAP1 POP DUP2 PUSH0 MSTORE PUSH1 0x20 PUSH0 KECCAK256 SWAP1 POP SWAP2 SWAP1 POP JUMP JUMPDEST PUSH0 PUSH1 0x20 PUSH1 0x1F DUP4 ADD DIV SWAP1 POP SWAP2 SWAP1 POP JUMP JUMPDEST PUSH0 DUP3 DUP3 SHL SWAP1 POP SWAP3 SWAP2 POP POP JUMP JUMPDEST PUSH0 PUSH1 0x8 DUP4 MUL PUSH2 0x2C4 PUSH32 0xFFFFFFFFFFFFFFFFFFFFFFFFFFFFFFFFFFFFFFFFFFFFFFFFFFFFFFFFFFFFFFFF DUP3 PUSH2 0x289 JUMP JUMPDEST PUSH2 0x2CE DUP7 DUP4 PUSH2 0x289 JUMP JUMPDEST SWAP6 POP DUP1 NOT DUP5 AND SWAP4 POP DUP1 DUP7 AND DUP5 OR SWAP3 POP POP POP SWAP4 SWAP3 POP POP POP JUMP JUMPDEST PUSH0 DUP2 SWAP1 POP SWAP2 SWAP1 POP JUMP JUMPDEST PUSH0 DUP2 SWAP1 POP SWAP2 SWAP1 POP JUMP JUMPDEST PUSH0 PUSH2 0x312 PUSH2 0x30D PUSH2 0x308 DUP5 PUSH2 0x2E6 JUMP JUMPDEST PUSH2 0x2EF JUMP JUMPDEST PUSH2 0x2E6 JUMP JUMPDEST SWAP1 POP SWAP2 SWAP1 POP JUMP JUMPDEST PUSH0 DUP2 SWAP1 POP SWAP2 SWAP1 POP JUMP JUMPDEST PUSH2 0x32B DUP4 PUSH2 0x2F8 JUMP JUMPDEST PUSH2 0x33F PUSH2 0x337 DUP3 PUSH2 0x319 JUMP JUMPDEST DUP5 DUP5 SLOAD PUSH2 0x295 JUMP JUMPDEST DUP3 SSTORE POP POP POP POP JUMP JUMPDEST PUSH0 SWAP1 JUMP JUMPDEST PUSH2 0x353 PUSH2 0x347 JUMP JUMPDEST PUSH2 0x35E DUP2 DUP5 DUP5 PUSH2 0x322 JUMP JUMPDEST POP POP POP JUMP JUMPDEST JUMPDEST DUP2 DUP2 LT ISZERO PUSH2 0x381 JUMPI PUSH2 0x376 PUSH0 DUP3 PUSH2 0x34B JUMP JUMPDEST PUSH1 0x1 DUP2 ADD SWAP1 POP PUSH2 0x364 JUMP JUMPDEST POP POP JUMP JUMPDEST PUSH1 0x1F DUP3 GT ISZERO PUSH2 0x3C6 JUMPI PUSH2 0x397 DUP2 PUSH2 0x268 JUMP JUMPDEST PUSH2 0x3A0 DUP5 PUSH2 0x27A JUMP JUMPDEST DUP2 ADD PUSH1 0x20 DUP6 LT ISZERO PUSH2 0x3AF JUMPI DUP2 SWAP1 POP JUMPDEST PUSH2 0x3C3 PUSH2 0x3BB DUP6 PUSH2 0x27A JUMP JUMPDEST DUP4 ADD DUP3 PUSH2 0x363 JUMP JUMPDEST POP POP JUMPDEST POP POP POP JUMP JUMPDEST PUSH0 DUP3 DUP3 SHR SWAP1 POP SWAP3 SWAP2 POP POP JUMP JUMPDEST PUSH0 PUSH2 0x3E6 PUSH0 NOT DUP5 PUSH1 0x8 MUL PUSH2 0x3CB JUMP JUMPDEST NOT DUP1 DUP4 AND SWAP2 POP POP SWAP3 SWAP2 POP POP JUMP JUMPDEST PUSH0 PUSH2 0x3FE DUP4 DUP4 PUSH2 0x3D7 JUMP JUMPDEST SWAP2 POP DUP3 PUSH1 0x2 MUL DUP3 OR SWAP1 POP SWAP3 SWAP2 POP POP JUMP JUMPDEST PUSH2 0x417 DUP3 PUSH2 0x1D4 JUMP JUMPDEST PUSH8 0xFFFFFFFFFFFFFFFF DUP2 GT ISZERO PUSH2 0x430 JUMPI PUSH2 0x42F PUSH2 0x1DE JUMP JUMPDEST JUMPDEST PUSH2 0x43A DUP3 SLOAD PUSH2 0x238 JUMP JUMPDEST PUSH2 0x445 DUP3 DUP3 DUP6 PUSH2 0x385 JUMP JUMPDEST PUSH0 PUSH1 0x20 SWAP1 POP PUSH1 0x1F DUP4 GT PUSH1 0x1 DUP2 EQ PUSH2 0x476 JUMPI PUSH0 DUP5 ISZERO PUSH2 0x464 JUMPI DUP3 DUP8 ADD MLOAD SWAP1 POP JUMPDEST PUSH2 0x46E DUP6 DUP3 PUSH2 0x3F3 JUMP JUMPDEST DUP7 SSTORE POP PUSH2 0x4D5 JUMP JUMPDEST PUSH1 0x1F NOT DUP5 AND PUSH2 0x484 DUP7 PUSH2 0x268 JUMP JUMPDEST PUSH0 JUMPDEST DUP3 DUP2 LT ISZERO PUSH2 0x4AB JUMPI DUP5 DUP10 ADD MLOAD DUP3 SSTORE PUSH1 0x1 DUP3 ADD SWAP2 POP PUSH1 0x20 DUP6 ADD SWAP5 POP PUSH1 0x20 DUP2 ADD SWAP1 POP PUSH2 0x486 JUMP JUMPDEST DUP7 DUP4 LT ISZERO PUSH2 0x4C8 JUMPI DUP5 DUP10 ADD MLOAD PUSH2 0x4C4 PUSH1 0x1F DUP10 AND DUP3 PUSH2 0x3D7 JUMP JUMPDEST DUP4 SSTORE POP JUMPDEST PUSH1 0x1 PUSH1 0x2 DUP9 MUL ADD DUP9 SSTORE POP POP POP JUMPDEST POP POP POP POP POP POP JUMP JUMPDEST PUSH2 0x123A DUP1 PUSH2 0x4EA PUSH0 CODECOPY PUSH0 RETURN INVALID PUSH1 0x80 PUSH1 0x40 MSTORE CALLVALUE DUP1 ISZERO PUSH2 0xF JUMPI PUSH0 DUP1 REVERT JUMPDEST POP PUSH1 0x4 CALLDATASIZE LT PUSH2 0xCD JUMPI PUSH0 CALLDATALOAD PUSH1 0xE0 SHR DUP1 PUSH4 0x493EC707 GT PUSH2 0x8A JUMPI DUP1 PUSH4 0x8DA5CB5B GT PUSH2 0x64 JUMPI DUP1 PUSH4 0x8DA5CB5B EQ PUSH2 0x224 JUMPI DUP1 PUSH4 0x8F32D59B EQ PUSH2 0x242 JUMPI DUP1 PUSH4 0x9DCCCF04 EQ PUSH2 0x260 JUMPI DUP1 PUSH4 0xD39FA233 EQ PUSH2 0x27E JUMPI PUSH2 0xCD JUMP JUMPDEST DUP1 PUSH4 0x493EC707 EQ PUSH2 0x1B8 JUMPI DUP1 PUSH4 0x68744046 EQ PUSH2 0x1D4 JUMPI DUP1 PUSH4 0x77EC2B55 EQ PUSH2 0x205 JUMPI PUSH2 0xCD JUMP JUMPDEST DUP1 PUSH4 0x28414F2 EQ PUSH2 0xD1 JUMPI DUP1 PUSH4 0x20965255 EQ PUSH2 0xED JUMPI DUP1 PUSH4 0x2146E086 EQ PUSH2 0x10B JUMPI DUP1 PUSH4 0x27D3553F EQ PUSH2 0x127 JUMPI DUP1 PUSH4 0x2A2E1320 EQ PUSH2 0x158 JUMPI DUP1 PUSH4 0x34AD75E9 EQ PUSH2 0x188 JUMPI JUMPDEST PUSH0 DUP1 REVERT JUMPDEST PUSH2 0xEB PUSH1 0x4 DUP1 CALLDATASIZE SUB DUP2 ADD SWAP1 PUSH2 0xE6 SWAP2 SWAP1 PUSH2 0xA6C JUMP JUMPDEST PUSH2 0x2AE JUMP JUMPDEST STOP JUMPDEST PUSH2 0xF5 PUSH2 0x306 JUMP JUMPDEST PUSH1 0x40 MLOAD PUSH2 0x102 SWAP2 SWAP1 PUSH2 0xB03 JUMP JUMPDEST PUSH1 0x40 MLOAD DUP1 SWAP2 SUB SWAP1 RETURN JUMPDEST PUSH2 0x125 PUSH1 0x4 DUP1 CALLDATASIZE SUB DUP2 ADD SWAP1 PUSH2 0x120 SWAP2 SWAP1 PUSH2 0xB1C JUMP JUMPDEST PUSH2 0x313 JUMP JUMPDEST STOP JUMPDEST PUSH2 0x141 PUSH1 0x4 DUP1 CALLDATASIZE SUB DUP2 ADD SWAP1 PUSH2 0x13C SWAP2 SWAP1 PUSH2 0xBEC JUMP JUMPDEST PUSH2 0x37E JUMP JUMPDEST PUSH1 0x40 MLOAD PUSH2 0x14F SWAP3 SWAP2 SWAP1 PUSH2 0xC8A JUMP JUMPDEST PUSH1 0x40 MLOAD DUP1 SWAP2 SUB SWAP1 RETURN JUMPDEST PUSH2 0x172 PUSH1 0x4 DUP1 CALLDATASIZE SUB DUP2 ADD SWAP1 PUSH2 0x16D SWAP2 SWAP1 PUSH2 0xCBF JUMP JUMPDEST PUSH2 0x4B5 JUMP JUMPDEST PUSH1 0x40 MLOAD PUSH2 0x17F SWAP2 SWAP1 PUSH2 0xD04 JUMP JUMPDEST PUSH1 0x40 MLOAD DUP1 SWAP2 SUB SWAP1 RETURN JUMPDEST PUSH2 0x1A2 PUSH1 0x4 DUP1 CALLDATASIZE SUB DUP2 ADD SWAP1 PUSH2 0x19D SWAP2 SWAP1 PUSH2 0xD1D JUMP JUMPDEST PUSH2 0x4DB JUMP JUMPDEST PUSH1 0x40 MLOAD PUSH2 0x1AF SWAP2 SWAP1 PUSH2 0xD77 JUMP JUMPDEST PUSH1 0x40 MLOAD DUP1 SWAP2 SUB SWAP1 RETURN JUMPDEST PUSH2 0x1D2 PUSH1 0x4 DUP1 CALLDATASIZE SUB DUP2 ADD SWAP1 PUSH2 0x1CD SWAP2 SWAP1 PUSH2 0xA6C JUMP JUMPDEST PUSH2 0x599 JUMP JUMPDEST STOP JUMPDEST PUSH2 0x1EE PUSH1 0x4 DUP1 CALLDATASIZE SUB DUP2 ADD SWAP1 PUSH2 0x1E9 SWAP2 SWAP1 PUSH2 0xCBF JUMP JUMPDEST PUSH2 0x62C JUMP JUMPDEST PUSH1 0x40 MLOAD PUSH2 0x1FC SWAP3 SWAP2 SWAP1 PUSH2 0xC8A JUMP JUMPDEST PUSH1 0x40 MLOAD DUP1 SWAP2 SUB SWAP1 RETURN JUMPDEST PUSH2 0x20D PUSH2 0x758 JUMP JUMPDEST PUSH1 0x40 MLOAD PUSH2 0x21B SWAP3 SWAP2 SWAP1 PUSH2 0xD97 JUMP JUMPDEST PUSH1 0x40 MLOAD DUP1 SWAP2 SUB SWAP1 RETURN JUMPDEST PUSH2 0x22C PUSH2 0x7EF JUMP JUMPDEST PUSH1 0x40 MLOAD PUSH2 0x239 SWAP2 SWAP1 PUSH2 0xDD4 JUMP JUMPDEST PUSH1 0x40 MLOAD DUP1 SWAP2 SUB SWAP1 RETURN JUMPDEST PUSH2 0x24A PUSH2 0x814 JUMP JUMPDEST PUSH1 0x40 MLOAD PUSH2 0x257 SWAP2 SWAP1 PUSH2 0xD04 JUMP JUMPDEST PUSH1 0x40 MLOAD DUP1 SWAP2 SUB SWAP1 RETURN JUMPDEST PUSH2 0x268 PUSH2 0x86A JUMP JUMPDEST PUSH1 0x40 MLOAD PUSH2 0x275 SWAP2 SWAP1 PUSH2 0xB03 JUMP JUMPDEST PUSH1 0x40 MLOAD DUP1 SWAP2 SUB SWAP1 RETURN JUMPDEST PUSH2 0x298 PUSH1 0x4 DUP1 CALLDATASIZE SUB DUP2 ADD SWAP1 PUSH2 0x293 SWAP2 SWAP1 PUSH2 0xCBF JUMP JUMPDEST PUSH2 0x8CC JUMP JUMPDEST PUSH1 0x40 MLOAD PUSH2 0x2A5 SWAP2 SWAP1 PUSH2 0xB03 JUMP JUMPDEST PUSH1 0x40 MLOAD DUP1 SWAP2 SUB SWAP1 RETURN JUMPDEST PUSH1 0x40 MLOAD DUP1 PUSH1 0x40 ADD PUSH1 0x40 MSTORE DUP1 DUP4 DUP2 MSTORE PUSH1 0x20 ADD DUP3 DUP2 MSTORE POP PUSH1 0x5 PUSH0 DUP6 DUP2 MSTORE PUSH1 0x20 ADD SWAP1 DUP2 MSTORE PUSH1 0x20 ADD PUSH0 KECCAK256 PUSH0 DUP3 ADD MLOAD DUP2 PUSH0 ADD SWAP1 DUP2 PUSH2 0x2E7 SWAP2 SWAP1 PUSH2 0xFE7 JUMP JUMPDEST POP PUSH1 0x20 DUP3 ADD MLOAD DUP2 PUSH1 0x1 ADD SWAP1 DUP2 PUSH2 0x2FD SWAP2 SWAP1 PUSH2 0xFE7 JUMP JUMPDEST POP SWAP1 POP POP POP POP POP JUMP JUMPDEST PUSH0 DUP1 PUSH1 0x1 SWAP1 POP DUP1 SWAP2 POP POP SWAP1 JUMP JUMPDEST DUP1 PUSH1 0x8 PUSH0 CALLER PUSH20 0xFFFFFFFFFFFFFFFFFFFFFFFFFFFFFFFFFFFFFFFF AND PUSH20 0xFFFFFFFFFFFFFFFFFFFFFFFFFFFFFFFFFFFFFFFF AND DUP2 MSTORE PUSH1 0x20 ADD SWAP1 DUP2 MSTORE PUSH1 0x20 ADD PUSH0 KECCAK256 DUP4 PUSH1 0x40 MLOAD PUSH2 0x35F SWAP2 SWAP1 PUSH2 0x10F0 JUMP JUMPDEST SWAP1 DUP2 MSTORE PUSH1 0x20 ADD PUSH1 0x40 MLOAD DUP1 SWAP2 SUB SWAP1 KECCAK256 SWAP1 DUP2 PUSH2 0x379 SWAP2 SWAP1 PUSH2 0xFE7 JUMP JUMPDEST POP POP POP JUMP JUMPDEST PUSH1 0x6 PUSH1 0x20 MSTORE DUP2 PUSH0 MSTORE PUSH1 0x40 PUSH0 KECCAK256 PUSH1 0x20 MSTORE DUP1 PUSH0 MSTORE PUSH1 0x40 PUSH0 KECCAK256 PUSH0 SWAP2 POP SWAP2 POP POP DUP1 PUSH0 ADD DUP1 SLOAD PUSH2 0x3A8 SWAP1 PUSH2 0xE1A JUMP JUMPDEST DUP1 PUSH1 0x1F ADD PUSH1 0x20 DUP1 SWAP2 DIV MUL PUSH1 0x20 ADD PUSH1 0x40 MLOAD SWAP1 DUP2 ADD PUSH1 0x40 MSTORE DUP1 SWAP3 SWAP2 SWAP1 DUP2 DUP2 MSTORE PUSH1 0x20 ADD DUP3 DUP1 SLOAD PUSH2 0x3D4 SWAP1 PUSH2 0xE1A JUMP JUMPDEST DUP1 ISZERO PUSH2 0x41F JUMPI DUP1 PUSH1 0x1F LT PUSH2 0x3F6 JUMPI PUSH2 0x100 DUP1 DUP4 SLOAD DIV MUL DUP4 MSTORE SWAP2 PUSH1 0x20 ADD SWAP2 PUSH2 0x41F JUMP JUMPDEST DUP3 ADD SWAP2 SWAP1 PUSH0 MSTORE PUSH1 0x20 PUSH0 KECCAK256 SWAP1 JUMPDEST DUP2 SLOAD DUP2 MSTORE SWAP1 PUSH1 0x1 ADD SWAP1 PUSH1 0x20 ADD DUP1 DUP4 GT PUSH2 0x402 JUMPI DUP3 SWAP1 SUB PUSH1 0x1F AND DUP3 ADD SWAP2 JUMPDEST POP POP POP POP POP SWAP1 DUP1 PUSH1 0x1 ADD DUP1 SLOAD PUSH2 0x434 SWAP1 PUSH2 0xE1A JUMP JUMPDEST DUP1 PUSH1 0x1F ADD PUSH1 0x20 DUP1 SWAP2 DIV MUL PUSH1 0x20 ADD PUSH1 0x40 MLOAD SWAP1 DUP2 ADD PUSH1 0x40 MSTORE DUP1 SWAP3 SWAP2 SWAP1 DUP2 DUP2 MSTORE PUSH1 0x20 ADD DUP3 DUP1 SLOAD PUSH2 0x460 SWAP1 PUSH2 0xE1A JUMP JUMPDEST DUP1 ISZERO PUSH2 0x4AB JUMPI DUP1 PUSH1 0x1F LT PUSH2 0x482 JUMPI PUSH2 0x100 DUP1 DUP4 SLOAD DIV MUL DUP4 MSTORE SWAP2 PUSH1 0x20 ADD SWAP2 PUSH2 0x4AB JUMP JUMPDEST DUP3 ADD SWAP2 SWAP1 PUSH0 MSTORE PUSH1 0x20 PUSH0 KECCAK256 SWAP1 JUMPDEST DUP2 SLOAD DUP2 MSTORE SWAP1 PUSH1 0x1 ADD SWAP1 PUSH1 0x20 ADD DUP1 DUP4 GT PUSH2 0x48E JUMPI DUP3 SWAP1 SUB PUSH1 0x1F AND DUP3 ADD SWAP2 JUMPDEST POP POP POP POP POP SWAP1 POP DUP3 JUMP JUMPDEST PUSH0 DUP1 PUSH1 0x2 DUP4 PUSH2 0x4C4 SWAP2 SWAP1 PUSH2 0x1133 JUMP JUMPDEST SUB PUSH2 0x4D2 JUMPI PUSH1 0x1 SWAP1 POP PUSH2 0x4D6 JUMP JUMPDEST PUSH0 SWAP1 POP JUMPDEST SWAP2 SWAP1 POP JUMP JUMPDEST PUSH1 0x8 PUSH1 0x20 MSTORE DUP2 PUSH0 MSTORE PUSH1 0x40 PUSH0 KECCAK256 DUP2 DUP1 MLOAD PUSH1 0x20 DUP2 ADD DUP3 ADD DUP1 MLOAD DUP5 DUP3 MSTORE PUSH1 0x20 DUP4 ADD PUSH1 0x20 DUP6 ADD KECCAK256 DUP2 DUP4 MSTORE DUP1 SWAP6 POP POP POP POP POP POP PUSH0 SWAP2 POP SWAP2 POP POP DUP1 SLOAD PUSH2 0x51A SWAP1 PUSH2 0xE1A JUMP JUMPDEST DUP1 PUSH1 0x1F ADD PUSH1 0x20 DUP1 SWAP2 DIV MUL PUSH1 0x20 ADD PUSH1 0x40 MLOAD SWAP1 DUP2 ADD PUSH1 0x40 MSTORE DUP1 SWAP3 SWAP2 SWAP1 DUP2 DUP2 MSTORE PUSH1 0x20 ADD DUP3 DUP1 SLOAD PUSH2 0x546 SWAP1 PUSH2 0xE1A JUMP JUMPDEST DUP1 ISZERO PUSH2 0x591 JUMPI DUP1 PUSH1 0x1F LT PUSH2 0x568 JUMPI PUSH2 0x100 DUP1 DUP4 SLOAD DIV MUL DUP4 MSTORE SWAP2 PUSH1 0x20 ADD SWAP2 PUSH2 0x591 JUMP JUMPDEST DUP3 ADD SWAP2 SWAP1 PUSH0 MSTORE PUSH1 0x20 PUSH0 KECCAK256 SWAP1 JUMPDEST DUP2 SLOAD DUP2 MSTORE SWAP1 PUSH1 0x1 ADD SWAP1 PUSH1 0x20 ADD DUP1 DUP4 GT PUSH2 0x574 JUMPI DUP3 SWAP1 SUB PUSH1 0x1F AND DUP3 ADD SWAP2 JUMPDEST POP POP POP POP POP DUP2 JUMP JUMPDEST PUSH1 0x40 MLOAD DUP1 PUSH1 0x40 ADD PUSH1 0x40 MSTORE DUP1 DUP4 DUP2 MSTORE PUSH1 0x20 ADD DUP3 DUP2 MSTORE POP PUSH1 0x6 PUSH0 CALLER PUSH20 0xFFFFFFFFFFFFFFFFFFFFFFFFFFFFFFFFFFFFFFFF AND PUSH20 0xFFFFFFFFFFFFFFFFFFFFFFFFFFFFFFFFFFFFFFFF AND DUP2 MSTORE PUSH1 0x20 ADD SWAP1 DUP2 MSTORE PUSH1 0x20 ADD PUSH0 KECCAK256 PUSH0 DUP6 DUP2 MSTORE PUSH1 0x20 ADD SWAP1 DUP2 MSTORE PUSH1 0x20 ADD PUSH0 KECCAK256 PUSH0 DUP3 ADD MLOAD DUP2 PUSH0 ADD SWAP1 DUP2 PUSH2 0x60D SWAP2 SWAP1 PUSH2 0xFE7 JUMP JUMPDEST POP PUSH1 0x20 DUP3 ADD MLOAD DUP2 PUSH1 0x1 ADD SWAP1 DUP2 PUSH2 0x623 SWAP2 SWAP1 PUSH2 0xFE7 JUMP JUMPDEST POP SWAP1 POP POP POP POP POP JUMP JUMPDEST PUSH1 0x5 PUSH1 0x20 MSTORE DUP1 PUSH0 MSTORE PUSH1 0x40 PUSH0 KECCAK256 PUSH0 SWAP2 POP SWAP1 POP DUP1 PUSH0 ADD DUP1 SLOAD PUSH2 0x64B SWAP1 PUSH2 0xE1A JUMP JUMPDEST DUP1 PUSH1 0x1F ADD PUSH1 0x20 DUP1 SWAP2 DIV MUL PUSH1 0x20 ADD PUSH1 0x40 MLOAD SWAP1 DUP2 ADD PUSH1 0x40 MSTORE DUP1 SWAP3 SWAP2 SWAP1 DUP2 DUP2 MSTORE PUSH1 0x20 ADD DUP3 DUP1 SLOAD PUSH2 0x677 SWAP1 PUSH2 0xE1A JUMP JUMPDEST DUP1 ISZERO PUSH2 0x6C2 JUMPI DUP1 PUSH1 0x1F LT PUSH2 0x699 JUMPI PUSH2 0x100 DUP1 DUP4 SLOAD DIV MUL DUP4 MSTORE SWAP2 PUSH1 0x20 ADD SWAP2 PUSH2 0x6C2 JUMP JUMPDEST DUP3 ADD SWAP2 SWAP1 PUSH0 MSTORE PUSH1 0x20 PUSH0 KECCAK256 SWAP1 JUMPDEST DUP2 SLOAD DUP2 MSTORE SWAP1 PUSH1 0x1 ADD SWAP1 PUSH1 0x20 ADD DUP1 DUP4 GT PUSH2 0x6A5 JUMPI DUP3 SWAP1 SUB PUSH1 0x1F AND DUP3 ADD SWAP2 JUMPDEST POP POP POP POP POP SWAP1 DUP1 PUSH1 0x1 ADD DUP1 SLOAD PUSH2 0x6D7 SWAP1 PUSH2 0xE1A JUMP JUMPDEST DUP1 PUSH1 0x1F ADD PUSH1 0x20 DUP1 SWAP2 DIV MUL PUSH1 0x20 ADD PUSH1 0x40 MLOAD SWAP1 DUP2 ADD PUSH1 0x40 MSTORE DUP1 SWAP3 SWAP2 SWAP1 DUP2 DUP2 MSTORE PUSH1 0x20 ADD DUP3 DUP1 SLOAD PUSH2 0x703 SWAP1 PUSH2 0xE1A JUMP JUMPDEST DUP1 ISZERO PUSH2 0x74E JUMPI DUP1 PUSH1 0x1F LT PUSH2 0x725 JUMPI PUSH2 0x100 DUP1 DUP4 SLOAD DIV MUL DUP4 MSTORE SWAP2 PUSH1 0x20 ADD SWAP2 PUSH2 0x74E JUMP JUMPDEST DUP3 ADD SWAP2 SWAP1 PUSH0 MSTORE PUSH1 0x20 PUSH0 KECCAK256 SWAP1 JUMPDEST DUP2 SLOAD DUP2 MSTORE SWAP1 PUSH1 0x1 ADD SWAP1 PUSH1 0x20 ADD DUP1 DUP4 GT PUSH2 0x731 JUMPI DUP3 SWAP1 SUB PUSH1 0x1F AND DUP3 ADD SWAP2 JUMPDEST POP POP POP POP POP SWAP1 POP DUP3 JUMP JUMPDEST PUSH1 0x3 DUP1 PUSH0 ADD SLOAD SWAP1 DUP1 PUSH1 0x1 ADD DUP1 SLOAD PUSH2 0x76E SWAP1 PUSH2 0xE1A JUMP JUMPDEST DUP1 PUSH1 0x1F ADD PUSH1 0x20 DUP1 SWAP2 DIV MUL PUSH1 0x20 ADD PUSH1 0x40 MLOAD SWAP1 DUP2 ADD PUSH1 0x40 MSTORE DUP1 SWAP3 SWAP2 SWAP1 DUP2 DUP2 MSTORE PUSH1 0x20 ADD DUP3 DUP1 SLOAD PUSH2 0x79A SWAP1 PUSH2 0xE1A JUMP JUMPDEST DUP1 ISZERO PUSH2 0x7E5 JUMPI DUP1 PUSH1 0x1F LT PUSH2 0x7BC JUMPI PUSH2 0x100 DUP1 DUP4 SLOAD DIV MUL DUP4 MSTORE SWAP2 PUSH1 0x20 ADD SWAP2 PUSH2 0x7E5 JUMP JUMPDEST DUP3 ADD SWAP2 SWAP1 PUSH0 MSTORE PUSH1 0x20 PUSH0 KECCAK256 SWAP1 JUMPDEST DUP2 SLOAD DUP2 MSTORE SWAP1 PUSH1 0x1 ADD SWAP1 PUSH1 0x20 ADD DUP1 DUP4 GT PUSH2 0x7C8 JUMPI DUP3 SWAP1 SUB PUSH1 0x1F AND DUP3 ADD SWAP2 JUMPDEST POP POP POP POP POP SWAP1 POP DUP3 JUMP JUMPDEST PUSH1 0x2 PUSH0 SWAP1 SLOAD SWAP1 PUSH2 0x100 EXP SWAP1 DIV PUSH20 0xFFFFFFFFFFFFFFFFFFFFFFFFFFFFFFFFFFFFFFFF AND DUP2 JUMP JUMPDEST PUSH0 CALLER PUSH20 0xFFFFFFFFFFFFFFFFFFFFFFFFFFFFFFFFFFFFFFFF AND PUSH1 0x2 PUSH0 SWAP1 SLOAD SWAP1 PUSH2 0x100 EXP SWAP1 DIV PUSH20 0xFFFFFFFFFFFFFFFFFFFFFFFFFFFFFFFFFFFFFFFF AND PUSH20 0xFFFFFFFFFFFFFFFFFFFFFFFFFFFFFFFFFFFFFFFF AND EQ SWAP1 POP SWAP1 JUMP JUMPDEST PUSH0 DUP1 PUSH0 SWAP1 POP PUSH0 JUMPDEST PUSH1 0x7 DUP1 SLOAD SWAP1 POP DUP2 LT ISZERO PUSH2 0x8C4 JUMPI PUSH2 0x8A3 PUSH1 0x7 DUP3 DUP2 SLOAD DUP2 LT PUSH2 0x895 JUMPI PUSH2 0x894 PUSH2 0x1163 JUMP JUMPDEST JUMPDEST SWAP1 PUSH0 MSTORE PUSH1 0x20 PUSH0 KECCAK256 ADD SLOAD PUSH2 0x4B5 JUMP JUMPDEST ISZERO PUSH2 0x8B7 JUMPI DUP2 DUP1 PUSH2 0x8B3 SWAP1 PUSH2 0x11BD JUMP JUMPDEST SWAP3 POP POP JUMPDEST DUP1 DUP1 PUSH1 0x1 ADD SWAP2 POP POP PUSH2 0x871 JUMP JUMPDEST POP DUP1 SWAP2 POP POP SWAP1 JUMP JUMPDEST PUSH1 0x7 DUP2 DUP2 SLOAD DUP2 LT PUSH2 0x8DB JUMPI PUSH0 DUP1 REVERT JUMPDEST SWAP1 PUSH0 MSTORE PUSH1 0x20 PUSH0 KECCAK256 ADD PUSH0 SWAP2 POP SWAP1 POP SLOAD DUP2 JUMP JUMPDEST PUSH0 PUSH1 0x40 MLOAD SWAP1 POP SWAP1 JUMP JUMPDEST PUSH0 DUP1 REVERT JUMPDEST PUSH0 DUP1 REVERT JUMPDEST PUSH0 DUP2 SWAP1 POP SWAP2 SWAP1 POP JUMP JUMPDEST PUSH2 0x90F DUP2 PUSH2 0x8FD JUMP JUMPDEST DUP2 EQ PUSH2 0x919 JUMPI PUSH0 DUP1 REVERT JUMPDEST POP JUMP JUMPDEST PUSH0 DUP2 CALLDATALOAD SWAP1 POP PUSH2 0x92A DUP2 PUSH2 0x906 JUMP JUMPDEST SWAP3 SWAP2 POP POP JUMP JUMPDEST PUSH0 DUP1 REVERT JUMPDEST PUSH0 DUP1 REVERT JUMPDEST PUSH0 PUSH1 0x1F NOT PUSH1 0x1F DUP4 ADD AND SWAP1 POP SWAP2 SWAP1 POP JUMP JUMPDEST PUSH32 0x4E487B7100000000000000000000000000000000000000000000000000000000 PUSH0 MSTORE PUSH1 0x41 PUSH1 0x4 MSTORE PUSH1 0x24 PUSH0 REVERT JUMPDEST PUSH2 0x97E DUP3 PUSH2 0x938 JUMP JUMPDEST DUP2 ADD DUP2 DUP2 LT PUSH8 0xFFFFFFFFFFFFFFFF DUP3 GT OR ISZERO PUSH2 0x99D JUMPI PUSH2 0x99C PUSH2 0x948 JUMP JUMPDEST JUMPDEST DUP1 PUSH1 0x40 MSTORE POP POP POP JUMP JUMPDEST PUSH0 PUSH2 0x9AF PUSH2 0x8EC JUMP JUMPDEST SWAP1 POP PUSH2 0x9BB DUP3 DUP3 PUSH2 0x975 JUMP JUMPDEST SWAP2 SWAP1 POP JUMP JUMPDEST PUSH0 PUSH8 0xFFFFFFFFFFFFFFFF DUP3 GT ISZERO PUSH2 0x9DA JUMPI PUSH2 0x9D9 PUSH2 0x948 JUMP JUMPDEST JUMPDEST PUSH2 0x9E3 DUP3 PUSH2 0x938 JUMP JUMPDEST SWAP1 POP PUSH1 0x20 DUP2 ADD SWAP1 POP SWAP2 SWAP1 POP JUMP JUMPDEST DUP3 DUP2 DUP4 CALLDATACOPY PUSH0 DUP4 DUP4 ADD MSTORE POP POP POP JUMP JUMPDEST PUSH0 PUSH2 0xA10 PUSH2 0xA0B DUP5 PUSH2 0x9C0 JUMP JUMPDEST PUSH2 0x9A6 JUMP JUMPDEST SWAP1 POP DUP3 DUP2 MSTORE PUSH1 0x20 DUP2 ADD DUP5 DUP5 DUP5 ADD GT ISZERO PUSH2 0xA2C JUMPI PUSH2 0xA2B PUSH2 0x934 JUMP JUMPDEST JUMPDEST PUSH2 0xA37 DUP5 DUP3 DUP6 PUSH2 0x9F0 JUMP JUMPDEST POP SWAP4 SWAP3 POP POP POP JUMP JUMPDEST PUSH0 DUP3 PUSH1 0x1F DUP4 ADD SLT PUSH2 0xA53 JUMPI PUSH2 0xA52 PUSH2 0x930 JUMP JUMPDEST JUMPDEST DUP2 CALLDATALOAD PUSH2 0xA63 DUP5 DUP3 PUSH1 0x20 DUP7 ADD PUSH2 0x9FE JUMP JUMPDEST SWAP2 POP POP SWAP3 SWAP2 POP POP JUMP JUMPDEST PUSH0 DUP1 PUSH0 PUSH1 0x60 DUP5 DUP7 SUB SLT ISZERO PUSH2 0xA83 JUMPI PUSH2 0xA82 PUSH2 0x8F5 JUMP JUMPDEST JUMPDEST PUSH0 PUSH2 0xA90 DUP7 DUP3 DUP8 ADD PUSH2 0x91C JUMP JUMPDEST SWAP4 POP POP PUSH1 0x20 DUP5 ADD CALLDATALOAD PUSH8 0xFFFFFFFFFFFFFFFF DUP2 GT ISZERO PUSH2 0xAB1 JUMPI PUSH2 0xAB0 PUSH2 0x8F9 JUMP JUMPDEST JUMPDEST PUSH2 0xABD DUP7 DUP3 DUP8 ADD PUSH2 0xA3F JUMP JUMPDEST SWAP3 POP POP PUSH1 0x40 DUP5 ADD CALLDATALOAD PUSH8 0xFFFFFFFFFFFFFFFF DUP2 GT ISZERO PUSH2 0xADE JUMPI PUSH2 0xADD PUSH2 0x8F9 JUMP JUMPDEST JUMPDEST PUSH2 0xAEA DUP7 DUP3 DUP8 ADD PUSH2 0xA3F JUMP JUMPDEST SWAP2 POP POP SWAP3 POP SWAP3 POP SWAP3 JUMP JUMPDEST PUSH2 0xAFD DUP2 PUSH2 0x8FD JUMP JUMPDEST DUP3 MSTORE POP POP JUMP JUMPDEST PUSH0 PUSH1 0x20 DUP3 ADD SWAP1 POP PUSH2 0xB16 PUSH0 DUP4 ADD DUP5 PUSH2 0xAF4 JUMP JUMPDEST SWAP3 SWAP2 POP POP JUMP JUMPDEST PUSH0 DUP1 PUSH1 0x40 DUP4 DUP6 SUB SLT ISZERO PUSH2 0xB32 JUMPI PUSH2 0xB31 PUSH2 0x8F5 JUMP JUMPDEST JUMPDEST PUSH0 DUP4 ADD CALLDATALOAD PUSH8 0xFFFFFFFFFFFFFFFF DUP2 GT ISZERO PUSH2 0xB4F JUMPI PUSH2 0xB4E PUSH2 0x8F9 JUMP JUMPDEST JUMPDEST PUSH2 0xB5B DUP6 DUP3 DUP7 ADD PUSH2 0xA3F JUMP JUMPDEST SWAP3 POP POP PUSH1 0x20 DUP4 ADD CALLDATALOAD PUSH8 0xFFFFFFFFFFFFFFFF DUP2 GT ISZERO PUSH2 0xB7C JUMPI PUSH2 0xB7B PUSH2 0x8F9 JUMP JUMPDEST JUMPDEST PUSH2 0xB88 DUP6 DUP3 DUP7 ADD PUSH2 0xA3F JUMP JUMPDEST SWAP2 POP POP SWAP3 POP SWAP3 SWAP1 POP JUMP JUMPDEST PUSH0 PUSH20 0xFFFFFFFFFFFFFFFFFFFFFFFFFFFFFFFFFFFFFFFF DUP3 AND SWAP1 POP SWAP2 SWAP1 POP JUMP JUMPDEST PUSH0 PUSH2 0xBBB DUP3 PUSH2 0xB92 JUMP JUMPDEST SWAP1 POP SWAP2 SWAP1 POP JUMP JUMPDEST PUSH2 0xBCB DUP2 PUSH2 0xBB1 JUMP JUMPDEST DUP2 EQ PUSH2 0xBD5 JUMPI PUSH0 DUP1 REVERT JUMPDEST POP JUMP JUMPDEST PUSH0 DUP2 CALLDATALOAD SWAP1 POP PUSH2 0xBE6 DUP2 PUSH2 0xBC2 JUMP JUMPDEST SWAP3 SWAP2 POP POP JUMP JUMPDEST PUSH0 DUP1 PUSH1 0x40 DUP4 DUP6 SUB SLT ISZERO PUSH2 0xC02 JUMPI PUSH2 0xC01 PUSH2 0x8F5 JUMP JUMPDEST JUMPDEST PUSH0 PUSH2 0xC0F DUP6 DUP3 DUP7 ADD PUSH2 0xBD8 JUMP JUMPDEST SWAP3 POP POP PUSH1 0x20 PUSH2 0xC20 DUP6 DUP3 DUP7 ADD PUSH2 0x91C JUMP JUMPDEST SWAP2 POP POP SWAP3 POP SWAP3 SWAP1 POP JUMP JUMPDEST PUSH0 DUP2 MLOAD SWAP1 POP SWAP2 SWAP1 POP JUMP JUMPDEST PUSH0 DUP3 DUP3 MSTORE PUSH1 0x20 DUP3 ADD SWAP1 POP SWAP3 SWAP2 POP POP JUMP JUMPDEST DUP3 DUP2 DUP4 MCOPY PUSH0 DUP4 DUP4 ADD MSTORE POP POP POP JUMP JUMPDEST PUSH0 PUSH2 0xC5C DUP3 PUSH2 0xC2A JUMP JUMPDEST PUSH2 0xC66 DUP2 DUP6 PUSH2 0xC34 JUMP JUMPDEST SWAP4 POP PUSH2 0xC76 DUP2 DUP6 PUSH1 0x20 DUP7 ADD PUSH2 0xC44 JUMP JUMPDEST PUSH2 0xC7F DUP2 PUSH2 0x938 JUMP JUMPDEST DUP5 ADD SWAP2 POP POP SWAP3 SWAP2 POP POP JUMP JUMPDEST PUSH0 PUSH1 0x40 DUP3 ADD SWAP1 POP DUP2 DUP2 SUB PUSH0 DUP4 ADD MSTORE PUSH2 0xCA2 DUP2 DUP6 PUSH2 0xC52 JUMP JUMPDEST SWAP1 POP DUP2 DUP2 SUB PUSH1 0x20 DUP4 ADD MSTORE PUSH2 0xCB6 DUP2 DUP5 PUSH2 0xC52 JUMP JUMPDEST SWAP1 POP SWAP4 SWAP3 POP POP POP JUMP JUMPDEST PUSH0 PUSH1 0x20 DUP3 DUP5 SUB SLT ISZERO PUSH2 0xCD4 JUMPI PUSH2 0xCD3 PUSH2 0x8F5 JUMP JUMPDEST JUMPDEST PUSH0 PUSH2 0xCE1 DUP5 DUP3 DUP6 ADD PUSH2 0x91C JUMP JUMPDEST SWAP2 POP POP SWAP3 SWAP2 POP POP JUMP JUMPDEST PUSH0 DUP2 ISZERO ISZERO SWAP1 POP SWAP2 SWAP1 POP JUMP JUMPDEST PUSH2 0xCFE DUP2 PUSH2 0xCEA JUMP JUMPDEST DUP3 MSTORE POP POP JUMP JUMPDEST PUSH0 PUSH1 0x20 DUP3 ADD SWAP1 POP PUSH2 0xD17 PUSH0 DUP4 ADD DUP5 PUSH2 0xCF5 JUMP JUMPDEST SWAP3 SWAP2 POP POP JUMP JUMPDEST PUSH0 DUP1 PUSH1 0x40 DUP4 DUP6 SUB SLT ISZERO PUSH2 0xD33 JUMPI PUSH2 0xD32 PUSH2 0x8F5 JUMP JUMPDEST JUMPDEST PUSH0 PUSH2 0xD40 DUP6 DUP3 DUP7 ADD PUSH2 0xBD8 JUMP JUMPDEST SWAP3 POP POP PUSH1 0x20 DUP4 ADD CALLDATALOAD PUSH8 0xFFFFFFFFFFFFFFFF DUP2 GT ISZERO PUSH2 0xD61 JUMPI PUSH2 0xD60 PUSH2 0x8F9 JUMP JUMPDEST JUMPDEST PUSH2 0xD6D DUP6 DUP3 DUP7 ADD PUSH2 0xA3F JUMP JUMPDEST SWAP2 POP POP SWAP3 POP SWAP3 SWAP1 POP JUMP JUMPDEST PUSH0 PUSH1 0x20 DUP3 ADD SWAP1 POP DUP2 DUP2 SUB PUSH0 DUP4 ADD MSTORE PUSH2 0xD8F DUP2 DUP5 PUSH2 0xC52 JUMP JUMPDEST SWAP1 POP SWAP3 SWAP2 POP POP JUMP JUMPDEST PUSH0 PUSH1 0x40 DUP3 ADD SWAP1 POP PUSH2 0xDAA PUSH0 DUP4 ADD DUP6 PUSH2 0xAF4 JUMP JUMPDEST DUP2 DUP2 SUB PUSH1 0x20 DUP4 ADD MSTORE PUSH2 0xDBC DUP2 DUP5 PUSH2 0xC52 JUMP JUMPDEST SWAP1 POP SWAP4 SWAP3 POP POP POP JUMP JUMPDEST PUSH2 0xDCE DUP2 PUSH2 0xBB1 JUMP JUMPDEST DUP3 MSTORE POP POP JUMP JUMPDEST PUSH0 PUSH1 0x20 DUP3 ADD SWAP1 POP PUSH2 0xDE7 PUSH0 DUP4 ADD DUP5 PUSH2 0xDC5 JUMP JUMPDEST SWAP3 SWAP2 POP POP JUMP JUMPDEST PUSH32 0x4E487B7100000000000000000000000000000000000000000000000000000000 PUSH0 MSTORE PUSH1 0x22 PUSH1 0x4 MSTORE PUSH1 0x24 PUSH0 REVERT JUMPDEST PUSH0 PUSH1 0x2 DUP3 DIV SWAP1 POP PUSH1 0x1 DUP3 AND DUP1 PUSH2 0xE31 JUMPI PUSH1 0x7F DUP3 AND SWAP2 POP JUMPDEST PUSH1 0x20 DUP3 LT DUP2 SUB PUSH2 0xE44 JUMPI PUSH2 0xE43 PUSH2 0xDED JUMP JUMPDEST JUMPDEST POP SWAP2 SWAP1 POP JUMP JUMPDEST PUSH0 DUP2 SWAP1 POP DUP2 PUSH0 MSTORE PUSH1 0x20 PUSH0 KECCAK256 SWAP1 POP SWAP2 SWAP1 POP JUMP JUMPDEST PUSH0 PUSH1 0x20 PUSH1 0x1F DUP4 ADD DIV SWAP1 POP SWAP2 SWAP1 POP JUMP JUMPDEST PUSH0 DUP3 DUP3 SHL SWAP1 POP SWAP3 SWAP2 POP POP JUMP JUMPDEST PUSH0 PUSH1 0x8 DUP4 MUL PUSH2 0xEA6 PUSH32 0xFFFFFFFFFFFFFFFFFFFFFFFFFFFFFFFFFFFFFFFFFFFFFFFFFFFFFFFFFFFFFFFF DUP3 PUSH2 0xE6B JUMP JUMPDEST PUSH2 0xEB0 DUP7 DUP4 PUSH2 0xE6B JUMP JUMPDEST SWAP6 POP DUP1 NOT DUP5 AND SWAP4 POP DUP1 DUP7 AND DUP5 OR SWAP3 POP POP POP SWAP4 SWAP3 POP POP POP JUMP JUMPDEST PUSH0 DUP2 SWAP1 POP SWAP2 SWAP1 POP JUMP JUMPDEST PUSH0 PUSH2 0xEEB PUSH2 0xEE6 PUSH2 0xEE1 DUP5 PUSH2 0x8FD JUMP JUMPDEST PUSH2 0xEC8 JUMP JUMPDEST PUSH2 0x8FD JUMP JUMPDEST SWAP1 POP SWAP2 SWAP1 POP JUMP JUMPDEST PUSH0 DUP2 SWAP1 POP SWAP2 SWAP1 POP JUMP JUMPDEST PUSH2 0xF04 DUP4 PUSH2 0xED1 JUMP JUMPDEST PUSH2 0xF18 PUSH2 0xF10 DUP3 PUSH2 0xEF2 JUMP JUMPDEST DUP5 DUP5 SLOAD PUSH2 0xE77 JUMP JUMPDEST DUP3 SSTORE POP POP POP POP JUMP JUMPDEST PUSH0 SWAP1 JUMP JUMPDEST PUSH2 0xF2C PUSH2 0xF20 JUMP JUMPDEST PUSH2 0xF37 DUP2 DUP5 DUP5 PUSH2 0xEFB JUMP JUMPDEST POP POP POP JUMP JUMPDEST JUMPDEST DUP2 DUP2 LT ISZERO PUSH2 0xF5A JUMPI PUSH2 0xF4F PUSH0 DUP3 PUSH2 0xF24 JUMP JUMPDEST PUSH1 0x1 DUP2 ADD SWAP1 POP PUSH2 0xF3D JUMP JUMPDEST POP POP JUMP JUMPDEST PUSH1 0x1F DUP3 GT ISZERO PUSH2 0xF9F JUMPI PUSH2 0xF70 DUP2 PUSH2 0xE4A JUMP JUMPDEST PUSH2 0xF79 DUP5 PUSH2 0xE5C JUMP JUMPDEST DUP2 ADD PUSH1 0x20 DUP6 LT ISZERO PUSH2 0xF88 JUMPI DUP2 SWAP1 POP JUMPDEST PUSH2 0xF9C PUSH2 0xF94 DUP6 PUSH2 0xE5C JUMP JUMPDEST DUP4 ADD DUP3 PUSH2 0xF3C JUMP JUMPDEST POP POP JUMPDEST POP POP POP JUMP JUMPDEST PUSH0 DUP3 DUP3 SHR SWAP1 POP SWAP3 SWAP2 POP POP JUMP JUMPDEST PUSH0 PUSH2 0xFBF PUSH0 NOT DUP5 PUSH1 0x8 MUL PUSH2 0xFA4 JUMP JUMPDEST NOT DUP1 DUP4 AND SWAP2 POP POP SWAP3 SWAP2 POP POP JUMP JUMPDEST PUSH0 PUSH2 0xFD7 DUP4 DUP4 PUSH2 0xFB0 JUMP JUMPDEST SWAP2 POP DUP3 PUSH1 0x2 MUL DUP3 OR SWAP1 POP SWAP3 SWAP2 POP POP JUMP JUMPDEST PUSH2 0xFF0 DUP3 PUSH2 0xC2A JUMP JUMPDEST PUSH8 0xFFFFFFFFFFFFFFFF DUP2 GT ISZERO PUSH2 0x1009 JUMPI PUSH2 0x1008 PUSH2 0x948 JUMP JUMPDEST JUMPDEST PUSH2 0x1013 DUP3 SLOAD PUSH2 0xE1A JUMP JUMPDEST PUSH2 0x101E DUP3 DUP3 DUP6 PUSH2 0xF5E JUMP JUMPDEST PUSH0 PUSH1 0x20 SWAP1 POP PUSH1 0x1F DUP4 GT PUSH1 0x1 DUP2 EQ PUSH2 0x104F JUMPI PUSH0 DUP5 ISZERO PUSH2 0x103D JUMPI DUP3 DUP8 ADD MLOAD SWAP1 POP JUMPDEST PUSH2 0x1047 DUP6 DUP3 PUSH2 0xFCC JUMP JUMPDEST DUP7 SSTORE POP PUSH2 0x10AE JUMP JUMPDEST PUSH1 0x1F NOT DUP5 AND PUSH2 0x105D DUP7 PUSH2 0xE4A JUMP JUMPDEST PUSH0 JUMPDEST DUP3 DUP2 LT ISZERO PUSH2 0x1084 JUMPI DUP5 DUP10 ADD MLOAD DUP3 SSTORE PUSH1 0x1 DUP3 ADD SWAP2 POP PUSH1 0x20 DUP6 ADD SWAP5 POP PUSH1 0x20 DUP2 ADD SWAP1 POP PUSH2 0x105F JUMP JUMPDEST DUP7 DUP4 LT ISZERO PUSH2 0x10A1 JUMPI DUP5 DUP10 ADD MLOAD PUSH2 0x109D PUSH1 0x1F DUP10 AND DUP3 PUSH2 0xFB0 JUMP JUMPDEST DUP4 SSTORE POP JUMPDEST PUSH1 0x1 PUSH1 0x2 DUP9 MUL ADD DUP9 SSTORE POP POP POP JUMPDEST POP POP POP POP POP POP JUMP JUMPDEST PUSH0 DUP2 SWAP1 POP SWAP3 SWAP2 POP POP JUMP JUMPDEST PUSH0 PUSH2 0x10CA DUP3 PUSH2 0xC2A JUMP JUMPDEST PUSH2 0x10D4 DUP2 DUP6 PUSH2 0x10B6 JUMP JUMPDEST SWAP4 POP PUSH2 0x10E4 DUP2 DUP6 PUSH1 0x20 DUP7 ADD PUSH2 0xC44 JUMP JUMPDEST DUP1 DUP5 ADD SWAP2 POP POP SWAP3 SWAP2 POP POP JUMP JUMPDEST PUSH0 PUSH2 0x10FB DUP3 DUP5 PUSH2 0x10C0 JUMP JUMPDEST SWAP2 POP DUP2 SWAP1 POP SWAP3 SWAP2 POP POP JUMP JUMPDEST PUSH32 0x4E487B7100000000000000000000000000000000000000000000000000000000 PUSH0 MSTORE PUSH1 0x12 PUSH1 0x4 MSTORE PUSH1 0x24 PUSH0 REVERT JUMPDEST PUSH0 PUSH2 0x113D DUP3 PUSH2 0x8FD JUMP JUMPDEST SWAP2 POP PUSH2 0x1148 DUP4 PUSH2 0x8FD JUMP JUMPDEST SWAP3 POP DUP3 PUSH2 0x1158 JUMPI PUSH2 0x1157 PUSH2 0x1106 JUMP JUMPDEST JUMPDEST DUP3 DUP3 MOD SWAP1 POP SWAP3 SWAP2 POP POP JUMP JUMPDEST PUSH32 0x4E487B7100000000000000000000000000000000000000000000000000000000 PUSH0 MSTORE PUSH1 0x32 PUSH1 0x4 MSTORE PUSH1 0x24 PUSH0 REVERT JUMPDEST PUSH32 0x4E487B7100000000000000000000000000000000000000000000000000000000 PUSH0 MSTORE PUSH1 0x11 PUSH1 0x4 MSTORE PUSH1 0x24 PUSH0 REVERT JUMPDEST PUSH0 PUSH2 0x11C7 DUP3 PUSH2 0x8FD JUMP JUMPDEST SWAP2 POP PUSH32 0xFFFFFFFFFFFFFFFFFFFFFFFFFFFFFFFFFFFFFFFFFFFFFFFFFFFFFFFFFFFFFFFF DUP3 SUB PUSH2 0x11F9 JUMPI PUSH2 0x11F8 PUSH2 0x1190 JUMP JUMPDEST JUMPDEST PUSH1 0x1 DUP3 ADD SWAP1 POP SWAP2 SWAP1 POP JUMP INVALID LOG2 PUSH5 0x6970667358 0x22 SLT KECCAK256 PUSH22 0xB4F4D01504753EEDD40A6DB37A38634BA80493A4A254 PUSH29 0x50B9EF6E9887444364736F6C634300081A003300000000000000000000 "
				},
				"gasEstimates": {
					"creation": {
						"codeDepositCost": "933200",
						"executionCost": "infinite",
						"totalCost": "infinite"
					},
					"external": {
						"addBook(uint256,string,string)": "infinite",
						"addMyBook(uint256,string,string)": "infinite",
						"addName(string,string)": "infinite",
						"books(uint256)": "infinite",
						"countEvenNumber()": "infinite",
						"getValue()": "368",
						"isEven(uint256)": "infinite",
						"isOwner()": "2534",
						"myBooks(address,uint256)": "infinite",
						"name(address,string)": "infinite",
						"numbers(uint256)": "infinite",
						"owner()": "2530",
						"person()": "infinite"
					}
				},
				"methodIdentifiers": {
					"addBook(uint256,string,string)": "028414f2",
					"addMyBook(uint256,string,string)": "493ec707",
					"addName(string,string)": "2146e086",
					"books(uint256)": "68744046",
					"countEvenNumber()": "9dcccf04",
					"getValue()": "20965255",
					"isEven(uint256)": "2a2e1320",
					"isOwner()": "8f32d59b",
					"myBooks(address,uint256)": "27d3553f",
					"name(address,string)": "34ad75e9",
					"numbers(uint256)": "d39fa233",
					"owner()": "8da5cb5b",
					"person()": "77ec2b55"
				}
			},
			"storageLayout": {
				"storage": [
					{
						"astId": 4,
						"contract": "contracts/MyContract.sol:myContract",
						"label": "myUint",
						"offset": 0,
						"slot": "0",
						"type": "t_uint256"
					},
					{
						"astId": 8,
						"contract": "contracts/MyContract.sol:myContract",
						"label": "myInt",
						"offset": 0,
						"slot": "1",
						"type": "t_int256"
					},
					{
						"astId": 10,
						"contract": "contracts/MyContract.sol:myContract",
						"label": "owner",
						"offset": 0,
						"slot": "2",
						"type": "t_address"
					},
					{
						"astId": 31,
						"contract": "contracts/MyContract.sol:myContract",
						"label": "person",
						"offset": 0,
						"slot": "3",
						"type": "t_struct(People)24_storage"
					},
					{
						"astId": 36,
						"contract": "contracts/MyContract.sol:myContract",
						"label": "books",
						"offset": 0,
						"slot": "5",
						"type": "t_mapping(t_uint256,t_struct(Book)48_storage)"
					},
					{
						"astId": 43,
						"contract": "contracts/MyContract.sol:myContract",
						"label": "myBooks",
						"offset": 0,
						"slot": "6",
						"type": "t_mapping(t_address,t_mapping(t_uint256,t_struct(Book)48_storage))"
					},
					{
						"astId": 62,
						"contract": "contracts/MyContract.sol:myContract",
						"label": "numbers",
						"offset": 0,
						"slot": "7",
						"type": "t_array(t_uint256)dyn_storage"
					},
					{
						"astId": 120,
						"contract": "contracts/MyContract.sol:myContract",
						"label": "name",
						"offset": 0,
						"slot": "8",
						"type": "t_mapping(t_address,t_mapping(t_string_memory_ptr,t_string_storage))"
					}
				],
				"types": {
					"t_address": {
						"encoding": "inplace",
						"label": "address",
						"numberOfBytes": "20"
					},
					"t_array(t_uint256)dyn_storage": {
						"base": "t_uint256",
						"encoding": "dynamic_array",
						"label": "uint256[]",
						"numberOfBytes": "32"
					},
					"t_int256": {
						"encoding": "inplace",
						"label": "int256",
						"numberOfBytes": "32"
					},
					"t_mapping(t_address,t_mapping(t_string_memory_ptr,t_string_storage))": {
						"encoding": "mapping",
						"key": "t_address",
						"label": "mapping(address => mapping(string => string))",
						"numberOfBytes": "32",
						"value": "t_mapping(t_string_memory_ptr,t_string_storage)"
					},
					"t_mapping(t_address,t_mapping(t_uint256,t_struct(Book)48_storage))": {
						"encoding": "mapping",
						"key": "t_address",
						"label": "mapping(address => mapping(uint256 => struct myContract.Book))",
						"numberOfBytes": "32",
						"value": "t_mapping(t_uint256,t_struct(Book)48_storage)"
					},
					"t_mapping(t_string_memory_ptr,t_string_storage)": {
						"encoding": "mapping",
						"key": "t_string_memory_ptr",
						"label": "mapping(string => string)",
						"numberOfBytes": "32",
						"value": "t_string_storage"
					},
					"t_mapping(t_uint256,t_struct(Book)48_storage)": {
						"encoding": "mapping",
						"key": "t_uint256",
						"label": "mapping(uint256 => struct myContract.Book)",
						"numberOfBytes": "32",
						"value": "t_struct(Book)48_storage"
					},
					"t_string_memory_ptr": {
						"encoding": "bytes",
						"label": "string",
						"numberOfBytes": "32"
					},
					"t_string_storage": {
						"encoding": "bytes",
						"label": "string",
						"numberOfBytes": "32"
					},
					"t_struct(Book)48_storage": {
						"encoding": "inplace",
						"label": "struct myContract.Book",
						"members": [
							{
								"astId": 45,
								"contract": "contracts/MyContract.sol:myContract",
								"label": "title",
								"offset": 0,
								"slot": "0",
								"type": "t_string_storage"
							},
							{
								"astId": 47,
								"contract": "contracts/MyContract.sol:myContract",
								"label": "author",
								"offset": 0,
								"slot": "1",
								"type": "t_string_storage"
							}
						],
						"numberOfBytes": "64"
					},
					"t_struct(People)24_storage": {
						"encoding": "inplace",
						"label": "struct myContract.People",
						"members": [
							{
								"astId": 21,
								"contract": "contracts/MyContract.sol:myContract",
								"label": "favNumber",
								"offset": 0,
								"slot": "0",
								"type": "t_uint256"
							},
							{
								"astId": 23,
								"contract": "contracts/MyContract.sol:myContract",
								"label": "name",
								"offset": 0,
								"slot": "1",
								"type": "t_string_storage"
							}
						],
						"numberOfBytes": "64"
					},
					"t_uint256": {
						"encoding": "inplace",
						"label": "uint256",
						"numberOfBytes": "32"
					}
				}
			},
			"userdoc": {
				"kind": "user",
				"methods": {},
				"version": 1
			}
		}
	}
}