{
	"contracts/StorageFactory.sol": {
		"StorageFactory": {
			"abi": [
				{
					"inputs": [],
					"name": "createSimpleStorageContract",
					"outputs": [],
					"stateMutability": "nonpayable",
					"type": "function"
				},
				{
					"inputs": [
						{
							"internalType": "uint256",
							"name": "",
							"type": "uint256"
						}
					],
					"name": "listOfSimpleStorageContracts",
					"outputs": [
						{
							"internalType": "contract SimpleStorage",
							"name": "",
							"type": "address"
						}
					],
					"stateMutability": "view",
					"type": "function"
				},
				{
					"inputs": [
						{
							"internalType": "uint256",
							"name": "_simpleStorageIndex",
							"type": "uint256"
						},
						{
							"internalType": "string",
							"name": "_simpleStorageName",
							"type": "string"
						},
						{
							"internalType": "uint256",
							"name": "_simpleStorageFavNumber",
							"type": "uint256"
						}
					],
					"name": "sfAddPerson",
					"outputs": [],
					"stateMutability": "nonpayable",
					"type": "function"
				},
				{
					"inputs": [
						{
							"internalType": "uint256",
							"name": "_simpleStorageIndex",
							"type": "uint256"
						}
					],
					"name": "sfGet",
					"outputs": [
						{
							"internalType": "uint256",
							"name": "",
							"type": "uint256"
						}
					],
					"stateMutability": "view",
					"type": "function"
				},
				{
					"inputs": [
						{
							"internalType": "uint256",
							"name": "_simpleStorageIndex",
							"type": "uint256"
						},
						{
							"internalType": "string",
							"name": "_simpleStorageName",
							"type": "string"
						}
					],
					"name": "sfGetPersonFavNum",
					"outputs": [
						{
							"internalType": "uint256",
							"name": "",
							"type": "uint256"
						}
					],
					"stateMutability": "view",
					"type": "function"
				},
				{
					"inputs": [
						{
							"internalType": "uint256",
							"name": "_simpleStorageIndex",
							"type": "uint256"
						},
						{
							"internalType": "uint256",
							"name": "_simpleStorageNumber",
							"type": "uint256"
						}
					],
					"name": "sfStore",
					"outputs": [],
					"stateMutability": "nonpayable",
					"type": "function"
				}
			],
			"devdoc": {
				"kind": "dev",
				"methods": {},
				"version": 1
			},
			"evm": {
				"assembly": "    /* \"contracts/StorageFactory.sol\":586:2400  contract StorageFactory {... */\n  mstore(0x40, 0x80)\n  callvalue\n  dup1\n  iszero\n  tag_1\n  jumpi\n  0x00\n  dup1\n  revert\ntag_1:\n  pop\n  dataSize(sub_0)\n  dup1\n  dataOffset(sub_0)\n  0x00\n  codecopy\n  0x00\n  return\nstop\n\nsub_0: assembly {\n        /* \"contracts/StorageFactory.sol\":586:2400  contract StorageFactory {... */\n      mstore(0x40, 0x80)\n      callvalue\n      dup1\n      iszero\n      tag_1\n      jumpi\n      0x00\n      dup1\n      revert\n    tag_1:\n      pop\n      jumpi(tag_2, lt(calldatasize, 0x04))\n      shr(0xe0, calldataload(0x00))\n      dup1\n      0x1563700f\n      eq\n      tag_3\n      jumpi\n      dup1\n      0x1dda6541\n      eq\n      tag_4\n      jumpi\n      dup1\n      0x6a65513f\n      eq\n      tag_5\n      jumpi\n      dup1\n      0x7bd173b1\n      eq\n      tag_6\n      jumpi\n      dup1\n      0xc5f19c20\n      eq\n      tag_7\n      jumpi\n      dup1\n      0xf39f3035\n      eq\n      tag_8\n      jumpi\n    tag_2:\n      0x00\n      dup1\n      revert\n        /* \"contracts/StorageFactory.sol\":1045:1410  function sfStore(uint256 _simpleStorageIndex, uint256 _simpleStorageNumber) public  {... */\n    tag_3:\n      tag_9\n      0x04\n      dup1\n      calldatasize\n      sub\n      dup2\n      add\n      swap1\n      tag_10\n      swap2\n      swap1\n      tag_11\n      jump\t// in\n    tag_10:\n      tag_12\n      jump\t// in\n    tag_9:\n      stop\n        /* \"contracts/StorageFactory.sol\":680:1035  function createSimpleStorageContract() public  {... */\n    tag_4:\n      tag_13\n      tag_14\n      jump\t// in\n    tag_13:\n      stop\n        /* \"contracts/StorageFactory.sol\":1809:2120  function sfAddPerson(uint256 _simpleStorageIndex, string calldata _simpleStorageName, uint256 _simpleStorageFavNumber) public {... */\n    tag_5:\n      tag_15\n      0x04\n      dup1\n      calldatasize\n      sub\n      dup2\n      add\n      swap1\n      tag_16\n      swap2\n      swap1\n      tag_17\n      jump\t// in\n    tag_16:\n      tag_18\n      jump\t// in\n    tag_15:\n      stop\n        /* \"contracts/StorageFactory.sol\":2134:2380  function sfGetPersonFavNum(uint256 _simpleStorageIndex, string calldata _simpleStorageName) public view returns(uint256) {... */\n    tag_6:\n      tag_19\n      0x04\n      dup1\n      calldatasize\n      sub\n      dup2\n      add\n      swap1\n      tag_20\n      swap2\n      swap1\n      tag_21\n      jump\t// in\n    tag_20:\n      tag_22\n      jump\t// in\n    tag_19:\n      mload(0x40)\n      tag_23\n      swap2\n      swap1\n      tag_24\n      jump\t// in\n    tag_23:\n      mload(0x40)\n      dup1\n      swap2\n      sub\n      swap1\n      return\n        /* \"contracts/StorageFactory.sol\":1418:1801  function sfGet(uint256 _simpleStorageIndex) public  view returns(uint256) {... */\n    tag_7:\n      tag_25\n      0x04\n      dup1\n      calldatasize\n      sub\n      dup2\n      add\n      swap1\n      tag_26\n      swap2\n      swap1\n      tag_27\n      jump\t// in\n    tag_26:\n      tag_28\n      jump\t// in\n    tag_25:\n      mload(0x40)\n      tag_29\n      swap2\n      swap1\n      tag_24\n      jump\t// in\n    tag_29:\n      mload(0x40)\n      dup1\n      swap2\n      sub\n      swap1\n      return\n        /* \"contracts/StorageFactory.sol\":619:671  SimpleStorage[] public  listOfSimpleStorageContracts */\n    tag_8:\n      tag_30\n      0x04\n      dup1\n      calldatasize\n      sub\n      dup2\n      add\n      swap1\n      tag_31\n      swap2\n      swap1\n      tag_27\n      jump\t// in\n    tag_31:\n      tag_32\n      jump\t// in\n    tag_30:\n      mload(0x40)\n      tag_33\n      swap2\n      swap1\n      tag_34\n      jump\t// in\n    tag_33:\n      mload(0x40)\n      dup1\n      swap2\n      sub\n      swap1\n      return\n        /* \"contracts/StorageFactory.sol\":1045:1410  function sfStore(uint256 _simpleStorageIndex, uint256 _simpleStorageNumber) public  {... */\n    tag_12:\n        /* \"contracts/StorageFactory.sol\":1269:1296  SimpleStorage simpleStorage */\n      0x00\n        /* \"contracts/StorageFactory.sol\":1299:1327  listOfSimpleStorageContracts */\n      dup1\n        /* \"contracts/StorageFactory.sol\":1328:1347  _simpleStorageIndex */\n      dup4\n        /* \"contracts/StorageFactory.sol\":1299:1348  listOfSimpleStorageContracts[_simpleStorageIndex] */\n      dup2\n      sload\n      dup2\n      lt\n      tag_36\n      jumpi\n      tag_37\n      tag_38\n      jump\t// in\n    tag_37:\n    tag_36:\n      swap1\n      0x00\n      mstore\n      keccak256(0x00, 0x20)\n      add\n      0x00\n      swap1\n      sload\n      swap1\n      0x0100\n      exp\n      swap1\n      div\n      0xffffffffffffffffffffffffffffffffffffffff\n      and\n        /* \"contracts/StorageFactory.sol\":1269:1348  SimpleStorage simpleStorage = listOfSimpleStorageContracts[_simpleStorageIndex] */\n      swap1\n      pop\n        /* \"contracts/StorageFactory.sol\":1359:1372  simpleStorage */\n      dup1\n        /* \"contracts/StorageFactory.sol\":1359:1378  simpleStorage.store */\n      0xffffffffffffffffffffffffffffffffffffffff\n      and\n      0x6057361d\n        /* \"contracts/StorageFactory.sol\":1379:1399  _simpleStorageNumber */\n      dup4\n        /* \"contracts/StorageFactory.sol\":1359:1400  simpleStorage.store(_simpleStorageNumber) */\n      mload(0x40)\n      dup3\n      0xffffffff\n      and\n      0xe0\n      shl\n      dup2\n      mstore\n      0x04\n      add\n      tag_40\n      swap2\n      swap1\n      tag_24\n      jump\t// in\n    tag_40:\n      0x00\n      mload(0x40)\n      dup1\n      dup4\n      sub\n      dup2\n      0x00\n      dup8\n      dup1\n      extcodesize\n      iszero\n      dup1\n      iszero\n      tag_41\n      jumpi\n      0x00\n      dup1\n      revert\n    tag_41:\n      pop\n      gas\n      call\n      iszero\n      dup1\n      iszero\n      tag_43\n      jumpi\n      returndatasize\n      0x00\n      dup1\n      returndatacopy\n      revert(0x00, returndatasize)\n    tag_43:\n      pop\n      pop\n      pop\n      pop\n        /* \"contracts/StorageFactory.sol\":1129:1410  {... */\n      pop\n        /* \"contracts/StorageFactory.sol\":1045:1410  function sfStore(uint256 _simpleStorageIndex, uint256 _simpleStorageNumber) public  {... */\n      pop\n      pop\n      jump\t// out\n        /* \"contracts/StorageFactory.sol\":680:1035  function createSimpleStorageContract() public  {... */\n    tag_14:\n        /* \"contracts/StorageFactory.sol\":779:806  SimpleStorage simpleStorage */\n      0x00\n        /* \"contracts/StorageFactory.sol\":809:828  new SimpleStorage() */\n      mload(0x40)\n      tag_45\n      swap1\n      tag_46\n      jump\t// in\n    tag_45:\n      mload(0x40)\n      dup1\n      swap2\n      sub\n      swap1\n      0x00\n      create\n      dup1\n      iszero\n      dup1\n      iszero\n      tag_47\n      jumpi\n      returndatasize\n      0x00\n      dup1\n      returndatacopy\n      revert(0x00, returndatasize)\n    tag_47:\n      pop\n        /* \"contracts/StorageFactory.sol\":779:828  SimpleStorage simpleStorage = new SimpleStorage() */\n      swap1\n      pop\n        /* \"contracts/StorageFactory.sol\":979:1007  listOfSimpleStorageContracts */\n      0x00\n        /* \"contracts/StorageFactory.sol\":1013:1026  simpleStorage */\n      dup2\n        /* \"contracts/StorageFactory.sol\":979:1027  listOfSimpleStorageContracts.push(simpleStorage) */\n      swap1\n      dup1\n      0x01\n      dup2\n      sload\n      add\n      dup1\n      dup3\n      sstore\n      dup1\n      swap2\n      pop\n      pop\n      0x01\n      swap1\n      sub\n      swap1\n      0x00\n      mstore\n      keccak256(0x00, 0x20)\n      add\n      0x00\n      swap1\n      swap2\n      swap1\n      swap2\n      swap1\n      swap2\n      0x0100\n      exp\n      dup2\n      sload\n      dup2\n      0xffffffffffffffffffffffffffffffffffffffff\n      mul\n      not\n      and\n      swap1\n      dup4\n      0xffffffffffffffffffffffffffffffffffffffff\n      and\n      mul\n      or\n      swap1\n      sstore\n      pop\n        /* \"contracts/StorageFactory.sol\":727:1035  {... */\n      pop\n        /* \"contracts/StorageFactory.sol\":680:1035  function createSimpleStorageContract() public  {... */\n      jump\t// out\n        /* \"contracts/StorageFactory.sol\":1809:2120  function sfAddPerson(uint256 _simpleStorageIndex, string calldata _simpleStorageName, uint256 _simpleStorageFavNumber) public {... */\n    tag_18:\n        /* \"contracts/StorageFactory.sol\":1946:1973  SimpleStorage simpleStorage */\n      0x00\n        /* \"contracts/StorageFactory.sol\":1976:2004  listOfSimpleStorageContracts */\n      dup1\n        /* \"contracts/StorageFactory.sol\":2005:2024  _simpleStorageIndex */\n      dup6\n        /* \"contracts/StorageFactory.sol\":1976:2025  listOfSimpleStorageContracts[_simpleStorageIndex] */\n      dup2\n      sload\n      dup2\n      lt\n      tag_50\n      jumpi\n      tag_51\n      tag_38\n      jump\t// in\n    tag_51:\n    tag_50:\n      swap1\n      0x00\n      mstore\n      keccak256(0x00, 0x20)\n      add\n      0x00\n      swap1\n      sload\n      swap1\n      0x0100\n      exp\n      swap1\n      div\n      0xffffffffffffffffffffffffffffffffffffffff\n      and\n        /* \"contracts/StorageFactory.sol\":1946:2025  SimpleStorage simpleStorage = listOfSimpleStorageContracts[_simpleStorageIndex] */\n      swap1\n      pop\n        /* \"contracts/StorageFactory.sol\":2036:2049  simpleStorage */\n      dup1\n        /* \"contracts/StorageFactory.sol\":2036:2059  simpleStorage.addPerson */\n      0xffffffffffffffffffffffffffffffffffffffff\n      and\n      0x6f760f41\n        /* \"contracts/StorageFactory.sol\":2060:2078  _simpleStorageName */\n      dup6\n      dup6\n        /* \"contracts/StorageFactory.sol\":2080:2103  _simpleStorageFavNumber */\n      dup6\n        /* \"contracts/StorageFactory.sol\":2036:2104  simpleStorage.addPerson(_simpleStorageName, _simpleStorageFavNumber) */\n      mload(0x40)\n      dup5\n      0xffffffff\n      and\n      0xe0\n      shl\n      dup2\n      mstore\n      0x04\n      add\n      tag_53\n      swap4\n      swap3\n      swap2\n      swap1\n      tag_54\n      jump\t// in\n    tag_53:\n      0x00\n      mload(0x40)\n      dup1\n      dup4\n      sub\n      dup2\n      0x00\n      dup8\n      dup1\n      extcodesize\n      iszero\n      dup1\n      iszero\n      tag_55\n      jumpi\n      0x00\n      dup1\n      revert\n    tag_55:\n      pop\n      gas\n      call\n      iszero\n      dup1\n      iszero\n      tag_57\n      jumpi\n      returndatasize\n      0x00\n      dup1\n      returndatacopy\n      revert(0x00, returndatasize)\n    tag_57:\n      pop\n      pop\n      pop\n      pop\n        /* \"contracts/StorageFactory.sol\":1935:2120  {... */\n      pop\n        /* \"contracts/StorageFactory.sol\":1809:2120  function sfAddPerson(uint256 _simpleStorageIndex, string calldata _simpleStorageName, uint256 _simpleStorageFavNumber) public {... */\n      pop\n      pop\n      pop\n      pop\n      jump\t// out\n        /* \"contracts/StorageFactory.sol\":2134:2380  function sfGetPersonFavNum(uint256 _simpleStorageIndex, string calldata _simpleStorageName) public view returns(uint256) {... */\n    tag_22:\n        /* \"contracts/StorageFactory.sol\":2246:2253  uint256 */\n      0x00\n        /* \"contracts/StorageFactory.sol\":2280:2308  listOfSimpleStorageContracts */\n      dup1\n        /* \"contracts/StorageFactory.sol\":2309:2328  _simpleStorageIndex */\n      dup5\n        /* \"contracts/StorageFactory.sol\":2280:2329  listOfSimpleStorageContracts[_simpleStorageIndex] */\n      dup2\n      sload\n      dup2\n      lt\n      tag_59\n      jumpi\n      tag_60\n      tag_38\n      jump\t// in\n    tag_60:\n    tag_59:\n      swap1\n      0x00\n      mstore\n      keccak256(0x00, 0x20)\n      add\n      0x00\n      swap1\n      sload\n      swap1\n      0x0100\n      exp\n      swap1\n      div\n      0xffffffffffffffffffffffffffffffffffffffff\n      and\n        /* \"contracts/StorageFactory.sol\":2280:2350  listOfSimpleStorageContracts[_simpleStorageIndex].nameToFavoriteNumber */\n      0xffffffffffffffffffffffffffffffffffffffff\n      and\n      0x8bab8dd5\n        /* \"contracts/StorageFactory.sol\":2351:2369  _simpleStorageName */\n      dup5\n      dup5\n        /* \"contracts/StorageFactory.sol\":2280:2370  listOfSimpleStorageContracts[_simpleStorageIndex].nameToFavoriteNumber(_simpleStorageName) */\n      mload(0x40)\n      dup4\n      0xffffffff\n      and\n      0xe0\n      shl\n      dup2\n      mstore\n      0x04\n      add\n      tag_62\n      swap3\n      swap2\n      swap1\n      tag_63\n      jump\t// in\n    tag_62:\n      0x20\n      mload(0x40)\n      dup1\n      dup4\n      sub\n      dup2\n      dup7\n      gas\n      staticcall\n      iszero\n      dup1\n      iszero\n      tag_65\n      jumpi\n      returndatasize\n      0x00\n      dup1\n      returndatacopy\n      revert(0x00, returndatasize)\n    tag_65:\n      pop\n      pop\n      pop\n      pop\n      mload(0x40)\n      returndatasize\n      not(0x1f)\n      0x1f\n      dup3\n      add\n      and\n      dup3\n      add\n      dup1\n      0x40\n      mstore\n      pop\n      dup2\n      add\n      swap1\n      tag_66\n      swap2\n      swap1\n      tag_67\n      jump\t// in\n    tag_66:\n        /* \"contracts/StorageFactory.sol\":2270:2370  return    listOfSimpleStorageContracts[_simpleStorageIndex].nameToFavoriteNumber(_simpleStorageName) */\n      swap1\n      pop\n        /* \"contracts/StorageFactory.sol\":2134:2380  function sfGetPersonFavNum(uint256 _simpleStorageIndex, string calldata _simpleStorageName) public view returns(uint256) {... */\n      swap4\n      swap3\n      pop\n      pop\n      pop\n      jump\t// out\n        /* \"contracts/StorageFactory.sol\":1418:1801  function sfGet(uint256 _simpleStorageIndex) public  view returns(uint256) {... */\n    tag_28:\n        /* \"contracts/StorageFactory.sol\":1483:1490  uint256 */\n      0x00\n        /* \"contracts/StorageFactory.sol\":1503:1530  SimpleStorage simpleStorage */\n      dup1\n        /* \"contracts/StorageFactory.sol\":1533:1561  listOfSimpleStorageContracts */\n      0x00\n        /* \"contracts/StorageFactory.sol\":1562:1581  _simpleStorageIndex */\n      dup4\n        /* \"contracts/StorageFactory.sol\":1533:1582  listOfSimpleStorageContracts[_simpleStorageIndex] */\n      dup2\n      sload\n      dup2\n      lt\n      tag_69\n      jumpi\n      tag_70\n      tag_38\n      jump\t// in\n    tag_70:\n    tag_69:\n      swap1\n      0x00\n      mstore\n      keccak256(0x00, 0x20)\n      add\n      0x00\n      swap1\n      sload\n      swap1\n      0x0100\n      exp\n      swap1\n      div\n      0xffffffffffffffffffffffffffffffffffffffff\n      and\n        /* \"contracts/StorageFactory.sol\":1503:1582  SimpleStorage simpleStorage = listOfSimpleStorageContracts[_simpleStorageIndex] */\n      swap1\n      pop\n        /* \"contracts/StorageFactory.sol\":1611:1624  simpleStorage */\n      dup1\n        /* \"contracts/StorageFactory.sol\":1611:1633  simpleStorage.retreive */\n      0xffffffffffffffffffffffffffffffffffffffff\n      and\n      0xb05784b8\n        /* \"contracts/StorageFactory.sol\":1611:1635  simpleStorage.retreive() */\n      mload(0x40)\n      dup2\n      0xffffffff\n      and\n      0xe0\n      shl\n      dup2\n      mstore\n      0x04\n      add\n      0x20\n      mload(0x40)\n      dup1\n      dup4\n      sub\n      dup2\n      dup7\n      gas\n      staticcall\n      iszero\n      dup1\n      iszero\n      tag_73\n      jumpi\n      returndatasize\n      0x00\n      dup1\n      returndatacopy\n      revert(0x00, returndatasize)\n    tag_73:\n      pop\n      pop\n      pop\n      pop\n      mload(0x40)\n      returndatasize\n      not(0x1f)\n      0x1f\n      dup3\n      add\n      and\n      dup3\n      add\n      dup1\n      0x40\n      mstore\n      pop\n      dup2\n      add\n      swap1\n      tag_74\n      swap2\n      swap1\n      tag_67\n      jump\t// in\n    tag_74:\n        /* \"contracts/StorageFactory.sol\":1603:1635  return  simpleStorage.retreive() */\n      swap2\n      pop\n      pop\n        /* \"contracts/StorageFactory.sol\":1418:1801  function sfGet(uint256 _simpleStorageIndex) public  view returns(uint256) {... */\n      swap2\n      swap1\n      pop\n      jump\t// out\n        /* \"contracts/StorageFactory.sol\":619:671  SimpleStorage[] public  listOfSimpleStorageContracts */\n    tag_32:\n      0x00\n      dup2\n      dup2\n      sload\n      dup2\n      lt\n      tag_75\n      jumpi\n      0x00\n      dup1\n      revert\n    tag_75:\n      swap1\n      0x00\n      mstore\n      keccak256(0x00, 0x20)\n      add\n      0x00\n      swap2\n      pop\n      sload\n      swap1\n      0x0100\n      exp\n      swap1\n      div\n      0xffffffffffffffffffffffffffffffffffffffff\n      and\n      dup2\n      jump\t// out\n    tag_46:\n      dataSize(sub_0)\n      dup1\n      dataOffset(sub_0)\n      dup4\n      codecopy\n      add\n      swap1\n      jump\t// out\n        /* \"#utility.yul\":88:205   */\n    tag_78:\n        /* \"#utility.yul\":197:198   */\n      0x00\n        /* \"#utility.yul\":194:195   */\n      dup1\n        /* \"#utility.yul\":187:199   */\n      revert\n        /* \"#utility.yul\":211:328   */\n    tag_79:\n        /* \"#utility.yul\":320:321   */\n      0x00\n        /* \"#utility.yul\":317:318   */\n      dup1\n        /* \"#utility.yul\":310:322   */\n      revert\n        /* \"#utility.yul\":334:411   */\n    tag_80:\n        /* \"#utility.yul\":371:378   */\n      0x00\n        /* \"#utility.yul\":400:405   */\n      dup2\n        /* \"#utility.yul\":389:405   */\n      swap1\n      pop\n        /* \"#utility.yul\":334:411   */\n      swap2\n      swap1\n      pop\n      jump\t// out\n        /* \"#utility.yul\":417:539   */\n    tag_81:\n        /* \"#utility.yul\":490:514   */\n      tag_105\n        /* \"#utility.yul\":508:513   */\n      dup2\n        /* \"#utility.yul\":490:514   */\n      tag_80\n      jump\t// in\n    tag_105:\n        /* \"#utility.yul\":483:488   */\n      dup2\n        /* \"#utility.yul\":480:515   */\n      eq\n        /* \"#utility.yul\":470:533   */\n      tag_106\n      jumpi\n        /* \"#utility.yul\":529:530   */\n      0x00\n        /* \"#utility.yul\":526:527   */\n      dup1\n        /* \"#utility.yul\":519:531   */\n      revert\n        /* \"#utility.yul\":470:533   */\n    tag_106:\n        /* \"#utility.yul\":417:539   */\n      pop\n      jump\t// out\n        /* \"#utility.yul\":545:684   */\n    tag_82:\n        /* \"#utility.yul\":591:596   */\n      0x00\n        /* \"#utility.yul\":629:635   */\n      dup2\n        /* \"#utility.yul\":616:636   */\n      calldataload\n        /* \"#utility.yul\":607:636   */\n      swap1\n      pop\n        /* \"#utility.yul\":645:678   */\n      tag_108\n        /* \"#utility.yul\":672:677   */\n      dup2\n        /* \"#utility.yul\":645:678   */\n      tag_81\n      jump\t// in\n    tag_108:\n        /* \"#utility.yul\":545:684   */\n      swap3\n      swap2\n      pop\n      pop\n      jump\t// out\n        /* \"#utility.yul\":690:1164   */\n    tag_11:\n        /* \"#utility.yul\":758:764   */\n      0x00\n        /* \"#utility.yul\":766:772   */\n      dup1\n        /* \"#utility.yul\":815:817   */\n      0x40\n        /* \"#utility.yul\":803:812   */\n      dup4\n        /* \"#utility.yul\":794:801   */\n      dup6\n        /* \"#utility.yul\":790:813   */\n      sub\n        /* \"#utility.yul\":786:818   */\n      slt\n        /* \"#utility.yul\":783:902   */\n      iszero\n      tag_110\n      jumpi\n        /* \"#utility.yul\":821:900   */\n      tag_111\n      tag_78\n      jump\t// in\n    tag_111:\n        /* \"#utility.yul\":783:902   */\n    tag_110:\n        /* \"#utility.yul\":941:942   */\n      0x00\n        /* \"#utility.yul\":966:1019   */\n      tag_112\n        /* \"#utility.yul\":1011:1018   */\n      dup6\n        /* \"#utility.yul\":1002:1008   */\n      dup3\n        /* \"#utility.yul\":991:1000   */\n      dup7\n        /* \"#utility.yul\":987:1009   */\n      add\n        /* \"#utility.yul\":966:1019   */\n      tag_82\n      jump\t// in\n    tag_112:\n        /* \"#utility.yul\":956:1019   */\n      swap3\n      pop\n        /* \"#utility.yul\":912:1029   */\n      pop\n        /* \"#utility.yul\":1068:1070   */\n      0x20\n        /* \"#utility.yul\":1094:1147   */\n      tag_113\n        /* \"#utility.yul\":1139:1146   */\n      dup6\n        /* \"#utility.yul\":1130:1136   */\n      dup3\n        /* \"#utility.yul\":1119:1128   */\n      dup7\n        /* \"#utility.yul\":1115:1137   */\n      add\n        /* \"#utility.yul\":1094:1147   */\n      tag_82\n      jump\t// in\n    tag_113:\n        /* \"#utility.yul\":1084:1147   */\n      swap2\n      pop\n        /* \"#utility.yul\":1039:1157   */\n      pop\n        /* \"#utility.yul\":690:1164   */\n      swap3\n      pop\n      swap3\n      swap1\n      pop\n      jump\t// out\n        /* \"#utility.yul\":1170:1287   */\n    tag_83:\n        /* \"#utility.yul\":1279:1280   */\n      0x00\n        /* \"#utility.yul\":1276:1277   */\n      dup1\n        /* \"#utility.yul\":1269:1281   */\n      revert\n        /* \"#utility.yul\":1293:1410   */\n    tag_84:\n        /* \"#utility.yul\":1402:1403   */\n      0x00\n        /* \"#utility.yul\":1399:1400   */\n      dup1\n        /* \"#utility.yul\":1392:1404   */\n      revert\n        /* \"#utility.yul\":1416:1533   */\n    tag_85:\n        /* \"#utility.yul\":1525:1526   */\n      0x00\n        /* \"#utility.yul\":1522:1523   */\n      dup1\n        /* \"#utility.yul\":1515:1527   */\n      revert\n        /* \"#utility.yul\":1553:2106   */\n    tag_86:\n        /* \"#utility.yul\":1611:1619   */\n      0x00\n        /* \"#utility.yul\":1621:1627   */\n      dup1\n        /* \"#utility.yul\":1671:1674   */\n      dup4\n        /* \"#utility.yul\":1664:1668   */\n      0x1f\n        /* \"#utility.yul\":1656:1662   */\n      dup5\n        /* \"#utility.yul\":1652:1669   */\n      add\n        /* \"#utility.yul\":1648:1675   */\n      slt\n        /* \"#utility.yul\":1638:1760   */\n      tag_118\n      jumpi\n        /* \"#utility.yul\":1679:1758   */\n      tag_119\n      tag_83\n      jump\t// in\n    tag_119:\n        /* \"#utility.yul\":1638:1760   */\n    tag_118:\n        /* \"#utility.yul\":1792:1798   */\n      dup3\n        /* \"#utility.yul\":1779:1799   */\n      calldataload\n        /* \"#utility.yul\":1769:1799   */\n      swap1\n      pop\n        /* \"#utility.yul\":1822:1840   */\n      0xffffffffffffffff\n        /* \"#utility.yul\":1814:1820   */\n      dup2\n        /* \"#utility.yul\":1811:1841   */\n      gt\n        /* \"#utility.yul\":1808:1925   */\n      iszero\n      tag_120\n      jumpi\n        /* \"#utility.yul\":1844:1923   */\n      tag_121\n      tag_84\n      jump\t// in\n    tag_121:\n        /* \"#utility.yul\":1808:1925   */\n    tag_120:\n        /* \"#utility.yul\":1958:1962   */\n      0x20\n        /* \"#utility.yul\":1950:1956   */\n      dup4\n        /* \"#utility.yul\":1946:1963   */\n      add\n        /* \"#utility.yul\":1934:1963   */\n      swap2\n      pop\n        /* \"#utility.yul\":2012:2015   */\n      dup4\n        /* \"#utility.yul\":2004:2008   */\n      0x01\n        /* \"#utility.yul\":1996:2002   */\n      dup3\n        /* \"#utility.yul\":1992:2009   */\n      mul\n        /* \"#utility.yul\":1982:1990   */\n      dup4\n        /* \"#utility.yul\":1978:2010   */\n      add\n        /* \"#utility.yul\":1975:2016   */\n      gt\n        /* \"#utility.yul\":1972:2100   */\n      iszero\n      tag_122\n      jumpi\n        /* \"#utility.yul\":2019:2098   */\n      tag_123\n      tag_85\n      jump\t// in\n    tag_123:\n        /* \"#utility.yul\":1972:2100   */\n    tag_122:\n        /* \"#utility.yul\":1553:2106   */\n      swap3\n      pop\n      swap3\n      swap1\n      pop\n      jump\t// out\n        /* \"#utility.yul\":2112:2931   */\n    tag_17:\n        /* \"#utility.yul\":2201:2207   */\n      0x00\n        /* \"#utility.yul\":2209:2215   */\n      dup1\n        /* \"#utility.yul\":2217:2223   */\n      0x00\n        /* \"#utility.yul\":2225:2231   */\n      dup1\n        /* \"#utility.yul\":2274:2276   */\n      0x60\n        /* \"#utility.yul\":2262:2271   */\n      dup6\n        /* \"#utility.yul\":2253:2260   */\n      dup8\n        /* \"#utility.yul\":2249:2272   */\n      sub\n        /* \"#utility.yul\":2245:2277   */\n      slt\n        /* \"#utility.yul\":2242:2361   */\n      iszero\n      tag_125\n      jumpi\n        /* \"#utility.yul\":2280:2359   */\n      tag_126\n      tag_78\n      jump\t// in\n    tag_126:\n        /* \"#utility.yul\":2242:2361   */\n    tag_125:\n        /* \"#utility.yul\":2400:2401   */\n      0x00\n        /* \"#utility.yul\":2425:2478   */\n      tag_127\n        /* \"#utility.yul\":2470:2477   */\n      dup8\n        /* \"#utility.yul\":2461:2467   */\n      dup3\n        /* \"#utility.yul\":2450:2459   */\n      dup9\n        /* \"#utility.yul\":2446:2468   */\n      add\n        /* \"#utility.yul\":2425:2478   */\n      tag_82\n      jump\t// in\n    tag_127:\n        /* \"#utility.yul\":2415:2478   */\n      swap5\n      pop\n        /* \"#utility.yul\":2371:2488   */\n      pop\n        /* \"#utility.yul\":2555:2557   */\n      0x20\n        /* \"#utility.yul\":2544:2553   */\n      dup6\n        /* \"#utility.yul\":2540:2558   */\n      add\n        /* \"#utility.yul\":2527:2559   */\n      calldataload\n        /* \"#utility.yul\":2586:2604   */\n      0xffffffffffffffff\n        /* \"#utility.yul\":2578:2584   */\n      dup2\n        /* \"#utility.yul\":2575:2605   */\n      gt\n        /* \"#utility.yul\":2572:2689   */\n      iszero\n      tag_128\n      jumpi\n        /* \"#utility.yul\":2608:2687   */\n      tag_129\n      tag_79\n      jump\t// in\n    tag_129:\n        /* \"#utility.yul\":2572:2689   */\n    tag_128:\n        /* \"#utility.yul\":2721:2786   */\n      tag_130\n        /* \"#utility.yul\":2778:2785   */\n      dup8\n        /* \"#utility.yul\":2769:2775   */\n      dup3\n        /* \"#utility.yul\":2758:2767   */\n      dup9\n        /* \"#utility.yul\":2754:2776   */\n      add\n        /* \"#utility.yul\":2721:2786   */\n      tag_86\n      jump\t// in\n    tag_130:\n        /* \"#utility.yul\":2703:2786   */\n      swap4\n      pop\n      swap4\n      pop\n        /* \"#utility.yul\":2498:2796   */\n      pop\n        /* \"#utility.yul\":2835:2837   */\n      0x40\n        /* \"#utility.yul\":2861:2914   */\n      tag_131\n        /* \"#utility.yul\":2906:2913   */\n      dup8\n        /* \"#utility.yul\":2897:2903   */\n      dup3\n        /* \"#utility.yul\":2886:2895   */\n      dup9\n        /* \"#utility.yul\":2882:2904   */\n      add\n        /* \"#utility.yul\":2861:2914   */\n      tag_82\n      jump\t// in\n    tag_131:\n        /* \"#utility.yul\":2851:2914   */\n      swap2\n      pop\n        /* \"#utility.yul\":2806:2924   */\n      pop\n        /* \"#utility.yul\":2112:2931   */\n      swap3\n      swap6\n      swap2\n      swap5\n      pop\n      swap3\n      pop\n      jump\t// out\n        /* \"#utility.yul\":2937:3611   */\n    tag_21:\n        /* \"#utility.yul\":3017:3023   */\n      0x00\n        /* \"#utility.yul\":3025:3031   */\n      dup1\n        /* \"#utility.yul\":3033:3039   */\n      0x00\n        /* \"#utility.yul\":3082:3084   */\n      0x40\n        /* \"#utility.yul\":3070:3079   */\n      dup5\n        /* \"#utility.yul\":3061:3068   */\n      dup7\n        /* \"#utility.yul\":3057:3080   */\n      sub\n        /* \"#utility.yul\":3053:3085   */\n      slt\n        /* \"#utility.yul\":3050:3169   */\n      iszero\n      tag_133\n      jumpi\n        /* \"#utility.yul\":3088:3167   */\n      tag_134\n      tag_78\n      jump\t// in\n    tag_134:\n        /* \"#utility.yul\":3050:3169   */\n    tag_133:\n        /* \"#utility.yul\":3208:3209   */\n      0x00\n        /* \"#utility.yul\":3233:3286   */\n      tag_135\n        /* \"#utility.yul\":3278:3285   */\n      dup7\n        /* \"#utility.yul\":3269:3275   */\n      dup3\n        /* \"#utility.yul\":3258:3267   */\n      dup8\n        /* \"#utility.yul\":3254:3276   */\n      add\n        /* \"#utility.yul\":3233:3286   */\n      tag_82\n      jump\t// in\n    tag_135:\n        /* \"#utility.yul\":3223:3286   */\n      swap4\n      pop\n        /* \"#utility.yul\":3179:3296   */\n      pop\n        /* \"#utility.yul\":3363:3365   */\n      0x20\n        /* \"#utility.yul\":3352:3361   */\n      dup5\n        /* \"#utility.yul\":3348:3366   */\n      add\n        /* \"#utility.yul\":3335:3367   */\n      calldataload\n        /* \"#utility.yul\":3394:3412   */\n      0xffffffffffffffff\n        /* \"#utility.yul\":3386:3392   */\n      dup2\n        /* \"#utility.yul\":3383:3413   */\n      gt\n        /* \"#utility.yul\":3380:3497   */\n      iszero\n      tag_136\n      jumpi\n        /* \"#utility.yul\":3416:3495   */\n      tag_137\n      tag_79\n      jump\t// in\n    tag_137:\n        /* \"#utility.yul\":3380:3497   */\n    tag_136:\n        /* \"#utility.yul\":3529:3594   */\n      tag_138\n        /* \"#utility.yul\":3586:3593   */\n      dup7\n        /* \"#utility.yul\":3577:3583   */\n      dup3\n        /* \"#utility.yul\":3566:3575   */\n      dup8\n        /* \"#utility.yul\":3562:3584   */\n      add\n        /* \"#utility.yul\":3529:3594   */\n      tag_86\n      jump\t// in\n    tag_138:\n        /* \"#utility.yul\":3511:3594   */\n      swap3\n      pop\n      swap3\n      pop\n        /* \"#utility.yul\":3306:3604   */\n      pop\n        /* \"#utility.yul\":2937:3611   */\n      swap3\n      pop\n      swap3\n      pop\n      swap3\n      jump\t// out\n        /* \"#utility.yul\":3617:3735   */\n    tag_87:\n        /* \"#utility.yul\":3704:3728   */\n      tag_140\n        /* \"#utility.yul\":3722:3727   */\n      dup2\n        /* \"#utility.yul\":3704:3728   */\n      tag_80\n      jump\t// in\n    tag_140:\n        /* \"#utility.yul\":3699:3702   */\n      dup3\n        /* \"#utility.yul\":3692:3729   */\n      mstore\n        /* \"#utility.yul\":3617:3735   */\n      pop\n      pop\n      jump\t// out\n        /* \"#utility.yul\":3741:3963   */\n    tag_24:\n        /* \"#utility.yul\":3834:3838   */\n      0x00\n        /* \"#utility.yul\":3872:3874   */\n      0x20\n        /* \"#utility.yul\":3861:3870   */\n      dup3\n        /* \"#utility.yul\":3857:3875   */\n      add\n        /* \"#utility.yul\":3849:3875   */\n      swap1\n      pop\n        /* \"#utility.yul\":3885:3956   */\n      tag_142\n        /* \"#utility.yul\":3953:3954   */\n      0x00\n        /* \"#utility.yul\":3942:3951   */\n      dup4\n        /* \"#utility.yul\":3938:3955   */\n      add\n        /* \"#utility.yul\":3929:3935   */\n      dup5\n        /* \"#utility.yul\":3885:3956   */\n      tag_87\n      jump\t// in\n    tag_142:\n        /* \"#utility.yul\":3741:3963   */\n      swap3\n      swap2\n      pop\n      pop\n      jump\t// out\n        /* \"#utility.yul\":3969:4298   */\n    tag_27:\n        /* \"#utility.yul\":4028:4034   */\n      0x00\n        /* \"#utility.yul\":4077:4079   */\n      0x20\n        /* \"#utility.yul\":4065:4074   */\n      dup3\n        /* \"#utility.yul\":4056:4063   */\n      dup5\n        /* \"#utility.yul\":4052:4075   */\n      sub\n        /* \"#utility.yul\":4048:4080   */\n      slt\n        /* \"#utility.yul\":4045:4164   */\n      iszero\n      tag_144\n      jumpi\n        /* \"#utility.yul\":4083:4162   */\n      tag_145\n      tag_78\n      jump\t// in\n    tag_145:\n        /* \"#utility.yul\":4045:4164   */\n    tag_144:\n        /* \"#utility.yul\":4203:4204   */\n      0x00\n        /* \"#utility.yul\":4228:4281   */\n      tag_146\n        /* \"#utility.yul\":4273:4280   */\n      dup5\n        /* \"#utility.yul\":4264:4270   */\n      dup3\n        /* \"#utility.yul\":4253:4262   */\n      dup6\n        /* \"#utility.yul\":4249:4271   */\n      add\n        /* \"#utility.yul\":4228:4281   */\n      tag_82\n      jump\t// in\n    tag_146:\n        /* \"#utility.yul\":4218:4281   */\n      swap2\n      pop\n        /* \"#utility.yul\":4174:4291   */\n      pop\n        /* \"#utility.yul\":3969:4298   */\n      swap3\n      swap2\n      pop\n      pop\n      jump\t// out\n        /* \"#utility.yul\":4304:4430   */\n    tag_88:\n        /* \"#utility.yul\":4341:4348   */\n      0x00\n        /* \"#utility.yul\":4381:4423   */\n      0xffffffffffffffffffffffffffffffffffffffff\n        /* \"#utility.yul\":4374:4379   */\n      dup3\n        /* \"#utility.yul\":4370:4424   */\n      and\n        /* \"#utility.yul\":4359:4424   */\n      swap1\n      pop\n        /* \"#utility.yul\":4304:4430   */\n      swap2\n      swap1\n      pop\n      jump\t// out\n        /* \"#utility.yul\":4436:4496   */\n    tag_89:\n        /* \"#utility.yul\":4464:4467   */\n      0x00\n        /* \"#utility.yul\":4485:4490   */\n      dup2\n        /* \"#utility.yul\":4478:4490   */\n      swap1\n      pop\n        /* \"#utility.yul\":4436:4496   */\n      swap2\n      swap1\n      pop\n      jump\t// out\n        /* \"#utility.yul\":4502:4644   */\n    tag_90:\n        /* \"#utility.yul\":4552:4561   */\n      0x00\n        /* \"#utility.yul\":4585:4638   */\n      tag_150\n        /* \"#utility.yul\":4603:4637   */\n      tag_151\n        /* \"#utility.yul\":4612:4636   */\n      tag_152\n        /* \"#utility.yul\":4630:4635   */\n      dup5\n        /* \"#utility.yul\":4612:4636   */\n      tag_88\n      jump\t// in\n    tag_152:\n        /* \"#utility.yul\":4603:4637   */\n      tag_89\n      jump\t// in\n    tag_151:\n        /* \"#utility.yul\":4585:4638   */\n      tag_88\n      jump\t// in\n    tag_150:\n        /* \"#utility.yul\":4572:4638   */\n      swap1\n      pop\n        /* \"#utility.yul\":4502:4644   */\n      swap2\n      swap1\n      pop\n      jump\t// out\n        /* \"#utility.yul\":4650:4776   */\n    tag_91:\n        /* \"#utility.yul\":4700:4709   */\n      0x00\n        /* \"#utility.yul\":4733:4770   */\n      tag_154\n        /* \"#utility.yul\":4764:4769   */\n      dup3\n        /* \"#utility.yul\":4733:4770   */\n      tag_90\n      jump\t// in\n    tag_154:\n        /* \"#utility.yul\":4720:4770   */\n      swap1\n      pop\n        /* \"#utility.yul\":4650:4776   */\n      swap2\n      swap1\n      pop\n      jump\t// out\n        /* \"#utility.yul\":4782:4928   */\n    tag_92:\n        /* \"#utility.yul\":4852:4861   */\n      0x00\n        /* \"#utility.yul\":4885:4922   */\n      tag_156\n        /* \"#utility.yul\":4916:4921   */\n      dup3\n        /* \"#utility.yul\":4885:4922   */\n      tag_91\n      jump\t// in\n    tag_156:\n        /* \"#utility.yul\":4872:4922   */\n      swap1\n      pop\n        /* \"#utility.yul\":4782:4928   */\n      swap2\n      swap1\n      pop\n      jump\t// out\n        /* \"#utility.yul\":4934:5105   */\n    tag_93:\n        /* \"#utility.yul\":5041:5098   */\n      tag_158\n        /* \"#utility.yul\":5092:5097   */\n      dup2\n        /* \"#utility.yul\":5041:5098   */\n      tag_92\n      jump\t// in\n    tag_158:\n        /* \"#utility.yul\":5036:5039   */\n      dup3\n        /* \"#utility.yul\":5029:5099   */\n      mstore\n        /* \"#utility.yul\":4934:5105   */\n      pop\n      pop\n      jump\t// out\n        /* \"#utility.yul\":5111:5373   */\n    tag_34:\n        /* \"#utility.yul\":5224:5228   */\n      0x00\n        /* \"#utility.yul\":5262:5264   */\n      0x20\n        /* \"#utility.yul\":5251:5260   */\n      dup3\n        /* \"#utility.yul\":5247:5265   */\n      add\n        /* \"#utility.yul\":5239:5265   */\n      swap1\n      pop\n        /* \"#utility.yul\":5275:5366   */\n      tag_160\n        /* \"#utility.yul\":5363:5364   */\n      0x00\n        /* \"#utility.yul\":5352:5361   */\n      dup4\n        /* \"#utility.yul\":5348:5365   */\n      add\n        /* \"#utility.yul\":5339:5345   */\n      dup5\n        /* \"#utility.yul\":5275:5366   */\n      tag_93\n      jump\t// in\n    tag_160:\n        /* \"#utility.yul\":5111:5373   */\n      swap3\n      swap2\n      pop\n      pop\n      jump\t// out\n        /* \"#utility.yul\":5379:5559   */\n    tag_38:\n        /* \"#utility.yul\":5427:5504   */\n      0x4e487b7100000000000000000000000000000000000000000000000000000000\n        /* \"#utility.yul\":5424:5425   */\n      0x00\n        /* \"#utility.yul\":5417:5505   */\n      mstore\n        /* \"#utility.yul\":5524:5528   */\n      0x32\n        /* \"#utility.yul\":5521:5522   */\n      0x04\n        /* \"#utility.yul\":5514:5529   */\n      mstore\n        /* \"#utility.yul\":5548:5552   */\n      0x24\n        /* \"#utility.yul\":5545:5546   */\n      0x00\n        /* \"#utility.yul\":5538:5553   */\n      revert\n        /* \"#utility.yul\":5565:5734   */\n    tag_94:\n        /* \"#utility.yul\":5649:5660   */\n      0x00\n        /* \"#utility.yul\":5683:5689   */\n      dup3\n        /* \"#utility.yul\":5678:5681   */\n      dup3\n        /* \"#utility.yul\":5671:5690   */\n      mstore\n        /* \"#utility.yul\":5723:5727   */\n      0x20\n        /* \"#utility.yul\":5718:5721   */\n      dup3\n        /* \"#utility.yul\":5714:5728   */\n      add\n        /* \"#utility.yul\":5699:5728   */\n      swap1\n      pop\n        /* \"#utility.yul\":5565:5734   */\n      swap3\n      swap2\n      pop\n      pop\n      jump\t// out\n        /* \"#utility.yul\":5740:5888   */\n    tag_95:\n        /* \"#utility.yul\":5838:5844   */\n      dup3\n        /* \"#utility.yul\":5833:5836   */\n      dup2\n        /* \"#utility.yul\":5828:5831   */\n      dup4\n        /* \"#utility.yul\":5815:5845   */\n      calldatacopy\n        /* \"#utility.yul\":5879:5880   */\n      0x00\n        /* \"#utility.yul\":5870:5876   */\n      dup4\n        /* \"#utility.yul\":5865:5868   */\n      dup4\n        /* \"#utility.yul\":5861:5877   */\n      add\n        /* \"#utility.yul\":5854:5881   */\n      mstore\n        /* \"#utility.yul\":5740:5888   */\n      pop\n      pop\n      pop\n      jump\t// out\n        /* \"#utility.yul\":5894:5996   */\n    tag_96:\n        /* \"#utility.yul\":5935:5941   */\n      0x00\n        /* \"#utility.yul\":5986:5988   */\n      0x1f\n        /* \"#utility.yul\":5982:5989   */\n      not\n        /* \"#utility.yul\":5977:5979   */\n      0x1f\n        /* \"#utility.yul\":5970:5975   */\n      dup4\n        /* \"#utility.yul\":5966:5980   */\n      add\n        /* \"#utility.yul\":5962:5990   */\n      and\n        /* \"#utility.yul\":5952:5990   */\n      swap1\n      pop\n        /* \"#utility.yul\":5894:5996   */\n      swap2\n      swap1\n      pop\n      jump\t// out\n        /* \"#utility.yul\":6026:6343   */\n    tag_97:\n        /* \"#utility.yul\":6124:6127   */\n      0x00\n        /* \"#utility.yul\":6145:6216   */\n      tag_166\n        /* \"#utility.yul\":6209:6215   */\n      dup4\n        /* \"#utility.yul\":6204:6207   */\n      dup6\n        /* \"#utility.yul\":6145:6216   */\n      tag_94\n      jump\t// in\n    tag_166:\n        /* \"#utility.yul\":6138:6216   */\n      swap4\n      pop\n        /* \"#utility.yul\":6226:6282   */\n      tag_167\n        /* \"#utility.yul\":6275:6281   */\n      dup4\n        /* \"#utility.yul\":6270:6273   */\n      dup6\n        /* \"#utility.yul\":6263:6268   */\n      dup5\n        /* \"#utility.yul\":6226:6282   */\n      tag_95\n      jump\t// in\n    tag_167:\n        /* \"#utility.yul\":6307:6336   */\n      tag_168\n        /* \"#utility.yul\":6329:6335   */\n      dup4\n        /* \"#utility.yul\":6307:6336   */\n      tag_96\n      jump\t// in\n    tag_168:\n        /* \"#utility.yul\":6302:6305   */\n      dup5\n        /* \"#utility.yul\":6298:6337   */\n      add\n        /* \"#utility.yul\":6291:6337   */\n      swap1\n      pop\n        /* \"#utility.yul\":6026:6343   */\n      swap4\n      swap3\n      pop\n      pop\n      pop\n      jump\t// out\n        /* \"#utility.yul\":6349:6792   */\n    tag_54:\n        /* \"#utility.yul\":6500:6504   */\n      0x00\n        /* \"#utility.yul\":6538:6540   */\n      0x40\n        /* \"#utility.yul\":6527:6536   */\n      dup3\n        /* \"#utility.yul\":6523:6541   */\n      add\n        /* \"#utility.yul\":6515:6541   */\n      swap1\n      pop\n        /* \"#utility.yul\":6587:6596   */\n      dup2\n        /* \"#utility.yul\":6581:6585   */\n      dup2\n        /* \"#utility.yul\":6577:6597   */\n      sub\n        /* \"#utility.yul\":6573:6574   */\n      0x00\n        /* \"#utility.yul\":6562:6571   */\n      dup4\n        /* \"#utility.yul\":6558:6575   */\n      add\n        /* \"#utility.yul\":6551:6598   */\n      mstore\n        /* \"#utility.yul\":6615:6703   */\n      tag_170\n        /* \"#utility.yul\":6698:6702   */\n      dup2\n        /* \"#utility.yul\":6689:6695   */\n      dup6\n        /* \"#utility.yul\":6681:6687   */\n      dup8\n        /* \"#utility.yul\":6615:6703   */\n      tag_97\n      jump\t// in\n    tag_170:\n        /* \"#utility.yul\":6607:6703   */\n      swap1\n      pop\n        /* \"#utility.yul\":6713:6785   */\n      tag_171\n        /* \"#utility.yul\":6781:6783   */\n      0x20\n        /* \"#utility.yul\":6770:6779   */\n      dup4\n        /* \"#utility.yul\":6766:6784   */\n      add\n        /* \"#utility.yul\":6757:6763   */\n      dup5\n        /* \"#utility.yul\":6713:6785   */\n      tag_87\n      jump\t// in\n    tag_171:\n        /* \"#utility.yul\":6349:6792   */\n      swap5\n      swap4\n      pop\n      pop\n      pop\n      pop\n      jump\t// out\n        /* \"#utility.yul\":6798:7131   */\n    tag_63:\n        /* \"#utility.yul\":6921:6925   */\n      0x00\n        /* \"#utility.yul\":6959:6961   */\n      0x20\n        /* \"#utility.yul\":6948:6957   */\n      dup3\n        /* \"#utility.yul\":6944:6962   */\n      add\n        /* \"#utility.yul\":6936:6962   */\n      swap1\n      pop\n        /* \"#utility.yul\":7008:7017   */\n      dup2\n        /* \"#utility.yul\":7002:7006   */\n      dup2\n        /* \"#utility.yul\":6998:7018   */\n      sub\n        /* \"#utility.yul\":6994:6995   */\n      0x00\n        /* \"#utility.yul\":6983:6992   */\n      dup4\n        /* \"#utility.yul\":6979:6996   */\n      add\n        /* \"#utility.yul\":6972:7019   */\n      mstore\n        /* \"#utility.yul\":7036:7124   */\n      tag_173\n        /* \"#utility.yul\":7119:7123   */\n      dup2\n        /* \"#utility.yul\":7110:7116   */\n      dup5\n        /* \"#utility.yul\":7102:7108   */\n      dup7\n        /* \"#utility.yul\":7036:7124   */\n      tag_97\n      jump\t// in\n    tag_173:\n        /* \"#utility.yul\":7028:7124   */\n      swap1\n      pop\n        /* \"#utility.yul\":6798:7131   */\n      swap4\n      swap3\n      pop\n      pop\n      pop\n      jump\t// out\n        /* \"#utility.yul\":7137:7280   */\n    tag_98:\n        /* \"#utility.yul\":7194:7199   */\n      0x00\n        /* \"#utility.yul\":7225:7231   */\n      dup2\n        /* \"#utility.yul\":7219:7232   */\n      mload\n        /* \"#utility.yul\":7210:7232   */\n      swap1\n      pop\n        /* \"#utility.yul\":7241:7274   */\n      tag_175\n        /* \"#utility.yul\":7268:7273   */\n      dup2\n        /* \"#utility.yul\":7241:7274   */\n      tag_81\n      jump\t// in\n    tag_175:\n        /* \"#utility.yul\":7137:7280   */\n      swap3\n      swap2\n      pop\n      pop\n      jump\t// out\n        /* \"#utility.yul\":7286:7637   */\n    tag_67:\n        /* \"#utility.yul\":7356:7362   */\n      0x00\n        /* \"#utility.yul\":7405:7407   */\n      0x20\n        /* \"#utility.yul\":7393:7402   */\n      dup3\n        /* \"#utility.yul\":7384:7391   */\n      dup5\n        /* \"#utility.yul\":7380:7403   */\n      sub\n        /* \"#utility.yul\":7376:7408   */\n      slt\n        /* \"#utility.yul\":7373:7492   */\n      iszero\n      tag_177\n      jumpi\n        /* \"#utility.yul\":7411:7490   */\n      tag_178\n      tag_78\n      jump\t// in\n    tag_178:\n        /* \"#utility.yul\":7373:7492   */\n    tag_177:\n        /* \"#utility.yul\":7531:7532   */\n      0x00\n        /* \"#utility.yul\":7556:7620   */\n      tag_179\n        /* \"#utility.yul\":7612:7619   */\n      dup5\n        /* \"#utility.yul\":7603:7609   */\n      dup3\n        /* \"#utility.yul\":7592:7601   */\n      dup6\n        /* \"#utility.yul\":7588:7610   */\n      add\n        /* \"#utility.yul\":7556:7620   */\n      tag_98\n      jump\t// in\n    tag_179:\n        /* \"#utility.yul\":7546:7620   */\n      swap2\n      pop\n        /* \"#utility.yul\":7502:7630   */\n      pop\n        /* \"#utility.yul\":7286:7637   */\n      swap3\n      swap2\n      pop\n      pop\n      jump\t// out\n    stop\n\n    sub_0: assembly {\n            /* \"contracts/SimpleStorage.sol\":66:1645  contract SimpleStorage {... */\n          mstore(0x40, 0x80)\n          callvalue\n          dup1\n          iszero\n          tag_1\n          jumpi\n          0x00\n          dup1\n          revert\n        tag_1:\n          pop\n          dataSize(sub_0)\n          dup1\n          dataOffset(sub_0)\n          0x00\n          codecopy\n          0x00\n          return\n        stop\n\n        sub_0: assembly {\n                /* \"contracts/SimpleStorage.sol\":66:1645  contract SimpleStorage {... */\n              mstore(0x40, 0x80)\n              callvalue\n              dup1\n              iszero\n              tag_1\n              jumpi\n              0x00\n              dup1\n              revert\n            tag_1:\n              pop\n              jumpi(tag_2, lt(calldatasize, 0x04))\n              shr(0xe0, calldataload(0x00))\n              dup1\n              0x6057361d\n              eq\n              tag_3\n              jumpi\n              dup1\n              0x6d83bc57\n              eq\n              tag_4\n              jumpi\n              dup1\n              0x6f760f41\n              eq\n              tag_5\n              jumpi\n              dup1\n              0x8bab8dd5\n              eq\n              tag_6\n              jumpi\n              dup1\n              0x9e7a13ad\n              eq\n              tag_7\n              jumpi\n              dup1\n              0xb05784b8\n              eq\n              tag_8\n              jumpi\n            tag_2:\n              0x00\n              dup1\n              revert\n                /* \"contracts/SimpleStorage.sol\":1009:1119  function store (uint256 _favoriteNumber) public virtual  {... */\n            tag_3:\n              tag_9\n              0x04\n              dup1\n              calldatasize\n              sub\n              dup2\n              add\n              swap1\n              tag_10\n              swap2\n              swap1\n              tag_11\n              jump\t// in\n            tag_10:\n              tag_12\n              jump\t// in\n            tag_9:\n              stop\n                /* \"contracts/SimpleStorage.sol\":301:332  uint256 public myFavoriteNumber */\n            tag_4:\n              tag_13\n              tag_14\n              jump\t// in\n            tag_13:\n              mload(0x40)\n              tag_15\n              swap2\n              swap1\n              tag_16\n              jump\t// in\n            tag_15:\n              mload(0x40)\n              dup1\n              swap2\n              sub\n              swap1\n              return\n                /* \"contracts/SimpleStorage.sol\":1266:1635  function addPerson(string calldata _name, uint256 _favoriteNumber) public  {... */\n            tag_5:\n              tag_17\n              0x04\n              dup1\n              calldatasize\n              sub\n              dup2\n              add\n              swap1\n              tag_18\n              swap2\n              swap1\n              tag_19\n              jump\t// in\n            tag_18:\n              tag_20\n              jump\t// in\n            tag_17:\n              stop\n                /* \"contracts/SimpleStorage.sol\":373:429  mapping (string => uint256) public  nameToFavoriteNumber */\n            tag_6:\n              tag_21\n              0x04\n              dup1\n              calldatasize\n              sub\n              dup2\n              add\n              swap1\n              tag_22\n              swap2\n              swap1\n              tag_23\n              jump\t// in\n            tag_22:\n              tag_24\n              jump\t// in\n            tag_21:\n              mload(0x40)\n              tag_25\n              swap2\n              swap1\n              tag_16\n              jump\t// in\n            tag_25:\n              mload(0x40)\n              dup1\n              swap2\n              sub\n              swap1\n              return\n                /* \"contracts/SimpleStorage.sol\":975:998  Person[] public  people */\n            tag_7:\n              tag_26\n              0x04\n              dup1\n              calldatasize\n              sub\n              dup2\n              add\n              swap1\n              tag_27\n              swap2\n              swap1\n              tag_11\n              jump\t// in\n            tag_27:\n              tag_28\n              jump\t// in\n            tag_26:\n              mload(0x40)\n              tag_29\n              swap3\n              swap2\n              swap1\n              tag_30\n              jump\t// in\n            tag_29:\n              mload(0x40)\n              dup1\n              swap2\n              sub\n              swap1\n              return\n                /* \"contracts/SimpleStorage.sol\":1130:1223  function retreive() public  view returns(uint256) {... */\n            tag_8:\n              tag_31\n              tag_32\n              jump\t// in\n            tag_31:\n              mload(0x40)\n              tag_33\n              swap2\n              swap1\n              tag_16\n              jump\t// in\n            tag_33:\n              mload(0x40)\n              dup1\n              swap2\n              sub\n              swap1\n              return\n                /* \"contracts/SimpleStorage.sol\":1009:1119  function store (uint256 _favoriteNumber) public virtual  {... */\n            tag_12:\n                /* \"contracts/SimpleStorage.sol\":1096:1111  _favoriteNumber */\n              dup1\n                /* \"contracts/SimpleStorage.sol\":1077:1093  myFavoriteNumber */\n              0x00\n                /* \"contracts/SimpleStorage.sol\":1077:1111  myFavoriteNumber = _favoriteNumber */\n              dup2\n              swap1\n              sstore\n              pop\n                /* \"contracts/SimpleStorage.sol\":1009:1119  function store (uint256 _favoriteNumber) public virtual  {... */\n              pop\n              jump\t// out\n                /* \"contracts/SimpleStorage.sol\":301:332  uint256 public myFavoriteNumber */\n            tag_14:\n              sload(0x00)\n              dup2\n              jump\t// out\n                /* \"contracts/SimpleStorage.sol\":1266:1635  function addPerson(string calldata _name, uint256 _favoriteNumber) public  {... */\n            tag_20:\n                /* \"contracts/SimpleStorage.sol\":1528:1534  people */\n              0x02\n                /* \"contracts/SimpleStorage.sol\":1540:1570  Person(_favoriteNumber, _name) */\n              mload(0x40)\n              dup1\n              0x40\n              add\n              0x40\n              mstore\n              dup1\n                /* \"contracts/SimpleStorage.sol\":1547:1562  _favoriteNumber */\n              dup4\n                /* \"contracts/SimpleStorage.sol\":1540:1570  Person(_favoriteNumber, _name) */\n              dup2\n              mstore\n              0x20\n              add\n                /* \"contracts/SimpleStorage.sol\":1564:1569  _name */\n              dup6\n              dup6\n                /* \"contracts/SimpleStorage.sol\":1540:1570  Person(_favoriteNumber, _name) */\n              dup1\n              dup1\n              0x1f\n              add\n              0x20\n              dup1\n              swap2\n              div\n              mul\n              0x20\n              add\n              mload(0x40)\n              swap1\n              dup2\n              add\n              0x40\n              mstore\n              dup1\n              swap4\n              swap3\n              swap2\n              swap1\n              dup2\n              dup2\n              mstore\n              0x20\n              add\n              dup4\n              dup4\n              dup1\n              dup3\n              dup5\n              calldatacopy\n              0x00\n              dup2\n              dup5\n              add\n              mstore\n              not(0x1f)\n              0x1f\n              dup3\n              add\n              and\n              swap1\n              pop\n              dup1\n              dup4\n              add\n              swap3\n              pop\n              pop\n              pop\n              pop\n              pop\n              pop\n              pop\n              dup2\n              mstore\n              pop\n                /* \"contracts/SimpleStorage.sol\":1528:1571  people.push(Person(_favoriteNumber, _name)) */\n              swap1\n              dup1\n              0x01\n              dup2\n              sload\n              add\n              dup1\n              dup3\n              sstore\n              dup1\n              swap2\n              pop\n              pop\n              0x01\n              swap1\n              sub\n              swap1\n              0x00\n              mstore\n              keccak256(0x00, 0x20)\n              swap1\n              0x02\n              mul\n              add\n              0x00\n              swap1\n              swap2\n              swap1\n              swap2\n              swap1\n              swap2\n              pop\n              0x00\n              dup3\n              add\n              mload\n              dup2\n              0x00\n              add\n              sstore\n              0x20\n              dup3\n              add\n              mload\n              dup2\n              0x01\n              add\n              swap1\n              dup2\n              tag_37\n              swap2\n              swap1\n              tag_38\n              jump\t// in\n            tag_37:\n              pop\n              pop\n              pop\n                /* \"contracts/SimpleStorage.sol\":1612:1627  _favoriteNumber */\n              dup1\n                /* \"contracts/SimpleStorage.sol\":1582:1602  nameToFavoriteNumber */\n              0x01\n                /* \"contracts/SimpleStorage.sol\":1603:1608  _name */\n              dup5\n              dup5\n                /* \"contracts/SimpleStorage.sol\":1582:1609  nameToFavoriteNumber[_name] */\n              mload(0x40)\n              tag_39\n              swap3\n              swap2\n              swap1\n              tag_40\n              jump\t// in\n            tag_39:\n              swap1\n              dup2\n              mstore\n              0x20\n              add\n              mload(0x40)\n              dup1\n              swap2\n              sub\n              swap1\n              keccak256\n                /* \"contracts/SimpleStorage.sol\":1582:1627  nameToFavoriteNumber[_name] = _favoriteNumber */\n              dup2\n              swap1\n              sstore\n              pop\n                /* \"contracts/SimpleStorage.sol\":1266:1635  function addPerson(string calldata _name, uint256 _favoriteNumber) public  {... */\n              pop\n              pop\n              pop\n              jump\t// out\n                /* \"contracts/SimpleStorage.sol\":373:429  mapping (string => uint256) public  nameToFavoriteNumber */\n            tag_24:\n              0x01\n              dup2\n              dup1\n              mload\n              0x20\n              dup2\n              add\n              dup3\n              add\n              dup1\n              mload\n              dup5\n              dup3\n              mstore\n              0x20\n              dup4\n              add\n              0x20\n              dup6\n              add\n              keccak256\n              dup2\n              dup4\n              mstore\n              dup1\n              swap6\n              pop\n              pop\n              pop\n              pop\n              pop\n              pop\n              0x00\n              swap2\n              pop\n              swap1\n              pop\n              sload\n              dup2\n              jump\t// out\n                /* \"contracts/SimpleStorage.sol\":975:998  Person[] public  people */\n            tag_28:\n              0x02\n              dup2\n              dup2\n              sload\n              dup2\n              lt\n              tag_41\n              jumpi\n              0x00\n              dup1\n              revert\n            tag_41:\n              swap1\n              0x00\n              mstore\n              keccak256(0x00, 0x20)\n              swap1\n              0x02\n              mul\n              add\n              0x00\n              swap2\n              pop\n              swap1\n              pop\n              dup1\n              0x00\n              add\n              sload\n              swap1\n              dup1\n              0x01\n              add\n              dup1\n              sload\n              tag_43\n              swap1\n              tag_44\n              jump\t// in\n            tag_43:\n              dup1\n              0x1f\n              add\n              0x20\n              dup1\n              swap2\n              div\n              mul\n              0x20\n              add\n              mload(0x40)\n              swap1\n              dup2\n              add\n              0x40\n              mstore\n              dup1\n              swap3\n              swap2\n              swap1\n              dup2\n              dup2\n              mstore\n              0x20\n              add\n              dup3\n              dup1\n              sload\n              tag_45\n              swap1\n              tag_44\n              jump\t// in\n            tag_45:\n              dup1\n              iszero\n              tag_46\n              jumpi\n              dup1\n              0x1f\n              lt\n              tag_47\n              jumpi\n              0x0100\n              dup1\n              dup4\n              sload\n              div\n              mul\n              dup4\n              mstore\n              swap2\n              0x20\n              add\n              swap2\n              jump(tag_46)\n            tag_47:\n              dup3\n              add\n              swap2\n              swap1\n              0x00\n              mstore\n              keccak256(0x00, 0x20)\n              swap1\n            tag_48:\n              dup2\n              sload\n              dup2\n              mstore\n              swap1\n              0x01\n              add\n              swap1\n              0x20\n              add\n              dup1\n              dup4\n              gt\n              tag_48\n              jumpi\n              dup3\n              swap1\n              sub\n              0x1f\n              and\n              dup3\n              add\n              swap2\n            tag_46:\n              pop\n              pop\n              pop\n              pop\n              pop\n              swap1\n              pop\n              dup3\n              jump\t// out\n                /* \"contracts/SimpleStorage.sol\":1130:1223  function retreive() public  view returns(uint256) {... */\n            tag_32:\n                /* \"contracts/SimpleStorage.sol\":1171:1178  uint256 */\n              0x00\n                /* \"contracts/SimpleStorage.sol\":1199:1215  myFavoriteNumber */\n              dup1\n              sload\n                /* \"contracts/SimpleStorage.sol\":1191:1215  return  myFavoriteNumber */\n              swap1\n              pop\n                /* \"contracts/SimpleStorage.sol\":1130:1223  function retreive() public  view returns(uint256) {... */\n              swap1\n              jump\t// out\n                /* \"#utility.yul\":7:82   */\n            tag_50:\n                /* \"#utility.yul\":40:46   */\n              0x00\n                /* \"#utility.yul\":73:75   */\n              0x40\n                /* \"#utility.yul\":67:76   */\n              mload\n                /* \"#utility.yul\":57:76   */\n              swap1\n              pop\n                /* \"#utility.yul\":7:82   */\n              swap1\n              jump\t// out\n                /* \"#utility.yul\":88:205   */\n            tag_51:\n                /* \"#utility.yul\":197:198   */\n              0x00\n                /* \"#utility.yul\":194:195   */\n              dup1\n                /* \"#utility.yul\":187:199   */\n              revert\n                /* \"#utility.yul\":211:328   */\n            tag_52:\n                /* \"#utility.yul\":320:321   */\n              0x00\n                /* \"#utility.yul\":317:318   */\n              dup1\n                /* \"#utility.yul\":310:322   */\n              revert\n                /* \"#utility.yul\":334:411   */\n            tag_53:\n                /* \"#utility.yul\":371:378   */\n              0x00\n                /* \"#utility.yul\":400:405   */\n              dup2\n                /* \"#utility.yul\":389:405   */\n              swap1\n              pop\n                /* \"#utility.yul\":334:411   */\n              swap2\n              swap1\n              pop\n              jump\t// out\n                /* \"#utility.yul\":417:539   */\n            tag_54:\n                /* \"#utility.yul\":490:514   */\n              tag_98\n                /* \"#utility.yul\":508:513   */\n              dup2\n                /* \"#utility.yul\":490:514   */\n              tag_53\n              jump\t// in\n            tag_98:\n                /* \"#utility.yul\":483:488   */\n              dup2\n                /* \"#utility.yul\":480:515   */\n              eq\n                /* \"#utility.yul\":470:533   */\n              tag_99\n              jumpi\n                /* \"#utility.yul\":529:530   */\n              0x00\n                /* \"#utility.yul\":526:527   */\n              dup1\n                /* \"#utility.yul\":519:531   */\n              revert\n                /* \"#utility.yul\":470:533   */\n            tag_99:\n                /* \"#utility.yul\":417:539   */\n              pop\n              jump\t// out\n                /* \"#utility.yul\":545:684   */\n            tag_55:\n                /* \"#utility.yul\":591:596   */\n              0x00\n                /* \"#utility.yul\":629:635   */\n              dup2\n                /* \"#utility.yul\":616:636   */\n              calldataload\n                /* \"#utility.yul\":607:636   */\n              swap1\n              pop\n                /* \"#utility.yul\":645:678   */\n              tag_101\n                /* \"#utility.yul\":672:677   */\n              dup2\n                /* \"#utility.yul\":645:678   */\n              tag_54\n              jump\t// in\n            tag_101:\n                /* \"#utility.yul\":545:684   */\n              swap3\n              swap2\n              pop\n              pop\n              jump\t// out\n                /* \"#utility.yul\":690:1019   */\n            tag_11:\n                /* \"#utility.yul\":749:755   */\n              0x00\n                /* \"#utility.yul\":798:800   */\n              0x20\n                /* \"#utility.yul\":786:795   */\n              dup3\n                /* \"#utility.yul\":777:784   */\n              dup5\n                /* \"#utility.yul\":773:796   */\n              sub\n                /* \"#utility.yul\":769:801   */\n              slt\n                /* \"#utility.yul\":766:885   */\n              iszero\n              tag_103\n              jumpi\n                /* \"#utility.yul\":804:883   */\n              tag_104\n              tag_51\n              jump\t// in\n            tag_104:\n                /* \"#utility.yul\":766:885   */\n            tag_103:\n                /* \"#utility.yul\":924:925   */\n              0x00\n                /* \"#utility.yul\":949:1002   */\n              tag_105\n                /* \"#utility.yul\":994:1001   */\n              dup5\n                /* \"#utility.yul\":985:991   */\n              dup3\n                /* \"#utility.yul\":974:983   */\n              dup6\n                /* \"#utility.yul\":970:992   */\n              add\n                /* \"#utility.yul\":949:1002   */\n              tag_55\n              jump\t// in\n            tag_105:\n                /* \"#utility.yul\":939:1002   */\n              swap2\n              pop\n                /* \"#utility.yul\":895:1012   */\n              pop\n                /* \"#utility.yul\":690:1019   */\n              swap3\n              swap2\n              pop\n              pop\n              jump\t// out\n                /* \"#utility.yul\":1025:1143   */\n            tag_56:\n                /* \"#utility.yul\":1112:1136   */\n              tag_107\n                /* \"#utility.yul\":1130:1135   */\n              dup2\n                /* \"#utility.yul\":1112:1136   */\n              tag_53\n              jump\t// in\n            tag_107:\n                /* \"#utility.yul\":1107:1110   */\n              dup3\n                /* \"#utility.yul\":1100:1137   */\n              mstore\n                /* \"#utility.yul\":1025:1143   */\n              pop\n              pop\n              jump\t// out\n                /* \"#utility.yul\":1149:1371   */\n            tag_16:\n                /* \"#utility.yul\":1242:1246   */\n              0x00\n                /* \"#utility.yul\":1280:1282   */\n              0x20\n                /* \"#utility.yul\":1269:1278   */\n              dup3\n                /* \"#utility.yul\":1265:1283   */\n              add\n                /* \"#utility.yul\":1257:1283   */\n              swap1\n              pop\n                /* \"#utility.yul\":1293:1364   */\n              tag_109\n                /* \"#utility.yul\":1361:1362   */\n              0x00\n                /* \"#utility.yul\":1350:1359   */\n              dup4\n                /* \"#utility.yul\":1346:1363   */\n              add\n                /* \"#utility.yul\":1337:1343   */\n              dup5\n                /* \"#utility.yul\":1293:1364   */\n              tag_56\n              jump\t// in\n            tag_109:\n                /* \"#utility.yul\":1149:1371   */\n              swap3\n              swap2\n              pop\n              pop\n              jump\t// out\n                /* \"#utility.yul\":1377:1494   */\n            tag_57:\n                /* \"#utility.yul\":1486:1487   */\n              0x00\n                /* \"#utility.yul\":1483:1484   */\n              dup1\n                /* \"#utility.yul\":1476:1488   */\n              revert\n                /* \"#utility.yul\":1500:1617   */\n            tag_58:\n                /* \"#utility.yul\":1609:1610   */\n              0x00\n                /* \"#utility.yul\":1606:1607   */\n              dup1\n                /* \"#utility.yul\":1599:1611   */\n              revert\n                /* \"#utility.yul\":1623:1740   */\n            tag_59:\n                /* \"#utility.yul\":1732:1733   */\n              0x00\n                /* \"#utility.yul\":1729:1730   */\n              dup1\n                /* \"#utility.yul\":1722:1734   */\n              revert\n                /* \"#utility.yul\":1760:2313   */\n            tag_60:\n                /* \"#utility.yul\":1818:1826   */\n              0x00\n                /* \"#utility.yul\":1828:1834   */\n              dup1\n                /* \"#utility.yul\":1878:1881   */\n              dup4\n                /* \"#utility.yul\":1871:1875   */\n              0x1f\n                /* \"#utility.yul\":1863:1869   */\n              dup5\n                /* \"#utility.yul\":1859:1876   */\n              add\n                /* \"#utility.yul\":1855:1882   */\n              slt\n                /* \"#utility.yul\":1845:1967   */\n              tag_114\n              jumpi\n                /* \"#utility.yul\":1886:1965   */\n              tag_115\n              tag_57\n              jump\t// in\n            tag_115:\n                /* \"#utility.yul\":1845:1967   */\n            tag_114:\n                /* \"#utility.yul\":1999:2005   */\n              dup3\n                /* \"#utility.yul\":1986:2006   */\n              calldataload\n                /* \"#utility.yul\":1976:2006   */\n              swap1\n              pop\n                /* \"#utility.yul\":2029:2047   */\n              0xffffffffffffffff\n                /* \"#utility.yul\":2021:2027   */\n              dup2\n                /* \"#utility.yul\":2018:2048   */\n              gt\n                /* \"#utility.yul\":2015:2132   */\n              iszero\n              tag_116\n              jumpi\n                /* \"#utility.yul\":2051:2130   */\n              tag_117\n              tag_58\n              jump\t// in\n            tag_117:\n                /* \"#utility.yul\":2015:2132   */\n            tag_116:\n                /* \"#utility.yul\":2165:2169   */\n              0x20\n                /* \"#utility.yul\":2157:2163   */\n              dup4\n                /* \"#utility.yul\":2153:2170   */\n              add\n                /* \"#utility.yul\":2141:2170   */\n              swap2\n              pop\n                /* \"#utility.yul\":2219:2222   */\n              dup4\n                /* \"#utility.yul\":2211:2215   */\n              0x01\n                /* \"#utility.yul\":2203:2209   */\n              dup3\n                /* \"#utility.yul\":2199:2216   */\n              mul\n                /* \"#utility.yul\":2189:2197   */\n              dup4\n                /* \"#utility.yul\":2185:2217   */\n              add\n                /* \"#utility.yul\":2182:2223   */\n              gt\n                /* \"#utility.yul\":2179:2307   */\n              iszero\n              tag_118\n              jumpi\n                /* \"#utility.yul\":2226:2305   */\n              tag_119\n              tag_59\n              jump\t// in\n            tag_119:\n                /* \"#utility.yul\":2179:2307   */\n            tag_118:\n                /* \"#utility.yul\":1760:2313   */\n              swap3\n              pop\n              swap3\n              swap1\n              pop\n              jump\t// out\n                /* \"#utility.yul\":2319:2993   */\n            tag_19:\n                /* \"#utility.yul\":2399:2405   */\n              0x00\n                /* \"#utility.yul\":2407:2413   */\n              dup1\n                /* \"#utility.yul\":2415:2421   */\n              0x00\n                /* \"#utility.yul\":2464:2466   */\n              0x40\n                /* \"#utility.yul\":2452:2461   */\n              dup5\n                /* \"#utility.yul\":2443:2450   */\n              dup7\n                /* \"#utility.yul\":2439:2462   */\n              sub\n                /* \"#utility.yul\":2435:2467   */\n              slt\n                /* \"#utility.yul\":2432:2551   */\n              iszero\n              tag_121\n              jumpi\n                /* \"#utility.yul\":2470:2549   */\n              tag_122\n              tag_51\n              jump\t// in\n            tag_122:\n                /* \"#utility.yul\":2432:2551   */\n            tag_121:\n                /* \"#utility.yul\":2618:2619   */\n              0x00\n                /* \"#utility.yul\":2607:2616   */\n              dup5\n                /* \"#utility.yul\":2603:2620   */\n              add\n                /* \"#utility.yul\":2590:2621   */\n              calldataload\n                /* \"#utility.yul\":2648:2666   */\n              0xffffffffffffffff\n                /* \"#utility.yul\":2640:2646   */\n              dup2\n                /* \"#utility.yul\":2637:2667   */\n              gt\n                /* \"#utility.yul\":2634:2751   */\n              iszero\n              tag_123\n              jumpi\n                /* \"#utility.yul\":2670:2749   */\n              tag_124\n              tag_52\n              jump\t// in\n            tag_124:\n                /* \"#utility.yul\":2634:2751   */\n            tag_123:\n                /* \"#utility.yul\":2783:2848   */\n              tag_125\n                /* \"#utility.yul\":2840:2847   */\n              dup7\n                /* \"#utility.yul\":2831:2837   */\n              dup3\n                /* \"#utility.yul\":2820:2829   */\n              dup8\n                /* \"#utility.yul\":2816:2838   */\n              add\n                /* \"#utility.yul\":2783:2848   */\n              tag_60\n              jump\t// in\n            tag_125:\n                /* \"#utility.yul\":2765:2848   */\n              swap4\n              pop\n              swap4\n              pop\n                /* \"#utility.yul\":2561:2858   */\n              pop\n                /* \"#utility.yul\":2897:2899   */\n              0x20\n                /* \"#utility.yul\":2923:2976   */\n              tag_126\n                /* \"#utility.yul\":2968:2975   */\n              dup7\n                /* \"#utility.yul\":2959:2965   */\n              dup3\n                /* \"#utility.yul\":2948:2957   */\n              dup8\n                /* \"#utility.yul\":2944:2966   */\n              add\n                /* \"#utility.yul\":2923:2976   */\n              tag_55\n              jump\t// in\n            tag_126:\n                /* \"#utility.yul\":2913:2976   */\n              swap2\n              pop\n                /* \"#utility.yul\":2868:2986   */\n              pop\n                /* \"#utility.yul\":2319:2993   */\n              swap3\n              pop\n              swap3\n              pop\n              swap3\n              jump\t// out\n                /* \"#utility.yul\":2999:3116   */\n            tag_61:\n                /* \"#utility.yul\":3108:3109   */\n              0x00\n                /* \"#utility.yul\":3105:3106   */\n              dup1\n                /* \"#utility.yul\":3098:3110   */\n              revert\n                /* \"#utility.yul\":3122:3224   */\n            tag_62:\n                /* \"#utility.yul\":3163:3169   */\n              0x00\n                /* \"#utility.yul\":3214:3216   */\n              0x1f\n                /* \"#utility.yul\":3210:3217   */\n              not\n                /* \"#utility.yul\":3205:3207   */\n              0x1f\n                /* \"#utility.yul\":3198:3203   */\n              dup4\n                /* \"#utility.yul\":3194:3208   */\n              add\n                /* \"#utility.yul\":3190:3218   */\n              and\n                /* \"#utility.yul\":3180:3218   */\n              swap1\n              pop\n                /* \"#utility.yul\":3122:3224   */\n              swap2\n              swap1\n              pop\n              jump\t// out\n                /* \"#utility.yul\":3230:3410   */\n            tag_63:\n                /* \"#utility.yul\":3278:3355   */\n              0x4e487b7100000000000000000000000000000000000000000000000000000000\n                /* \"#utility.yul\":3275:3276   */\n              0x00\n                /* \"#utility.yul\":3268:3356   */\n              mstore\n                /* \"#utility.yul\":3375:3379   */\n              0x41\n                /* \"#utility.yul\":3372:3373   */\n              0x04\n                /* \"#utility.yul\":3365:3380   */\n              mstore\n                /* \"#utility.yul\":3399:3403   */\n              0x24\n                /* \"#utility.yul\":3396:3397   */\n              0x00\n                /* \"#utility.yul\":3389:3404   */\n              revert\n                /* \"#utility.yul\":3416:3697   */\n            tag_64:\n                /* \"#utility.yul\":3499:3526   */\n              tag_131\n                /* \"#utility.yul\":3521:3525   */\n              dup3\n                /* \"#utility.yul\":3499:3526   */\n              tag_62\n              jump\t// in\n            tag_131:\n                /* \"#utility.yul\":3491:3497   */\n              dup2\n                /* \"#utility.yul\":3487:3527   */\n              add\n                /* \"#utility.yul\":3629:3635   */\n              dup2\n                /* \"#utility.yul\":3617:3627   */\n              dup2\n                /* \"#utility.yul\":3614:3636   */\n              lt\n                /* \"#utility.yul\":3593:3611   */\n              0xffffffffffffffff\n                /* \"#utility.yul\":3581:3591   */\n              dup3\n                /* \"#utility.yul\":3578:3612   */\n              gt\n                /* \"#utility.yul\":3575:3637   */\n              or\n                /* \"#utility.yul\":3572:3660   */\n              iszero\n              tag_132\n              jumpi\n                /* \"#utility.yul\":3640:3658   */\n              tag_133\n              tag_63\n              jump\t// in\n            tag_133:\n                /* \"#utility.yul\":3572:3660   */\n            tag_132:\n                /* \"#utility.yul\":3680:3690   */\n              dup1\n                /* \"#utility.yul\":3676:3678   */\n              0x40\n                /* \"#utility.yul\":3669:3691   */\n              mstore\n                /* \"#utility.yul\":3459:3697   */\n              pop\n                /* \"#utility.yul\":3416:3697   */\n              pop\n              pop\n              jump\t// out\n                /* \"#utility.yul\":3703:3832   */\n            tag_65:\n                /* \"#utility.yul\":3737:3743   */\n              0x00\n                /* \"#utility.yul\":3764:3784   */\n              tag_135\n              tag_50\n              jump\t// in\n            tag_135:\n                /* \"#utility.yul\":3754:3784   */\n              swap1\n              pop\n                /* \"#utility.yul\":3793:3826   */\n              tag_136\n                /* \"#utility.yul\":3821:3825   */\n              dup3\n                /* \"#utility.yul\":3813:3819   */\n              dup3\n                /* \"#utility.yul\":3793:3826   */\n              tag_64\n              jump\t// in\n            tag_136:\n                /* \"#utility.yul\":3703:3832   */\n              swap2\n              swap1\n              pop\n              jump\t// out\n                /* \"#utility.yul\":3838:4146   */\n            tag_66:\n                /* \"#utility.yul\":3900:3904   */\n              0x00\n                /* \"#utility.yul\":3990:4008   */\n              0xffffffffffffffff\n                /* \"#utility.yul\":3982:3988   */\n              dup3\n                /* \"#utility.yul\":3979:4009   */\n              gt\n                /* \"#utility.yul\":3976:4032   */\n              iszero\n              tag_138\n              jumpi\n                /* \"#utility.yul\":4012:4030   */\n              tag_139\n              tag_63\n              jump\t// in\n            tag_139:\n                /* \"#utility.yul\":3976:4032   */\n            tag_138:\n                /* \"#utility.yul\":4050:4079   */\n              tag_140\n                /* \"#utility.yul\":4072:4078   */\n              dup3\n                /* \"#utility.yul\":4050:4079   */\n              tag_62\n              jump\t// in\n            tag_140:\n                /* \"#utility.yul\":4042:4079   */\n              swap1\n              pop\n                /* \"#utility.yul\":4134:4138   */\n              0x20\n                /* \"#utility.yul\":4128:4132   */\n              dup2\n                /* \"#utility.yul\":4124:4139   */\n              add\n                /* \"#utility.yul\":4116:4139   */\n              swap1\n              pop\n                /* \"#utility.yul\":3838:4146   */\n              swap2\n              swap1\n              pop\n              jump\t// out\n                /* \"#utility.yul\":4152:4300   */\n            tag_67:\n                /* \"#utility.yul\":4250:4256   */\n              dup3\n                /* \"#utility.yul\":4245:4248   */\n              dup2\n                /* \"#utility.yul\":4240:4243   */\n              dup4\n                /* \"#utility.yul\":4227:4257   */\n              calldatacopy\n                /* \"#utility.yul\":4291:4292   */\n              0x00\n                /* \"#utility.yul\":4282:4288   */\n              dup4\n                /* \"#utility.yul\":4277:4280   */\n              dup4\n                /* \"#utility.yul\":4273:4289   */\n              add\n                /* \"#utility.yul\":4266:4293   */\n              mstore\n                /* \"#utility.yul\":4152:4300   */\n              pop\n              pop\n              pop\n              jump\t// out\n                /* \"#utility.yul\":4306:4731   */\n            tag_68:\n                /* \"#utility.yul\":4384:4389   */\n              0x00\n                /* \"#utility.yul\":4409:4475   */\n              tag_143\n                /* \"#utility.yul\":4425:4474   */\n              tag_144\n                /* \"#utility.yul\":4467:4473   */\n              dup5\n                /* \"#utility.yul\":4425:4474   */\n              tag_66\n              jump\t// in\n            tag_144:\n                /* \"#utility.yul\":4409:4475   */\n              tag_65\n              jump\t// in\n            tag_143:\n                /* \"#utility.yul\":4400:4475   */\n              swap1\n              pop\n                /* \"#utility.yul\":4498:4504   */\n              dup3\n                /* \"#utility.yul\":4491:4496   */\n              dup2\n                /* \"#utility.yul\":4484:4505   */\n              mstore\n                /* \"#utility.yul\":4536:4540   */\n              0x20\n                /* \"#utility.yul\":4529:4534   */\n              dup2\n                /* \"#utility.yul\":4525:4541   */\n              add\n                /* \"#utility.yul\":4574:4577   */\n              dup5\n                /* \"#utility.yul\":4565:4571   */\n              dup5\n                /* \"#utility.yul\":4560:4563   */\n              dup5\n                /* \"#utility.yul\":4556:4572   */\n              add\n                /* \"#utility.yul\":4553:4578   */\n              gt\n                /* \"#utility.yul\":4550:4662   */\n              iszero\n              tag_145\n              jumpi\n                /* \"#utility.yul\":4581:4660   */\n              tag_146\n              tag_61\n              jump\t// in\n            tag_146:\n                /* \"#utility.yul\":4550:4662   */\n            tag_145:\n                /* \"#utility.yul\":4671:4725   */\n              tag_147\n                /* \"#utility.yul\":4718:4724   */\n              dup5\n                /* \"#utility.yul\":4713:4716   */\n              dup3\n                /* \"#utility.yul\":4708:4711   */\n              dup6\n                /* \"#utility.yul\":4671:4725   */\n              tag_67\n              jump\t// in\n            tag_147:\n                /* \"#utility.yul\":4390:4731   */\n              pop\n                /* \"#utility.yul\":4306:4731   */\n              swap4\n              swap3\n              pop\n              pop\n              pop\n              jump\t// out\n                /* \"#utility.yul\":4751:5091   */\n            tag_69:\n                /* \"#utility.yul\":4807:4812   */\n              0x00\n                /* \"#utility.yul\":4856:4859   */\n              dup3\n                /* \"#utility.yul\":4849:4853   */\n              0x1f\n                /* \"#utility.yul\":4841:4847   */\n              dup4\n                /* \"#utility.yul\":4837:4854   */\n              add\n                /* \"#utility.yul\":4833:4860   */\n              slt\n                /* \"#utility.yul\":4823:4945   */\n              tag_149\n              jumpi\n                /* \"#utility.yul\":4864:4943   */\n              tag_150\n              tag_57\n              jump\t// in\n            tag_150:\n                /* \"#utility.yul\":4823:4945   */\n            tag_149:\n                /* \"#utility.yul\":4981:4987   */\n              dup2\n                /* \"#utility.yul\":4968:4988   */\n              calldataload\n                /* \"#utility.yul\":5006:5085   */\n              tag_151\n                /* \"#utility.yul\":5081:5084   */\n              dup5\n                /* \"#utility.yul\":5073:5079   */\n              dup3\n                /* \"#utility.yul\":5066:5070   */\n              0x20\n                /* \"#utility.yul\":5058:5064   */\n              dup7\n                /* \"#utility.yul\":5054:5071   */\n              add\n                /* \"#utility.yul\":5006:5085   */\n              tag_68\n              jump\t// in\n            tag_151:\n                /* \"#utility.yul\":4997:5085   */\n              swap2\n              pop\n                /* \"#utility.yul\":4813:5091   */\n              pop\n                /* \"#utility.yul\":4751:5091   */\n              swap3\n              swap2\n              pop\n              pop\n              jump\t// out\n                /* \"#utility.yul\":5097:5606   */\n            tag_23:\n                /* \"#utility.yul\":5166:5172   */\n              0x00\n                /* \"#utility.yul\":5215:5217   */\n              0x20\n                /* \"#utility.yul\":5203:5212   */\n              dup3\n                /* \"#utility.yul\":5194:5201   */\n              dup5\n                /* \"#utility.yul\":5190:5213   */\n              sub\n                /* \"#utility.yul\":5186:5218   */\n              slt\n                /* \"#utility.yul\":5183:5302   */\n              iszero\n              tag_153\n              jumpi\n                /* \"#utility.yul\":5221:5300   */\n              tag_154\n              tag_51\n              jump\t// in\n            tag_154:\n                /* \"#utility.yul\":5183:5302   */\n            tag_153:\n                /* \"#utility.yul\":5369:5370   */\n              0x00\n                /* \"#utility.yul\":5358:5367   */\n              dup3\n                /* \"#utility.yul\":5354:5371   */\n              add\n                /* \"#utility.yul\":5341:5372   */\n              calldataload\n                /* \"#utility.yul\":5399:5417   */\n              0xffffffffffffffff\n                /* \"#utility.yul\":5391:5397   */\n              dup2\n                /* \"#utility.yul\":5388:5418   */\n              gt\n                /* \"#utility.yul\":5385:5502   */\n              iszero\n              tag_155\n              jumpi\n                /* \"#utility.yul\":5421:5500   */\n              tag_156\n              tag_52\n              jump\t// in\n            tag_156:\n                /* \"#utility.yul\":5385:5502   */\n            tag_155:\n                /* \"#utility.yul\":5526:5589   */\n              tag_157\n                /* \"#utility.yul\":5581:5588   */\n              dup5\n                /* \"#utility.yul\":5572:5578   */\n              dup3\n                /* \"#utility.yul\":5561:5570   */\n              dup6\n                /* \"#utility.yul\":5557:5579   */\n              add\n                /* \"#utility.yul\":5526:5589   */\n              tag_69\n              jump\t// in\n            tag_157:\n                /* \"#utility.yul\":5516:5589   */\n              swap2\n              pop\n                /* \"#utility.yul\":5312:5599   */\n              pop\n                /* \"#utility.yul\":5097:5606   */\n              swap3\n              swap2\n              pop\n              pop\n              jump\t// out\n                /* \"#utility.yul\":5612:5711   */\n            tag_70:\n                /* \"#utility.yul\":5664:5670   */\n              0x00\n                /* \"#utility.yul\":5698:5703   */\n              dup2\n                /* \"#utility.yul\":5692:5704   */\n              mload\n                /* \"#utility.yul\":5682:5704   */\n              swap1\n              pop\n                /* \"#utility.yul\":5612:5711   */\n              swap2\n              swap1\n              pop\n              jump\t// out\n                /* \"#utility.yul\":5717:5886   */\n            tag_71:\n                /* \"#utility.yul\":5801:5812   */\n              0x00\n                /* \"#utility.yul\":5835:5841   */\n              dup3\n                /* \"#utility.yul\":5830:5833   */\n              dup3\n                /* \"#utility.yul\":5823:5842   */\n              mstore\n                /* \"#utility.yul\":5875:5879   */\n              0x20\n                /* \"#utility.yul\":5870:5873   */\n              dup3\n                /* \"#utility.yul\":5866:5880   */\n              add\n                /* \"#utility.yul\":5851:5880   */\n              swap1\n              pop\n                /* \"#utility.yul\":5717:5886   */\n              swap3\n              swap2\n              pop\n              pop\n              jump\t// out\n                /* \"#utility.yul\":5892:6031   */\n            tag_72:\n                /* \"#utility.yul\":5981:5987   */\n              dup3\n                /* \"#utility.yul\":5976:5979   */\n              dup2\n                /* \"#utility.yul\":5971:5974   */\n              dup4\n                /* \"#utility.yul\":5965:5988   */\n              mcopy\n                /* \"#utility.yul\":6022:6023   */\n              0x00\n                /* \"#utility.yul\":6013:6019   */\n              dup4\n                /* \"#utility.yul\":6008:6011   */\n              dup4\n                /* \"#utility.yul\":6004:6020   */\n              add\n                /* \"#utility.yul\":5997:6024   */\n              mstore\n                /* \"#utility.yul\":5892:6031   */\n              pop\n              pop\n              pop\n              jump\t// out\n                /* \"#utility.yul\":6037:6414   */\n            tag_73:\n                /* \"#utility.yul\":6125:6128   */\n              0x00\n                /* \"#utility.yul\":6153:6192   */\n              tag_162\n                /* \"#utility.yul\":6186:6191   */\n              dup3\n                /* \"#utility.yul\":6153:6192   */\n              tag_70\n              jump\t// in\n            tag_162:\n                /* \"#utility.yul\":6208:6279   */\n              tag_163\n                /* \"#utility.yul\":6272:6278   */\n              dup2\n                /* \"#utility.yul\":6267:6270   */\n              dup6\n                /* \"#utility.yul\":6208:6279   */\n              tag_71\n              jump\t// in\n            tag_163:\n                /* \"#utility.yul\":6201:6279   */\n              swap4\n              pop\n                /* \"#utility.yul\":6288:6353   */\n              tag_164\n                /* \"#utility.yul\":6346:6352   */\n              dup2\n                /* \"#utility.yul\":6341:6344   */\n              dup6\n                /* \"#utility.yul\":6334:6338   */\n              0x20\n                /* \"#utility.yul\":6327:6332   */\n              dup7\n                /* \"#utility.yul\":6323:6339   */\n              add\n                /* \"#utility.yul\":6288:6353   */\n              tag_72\n              jump\t// in\n            tag_164:\n                /* \"#utility.yul\":6378:6407   */\n              tag_165\n                /* \"#utility.yul\":6400:6406   */\n              dup2\n                /* \"#utility.yul\":6378:6407   */\n              tag_62\n              jump\t// in\n            tag_165:\n                /* \"#utility.yul\":6373:6376   */\n              dup5\n                /* \"#utility.yul\":6369:6408   */\n              add\n                /* \"#utility.yul\":6362:6408   */\n              swap2\n              pop\n                /* \"#utility.yul\":6129:6414   */\n              pop\n                /* \"#utility.yul\":6037:6414   */\n              swap3\n              swap2\n              pop\n              pop\n              jump\t// out\n                /* \"#utility.yul\":6420:6843   */\n            tag_30:\n                /* \"#utility.yul\":6561:6565   */\n              0x00\n                /* \"#utility.yul\":6599:6601   */\n              0x40\n                /* \"#utility.yul\":6588:6597   */\n              dup3\n                /* \"#utility.yul\":6584:6602   */\n              add\n                /* \"#utility.yul\":6576:6602   */\n              swap1\n              pop\n                /* \"#utility.yul\":6612:6683   */\n              tag_167\n                /* \"#utility.yul\":6680:6681   */\n              0x00\n                /* \"#utility.yul\":6669:6678   */\n              dup4\n                /* \"#utility.yul\":6665:6682   */\n              add\n                /* \"#utility.yul\":6656:6662   */\n              dup6\n                /* \"#utility.yul\":6612:6683   */\n              tag_56\n              jump\t// in\n            tag_167:\n                /* \"#utility.yul\":6730:6739   */\n              dup2\n                /* \"#utility.yul\":6724:6728   */\n              dup2\n                /* \"#utility.yul\":6720:6740   */\n              sub\n                /* \"#utility.yul\":6715:6717   */\n              0x20\n                /* \"#utility.yul\":6704:6713   */\n              dup4\n                /* \"#utility.yul\":6700:6718   */\n              add\n                /* \"#utility.yul\":6693:6741   */\n              mstore\n                /* \"#utility.yul\":6758:6836   */\n              tag_168\n                /* \"#utility.yul\":6831:6835   */\n              dup2\n                /* \"#utility.yul\":6822:6828   */\n              dup5\n                /* \"#utility.yul\":6758:6836   */\n              tag_73\n              jump\t// in\n            tag_168:\n                /* \"#utility.yul\":6750:6836   */\n              swap1\n              pop\n                /* \"#utility.yul\":6420:6843   */\n              swap4\n              swap3\n              pop\n              pop\n              pop\n              jump\t// out\n                /* \"#utility.yul\":6849:7029   */\n            tag_74:\n                /* \"#utility.yul\":6897:6974   */\n              0x4e487b7100000000000000000000000000000000000000000000000000000000\n                /* \"#utility.yul\":6894:6895   */\n              0x00\n                /* \"#utility.yul\":6887:6975   */\n              mstore\n                /* \"#utility.yul\":6994:6998   */\n              0x22\n                /* \"#utility.yul\":6991:6992   */\n              0x04\n                /* \"#utility.yul\":6984:6999   */\n              mstore\n                /* \"#utility.yul\":7018:7022   */\n              0x24\n                /* \"#utility.yul\":7015:7016   */\n              0x00\n                /* \"#utility.yul\":7008:7023   */\n              revert\n                /* \"#utility.yul\":7035:7355   */\n            tag_44:\n                /* \"#utility.yul\":7079:7085   */\n              0x00\n                /* \"#utility.yul\":7116:7117   */\n              0x02\n                /* \"#utility.yul\":7110:7114   */\n              dup3\n                /* \"#utility.yul\":7106:7118   */\n              div\n                /* \"#utility.yul\":7096:7118   */\n              swap1\n              pop\n                /* \"#utility.yul\":7163:7164   */\n              0x01\n                /* \"#utility.yul\":7157:7161   */\n              dup3\n                /* \"#utility.yul\":7153:7165   */\n              and\n                /* \"#utility.yul\":7184:7202   */\n              dup1\n                /* \"#utility.yul\":7174:7255   */\n              tag_171\n              jumpi\n                /* \"#utility.yul\":7240:7244   */\n              0x7f\n                /* \"#utility.yul\":7232:7238   */\n              dup3\n                /* \"#utility.yul\":7228:7245   */\n              and\n                /* \"#utility.yul\":7218:7245   */\n              swap2\n              pop\n                /* \"#utility.yul\":7174:7255   */\n            tag_171:\n                /* \"#utility.yul\":7302:7304   */\n              0x20\n                /* \"#utility.yul\":7294:7300   */\n              dup3\n                /* \"#utility.yul\":7291:7305   */\n              lt\n                /* \"#utility.yul\":7271:7289   */\n              dup2\n                /* \"#utility.yul\":7268:7306   */\n              sub\n                /* \"#utility.yul\":7265:7349   */\n              tag_172\n              jumpi\n                /* \"#utility.yul\":7321:7339   */\n              tag_173\n              tag_74\n              jump\t// in\n            tag_173:\n                /* \"#utility.yul\":7265:7349   */\n            tag_172:\n                /* \"#utility.yul\":7086:7355   */\n              pop\n                /* \"#utility.yul\":7035:7355   */\n              swap2\n              swap1\n              pop\n              jump\t// out\n                /* \"#utility.yul\":7361:7502   */\n            tag_75:\n                /* \"#utility.yul\":7410:7414   */\n              0x00\n                /* \"#utility.yul\":7433:7436   */\n              dup2\n                /* \"#utility.yul\":7425:7436   */\n              swap1\n              pop\n                /* \"#utility.yul\":7456:7459   */\n              dup2\n                /* \"#utility.yul\":7453:7454   */\n              0x00\n                /* \"#utility.yul\":7446:7460   */\n              mstore\n                /* \"#utility.yul\":7490:7494   */\n              0x20\n                /* \"#utility.yul\":7487:7488   */\n              0x00\n                /* \"#utility.yul\":7477:7495   */\n              keccak256\n                /* \"#utility.yul\":7469:7495   */\n              swap1\n              pop\n                /* \"#utility.yul\":7361:7502   */\n              swap2\n              swap1\n              pop\n              jump\t// out\n                /* \"#utility.yul\":7508:7601   */\n            tag_76:\n                /* \"#utility.yul\":7545:7551   */\n              0x00\n                /* \"#utility.yul\":7592:7594   */\n              0x20\n                /* \"#utility.yul\":7587:7589   */\n              0x1f\n                /* \"#utility.yul\":7580:7585   */\n              dup4\n                /* \"#utility.yul\":7576:7590   */\n              add\n                /* \"#utility.yul\":7572:7595   */\n              div\n                /* \"#utility.yul\":7562:7595   */\n              swap1\n              pop\n                /* \"#utility.yul\":7508:7601   */\n              swap2\n              swap1\n              pop\n              jump\t// out\n                /* \"#utility.yul\":7607:7714   */\n            tag_77:\n                /* \"#utility.yul\":7651:7659   */\n              0x00\n                /* \"#utility.yul\":7701:7706   */\n              dup3\n                /* \"#utility.yul\":7695:7699   */\n              dup3\n                /* \"#utility.yul\":7691:7707   */\n              shl\n                /* \"#utility.yul\":7670:7707   */\n              swap1\n              pop\n                /* \"#utility.yul\":7607:7714   */\n              swap3\n              swap2\n              pop\n              pop\n              jump\t// out\n                /* \"#utility.yul\":7720:8113   */\n            tag_78:\n                /* \"#utility.yul\":7789:7795   */\n              0x00\n                /* \"#utility.yul\":7839:7840   */\n              0x08\n                /* \"#utility.yul\":7827:7837   */\n              dup4\n                /* \"#utility.yul\":7823:7841   */\n              mul\n                /* \"#utility.yul\":7862:7959   */\n              tag_178\n                /* \"#utility.yul\":7892:7958   */\n              0xffffffffffffffffffffffffffffffffffffffffffffffffffffffffffffffff\n                /* \"#utility.yul\":7881:7890   */\n              dup3\n                /* \"#utility.yul\":7862:7959   */\n              tag_77\n              jump\t// in\n            tag_178:\n                /* \"#utility.yul\":7980:8019   */\n              tag_179\n                /* \"#utility.yul\":8010:8018   */\n              dup7\n                /* \"#utility.yul\":7999:8008   */\n              dup4\n                /* \"#utility.yul\":7980:8019   */\n              tag_77\n              jump\t// in\n            tag_179:\n                /* \"#utility.yul\":7968:8019   */\n              swap6\n              pop\n                /* \"#utility.yul\":8052:8056   */\n              dup1\n                /* \"#utility.yul\":8048:8057   */\n              not\n                /* \"#utility.yul\":8041:8046   */\n              dup5\n                /* \"#utility.yul\":8037:8058   */\n              and\n                /* \"#utility.yul\":8028:8058   */\n              swap4\n              pop\n                /* \"#utility.yul\":8101:8105   */\n              dup1\n                /* \"#utility.yul\":8091:8099   */\n              dup7\n                /* \"#utility.yul\":8087:8106   */\n              and\n                /* \"#utility.yul\":8080:8085   */\n              dup5\n                /* \"#utility.yul\":8077:8107   */\n              or\n                /* \"#utility.yul\":8067:8107   */\n              swap3\n              pop\n                /* \"#utility.yul\":7796:8113   */\n              pop\n              pop\n                /* \"#utility.yul\":7720:8113   */\n              swap4\n              swap3\n              pop\n              pop\n              pop\n              jump\t// out\n                /* \"#utility.yul\":8119:8179   */\n            tag_79:\n                /* \"#utility.yul\":8147:8150   */\n              0x00\n                /* \"#utility.yul\":8168:8173   */\n              dup2\n                /* \"#utility.yul\":8161:8173   */\n              swap1\n              pop\n                /* \"#utility.yul\":8119:8179   */\n              swap2\n              swap1\n              pop\n              jump\t// out\n                /* \"#utility.yul\":8185:8327   */\n            tag_80:\n                /* \"#utility.yul\":8235:8244   */\n              0x00\n                /* \"#utility.yul\":8268:8321   */\n              tag_182\n                /* \"#utility.yul\":8286:8320   */\n              tag_183\n                /* \"#utility.yul\":8295:8319   */\n              tag_184\n                /* \"#utility.yul\":8313:8318   */\n              dup5\n                /* \"#utility.yul\":8295:8319   */\n              tag_53\n              jump\t// in\n            tag_184:\n                /* \"#utility.yul\":8286:8320   */\n              tag_79\n              jump\t// in\n            tag_183:\n                /* \"#utility.yul\":8268:8321   */\n              tag_53\n              jump\t// in\n            tag_182:\n                /* \"#utility.yul\":8255:8321   */\n              swap1\n              pop\n                /* \"#utility.yul\":8185:8327   */\n              swap2\n              swap1\n              pop\n              jump\t// out\n                /* \"#utility.yul\":8333:8408   */\n            tag_81:\n                /* \"#utility.yul\":8376:8379   */\n              0x00\n                /* \"#utility.yul\":8397:8402   */\n              dup2\n                /* \"#utility.yul\":8390:8402   */\n              swap1\n              pop\n                /* \"#utility.yul\":8333:8408   */\n              swap2\n              swap1\n              pop\n              jump\t// out\n                /* \"#utility.yul\":8414:8683   */\n            tag_82:\n                /* \"#utility.yul\":8524:8563   */\n              tag_187\n                /* \"#utility.yul\":8555:8562   */\n              dup4\n                /* \"#utility.yul\":8524:8563   */\n              tag_80\n              jump\t// in\n            tag_187:\n                /* \"#utility.yul\":8585:8676   */\n              tag_188\n                /* \"#utility.yul\":8634:8675   */\n              tag_189\n                /* \"#utility.yul\":8658:8674   */\n              dup3\n                /* \"#utility.yul\":8634:8675   */\n              tag_81\n              jump\t// in\n            tag_189:\n                /* \"#utility.yul\":8626:8632   */\n              dup5\n                /* \"#utility.yul\":8619:8623   */\n              dup5\n                /* \"#utility.yul\":8613:8624   */\n              sload\n                /* \"#utility.yul\":8585:8676   */\n              tag_78\n              jump\t// in\n            tag_188:\n                /* \"#utility.yul\":8579:8583   */\n              dup3\n                /* \"#utility.yul\":8572:8677   */\n              sstore\n                /* \"#utility.yul\":8490:8683   */\n              pop\n                /* \"#utility.yul\":8414:8683   */\n              pop\n              pop\n              pop\n              jump\t// out\n                /* \"#utility.yul\":8689:8762   */\n            tag_83:\n                /* \"#utility.yul\":8734:8737   */\n              0x00\n                /* \"#utility.yul\":8689:8762   */\n              swap1\n              jump\t// out\n                /* \"#utility.yul\":8768:8957   */\n            tag_84:\n                /* \"#utility.yul\":8845:8877   */\n              tag_192\n              tag_83\n              jump\t// in\n            tag_192:\n                /* \"#utility.yul\":8886:8951   */\n              tag_193\n                /* \"#utility.yul\":8944:8950   */\n              dup2\n                /* \"#utility.yul\":8936:8942   */\n              dup5\n                /* \"#utility.yul\":8930:8934   */\n              dup5\n                /* \"#utility.yul\":8886:8951   */\n              tag_82\n              jump\t// in\n            tag_193:\n                /* \"#utility.yul\":8821:8957   */\n              pop\n                /* \"#utility.yul\":8768:8957   */\n              pop\n              pop\n              jump\t// out\n                /* \"#utility.yul\":8963:9149   */\n            tag_85:\n                /* \"#utility.yul\":9023:9143   */\n            tag_195:\n                /* \"#utility.yul\":9040:9043   */\n              dup2\n                /* \"#utility.yul\":9033:9038   */\n              dup2\n                /* \"#utility.yul\":9030:9044   */\n              lt\n                /* \"#utility.yul\":9023:9143   */\n              iszero\n              tag_197\n              jumpi\n                /* \"#utility.yul\":9094:9133   */\n              tag_198\n                /* \"#utility.yul\":9131:9132   */\n              0x00\n                /* \"#utility.yul\":9124:9129   */\n              dup3\n                /* \"#utility.yul\":9094:9133   */\n              tag_84\n              jump\t// in\n            tag_198:\n                /* \"#utility.yul\":9067:9068   */\n              0x01\n                /* \"#utility.yul\":9060:9065   */\n              dup2\n                /* \"#utility.yul\":9056:9069   */\n              add\n                /* \"#utility.yul\":9047:9069   */\n              swap1\n              pop\n                /* \"#utility.yul\":9023:9143   */\n              jump(tag_195)\n            tag_197:\n                /* \"#utility.yul\":8963:9149   */\n              pop\n              pop\n              jump\t// out\n                /* \"#utility.yul\":9155:9698   */\n            tag_86:\n                /* \"#utility.yul\":9256:9258   */\n              0x1f\n                /* \"#utility.yul\":9251:9254   */\n              dup3\n                /* \"#utility.yul\":9248:9259   */\n              gt\n                /* \"#utility.yul\":9245:9691   */\n              iszero\n              tag_200\n              jumpi\n                /* \"#utility.yul\":9290:9328   */\n              tag_201\n                /* \"#utility.yul\":9322:9327   */\n              dup2\n                /* \"#utility.yul\":9290:9328   */\n              tag_75\n              jump\t// in\n            tag_201:\n                /* \"#utility.yul\":9374:9403   */\n              tag_202\n                /* \"#utility.yul\":9392:9402   */\n              dup5\n                /* \"#utility.yul\":9374:9403   */\n              tag_76\n              jump\t// in\n            tag_202:\n                /* \"#utility.yul\":9364:9372   */\n              dup2\n                /* \"#utility.yul\":9360:9404   */\n              add\n                /* \"#utility.yul\":9557:9559   */\n              0x20\n                /* \"#utility.yul\":9545:9555   */\n              dup6\n                /* \"#utility.yul\":9542:9560   */\n              lt\n                /* \"#utility.yul\":9539:9588   */\n              iszero\n              tag_203\n              jumpi\n                /* \"#utility.yul\":9578:9586   */\n              dup2\n                /* \"#utility.yul\":9563:9586   */\n              swap1\n              pop\n                /* \"#utility.yul\":9539:9588   */\n            tag_203:\n                /* \"#utility.yul\":9601:9681   */\n              tag_204\n                /* \"#utility.yul\":9657:9679   */\n              tag_205\n                /* \"#utility.yul\":9675:9678   */\n              dup6\n                /* \"#utility.yul\":9657:9679   */\n              tag_76\n              jump\t// in\n            tag_205:\n                /* \"#utility.yul\":9647:9655   */\n              dup4\n                /* \"#utility.yul\":9643:9680   */\n              add\n                /* \"#utility.yul\":9630:9641   */\n              dup3\n                /* \"#utility.yul\":9601:9681   */\n              tag_85\n              jump\t// in\n            tag_204:\n                /* \"#utility.yul\":9260:9691   */\n              pop\n              pop\n                /* \"#utility.yul\":9245:9691   */\n            tag_200:\n                /* \"#utility.yul\":9155:9698   */\n              pop\n              pop\n              pop\n              jump\t// out\n                /* \"#utility.yul\":9704:9821   */\n            tag_87:\n                /* \"#utility.yul\":9758:9766   */\n              0x00\n                /* \"#utility.yul\":9808:9813   */\n              dup3\n                /* \"#utility.yul\":9802:9806   */\n              dup3\n                /* \"#utility.yul\":9798:9814   */\n              shr\n                /* \"#utility.yul\":9777:9814   */\n              swap1\n              pop\n                /* \"#utility.yul\":9704:9821   */\n              swap3\n              swap2\n              pop\n              pop\n              jump\t// out\n                /* \"#utility.yul\":9827:9996   */\n            tag_88:\n                /* \"#utility.yul\":9871:9877   */\n              0x00\n                /* \"#utility.yul\":9904:9955   */\n              tag_208\n                /* \"#utility.yul\":9952:9953   */\n              0x00\n                /* \"#utility.yul\":9948:9954   */\n              not\n                /* \"#utility.yul\":9940:9945   */\n              dup5\n                /* \"#utility.yul\":9937:9938   */\n              0x08\n                /* \"#utility.yul\":9933:9946   */\n              mul\n                /* \"#utility.yul\":9904:9955   */\n              tag_87\n              jump\t// in\n            tag_208:\n                /* \"#utility.yul\":9900:9956   */\n              not\n                /* \"#utility.yul\":9985:9989   */\n              dup1\n                /* \"#utility.yul\":9979:9983   */\n              dup4\n                /* \"#utility.yul\":9975:9990   */\n              and\n                /* \"#utility.yul\":9965:9990   */\n              swap2\n              pop\n                /* \"#utility.yul\":9878:9996   */\n              pop\n                /* \"#utility.yul\":9827:9996   */\n              swap3\n              swap2\n              pop\n              pop\n              jump\t// out\n                /* \"#utility.yul\":10001:10296   */\n            tag_89:\n                /* \"#utility.yul\":10077:10081   */\n              0x00\n                /* \"#utility.yul\":10223:10252   */\n              tag_210\n                /* \"#utility.yul\":10248:10251   */\n              dup4\n                /* \"#utility.yul\":10242:10246   */\n              dup4\n                /* \"#utility.yul\":10223:10252   */\n              tag_88\n              jump\t// in\n            tag_210:\n                /* \"#utility.yul\":10215:10252   */\n              swap2\n              pop\n                /* \"#utility.yul\":10285:10288   */\n              dup3\n                /* \"#utility.yul\":10282:10283   */\n              0x02\n                /* \"#utility.yul\":10278:10289   */\n              mul\n                /* \"#utility.yul\":10272:10276   */\n              dup3\n                /* \"#utility.yul\":10269:10290   */\n              or\n                /* \"#utility.yul\":10261:10290   */\n              swap1\n              pop\n                /* \"#utility.yul\":10001:10296   */\n              swap3\n              swap2\n              pop\n              pop\n              jump\t// out\n                /* \"#utility.yul\":10301:11696   */\n            tag_38:\n                /* \"#utility.yul\":10418:10455   */\n              tag_212\n                /* \"#utility.yul\":10451:10454   */\n              dup3\n                /* \"#utility.yul\":10418:10455   */\n              tag_70\n              jump\t// in\n            tag_212:\n                /* \"#utility.yul\":10520:10538   */\n              0xffffffffffffffff\n                /* \"#utility.yul\":10512:10518   */\n              dup2\n                /* \"#utility.yul\":10509:10539   */\n              gt\n                /* \"#utility.yul\":10506:10562   */\n              iszero\n              tag_213\n              jumpi\n                /* \"#utility.yul\":10542:10560   */\n              tag_214\n              tag_63\n              jump\t// in\n            tag_214:\n                /* \"#utility.yul\":10506:10562   */\n            tag_213:\n                /* \"#utility.yul\":10586:10624   */\n              tag_215\n                /* \"#utility.yul\":10618:10622   */\n              dup3\n                /* \"#utility.yul\":10612:10623   */\n              sload\n                /* \"#utility.yul\":10586:10624   */\n              tag_44\n              jump\t// in\n            tag_215:\n                /* \"#utility.yul\":10671:10738   */\n              tag_216\n                /* \"#utility.yul\":10731:10737   */\n              dup3\n                /* \"#utility.yul\":10723:10729   */\n              dup3\n                /* \"#utility.yul\":10717:10721   */\n              dup6\n                /* \"#utility.yul\":10671:10738   */\n              tag_86\n              jump\t// in\n            tag_216:\n                /* \"#utility.yul\":10765:10766   */\n              0x00\n                /* \"#utility.yul\":10789:10793   */\n              0x20\n                /* \"#utility.yul\":10776:10793   */\n              swap1\n              pop\n                /* \"#utility.yul\":10821:10823   */\n              0x1f\n                /* \"#utility.yul\":10813:10819   */\n              dup4\n                /* \"#utility.yul\":10810:10824   */\n              gt\n                /* \"#utility.yul\":10838:10839   */\n              0x01\n                /* \"#utility.yul\":10833:11451   */\n              dup2\n              eq\n              tag_218\n              jumpi\n                /* \"#utility.yul\":11495:11496   */\n              0x00\n                /* \"#utility.yul\":11512:11518   */\n              dup5\n                /* \"#utility.yul\":11509:11586   */\n              iszero\n              tag_219\n              jumpi\n                /* \"#utility.yul\":11561:11570   */\n              dup3\n                /* \"#utility.yul\":11556:11559   */\n              dup8\n                /* \"#utility.yul\":11552:11571   */\n              add\n                /* \"#utility.yul\":11546:11572   */\n              mload\n                /* \"#utility.yul\":11537:11572   */\n              swap1\n              pop\n                /* \"#utility.yul\":11509:11586   */\n            tag_219:\n                /* \"#utility.yul\":11612:11679   */\n              tag_220\n                /* \"#utility.yul\":11672:11678   */\n              dup6\n                /* \"#utility.yul\":11665:11670   */\n              dup3\n                /* \"#utility.yul\":11612:11679   */\n              tag_89\n              jump\t// in\n            tag_220:\n                /* \"#utility.yul\":11606:11610   */\n              dup7\n                /* \"#utility.yul\":11599:11680   */\n              sstore\n                /* \"#utility.yul\":11468:11690   */\n              pop\n                /* \"#utility.yul\":10803:11690   */\n              jump(tag_217)\n                /* \"#utility.yul\":10833:11451   */\n            tag_218:\n                /* \"#utility.yul\":10885:10889   */\n              0x1f\n                /* \"#utility.yul\":10881:10890   */\n              not\n                /* \"#utility.yul\":10873:10879   */\n              dup5\n                /* \"#utility.yul\":10869:10891   */\n              and\n                /* \"#utility.yul\":10919:10956   */\n              tag_221\n                /* \"#utility.yul\":10951:10955   */\n              dup7\n                /* \"#utility.yul\":10919:10956   */\n              tag_75\n              jump\t// in\n            tag_221:\n                /* \"#utility.yul\":10978:10979   */\n              0x00\n                /* \"#utility.yul\":10992:11200   */\n            tag_222:\n                /* \"#utility.yul\":11006:11013   */\n              dup3\n                /* \"#utility.yul\":11003:11004   */\n              dup2\n                /* \"#utility.yul\":11000:11014   */\n              lt\n                /* \"#utility.yul\":10992:11200   */\n              iszero\n              tag_224\n              jumpi\n                /* \"#utility.yul\":11085:11094   */\n              dup5\n                /* \"#utility.yul\":11080:11083   */\n              dup10\n                /* \"#utility.yul\":11076:11095   */\n              add\n                /* \"#utility.yul\":11070:11096   */\n              mload\n                /* \"#utility.yul\":11062:11068   */\n              dup3\n                /* \"#utility.yul\":11055:11097   */\n              sstore\n                /* \"#utility.yul\":11136:11137   */\n              0x01\n                /* \"#utility.yul\":11128:11134   */\n              dup3\n                /* \"#utility.yul\":11124:11138   */\n              add\n                /* \"#utility.yul\":11114:11138   */\n              swap2\n              pop\n                /* \"#utility.yul\":11183:11185   */\n              0x20\n                /* \"#utility.yul\":11172:11181   */\n              dup6\n                /* \"#utility.yul\":11168:11186   */\n              add\n                /* \"#utility.yul\":11155:11186   */\n              swap5\n              pop\n                /* \"#utility.yul\":11029:11033   */\n              0x20\n                /* \"#utility.yul\":11026:11027   */\n              dup2\n                /* \"#utility.yul\":11022:11034   */\n              add\n                /* \"#utility.yul\":11017:11034   */\n              swap1\n              pop\n                /* \"#utility.yul\":10992:11200   */\n              jump(tag_222)\n            tag_224:\n                /* \"#utility.yul\":11228:11234   */\n              dup7\n                /* \"#utility.yul\":11219:11226   */\n              dup4\n                /* \"#utility.yul\":11216:11235   */\n              lt\n                /* \"#utility.yul\":11213:11392   */\n              iszero\n              tag_225\n              jumpi\n                /* \"#utility.yul\":11286:11295   */\n              dup5\n                /* \"#utility.yul\":11281:11284   */\n              dup10\n                /* \"#utility.yul\":11277:11296   */\n              add\n                /* \"#utility.yul\":11271:11297   */\n              mload\n                /* \"#utility.yul\":11329:11377   */\n              tag_226\n                /* \"#utility.yul\":11371:11375   */\n              0x1f\n                /* \"#utility.yul\":11363:11369   */\n              dup10\n                /* \"#utility.yul\":11359:11376   */\n              and\n                /* \"#utility.yul\":11348:11357   */\n              dup3\n                /* \"#utility.yul\":11329:11377   */\n              tag_88\n              jump\t// in\n            tag_226:\n                /* \"#utility.yul\":11321:11327   */\n              dup4\n                /* \"#utility.yul\":11314:11378   */\n              sstore\n                /* \"#utility.yul\":11236:11392   */\n              pop\n                /* \"#utility.yul\":11213:11392   */\n            tag_225:\n                /* \"#utility.yul\":11438:11439   */\n              0x01\n                /* \"#utility.yul\":11434:11435   */\n              0x02\n                /* \"#utility.yul\":11426:11432   */\n              dup9\n                /* \"#utility.yul\":11422:11436   */\n              mul\n                /* \"#utility.yul\":11418:11440   */\n              add\n                /* \"#utility.yul\":11412:11416   */\n              dup9\n                /* \"#utility.yul\":11405:11441   */\n              sstore\n                /* \"#utility.yul\":10840:11451   */\n              pop\n              pop\n              pop\n                /* \"#utility.yul\":10803:11690   */\n            tag_217:\n              pop\n                /* \"#utility.yul\":10393:11696   */\n              pop\n              pop\n              pop\n                /* \"#utility.yul\":10301:11696   */\n              pop\n              pop\n              jump\t// out\n                /* \"#utility.yul\":11702:11850   */\n            tag_90:\n                /* \"#utility.yul\":11804:11815   */\n              0x00\n                /* \"#utility.yul\":11841:11844   */\n              dup2\n                /* \"#utility.yul\":11826:11844   */\n              swap1\n              pop\n                /* \"#utility.yul\":11702:11850   */\n              swap3\n              swap2\n              pop\n              pop\n              jump\t// out\n                /* \"#utility.yul\":11880:12210   */\n            tag_91:\n                /* \"#utility.yul\":11996:11999   */\n              0x00\n                /* \"#utility.yul\":12017:12106   */\n              tag_229\n                /* \"#utility.yul\":12099:12105   */\n              dup4\n                /* \"#utility.yul\":12094:12097   */\n              dup6\n                /* \"#utility.yul\":12017:12106   */\n              tag_90\n              jump\t// in\n            tag_229:\n                /* \"#utility.yul\":12010:12106   */\n              swap4\n              pop\n                /* \"#utility.yul\":12116:12172   */\n              tag_230\n                /* \"#utility.yul\":12165:12171   */\n              dup4\n                /* \"#utility.yul\":12160:12163   */\n              dup6\n                /* \"#utility.yul\":12153:12158   */\n              dup5\n                /* \"#utility.yul\":12116:12172   */\n              tag_67\n              jump\t// in\n            tag_230:\n                /* \"#utility.yul\":12197:12203   */\n              dup3\n                /* \"#utility.yul\":12192:12195   */\n              dup5\n                /* \"#utility.yul\":12188:12204   */\n              add\n                /* \"#utility.yul\":12181:12204   */\n              swap1\n              pop\n                /* \"#utility.yul\":11880:12210   */\n              swap4\n              swap3\n              pop\n              pop\n              pop\n              jump\t// out\n                /* \"#utility.yul\":12216:12511   */\n            tag_40:\n                /* \"#utility.yul\":12358:12361   */\n              0x00\n                /* \"#utility.yul\":12380:12485   */\n              tag_232\n                /* \"#utility.yul\":12481:12484   */\n              dup3\n                /* \"#utility.yul\":12472:12478   */\n              dup5\n                /* \"#utility.yul\":12464:12470   */\n              dup7\n                /* \"#utility.yul\":12380:12485   */\n              tag_91\n              jump\t// in\n            tag_232:\n                /* \"#utility.yul\":12373:12485   */\n              swap2\n              pop\n                /* \"#utility.yul\":12502:12505   */\n              dup2\n                /* \"#utility.yul\":12495:12505   */\n              swap1\n              pop\n                /* \"#utility.yul\":12216:12511   */\n              swap4\n              swap3\n              pop\n              pop\n              pop\n              jump\t// out\n\n            auxdata: 0xa264697066735822122055c9a5ff04f68d430e675ad46f45f8799f11fcde611f35bd9a7cc063f202686d64736f6c634300081a0033\n        }\n    }\n\n    auxdata: 0xa264697066735822122010752342aeccf06a1b03b3a0e9f7d9e56865dab51896c849c0aaef6b6a76b8e964736f6c634300081a0033\n}\n",
				"bytecode": {
					"linkReferences": {},
					"object": "6080604052348015600e575f80fd5b5061126c8061001c5f395ff3fe608060405234801561000f575f80fd5b5060043610610060575f3560e01c80631563700f146100645780631dda6541146100805780636a65513f1461008a5780637bd173b1146100a6578063c5f19c20146100d6578063f39f303514610106575b5f80fd5b61007e6004803603810190610079919061050d565b610136565b005b6100886101df565b005b6100a4600480360381019061009f91906105ac565b61026a565b005b6100c060048036038101906100bb919061061d565b610319565b6040516100cd9190610689565b60405180910390f35b6100f060048036038101906100eb91906106a2565b6103d7565b6040516100fd9190610689565b60405180910390f35b610120600480360381019061011b91906106a2565b61048b565b60405161012d9190610747565b60405180910390f35b5f80838154811061014a57610149610760565b5b905f5260205f20015f9054906101000a900473ffffffffffffffffffffffffffffffffffffffff1690508073ffffffffffffffffffffffffffffffffffffffff16636057361d836040518263ffffffff1660e01b81526004016101ad9190610689565b5f604051808303815f87803b1580156101c4575f80fd5b505af11580156101d6573d5f803e3d5ffd5b50505050505050565b5f6040516101ec906104c5565b604051809103905ff080158015610205573d5f803e3d5ffd5b5090505f81908060018154018082558091505060019003905f5260205f20015f9091909190916101000a81548173ffffffffffffffffffffffffffffffffffffffff021916908373ffffffffffffffffffffffffffffffffffffffff16021790555050565b5f80858154811061027e5761027d610760565b5b905f5260205f20015f9054906101000a900473ffffffffffffffffffffffffffffffffffffffff1690508073ffffffffffffffffffffffffffffffffffffffff16636f760f418585856040518463ffffffff1660e01b81526004016102e5939291906107e7565b5f604051808303815f87803b1580156102fc575f80fd5b505af115801561030e573d5f803e3d5ffd5b505050505050505050565b5f80848154811061032d5761032c610760565b5b905f5260205f20015f9054906101000a900473ffffffffffffffffffffffffffffffffffffffff1673ffffffffffffffffffffffffffffffffffffffff16638bab8dd584846040518363ffffffff1660e01b815260040161038f929190610817565b602060405180830381865afa1580156103aa573d5f803e3d5ffd5b505050506040513d601f19601f820116820180604052508101906103ce919061084d565b90509392505050565b5f805f83815481106103ec576103eb610760565b5b905f5260205f20015f9054906101000a900473ffffffffffffffffffffffffffffffffffffffff1690508073ffffffffffffffffffffffffffffffffffffffff1663b05784b86040518163ffffffff1660e01b8152600401602060405180830381865afa15801561045f573d5f803e3d5ffd5b505050506040513d601f19601f82011682018060405250810190610483919061084d565b915050919050565b5f8181548110610499575f80fd5b905f5260205f20015f915054906101000a900473ffffffffffffffffffffffffffffffffffffffff1681565b6109be8061087983390190565b5f80fd5b5f80fd5b5f819050919050565b6104ec816104da565b81146104f6575f80fd5b50565b5f81359050610507816104e3565b92915050565b5f8060408385031215610523576105226104d2565b5b5f610530858286016104f9565b9250506020610541858286016104f9565b9150509250929050565b5f80fd5b5f80fd5b5f80fd5b5f8083601f84011261056c5761056b61054b565b5b8235905067ffffffffffffffff8111156105895761058861054f565b5b6020830191508360018202830111156105a5576105a4610553565b5b9250929050565b5f805f80606085870312156105c4576105c36104d2565b5b5f6105d1878288016104f9565b945050602085013567ffffffffffffffff8111156105f2576105f16104d6565b5b6105fe87828801610557565b93509350506040610611878288016104f9565b91505092959194509250565b5f805f60408486031215610634576106336104d2565b5b5f610641868287016104f9565b935050602084013567ffffffffffffffff811115610662576106616104d6565b5b61066e86828701610557565b92509250509250925092565b610683816104da565b82525050565b5f60208201905061069c5f83018461067a565b92915050565b5f602082840312156106b7576106b66104d2565b5b5f6106c4848285016104f9565b91505092915050565b5f73ffffffffffffffffffffffffffffffffffffffff82169050919050565b5f819050919050565b5f61070f61070a610705846106cd565b6106ec565b6106cd565b9050919050565b5f610720826106f5565b9050919050565b5f61073182610716565b9050919050565b61074181610727565b82525050565b5f60208201905061075a5f830184610738565b92915050565b7f4e487b71000000000000000000000000000000000000000000000000000000005f52603260045260245ffd5b5f82825260208201905092915050565b828183375f83830152505050565b5f601f19601f8301169050919050565b5f6107c6838561078d565b93506107d383858461079d565b6107dc836107ab565b840190509392505050565b5f6040820190508181035f8301526108008185876107bb565b905061080f602083018461067a565b949350505050565b5f6020820190508181035f8301526108308184866107bb565b90509392505050565b5f81519050610847816104e3565b92915050565b5f60208284031215610862576108616104d2565b5b5f61086f84828501610839565b9150509291505056fe6080604052348015600e575f80fd5b506109a28061001c5f395ff3fe608060405234801561000f575f80fd5b5060043610610060575f3560e01c80636057361d146100645780636d83bc57146100805780636f760f411461009e5780638bab8dd5146100ba5780639e7a13ad146100ea578063b05784b81461011b575b5f80fd5b61007e6004803603810190610079919061033f565b610139565b005b610088610142565b6040516100959190610379565b60405180910390f35b6100b860048036038101906100b391906103f3565b610147565b005b6100d460048036038101906100cf9190610588565b610211565b6040516100e19190610379565b60405180910390f35b61010460048036038101906100ff919061033f565b61023e565b60405161011292919061062f565b60405180910390f35b6101236102f3565b6040516101309190610379565b60405180910390f35b805f8190555050565b5f5481565b6002604051806040016040528083815260200185858080601f0160208091040260200160405190810160405280939291908181526020018383808284375f81840152601f19601f82011690508083019250505050505050815250908060018154018082558091505060019003905f5260205f2090600202015f909190919091505f820151815f015560208201518160010190816101e49190610857565b50505080600184846040516101fa929190610954565b908152602001604051809103902081905550505050565b6001818051602081018201805184825260208301602085012081835280955050505050505f915090505481565b6002818154811061024d575f80fd5b905f5260205f2090600202015f91509050805f0154908060010180546102729061068a565b80601f016020809104026020016040519081016040528092919081815260200182805461029e9061068a565b80156102e95780601f106102c0576101008083540402835291602001916102e9565b820191905f5260205f20905b8154815290600101906020018083116102cc57829003601f168201915b5050505050905082565b5f8054905090565b5f604051905090565b5f80fd5b5f80fd5b5f819050919050565b61031e8161030c565b8114610328575f80fd5b50565b5f8135905061033981610315565b92915050565b5f6020828403121561035457610353610304565b5b5f6103618482850161032b565b91505092915050565b6103738161030c565b82525050565b5f60208201905061038c5f83018461036a565b92915050565b5f80fd5b5f80fd5b5f80fd5b5f8083601f8401126103b3576103b2610392565b5b8235905067ffffffffffffffff8111156103d0576103cf610396565b5b6020830191508360018202830111156103ec576103eb61039a565b5b9250929050565b5f805f6040848603121561040a57610409610304565b5b5f84013567ffffffffffffffff81111561042757610426610308565b5b6104338682870161039e565b935093505060206104468682870161032b565b9150509250925092565b5f80fd5b5f601f19601f8301169050919050565b7f4e487b71000000000000000000000000000000000000000000000000000000005f52604160045260245ffd5b61049a82610454565b810181811067ffffffffffffffff821117156104b9576104b8610464565b5b80604052505050565b5f6104cb6102fb565b90506104d78282610491565b919050565b5f67ffffffffffffffff8211156104f6576104f5610464565b5b6104ff82610454565b9050602081019050919050565b828183375f83830152505050565b5f61052c610527846104dc565b6104c2565b90508281526020810184848401111561054857610547610450565b5b61055384828561050c565b509392505050565b5f82601f83011261056f5761056e610392565b5b813561057f84826020860161051a565b91505092915050565b5f6020828403121561059d5761059c610304565b5b5f82013567ffffffffffffffff8111156105ba576105b9610308565b5b6105c68482850161055b565b91505092915050565b5f81519050919050565b5f82825260208201905092915050565b8281835e5f83830152505050565b5f610601826105cf565b61060b81856105d9565b935061061b8185602086016105e9565b61062481610454565b840191505092915050565b5f6040820190506106425f83018561036a565b818103602083015261065481846105f7565b90509392505050565b7f4e487b71000000000000000000000000000000000000000000000000000000005f52602260045260245ffd5b5f60028204905060018216806106a157607f821691505b6020821081036106b4576106b361065d565b5b50919050565b5f819050815f5260205f209050919050565b5f6020601f8301049050919050565b5f82821b905092915050565b5f600883026107167fffffffffffffffffffffffffffffffffffffffffffffffffffffffffffffffff826106db565b61072086836106db565b95508019841693508086168417925050509392505050565b5f819050919050565b5f61075b6107566107518461030c565b610738565b61030c565b9050919050565b5f819050919050565b61077483610741565b61078861078082610762565b8484546106e7565b825550505050565b5f90565b61079c610790565b6107a781848461076b565b505050565b5b818110156107ca576107bf5f82610794565b6001810190506107ad565b5050565b601f82111561080f576107e0816106ba565b6107e9846106cc565b810160208510156107f8578190505b61080c610804856106cc565b8301826107ac565b50505b505050565b5f82821c905092915050565b5f61082f5f1984600802610814565b1980831691505092915050565b5f6108478383610820565b9150826002028217905092915050565b610860826105cf565b67ffffffffffffffff81111561087957610878610464565b5b610883825461068a565b61088e8282856107ce565b5f60209050601f8311600181146108bf575f84156108ad578287015190505b6108b7858261083c565b86555061091e565b601f1984166108cd866106ba565b5f5b828110156108f4578489015182556001820191506020850194506020810190506108cf565b86831015610911578489015161090d601f891682610820565b8355505b6001600288020188555050505b505050505050565b5f81905092915050565b5f61093b8385610926565b935061094883858461050c565b82840190509392505050565b5f610960828486610930565b9150819050939250505056fea264697066735822122055c9a5ff04f68d430e675ad46f45f8799f11fcde611f35bd9a7cc063f202686d64736f6c634300081a0033a264697066735822122010752342aeccf06a1b03b3a0e9f7d9e56865dab51896c849c0aaef6b6a76b8e964736f6c634300081a0033",
					"opcodes": "PUSH1 0x80 PUSH1 0x40 MSTORE CALLVALUE DUP1 ISZERO PUSH1 0xE JUMPI PUSH0 DUP1 REVERT JUMPDEST POP PUSH2 0x126C DUP1 PUSH2 0x1C PUSH0 CODECOPY PUSH0 RETURN INVALID PUSH1 0x80 PUSH1 0x40 MSTORE CALLVALUE DUP1 ISZERO PUSH2 0xF JUMPI PUSH0 DUP1 REVERT JUMPDEST POP PUSH1 0x4 CALLDATASIZE LT PUSH2 0x60 JUMPI PUSH0 CALLDATALOAD PUSH1 0xE0 SHR DUP1 PUSH4 0x1563700F EQ PUSH2 0x64 JUMPI DUP1 PUSH4 0x1DDA6541 EQ PUSH2 0x80 JUMPI DUP1 PUSH4 0x6A65513F EQ PUSH2 0x8A JUMPI DUP1 PUSH4 0x7BD173B1 EQ PUSH2 0xA6 JUMPI DUP1 PUSH4 0xC5F19C20 EQ PUSH2 0xD6 JUMPI DUP1 PUSH4 0xF39F3035 EQ PUSH2 0x106 JUMPI JUMPDEST PUSH0 DUP1 REVERT JUMPDEST PUSH2 0x7E PUSH1 0x4 DUP1 CALLDATASIZE SUB DUP2 ADD SWAP1 PUSH2 0x79 SWAP2 SWAP1 PUSH2 0x50D JUMP JUMPDEST PUSH2 0x136 JUMP JUMPDEST STOP JUMPDEST PUSH2 0x88 PUSH2 0x1DF JUMP JUMPDEST STOP JUMPDEST PUSH2 0xA4 PUSH1 0x4 DUP1 CALLDATASIZE SUB DUP2 ADD SWAP1 PUSH2 0x9F SWAP2 SWAP1 PUSH2 0x5AC JUMP JUMPDEST PUSH2 0x26A JUMP JUMPDEST STOP JUMPDEST PUSH2 0xC0 PUSH1 0x4 DUP1 CALLDATASIZE SUB DUP2 ADD SWAP1 PUSH2 0xBB SWAP2 SWAP1 PUSH2 0x61D JUMP JUMPDEST PUSH2 0x319 JUMP JUMPDEST PUSH1 0x40 MLOAD PUSH2 0xCD SWAP2 SWAP1 PUSH2 0x689 JUMP JUMPDEST PUSH1 0x40 MLOAD DUP1 SWAP2 SUB SWAP1 RETURN JUMPDEST PUSH2 0xF0 PUSH1 0x4 DUP1 CALLDATASIZE SUB DUP2 ADD SWAP1 PUSH2 0xEB SWAP2 SWAP1 PUSH2 0x6A2 JUMP JUMPDEST PUSH2 0x3D7 JUMP JUMPDEST PUSH1 0x40 MLOAD PUSH2 0xFD SWAP2 SWAP1 PUSH2 0x689 JUMP JUMPDEST PUSH1 0x40 MLOAD DUP1 SWAP2 SUB SWAP1 RETURN JUMPDEST PUSH2 0x120 PUSH1 0x4 DUP1 CALLDATASIZE SUB DUP2 ADD SWAP1 PUSH2 0x11B SWAP2 SWAP1 PUSH2 0x6A2 JUMP JUMPDEST PUSH2 0x48B JUMP JUMPDEST PUSH1 0x40 MLOAD PUSH2 0x12D SWAP2 SWAP1 PUSH2 0x747 JUMP JUMPDEST PUSH1 0x40 MLOAD DUP1 SWAP2 SUB SWAP1 RETURN JUMPDEST PUSH0 DUP1 DUP4 DUP2 SLOAD DUP2 LT PUSH2 0x14A JUMPI PUSH2 0x149 PUSH2 0x760 JUMP JUMPDEST JUMPDEST SWAP1 PUSH0 MSTORE PUSH1 0x20 PUSH0 KECCAK256 ADD PUSH0 SWAP1 SLOAD SWAP1 PUSH2 0x100 EXP SWAP1 DIV PUSH20 0xFFFFFFFFFFFFFFFFFFFFFFFFFFFFFFFFFFFFFFFF AND SWAP1 POP DUP1 PUSH20 0xFFFFFFFFFFFFFFFFFFFFFFFFFFFFFFFFFFFFFFFF AND PUSH4 0x6057361D DUP4 PUSH1 0x40 MLOAD DUP3 PUSH4 0xFFFFFFFF AND PUSH1 0xE0 SHL DUP2 MSTORE PUSH1 0x4 ADD PUSH2 0x1AD SWAP2 SWAP1 PUSH2 0x689 JUMP JUMPDEST PUSH0 PUSH1 0x40 MLOAD DUP1 DUP4 SUB DUP2 PUSH0 DUP8 DUP1 EXTCODESIZE ISZERO DUP1 ISZERO PUSH2 0x1C4 JUMPI PUSH0 DUP1 REVERT JUMPDEST POP GAS CALL ISZERO DUP1 ISZERO PUSH2 0x1D6 JUMPI RETURNDATASIZE PUSH0 DUP1 RETURNDATACOPY RETURNDATASIZE PUSH0 REVERT JUMPDEST POP POP POP POP POP POP POP JUMP JUMPDEST PUSH0 PUSH1 0x40 MLOAD PUSH2 0x1EC SWAP1 PUSH2 0x4C5 JUMP JUMPDEST PUSH1 0x40 MLOAD DUP1 SWAP2 SUB SWAP1 PUSH0 CREATE DUP1 ISZERO DUP1 ISZERO PUSH2 0x205 JUMPI RETURNDATASIZE PUSH0 DUP1 RETURNDATACOPY RETURNDATASIZE PUSH0 REVERT JUMPDEST POP SWAP1 POP PUSH0 DUP2 SWAP1 DUP1 PUSH1 0x1 DUP2 SLOAD ADD DUP1 DUP3 SSTORE DUP1 SWAP2 POP POP PUSH1 0x1 SWAP1 SUB SWAP1 PUSH0 MSTORE PUSH1 0x20 PUSH0 KECCAK256 ADD PUSH0 SWAP1 SWAP2 SWAP1 SWAP2 SWAP1 SWAP2 PUSH2 0x100 EXP DUP2 SLOAD DUP2 PUSH20 0xFFFFFFFFFFFFFFFFFFFFFFFFFFFFFFFFFFFFFFFF MUL NOT AND SWAP1 DUP4 PUSH20 0xFFFFFFFFFFFFFFFFFFFFFFFFFFFFFFFFFFFFFFFF AND MUL OR SWAP1 SSTORE POP POP JUMP JUMPDEST PUSH0 DUP1 DUP6 DUP2 SLOAD DUP2 LT PUSH2 0x27E JUMPI PUSH2 0x27D PUSH2 0x760 JUMP JUMPDEST JUMPDEST SWAP1 PUSH0 MSTORE PUSH1 0x20 PUSH0 KECCAK256 ADD PUSH0 SWAP1 SLOAD SWAP1 PUSH2 0x100 EXP SWAP1 DIV PUSH20 0xFFFFFFFFFFFFFFFFFFFFFFFFFFFFFFFFFFFFFFFF AND SWAP1 POP DUP1 PUSH20 0xFFFFFFFFFFFFFFFFFFFFFFFFFFFFFFFFFFFFFFFF AND PUSH4 0x6F760F41 DUP6 DUP6 DUP6 PUSH1 0x40 MLOAD DUP5 PUSH4 0xFFFFFFFF AND PUSH1 0xE0 SHL DUP2 MSTORE PUSH1 0x4 ADD PUSH2 0x2E5 SWAP4 SWAP3 SWAP2 SWAP1 PUSH2 0x7E7 JUMP JUMPDEST PUSH0 PUSH1 0x40 MLOAD DUP1 DUP4 SUB DUP2 PUSH0 DUP8 DUP1 EXTCODESIZE ISZERO DUP1 ISZERO PUSH2 0x2FC JUMPI PUSH0 DUP1 REVERT JUMPDEST POP GAS CALL ISZERO DUP1 ISZERO PUSH2 0x30E JUMPI RETURNDATASIZE PUSH0 DUP1 RETURNDATACOPY RETURNDATASIZE PUSH0 REVERT JUMPDEST POP POP POP POP POP POP POP POP POP JUMP JUMPDEST PUSH0 DUP1 DUP5 DUP2 SLOAD DUP2 LT PUSH2 0x32D JUMPI PUSH2 0x32C PUSH2 0x760 JUMP JUMPDEST JUMPDEST SWAP1 PUSH0 MSTORE PUSH1 0x20 PUSH0 KECCAK256 ADD PUSH0 SWAP1 SLOAD SWAP1 PUSH2 0x100 EXP SWAP1 DIV PUSH20 0xFFFFFFFFFFFFFFFFFFFFFFFFFFFFFFFFFFFFFFFF AND PUSH20 0xFFFFFFFFFFFFFFFFFFFFFFFFFFFFFFFFFFFFFFFF AND PUSH4 0x8BAB8DD5 DUP5 DUP5 PUSH1 0x40 MLOAD DUP4 PUSH4 0xFFFFFFFF AND PUSH1 0xE0 SHL DUP2 MSTORE PUSH1 0x4 ADD PUSH2 0x38F SWAP3 SWAP2 SWAP1 PUSH2 0x817 JUMP JUMPDEST PUSH1 0x20 PUSH1 0x40 MLOAD DUP1 DUP4 SUB DUP2 DUP7 GAS STATICCALL ISZERO DUP1 ISZERO PUSH2 0x3AA JUMPI RETURNDATASIZE PUSH0 DUP1 RETURNDATACOPY RETURNDATASIZE PUSH0 REVERT JUMPDEST POP POP POP POP PUSH1 0x40 MLOAD RETURNDATASIZE PUSH1 0x1F NOT PUSH1 0x1F DUP3 ADD AND DUP3 ADD DUP1 PUSH1 0x40 MSTORE POP DUP2 ADD SWAP1 PUSH2 0x3CE SWAP2 SWAP1 PUSH2 0x84D JUMP JUMPDEST SWAP1 POP SWAP4 SWAP3 POP POP POP JUMP JUMPDEST PUSH0 DUP1 PUSH0 DUP4 DUP2 SLOAD DUP2 LT PUSH2 0x3EC JUMPI PUSH2 0x3EB PUSH2 0x760 JUMP JUMPDEST JUMPDEST SWAP1 PUSH0 MSTORE PUSH1 0x20 PUSH0 KECCAK256 ADD PUSH0 SWAP1 SLOAD SWAP1 PUSH2 0x100 EXP SWAP1 DIV PUSH20 0xFFFFFFFFFFFFFFFFFFFFFFFFFFFFFFFFFFFFFFFF AND SWAP1 POP DUP1 PUSH20 0xFFFFFFFFFFFFFFFFFFFFFFFFFFFFFFFFFFFFFFFF AND PUSH4 0xB05784B8 PUSH1 0x40 MLOAD DUP2 PUSH4 0xFFFFFFFF AND PUSH1 0xE0 SHL DUP2 MSTORE PUSH1 0x4 ADD PUSH1 0x20 PUSH1 0x40 MLOAD DUP1 DUP4 SUB DUP2 DUP7 GAS STATICCALL ISZERO DUP1 ISZERO PUSH2 0x45F JUMPI RETURNDATASIZE PUSH0 DUP1 RETURNDATACOPY RETURNDATASIZE PUSH0 REVERT JUMPDEST POP POP POP POP PUSH1 0x40 MLOAD RETURNDATASIZE PUSH1 0x1F NOT PUSH1 0x1F DUP3 ADD AND DUP3 ADD DUP1 PUSH1 0x40 MSTORE POP DUP2 ADD SWAP1 PUSH2 0x483 SWAP2 SWAP1 PUSH2 0x84D JUMP JUMPDEST SWAP2 POP POP SWAP2 SWAP1 POP JUMP JUMPDEST PUSH0 DUP2 DUP2 SLOAD DUP2 LT PUSH2 0x499 JUMPI PUSH0 DUP1 REVERT JUMPDEST SWAP1 PUSH0 MSTORE PUSH1 0x20 PUSH0 KECCAK256 ADD PUSH0 SWAP2 POP SLOAD SWAP1 PUSH2 0x100 EXP SWAP1 DIV PUSH20 0xFFFFFFFFFFFFFFFFFFFFFFFFFFFFFFFFFFFFFFFF AND DUP2 JUMP JUMPDEST PUSH2 0x9BE DUP1 PUSH2 0x879 DUP4 CODECOPY ADD SWAP1 JUMP JUMPDEST PUSH0 DUP1 REVERT JUMPDEST PUSH0 DUP1 REVERT JUMPDEST PUSH0 DUP2 SWAP1 POP SWAP2 SWAP1 POP JUMP JUMPDEST PUSH2 0x4EC DUP2 PUSH2 0x4DA JUMP JUMPDEST DUP2 EQ PUSH2 0x4F6 JUMPI PUSH0 DUP1 REVERT JUMPDEST POP JUMP JUMPDEST PUSH0 DUP2 CALLDATALOAD SWAP1 POP PUSH2 0x507 DUP2 PUSH2 0x4E3 JUMP JUMPDEST SWAP3 SWAP2 POP POP JUMP JUMPDEST PUSH0 DUP1 PUSH1 0x40 DUP4 DUP6 SUB SLT ISZERO PUSH2 0x523 JUMPI PUSH2 0x522 PUSH2 0x4D2 JUMP JUMPDEST JUMPDEST PUSH0 PUSH2 0x530 DUP6 DUP3 DUP7 ADD PUSH2 0x4F9 JUMP JUMPDEST SWAP3 POP POP PUSH1 0x20 PUSH2 0x541 DUP6 DUP3 DUP7 ADD PUSH2 0x4F9 JUMP JUMPDEST SWAP2 POP POP SWAP3 POP SWAP3 SWAP1 POP JUMP JUMPDEST PUSH0 DUP1 REVERT JUMPDEST PUSH0 DUP1 REVERT JUMPDEST PUSH0 DUP1 REVERT JUMPDEST PUSH0 DUP1 DUP4 PUSH1 0x1F DUP5 ADD SLT PUSH2 0x56C JUMPI PUSH2 0x56B PUSH2 0x54B JUMP JUMPDEST JUMPDEST DUP3 CALLDATALOAD SWAP1 POP PUSH8 0xFFFFFFFFFFFFFFFF DUP2 GT ISZERO PUSH2 0x589 JUMPI PUSH2 0x588 PUSH2 0x54F JUMP JUMPDEST JUMPDEST PUSH1 0x20 DUP4 ADD SWAP2 POP DUP4 PUSH1 0x1 DUP3 MUL DUP4 ADD GT ISZERO PUSH2 0x5A5 JUMPI PUSH2 0x5A4 PUSH2 0x553 JUMP JUMPDEST JUMPDEST SWAP3 POP SWAP3 SWAP1 POP JUMP JUMPDEST PUSH0 DUP1 PUSH0 DUP1 PUSH1 0x60 DUP6 DUP8 SUB SLT ISZERO PUSH2 0x5C4 JUMPI PUSH2 0x5C3 PUSH2 0x4D2 JUMP JUMPDEST JUMPDEST PUSH0 PUSH2 0x5D1 DUP8 DUP3 DUP9 ADD PUSH2 0x4F9 JUMP JUMPDEST SWAP5 POP POP PUSH1 0x20 DUP6 ADD CALLDATALOAD PUSH8 0xFFFFFFFFFFFFFFFF DUP2 GT ISZERO PUSH2 0x5F2 JUMPI PUSH2 0x5F1 PUSH2 0x4D6 JUMP JUMPDEST JUMPDEST PUSH2 0x5FE DUP8 DUP3 DUP9 ADD PUSH2 0x557 JUMP JUMPDEST SWAP4 POP SWAP4 POP POP PUSH1 0x40 PUSH2 0x611 DUP8 DUP3 DUP9 ADD PUSH2 0x4F9 JUMP JUMPDEST SWAP2 POP POP SWAP3 SWAP6 SWAP2 SWAP5 POP SWAP3 POP JUMP JUMPDEST PUSH0 DUP1 PUSH0 PUSH1 0x40 DUP5 DUP7 SUB SLT ISZERO PUSH2 0x634 JUMPI PUSH2 0x633 PUSH2 0x4D2 JUMP JUMPDEST JUMPDEST PUSH0 PUSH2 0x641 DUP7 DUP3 DUP8 ADD PUSH2 0x4F9 JUMP JUMPDEST SWAP4 POP POP PUSH1 0x20 DUP5 ADD CALLDATALOAD PUSH8 0xFFFFFFFFFFFFFFFF DUP2 GT ISZERO PUSH2 0x662 JUMPI PUSH2 0x661 PUSH2 0x4D6 JUMP JUMPDEST JUMPDEST PUSH2 0x66E DUP7 DUP3 DUP8 ADD PUSH2 0x557 JUMP JUMPDEST SWAP3 POP SWAP3 POP POP SWAP3 POP SWAP3 POP SWAP3 JUMP JUMPDEST PUSH2 0x683 DUP2 PUSH2 0x4DA JUMP JUMPDEST DUP3 MSTORE POP POP JUMP JUMPDEST PUSH0 PUSH1 0x20 DUP3 ADD SWAP1 POP PUSH2 0x69C PUSH0 DUP4 ADD DUP5 PUSH2 0x67A JUMP JUMPDEST SWAP3 SWAP2 POP POP JUMP JUMPDEST PUSH0 PUSH1 0x20 DUP3 DUP5 SUB SLT ISZERO PUSH2 0x6B7 JUMPI PUSH2 0x6B6 PUSH2 0x4D2 JUMP JUMPDEST JUMPDEST PUSH0 PUSH2 0x6C4 DUP5 DUP3 DUP6 ADD PUSH2 0x4F9 JUMP JUMPDEST SWAP2 POP POP SWAP3 SWAP2 POP POP JUMP JUMPDEST PUSH0 PUSH20 0xFFFFFFFFFFFFFFFFFFFFFFFFFFFFFFFFFFFFFFFF DUP3 AND SWAP1 POP SWAP2 SWAP1 POP JUMP JUMPDEST PUSH0 DUP2 SWAP1 POP SWAP2 SWAP1 POP JUMP JUMPDEST PUSH0 PUSH2 0x70F PUSH2 0x70A PUSH2 0x705 DUP5 PUSH2 0x6CD JUMP JUMPDEST PUSH2 0x6EC JUMP JUMPDEST PUSH2 0x6CD JUMP JUMPDEST SWAP1 POP SWAP2 SWAP1 POP JUMP JUMPDEST PUSH0 PUSH2 0x720 DUP3 PUSH2 0x6F5 JUMP JUMPDEST SWAP1 POP SWAP2 SWAP1 POP JUMP JUMPDEST PUSH0 PUSH2 0x731 DUP3 PUSH2 0x716 JUMP JUMPDEST SWAP1 POP SWAP2 SWAP1 POP JUMP JUMPDEST PUSH2 0x741 DUP2 PUSH2 0x727 JUMP JUMPDEST DUP3 MSTORE POP POP JUMP JUMPDEST PUSH0 PUSH1 0x20 DUP3 ADD SWAP1 POP PUSH2 0x75A PUSH0 DUP4 ADD DUP5 PUSH2 0x738 JUMP JUMPDEST SWAP3 SWAP2 POP POP JUMP JUMPDEST PUSH32 0x4E487B7100000000000000000000000000000000000000000000000000000000 PUSH0 MSTORE PUSH1 0x32 PUSH1 0x4 MSTORE PUSH1 0x24 PUSH0 REVERT JUMPDEST PUSH0 DUP3 DUP3 MSTORE PUSH1 0x20 DUP3 ADD SWAP1 POP SWAP3 SWAP2 POP POP JUMP JUMPDEST DUP3 DUP2 DUP4 CALLDATACOPY PUSH0 DUP4 DUP4 ADD MSTORE POP POP POP JUMP JUMPDEST PUSH0 PUSH1 0x1F NOT PUSH1 0x1F DUP4 ADD AND SWAP1 POP SWAP2 SWAP1 POP JUMP JUMPDEST PUSH0 PUSH2 0x7C6 DUP4 DUP6 PUSH2 0x78D JUMP JUMPDEST SWAP4 POP PUSH2 0x7D3 DUP4 DUP6 DUP5 PUSH2 0x79D JUMP JUMPDEST PUSH2 0x7DC DUP4 PUSH2 0x7AB JUMP JUMPDEST DUP5 ADD SWAP1 POP SWAP4 SWAP3 POP POP POP JUMP JUMPDEST PUSH0 PUSH1 0x40 DUP3 ADD SWAP1 POP DUP2 DUP2 SUB PUSH0 DUP4 ADD MSTORE PUSH2 0x800 DUP2 DUP6 DUP8 PUSH2 0x7BB JUMP JUMPDEST SWAP1 POP PUSH2 0x80F PUSH1 0x20 DUP4 ADD DUP5 PUSH2 0x67A JUMP JUMPDEST SWAP5 SWAP4 POP POP POP POP JUMP JUMPDEST PUSH0 PUSH1 0x20 DUP3 ADD SWAP1 POP DUP2 DUP2 SUB PUSH0 DUP4 ADD MSTORE PUSH2 0x830 DUP2 DUP5 DUP7 PUSH2 0x7BB JUMP JUMPDEST SWAP1 POP SWAP4 SWAP3 POP POP POP JUMP JUMPDEST PUSH0 DUP2 MLOAD SWAP1 POP PUSH2 0x847 DUP2 PUSH2 0x4E3 JUMP JUMPDEST SWAP3 SWAP2 POP POP JUMP JUMPDEST PUSH0 PUSH1 0x20 DUP3 DUP5 SUB SLT ISZERO PUSH2 0x862 JUMPI PUSH2 0x861 PUSH2 0x4D2 JUMP JUMPDEST JUMPDEST PUSH0 PUSH2 0x86F DUP5 DUP3 DUP6 ADD PUSH2 0x839 JUMP JUMPDEST SWAP2 POP POP SWAP3 SWAP2 POP POP JUMP INVALID PUSH1 0x80 PUSH1 0x40 MSTORE CALLVALUE DUP1 ISZERO PUSH1 0xE JUMPI PUSH0 DUP1 REVERT JUMPDEST POP PUSH2 0x9A2 DUP1 PUSH2 0x1C PUSH0 CODECOPY PUSH0 RETURN INVALID PUSH1 0x80 PUSH1 0x40 MSTORE CALLVALUE DUP1 ISZERO PUSH2 0xF JUMPI PUSH0 DUP1 REVERT JUMPDEST POP PUSH1 0x4 CALLDATASIZE LT PUSH2 0x60 JUMPI PUSH0 CALLDATALOAD PUSH1 0xE0 SHR DUP1 PUSH4 0x6057361D EQ PUSH2 0x64 JUMPI DUP1 PUSH4 0x6D83BC57 EQ PUSH2 0x80 JUMPI DUP1 PUSH4 0x6F760F41 EQ PUSH2 0x9E JUMPI DUP1 PUSH4 0x8BAB8DD5 EQ PUSH2 0xBA JUMPI DUP1 PUSH4 0x9E7A13AD EQ PUSH2 0xEA JUMPI DUP1 PUSH4 0xB05784B8 EQ PUSH2 0x11B JUMPI JUMPDEST PUSH0 DUP1 REVERT JUMPDEST PUSH2 0x7E PUSH1 0x4 DUP1 CALLDATASIZE SUB DUP2 ADD SWAP1 PUSH2 0x79 SWAP2 SWAP1 PUSH2 0x33F JUMP JUMPDEST PUSH2 0x139 JUMP JUMPDEST STOP JUMPDEST PUSH2 0x88 PUSH2 0x142 JUMP JUMPDEST PUSH1 0x40 MLOAD PUSH2 0x95 SWAP2 SWAP1 PUSH2 0x379 JUMP JUMPDEST PUSH1 0x40 MLOAD DUP1 SWAP2 SUB SWAP1 RETURN JUMPDEST PUSH2 0xB8 PUSH1 0x4 DUP1 CALLDATASIZE SUB DUP2 ADD SWAP1 PUSH2 0xB3 SWAP2 SWAP1 PUSH2 0x3F3 JUMP JUMPDEST PUSH2 0x147 JUMP JUMPDEST STOP JUMPDEST PUSH2 0xD4 PUSH1 0x4 DUP1 CALLDATASIZE SUB DUP2 ADD SWAP1 PUSH2 0xCF SWAP2 SWAP1 PUSH2 0x588 JUMP JUMPDEST PUSH2 0x211 JUMP JUMPDEST PUSH1 0x40 MLOAD PUSH2 0xE1 SWAP2 SWAP1 PUSH2 0x379 JUMP JUMPDEST PUSH1 0x40 MLOAD DUP1 SWAP2 SUB SWAP1 RETURN JUMPDEST PUSH2 0x104 PUSH1 0x4 DUP1 CALLDATASIZE SUB DUP2 ADD SWAP1 PUSH2 0xFF SWAP2 SWAP1 PUSH2 0x33F JUMP JUMPDEST PUSH2 0x23E JUMP JUMPDEST PUSH1 0x40 MLOAD PUSH2 0x112 SWAP3 SWAP2 SWAP1 PUSH2 0x62F JUMP JUMPDEST PUSH1 0x40 MLOAD DUP1 SWAP2 SUB SWAP1 RETURN JUMPDEST PUSH2 0x123 PUSH2 0x2F3 JUMP JUMPDEST PUSH1 0x40 MLOAD PUSH2 0x130 SWAP2 SWAP1 PUSH2 0x379 JUMP JUMPDEST PUSH1 0x40 MLOAD DUP1 SWAP2 SUB SWAP1 RETURN JUMPDEST DUP1 PUSH0 DUP2 SWAP1 SSTORE POP POP JUMP JUMPDEST PUSH0 SLOAD DUP2 JUMP JUMPDEST PUSH1 0x2 PUSH1 0x40 MLOAD DUP1 PUSH1 0x40 ADD PUSH1 0x40 MSTORE DUP1 DUP4 DUP2 MSTORE PUSH1 0x20 ADD DUP6 DUP6 DUP1 DUP1 PUSH1 0x1F ADD PUSH1 0x20 DUP1 SWAP2 DIV MUL PUSH1 0x20 ADD PUSH1 0x40 MLOAD SWAP1 DUP2 ADD PUSH1 0x40 MSTORE DUP1 SWAP4 SWAP3 SWAP2 SWAP1 DUP2 DUP2 MSTORE PUSH1 0x20 ADD DUP4 DUP4 DUP1 DUP3 DUP5 CALLDATACOPY PUSH0 DUP2 DUP5 ADD MSTORE PUSH1 0x1F NOT PUSH1 0x1F DUP3 ADD AND SWAP1 POP DUP1 DUP4 ADD SWAP3 POP POP POP POP POP POP POP DUP2 MSTORE POP SWAP1 DUP1 PUSH1 0x1 DUP2 SLOAD ADD DUP1 DUP3 SSTORE DUP1 SWAP2 POP POP PUSH1 0x1 SWAP1 SUB SWAP1 PUSH0 MSTORE PUSH1 0x20 PUSH0 KECCAK256 SWAP1 PUSH1 0x2 MUL ADD PUSH0 SWAP1 SWAP2 SWAP1 SWAP2 SWAP1 SWAP2 POP PUSH0 DUP3 ADD MLOAD DUP2 PUSH0 ADD SSTORE PUSH1 0x20 DUP3 ADD MLOAD DUP2 PUSH1 0x1 ADD SWAP1 DUP2 PUSH2 0x1E4 SWAP2 SWAP1 PUSH2 0x857 JUMP JUMPDEST POP POP POP DUP1 PUSH1 0x1 DUP5 DUP5 PUSH1 0x40 MLOAD PUSH2 0x1FA SWAP3 SWAP2 SWAP1 PUSH2 0x954 JUMP JUMPDEST SWAP1 DUP2 MSTORE PUSH1 0x20 ADD PUSH1 0x40 MLOAD DUP1 SWAP2 SUB SWAP1 KECCAK256 DUP2 SWAP1 SSTORE POP POP POP POP JUMP JUMPDEST PUSH1 0x1 DUP2 DUP1 MLOAD PUSH1 0x20 DUP2 ADD DUP3 ADD DUP1 MLOAD DUP5 DUP3 MSTORE PUSH1 0x20 DUP4 ADD PUSH1 0x20 DUP6 ADD KECCAK256 DUP2 DUP4 MSTORE DUP1 SWAP6 POP POP POP POP POP POP PUSH0 SWAP2 POP SWAP1 POP SLOAD DUP2 JUMP JUMPDEST PUSH1 0x2 DUP2 DUP2 SLOAD DUP2 LT PUSH2 0x24D JUMPI PUSH0 DUP1 REVERT JUMPDEST SWAP1 PUSH0 MSTORE PUSH1 0x20 PUSH0 KECCAK256 SWAP1 PUSH1 0x2 MUL ADD PUSH0 SWAP2 POP SWAP1 POP DUP1 PUSH0 ADD SLOAD SWAP1 DUP1 PUSH1 0x1 ADD DUP1 SLOAD PUSH2 0x272 SWAP1 PUSH2 0x68A JUMP JUMPDEST DUP1 PUSH1 0x1F ADD PUSH1 0x20 DUP1 SWAP2 DIV MUL PUSH1 0x20 ADD PUSH1 0x40 MLOAD SWAP1 DUP2 ADD PUSH1 0x40 MSTORE DUP1 SWAP3 SWAP2 SWAP1 DUP2 DUP2 MSTORE PUSH1 0x20 ADD DUP3 DUP1 SLOAD PUSH2 0x29E SWAP1 PUSH2 0x68A JUMP JUMPDEST DUP1 ISZERO PUSH2 0x2E9 JUMPI DUP1 PUSH1 0x1F LT PUSH2 0x2C0 JUMPI PUSH2 0x100 DUP1 DUP4 SLOAD DIV MUL DUP4 MSTORE SWAP2 PUSH1 0x20 ADD SWAP2 PUSH2 0x2E9 JUMP JUMPDEST DUP3 ADD SWAP2 SWAP1 PUSH0 MSTORE PUSH1 0x20 PUSH0 KECCAK256 SWAP1 JUMPDEST DUP2 SLOAD DUP2 MSTORE SWAP1 PUSH1 0x1 ADD SWAP1 PUSH1 0x20 ADD DUP1 DUP4 GT PUSH2 0x2CC JUMPI DUP3 SWAP1 SUB PUSH1 0x1F AND DUP3 ADD SWAP2 JUMPDEST POP POP POP POP POP SWAP1 POP DUP3 JUMP JUMPDEST PUSH0 DUP1 SLOAD SWAP1 POP SWAP1 JUMP JUMPDEST PUSH0 PUSH1 0x40 MLOAD SWAP1 POP SWAP1 JUMP JUMPDEST PUSH0 DUP1 REVERT JUMPDEST PUSH0 DUP1 REVERT JUMPDEST PUSH0 DUP2 SWAP1 POP SWAP2 SWAP1 POP JUMP JUMPDEST PUSH2 0x31E DUP2 PUSH2 0x30C JUMP JUMPDEST DUP2 EQ PUSH2 0x328 JUMPI PUSH0 DUP1 REVERT JUMPDEST POP JUMP JUMPDEST PUSH0 DUP2 CALLDATALOAD SWAP1 POP PUSH2 0x339 DUP2 PUSH2 0x315 JUMP JUMPDEST SWAP3 SWAP2 POP POP JUMP JUMPDEST PUSH0 PUSH1 0x20 DUP3 DUP5 SUB SLT ISZERO PUSH2 0x354 JUMPI PUSH2 0x353 PUSH2 0x304 JUMP JUMPDEST JUMPDEST PUSH0 PUSH2 0x361 DUP5 DUP3 DUP6 ADD PUSH2 0x32B JUMP JUMPDEST SWAP2 POP POP SWAP3 SWAP2 POP POP JUMP JUMPDEST PUSH2 0x373 DUP2 PUSH2 0x30C JUMP JUMPDEST DUP3 MSTORE POP POP JUMP JUMPDEST PUSH0 PUSH1 0x20 DUP3 ADD SWAP1 POP PUSH2 0x38C PUSH0 DUP4 ADD DUP5 PUSH2 0x36A JUMP JUMPDEST SWAP3 SWAP2 POP POP JUMP JUMPDEST PUSH0 DUP1 REVERT JUMPDEST PUSH0 DUP1 REVERT JUMPDEST PUSH0 DUP1 REVERT JUMPDEST PUSH0 DUP1 DUP4 PUSH1 0x1F DUP5 ADD SLT PUSH2 0x3B3 JUMPI PUSH2 0x3B2 PUSH2 0x392 JUMP JUMPDEST JUMPDEST DUP3 CALLDATALOAD SWAP1 POP PUSH8 0xFFFFFFFFFFFFFFFF DUP2 GT ISZERO PUSH2 0x3D0 JUMPI PUSH2 0x3CF PUSH2 0x396 JUMP JUMPDEST JUMPDEST PUSH1 0x20 DUP4 ADD SWAP2 POP DUP4 PUSH1 0x1 DUP3 MUL DUP4 ADD GT ISZERO PUSH2 0x3EC JUMPI PUSH2 0x3EB PUSH2 0x39A JUMP JUMPDEST JUMPDEST SWAP3 POP SWAP3 SWAP1 POP JUMP JUMPDEST PUSH0 DUP1 PUSH0 PUSH1 0x40 DUP5 DUP7 SUB SLT ISZERO PUSH2 0x40A JUMPI PUSH2 0x409 PUSH2 0x304 JUMP JUMPDEST JUMPDEST PUSH0 DUP5 ADD CALLDATALOAD PUSH8 0xFFFFFFFFFFFFFFFF DUP2 GT ISZERO PUSH2 0x427 JUMPI PUSH2 0x426 PUSH2 0x308 JUMP JUMPDEST JUMPDEST PUSH2 0x433 DUP7 DUP3 DUP8 ADD PUSH2 0x39E JUMP JUMPDEST SWAP4 POP SWAP4 POP POP PUSH1 0x20 PUSH2 0x446 DUP7 DUP3 DUP8 ADD PUSH2 0x32B JUMP JUMPDEST SWAP2 POP POP SWAP3 POP SWAP3 POP SWAP3 JUMP JUMPDEST PUSH0 DUP1 REVERT JUMPDEST PUSH0 PUSH1 0x1F NOT PUSH1 0x1F DUP4 ADD AND SWAP1 POP SWAP2 SWAP1 POP JUMP JUMPDEST PUSH32 0x4E487B7100000000000000000000000000000000000000000000000000000000 PUSH0 MSTORE PUSH1 0x41 PUSH1 0x4 MSTORE PUSH1 0x24 PUSH0 REVERT JUMPDEST PUSH2 0x49A DUP3 PUSH2 0x454 JUMP JUMPDEST DUP2 ADD DUP2 DUP2 LT PUSH8 0xFFFFFFFFFFFFFFFF DUP3 GT OR ISZERO PUSH2 0x4B9 JUMPI PUSH2 0x4B8 PUSH2 0x464 JUMP JUMPDEST JUMPDEST DUP1 PUSH1 0x40 MSTORE POP POP POP JUMP JUMPDEST PUSH0 PUSH2 0x4CB PUSH2 0x2FB JUMP JUMPDEST SWAP1 POP PUSH2 0x4D7 DUP3 DUP3 PUSH2 0x491 JUMP JUMPDEST SWAP2 SWAP1 POP JUMP JUMPDEST PUSH0 PUSH8 0xFFFFFFFFFFFFFFFF DUP3 GT ISZERO PUSH2 0x4F6 JUMPI PUSH2 0x4F5 PUSH2 0x464 JUMP JUMPDEST JUMPDEST PUSH2 0x4FF DUP3 PUSH2 0x454 JUMP JUMPDEST SWAP1 POP PUSH1 0x20 DUP2 ADD SWAP1 POP SWAP2 SWAP1 POP JUMP JUMPDEST DUP3 DUP2 DUP4 CALLDATACOPY PUSH0 DUP4 DUP4 ADD MSTORE POP POP POP JUMP JUMPDEST PUSH0 PUSH2 0x52C PUSH2 0x527 DUP5 PUSH2 0x4DC JUMP JUMPDEST PUSH2 0x4C2 JUMP JUMPDEST SWAP1 POP DUP3 DUP2 MSTORE PUSH1 0x20 DUP2 ADD DUP5 DUP5 DUP5 ADD GT ISZERO PUSH2 0x548 JUMPI PUSH2 0x547 PUSH2 0x450 JUMP JUMPDEST JUMPDEST PUSH2 0x553 DUP5 DUP3 DUP6 PUSH2 0x50C JUMP JUMPDEST POP SWAP4 SWAP3 POP POP POP JUMP JUMPDEST PUSH0 DUP3 PUSH1 0x1F DUP4 ADD SLT PUSH2 0x56F JUMPI PUSH2 0x56E PUSH2 0x392 JUMP JUMPDEST JUMPDEST DUP2 CALLDATALOAD PUSH2 0x57F DUP5 DUP3 PUSH1 0x20 DUP7 ADD PUSH2 0x51A JUMP JUMPDEST SWAP2 POP POP SWAP3 SWAP2 POP POP JUMP JUMPDEST PUSH0 PUSH1 0x20 DUP3 DUP5 SUB SLT ISZERO PUSH2 0x59D JUMPI PUSH2 0x59C PUSH2 0x304 JUMP JUMPDEST JUMPDEST PUSH0 DUP3 ADD CALLDATALOAD PUSH8 0xFFFFFFFFFFFFFFFF DUP2 GT ISZERO PUSH2 0x5BA JUMPI PUSH2 0x5B9 PUSH2 0x308 JUMP JUMPDEST JUMPDEST PUSH2 0x5C6 DUP5 DUP3 DUP6 ADD PUSH2 0x55B JUMP JUMPDEST SWAP2 POP POP SWAP3 SWAP2 POP POP JUMP JUMPDEST PUSH0 DUP2 MLOAD SWAP1 POP SWAP2 SWAP1 POP JUMP JUMPDEST PUSH0 DUP3 DUP3 MSTORE PUSH1 0x20 DUP3 ADD SWAP1 POP SWAP3 SWAP2 POP POP JUMP JUMPDEST DUP3 DUP2 DUP4 MCOPY PUSH0 DUP4 DUP4 ADD MSTORE POP POP POP JUMP JUMPDEST PUSH0 PUSH2 0x601 DUP3 PUSH2 0x5CF JUMP JUMPDEST PUSH2 0x60B DUP2 DUP6 PUSH2 0x5D9 JUMP JUMPDEST SWAP4 POP PUSH2 0x61B DUP2 DUP6 PUSH1 0x20 DUP7 ADD PUSH2 0x5E9 JUMP JUMPDEST PUSH2 0x624 DUP2 PUSH2 0x454 JUMP JUMPDEST DUP5 ADD SWAP2 POP POP SWAP3 SWAP2 POP POP JUMP JUMPDEST PUSH0 PUSH1 0x40 DUP3 ADD SWAP1 POP PUSH2 0x642 PUSH0 DUP4 ADD DUP6 PUSH2 0x36A JUMP JUMPDEST DUP2 DUP2 SUB PUSH1 0x20 DUP4 ADD MSTORE PUSH2 0x654 DUP2 DUP5 PUSH2 0x5F7 JUMP JUMPDEST SWAP1 POP SWAP4 SWAP3 POP POP POP JUMP JUMPDEST PUSH32 0x4E487B7100000000000000000000000000000000000000000000000000000000 PUSH0 MSTORE PUSH1 0x22 PUSH1 0x4 MSTORE PUSH1 0x24 PUSH0 REVERT JUMPDEST PUSH0 PUSH1 0x2 DUP3 DIV SWAP1 POP PUSH1 0x1 DUP3 AND DUP1 PUSH2 0x6A1 JUMPI PUSH1 0x7F DUP3 AND SWAP2 POP JUMPDEST PUSH1 0x20 DUP3 LT DUP2 SUB PUSH2 0x6B4 JUMPI PUSH2 0x6B3 PUSH2 0x65D JUMP JUMPDEST JUMPDEST POP SWAP2 SWAP1 POP JUMP JUMPDEST PUSH0 DUP2 SWAP1 POP DUP2 PUSH0 MSTORE PUSH1 0x20 PUSH0 KECCAK256 SWAP1 POP SWAP2 SWAP1 POP JUMP JUMPDEST PUSH0 PUSH1 0x20 PUSH1 0x1F DUP4 ADD DIV SWAP1 POP SWAP2 SWAP1 POP JUMP JUMPDEST PUSH0 DUP3 DUP3 SHL SWAP1 POP SWAP3 SWAP2 POP POP JUMP JUMPDEST PUSH0 PUSH1 0x8 DUP4 MUL PUSH2 0x716 PUSH32 0xFFFFFFFFFFFFFFFFFFFFFFFFFFFFFFFFFFFFFFFFFFFFFFFFFFFFFFFFFFFFFFFF DUP3 PUSH2 0x6DB JUMP JUMPDEST PUSH2 0x720 DUP7 DUP4 PUSH2 0x6DB JUMP JUMPDEST SWAP6 POP DUP1 NOT DUP5 AND SWAP4 POP DUP1 DUP7 AND DUP5 OR SWAP3 POP POP POP SWAP4 SWAP3 POP POP POP JUMP JUMPDEST PUSH0 DUP2 SWAP1 POP SWAP2 SWAP1 POP JUMP JUMPDEST PUSH0 PUSH2 0x75B PUSH2 0x756 PUSH2 0x751 DUP5 PUSH2 0x30C JUMP JUMPDEST PUSH2 0x738 JUMP JUMPDEST PUSH2 0x30C JUMP JUMPDEST SWAP1 POP SWAP2 SWAP1 POP JUMP JUMPDEST PUSH0 DUP2 SWAP1 POP SWAP2 SWAP1 POP JUMP JUMPDEST PUSH2 0x774 DUP4 PUSH2 0x741 JUMP JUMPDEST PUSH2 0x788 PUSH2 0x780 DUP3 PUSH2 0x762 JUMP JUMPDEST DUP5 DUP5 SLOAD PUSH2 0x6E7 JUMP JUMPDEST DUP3 SSTORE POP POP POP POP JUMP JUMPDEST PUSH0 SWAP1 JUMP JUMPDEST PUSH2 0x79C PUSH2 0x790 JUMP JUMPDEST PUSH2 0x7A7 DUP2 DUP5 DUP5 PUSH2 0x76B JUMP JUMPDEST POP POP POP JUMP JUMPDEST JUMPDEST DUP2 DUP2 LT ISZERO PUSH2 0x7CA JUMPI PUSH2 0x7BF PUSH0 DUP3 PUSH2 0x794 JUMP JUMPDEST PUSH1 0x1 DUP2 ADD SWAP1 POP PUSH2 0x7AD JUMP JUMPDEST POP POP JUMP JUMPDEST PUSH1 0x1F DUP3 GT ISZERO PUSH2 0x80F JUMPI PUSH2 0x7E0 DUP2 PUSH2 0x6BA JUMP JUMPDEST PUSH2 0x7E9 DUP5 PUSH2 0x6CC JUMP JUMPDEST DUP2 ADD PUSH1 0x20 DUP6 LT ISZERO PUSH2 0x7F8 JUMPI DUP2 SWAP1 POP JUMPDEST PUSH2 0x80C PUSH2 0x804 DUP6 PUSH2 0x6CC JUMP JUMPDEST DUP4 ADD DUP3 PUSH2 0x7AC JUMP JUMPDEST POP POP JUMPDEST POP POP POP JUMP JUMPDEST PUSH0 DUP3 DUP3 SHR SWAP1 POP SWAP3 SWAP2 POP POP JUMP JUMPDEST PUSH0 PUSH2 0x82F PUSH0 NOT DUP5 PUSH1 0x8 MUL PUSH2 0x814 JUMP JUMPDEST NOT DUP1 DUP4 AND SWAP2 POP POP SWAP3 SWAP2 POP POP JUMP JUMPDEST PUSH0 PUSH2 0x847 DUP4 DUP4 PUSH2 0x820 JUMP JUMPDEST SWAP2 POP DUP3 PUSH1 0x2 MUL DUP3 OR SWAP1 POP SWAP3 SWAP2 POP POP JUMP JUMPDEST PUSH2 0x860 DUP3 PUSH2 0x5CF JUMP JUMPDEST PUSH8 0xFFFFFFFFFFFFFFFF DUP2 GT ISZERO PUSH2 0x879 JUMPI PUSH2 0x878 PUSH2 0x464 JUMP JUMPDEST JUMPDEST PUSH2 0x883 DUP3 SLOAD PUSH2 0x68A JUMP JUMPDEST PUSH2 0x88E DUP3 DUP3 DUP6 PUSH2 0x7CE JUMP JUMPDEST PUSH0 PUSH1 0x20 SWAP1 POP PUSH1 0x1F DUP4 GT PUSH1 0x1 DUP2 EQ PUSH2 0x8BF JUMPI PUSH0 DUP5 ISZERO PUSH2 0x8AD JUMPI DUP3 DUP8 ADD MLOAD SWAP1 POP JUMPDEST PUSH2 0x8B7 DUP6 DUP3 PUSH2 0x83C JUMP JUMPDEST DUP7 SSTORE POP PUSH2 0x91E JUMP JUMPDEST PUSH1 0x1F NOT DUP5 AND PUSH2 0x8CD DUP7 PUSH2 0x6BA JUMP JUMPDEST PUSH0 JUMPDEST DUP3 DUP2 LT ISZERO PUSH2 0x8F4 JUMPI DUP5 DUP10 ADD MLOAD DUP3 SSTORE PUSH1 0x1 DUP3 ADD SWAP2 POP PUSH1 0x20 DUP6 ADD SWAP5 POP PUSH1 0x20 DUP2 ADD SWAP1 POP PUSH2 0x8CF JUMP JUMPDEST DUP7 DUP4 LT ISZERO PUSH2 0x911 JUMPI DUP5 DUP10 ADD MLOAD PUSH2 0x90D PUSH1 0x1F DUP10 AND DUP3 PUSH2 0x820 JUMP JUMPDEST DUP4 SSTORE POP JUMPDEST PUSH1 0x1 PUSH1 0x2 DUP9 MUL ADD DUP9 SSTORE POP POP POP JUMPDEST POP POP POP POP POP POP JUMP JUMPDEST PUSH0 DUP2 SWAP1 POP SWAP3 SWAP2 POP POP JUMP JUMPDEST PUSH0 PUSH2 0x93B DUP4 DUP6 PUSH2 0x926 JUMP JUMPDEST SWAP4 POP PUSH2 0x948 DUP4 DUP6 DUP5 PUSH2 0x50C JUMP JUMPDEST DUP3 DUP5 ADD SWAP1 POP SWAP4 SWAP3 POP POP POP JUMP JUMPDEST PUSH0 PUSH2 0x960 DUP3 DUP5 DUP7 PUSH2 0x930 JUMP JUMPDEST SWAP2 POP DUP2 SWAP1 POP SWAP4 SWAP3 POP POP POP JUMP INVALID LOG2 PUSH5 0x6970667358 0x22 SLT KECCAK256 SSTORE 0xC9 0xA5 SELFDESTRUCT DIV 0xF6 DUP14 NUMBER 0xE PUSH8 0x5AD46F45F8799F11 0xFC 0xDE PUSH2 0x1F35 0xBD SWAP11 PUSH29 0xC063F202686D64736F6C634300081A0033A26469706673582212201075 0x23 TIMESTAMP 0xAE 0xCC CREATE PUSH11 0x1B03B3A0E9F7D9E56865DA 0xB5 XOR SWAP7 0xC8 BLOBHASH 0xC0 0xAA 0xEF PUSH12 0x6A76B8E964736F6C63430008 BYTE STOP CALLER "
				},
				"gasEstimates": {
					"creation": {
						"codeDepositCost": "943200",
						"executionCost": "979",
						"totalCost": "944179"
					},
					"external": {
						"createSimpleStorageContract()": "infinite",
						"listOfSimpleStorageContracts(uint256)": "infinite",
						"sfAddPerson(uint256,string,uint256)": "infinite",
						"sfGet(uint256)": "infinite",
						"sfGetPersonFavNum(uint256,string)": "infinite",
						"sfStore(uint256,uint256)": "infinite"
					}
				},
				"methodIdentifiers": {
					"createSimpleStorageContract()": "1dda6541",
					"listOfSimpleStorageContracts(uint256)": "f39f3035",
					"sfAddPerson(uint256,string,uint256)": "6a65513f",
					"sfGet(uint256)": "c5f19c20",
					"sfGetPersonFavNum(uint256,string)": "7bd173b1",
					"sfStore(uint256,uint256)": "1563700f"
				}
			},
			"storageLayout": {
				"storage": [
					{
						"astId": 66,
						"contract": "contracts/StorageFactory.sol:StorageFactory",
						"label": "listOfSimpleStorageContracts",
						"offset": 0,
						"slot": "0",
						"type": "t_array(t_contract(SimpleStorage)58)dyn_storage"
					}
				],
				"types": {
					"t_array(t_contract(SimpleStorage)58)dyn_storage": {
						"base": "t_contract(SimpleStorage)58",
						"encoding": "dynamic_array",
						"label": "contract SimpleStorage[]",
						"numberOfBytes": "32"
					},
					"t_contract(SimpleStorage)58": {
						"encoding": "inplace",
						"label": "contract SimpleStorage",
						"numberOfBytes": "20"
					}
				}
			},
			"userdoc": {
				"kind": "user",
				"methods": {},
				"version": 1
			}
		}
	}
}