{
	"contracts/ExtraStorage.sol": {
		"ExtraStorage": {
			"abi": [
				{
					"inputs": [
						{
							"internalType": "string",
							"name": "_name",
							"type": "string"
						},
						{
							"internalType": "uint256",
							"name": "_favoriteNumber",
							"type": "uint256"
						}
					],
					"name": "addPerson",
					"outputs": [],
					"stateMutability": "nonpayable",
					"type": "function"
				},
				{
					"inputs": [],
					"name": "myFavoriteNumber",
					"outputs": [
						{
							"internalType": "uint256",
							"name": "",
							"type": "uint256"
						}
					],
					"stateMutability": "view",
					"type": "function"
				},
				{
					"inputs": [
						{
							"internalType": "string",
							"name": "",
							"type": "string"
						}
					],
					"name": "nameToFavoriteNumber",
					"outputs": [
						{
							"internalType": "uint256",
							"name": "",
							"type": "uint256"
						}
					],
					"stateMutability": "view",
					"type": "function"
				},
				{
					"inputs": [
						{
							"internalType": "uint256",
							"name": "",
							"type": "uint256"
						}
					],
					"name": "people",
					"outputs": [
						{
							"internalType": "uint256",
							"name": "favoriteNumber",
							"type": "uint256"
						},
						{
							"internalType": "string",
							"name": "name",
							"type": "string"
						}
					],
					"stateMutability": "view",
					"type": "function"
				},
				{
					"inputs": [],
					"name": "retreive",
					"outputs": [
						{
							"internalType": "uint256",
							"name": "",
							"type": "uint256"
						}
					],
					"stateMutability": "view",
					"type": "function"
				},
				{
					"inputs": [
						{
							"internalType": "uint256",
							"name": "_favoriteNumber",
							"type": "uint256"
						}
					],
					"name": "store",
					"outputs": [],
					"stateMutability": "nonpayable",
					"type": "function"
				}
			],
			"devdoc": {
				"kind": "dev",
				"methods": {},
				"version": 1
			},
			"evm": {
				"assembly": "    /* \"contracts/ExtraStorage.sol\":119:286  contract ExtraStorage is SimpleStorage {... */\n  mstore(0x40, 0x80)\n  callvalue\n  dup1\n  iszero\n  tag_1\n  jumpi\n  0x00\n  dup1\n  revert\ntag_1:\n  pop\n  dataSize(sub_0)\n  dup1\n  dataOffset(sub_0)\n  0x00\n  codecopy\n  0x00\n  return\nstop\n\nsub_0: assembly {\n        /* \"contracts/ExtraStorage.sol\":119:286  contract ExtraStorage is SimpleStorage {... */\n      mstore(0x40, 0x80)\n      callvalue\n      dup1\n      iszero\n      tag_1\n      jumpi\n      0x00\n      dup1\n      revert\n    tag_1:\n      pop\n      jumpi(tag_2, lt(calldatasize, 0x04))\n      shr(0xe0, calldataload(0x00))\n      dup1\n      0x6057361d\n      eq\n      tag_3\n      jumpi\n      dup1\n      0x6d83bc57\n      eq\n      tag_4\n      jumpi\n      dup1\n      0x6f760f41\n      eq\n      tag_5\n      jumpi\n      dup1\n      0x8bab8dd5\n      eq\n      tag_6\n      jumpi\n      dup1\n      0x9e7a13ad\n      eq\n      tag_7\n      jumpi\n      dup1\n      0xb05784b8\n      eq\n      tag_8\n      jumpi\n    tag_2:\n      0x00\n      dup1\n      revert\n        /* \"contracts/ExtraStorage.sol\":167:281  function store(uint256 _favoriteNumber) public override  {... */\n    tag_3:\n      tag_9\n      0x04\n      dup1\n      calldatasize\n      sub\n      dup2\n      add\n      swap1\n      tag_10\n      swap2\n      swap1\n      tag_11\n      jump\t// in\n    tag_10:\n      tag_12\n      jump\t// in\n    tag_9:\n      stop\n        /* \"contracts/SimpleStorage.sol\":301:332  uint256 public myFavoriteNumber */\n    tag_4:\n      tag_13\n      tag_14\n      jump\t// in\n    tag_13:\n      mload(0x40)\n      tag_15\n      swap2\n      swap1\n      tag_16\n      jump\t// in\n    tag_15:\n      mload(0x40)\n      dup1\n      swap2\n      sub\n      swap1\n      return\n        /* \"contracts/SimpleStorage.sol\":1266:1635  function addPerson(string calldata _name, uint256 _favoriteNumber) public  {... */\n    tag_5:\n      tag_17\n      0x04\n      dup1\n      calldatasize\n      sub\n      dup2\n      add\n      swap1\n      tag_18\n      swap2\n      swap1\n      tag_19\n      jump\t// in\n    tag_18:\n      tag_20\n      jump\t// in\n    tag_17:\n      stop\n        /* \"contracts/SimpleStorage.sol\":373:429  mapping (string => uint256) public  nameToFavoriteNumber */\n    tag_6:\n      tag_21\n      0x04\n      dup1\n      calldatasize\n      sub\n      dup2\n      add\n      swap1\n      tag_22\n      swap2\n      swap1\n      tag_23\n      jump\t// in\n    tag_22:\n      tag_24\n      jump\t// in\n    tag_21:\n      mload(0x40)\n      tag_25\n      swap2\n      swap1\n      tag_16\n      jump\t// in\n    tag_25:\n      mload(0x40)\n      dup1\n      swap2\n      sub\n      swap1\n      return\n        /* \"contracts/SimpleStorage.sol\":975:998  Person[] public  people */\n    tag_7:\n      tag_26\n      0x04\n      dup1\n      calldatasize\n      sub\n      dup2\n      add\n      swap1\n      tag_27\n      swap2\n      swap1\n      tag_11\n      jump\t// in\n    tag_27:\n      tag_28\n      jump\t// in\n    tag_26:\n      mload(0x40)\n      tag_29\n      swap3\n      swap2\n      swap1\n      tag_30\n      jump\t// in\n    tag_29:\n      mload(0x40)\n      dup1\n      swap2\n      sub\n      swap1\n      return\n        /* \"contracts/SimpleStorage.sol\":1130:1223  function retreive() public  view returns(uint256) {... */\n    tag_8:\n      tag_31\n      tag_32\n      jump\t// in\n    tag_31:\n      mload(0x40)\n      tag_33\n      swap2\n      swap1\n      tag_16\n      jump\t// in\n    tag_33:\n      mload(0x40)\n      dup1\n      swap2\n      sub\n      swap1\n      return\n        /* \"contracts/ExtraStorage.sol\":167:281  function store(uint256 _favoriteNumber) public override  {... */\n    tag_12:\n        /* \"contracts/ExtraStorage.sol\":272:273  5 */\n      0x05\n        /* \"contracts/ExtraStorage.sol\":254:269  _favoriteNumber */\n      dup2\n        /* \"contracts/ExtraStorage.sol\":254:273  _favoriteNumber + 5 */\n      tag_35\n      swap2\n      swap1\n      tag_36\n      jump\t// in\n    tag_35:\n        /* \"contracts/ExtraStorage.sol\":235:251  myFavoriteNumber */\n      0x00\n        /* \"contracts/ExtraStorage.sol\":235:273  myFavoriteNumber = _favoriteNumber + 5 */\n      dup2\n      swap1\n      sstore\n      pop\n        /* \"contracts/ExtraStorage.sol\":167:281  function store(uint256 _favoriteNumber) public override  {... */\n      pop\n      jump\t// out\n        /* \"contracts/SimpleStorage.sol\":301:332  uint256 public myFavoriteNumber */\n    tag_14:\n      sload(0x00)\n      dup2\n      jump\t// out\n        /* \"contracts/SimpleStorage.sol\":1266:1635  function addPerson(string calldata _name, uint256 _favoriteNumber) public  {... */\n    tag_20:\n        /* \"contracts/SimpleStorage.sol\":1528:1534  people */\n      0x02\n        /* \"contracts/SimpleStorage.sol\":1540:1570  Person(_favoriteNumber, _name) */\n      mload(0x40)\n      dup1\n      0x40\n      add\n      0x40\n      mstore\n      dup1\n        /* \"contracts/SimpleStorage.sol\":1547:1562  _favoriteNumber */\n      dup4\n        /* \"contracts/SimpleStorage.sol\":1540:1570  Person(_favoriteNumber, _name) */\n      dup2\n      mstore\n      0x20\n      add\n        /* \"contracts/SimpleStorage.sol\":1564:1569  _name */\n      dup6\n      dup6\n        /* \"contracts/SimpleStorage.sol\":1540:1570  Person(_favoriteNumber, _name) */\n      dup1\n      dup1\n      0x1f\n      add\n      0x20\n      dup1\n      swap2\n      div\n      mul\n      0x20\n      add\n      mload(0x40)\n      swap1\n      dup2\n      add\n      0x40\n      mstore\n      dup1\n      swap4\n      swap3\n      swap2\n      swap1\n      dup2\n      dup2\n      mstore\n      0x20\n      add\n      dup4\n      dup4\n      dup1\n      dup3\n      dup5\n      calldatacopy\n      0x00\n      dup2\n      dup5\n      add\n      mstore\n      not(0x1f)\n      0x1f\n      dup3\n      add\n      and\n      swap1\n      pop\n      dup1\n      dup4\n      add\n      swap3\n      pop\n      pop\n      pop\n      pop\n      pop\n      pop\n      pop\n      dup2\n      mstore\n      pop\n        /* \"contracts/SimpleStorage.sol\":1528:1571  people.push(Person(_favoriteNumber, _name)) */\n      swap1\n      dup1\n      0x01\n      dup2\n      sload\n      add\n      dup1\n      dup3\n      sstore\n      dup1\n      swap2\n      pop\n      pop\n      0x01\n      swap1\n      sub\n      swap1\n      0x00\n      mstore\n      keccak256(0x00, 0x20)\n      swap1\n      0x02\n      mul\n      add\n      0x00\n      swap1\n      swap2\n      swap1\n      swap2\n      swap1\n      swap2\n      pop\n      0x00\n      dup3\n      add\n      mload\n      dup2\n      0x00\n      add\n      sstore\n      0x20\n      dup3\n      add\n      mload\n      dup2\n      0x01\n      add\n      swap1\n      dup2\n      tag_39\n      swap2\n      swap1\n      tag_40\n      jump\t// in\n    tag_39:\n      pop\n      pop\n      pop\n        /* \"contracts/SimpleStorage.sol\":1612:1627  _favoriteNumber */\n      dup1\n        /* \"contracts/SimpleStorage.sol\":1582:1602  nameToFavoriteNumber */\n      0x01\n        /* \"contracts/SimpleStorage.sol\":1603:1608  _name */\n      dup5\n      dup5\n        /* \"contracts/SimpleStorage.sol\":1582:1609  nameToFavoriteNumber[_name] */\n      mload(0x40)\n      tag_41\n      swap3\n      swap2\n      swap1\n      tag_42\n      jump\t// in\n    tag_41:\n      swap1\n      dup2\n      mstore\n      0x20\n      add\n      mload(0x40)\n      dup1\n      swap2\n      sub\n      swap1\n      keccak256\n        /* \"contracts/SimpleStorage.sol\":1582:1627  nameToFavoriteNumber[_name] = _favoriteNumber */\n      dup2\n      swap1\n      sstore\n      pop\n        /* \"contracts/SimpleStorage.sol\":1266:1635  function addPerson(string calldata _name, uint256 _favoriteNumber) public  {... */\n      pop\n      pop\n      pop\n      jump\t// out\n        /* \"contracts/SimpleStorage.sol\":373:429  mapping (string => uint256) public  nameToFavoriteNumber */\n    tag_24:\n      0x01\n      dup2\n      dup1\n      mload\n      0x20\n      dup2\n      add\n      dup3\n      add\n      dup1\n      mload\n      dup5\n      dup3\n      mstore\n      0x20\n      dup4\n      add\n      0x20\n      dup6\n      add\n      keccak256\n      dup2\n      dup4\n      mstore\n      dup1\n      swap6\n      pop\n      pop\n      pop\n      pop\n      pop\n      pop\n      0x00\n      swap2\n      pop\n      swap1\n      pop\n      sload\n      dup2\n      jump\t// out\n        /* \"contracts/SimpleStorage.sol\":975:998  Person[] public  people */\n    tag_28:\n      0x02\n      dup2\n      dup2\n      sload\n      dup2\n      lt\n      tag_43\n      jumpi\n      0x00\n      dup1\n      revert\n    tag_43:\n      swap1\n      0x00\n      mstore\n      keccak256(0x00, 0x20)\n      swap1\n      0x02\n      mul\n      add\n      0x00\n      swap2\n      pop\n      swap1\n      pop\n      dup1\n      0x00\n      add\n      sload\n      swap1\n      dup1\n      0x01\n      add\n      dup1\n      sload\n      tag_45\n      swap1\n      tag_46\n      jump\t// in\n    tag_45:\n      dup1\n      0x1f\n      add\n      0x20\n      dup1\n      swap2\n      div\n      mul\n      0x20\n      add\n      mload(0x40)\n      swap1\n      dup2\n      add\n      0x40\n      mstore\n      dup1\n      swap3\n      swap2\n      swap1\n      dup2\n      dup2\n      mstore\n      0x20\n      add\n      dup3\n      dup1\n      sload\n      tag_47\n      swap1\n      tag_46\n      jump\t// in\n    tag_47:\n      dup1\n      iszero\n      tag_48\n      jumpi\n      dup1\n      0x1f\n      lt\n      tag_49\n      jumpi\n      0x0100\n      dup1\n      dup4\n      sload\n      div\n      mul\n      dup4\n      mstore\n      swap2\n      0x20\n      add\n      swap2\n      jump(tag_48)\n    tag_49:\n      dup3\n      add\n      swap2\n      swap1\n      0x00\n      mstore\n      keccak256(0x00, 0x20)\n      swap1\n    tag_50:\n      dup2\n      sload\n      dup2\n      mstore\n      swap1\n      0x01\n      add\n      swap1\n      0x20\n      add\n      dup1\n      dup4\n      gt\n      tag_50\n      jumpi\n      dup3\n      swap1\n      sub\n      0x1f\n      and\n      dup3\n      add\n      swap2\n    tag_48:\n      pop\n      pop\n      pop\n      pop\n      pop\n      swap1\n      pop\n      dup3\n      jump\t// out\n        /* \"contracts/SimpleStorage.sol\":1130:1223  function retreive() public  view returns(uint256) {... */\n    tag_32:\n        /* \"contracts/SimpleStorage.sol\":1171:1178  uint256 */\n      0x00\n        /* \"contracts/SimpleStorage.sol\":1199:1215  myFavoriteNumber */\n      dup1\n      sload\n        /* \"contracts/SimpleStorage.sol\":1191:1215  return  myFavoriteNumber */\n      swap1\n      pop\n        /* \"contracts/SimpleStorage.sol\":1130:1223  function retreive() public  view returns(uint256) {... */\n      swap1\n      jump\t// out\n        /* \"#utility.yul\":7:82   */\n    tag_52:\n        /* \"#utility.yul\":40:46   */\n      0x00\n        /* \"#utility.yul\":73:75   */\n      0x40\n        /* \"#utility.yul\":67:76   */\n      mload\n        /* \"#utility.yul\":57:76   */\n      swap1\n      pop\n        /* \"#utility.yul\":7:82   */\n      swap1\n      jump\t// out\n        /* \"#utility.yul\":88:205   */\n    tag_53:\n        /* \"#utility.yul\":197:198   */\n      0x00\n        /* \"#utility.yul\":194:195   */\n      dup1\n        /* \"#utility.yul\":187:199   */\n      revert\n        /* \"#utility.yul\":211:328   */\n    tag_54:\n        /* \"#utility.yul\":320:321   */\n      0x00\n        /* \"#utility.yul\":317:318   */\n      dup1\n        /* \"#utility.yul\":310:322   */\n      revert\n        /* \"#utility.yul\":334:411   */\n    tag_55:\n        /* \"#utility.yul\":371:378   */\n      0x00\n        /* \"#utility.yul\":400:405   */\n      dup2\n        /* \"#utility.yul\":389:405   */\n      swap1\n      pop\n        /* \"#utility.yul\":334:411   */\n      swap2\n      swap1\n      pop\n      jump\t// out\n        /* \"#utility.yul\":417:539   */\n    tag_56:\n        /* \"#utility.yul\":490:514   */\n      tag_101\n        /* \"#utility.yul\":508:513   */\n      dup2\n        /* \"#utility.yul\":490:514   */\n      tag_55\n      jump\t// in\n    tag_101:\n        /* \"#utility.yul\":483:488   */\n      dup2\n        /* \"#utility.yul\":480:515   */\n      eq\n        /* \"#utility.yul\":470:533   */\n      tag_102\n      jumpi\n        /* \"#utility.yul\":529:530   */\n      0x00\n        /* \"#utility.yul\":526:527   */\n      dup1\n        /* \"#utility.yul\":519:531   */\n      revert\n        /* \"#utility.yul\":470:533   */\n    tag_102:\n        /* \"#utility.yul\":417:539   */\n      pop\n      jump\t// out\n        /* \"#utility.yul\":545:684   */\n    tag_57:\n        /* \"#utility.yul\":591:596   */\n      0x00\n        /* \"#utility.yul\":629:635   */\n      dup2\n        /* \"#utility.yul\":616:636   */\n      calldataload\n        /* \"#utility.yul\":607:636   */\n      swap1\n      pop\n        /* \"#utility.yul\":645:678   */\n      tag_104\n        /* \"#utility.yul\":672:677   */\n      dup2\n        /* \"#utility.yul\":645:678   */\n      tag_56\n      jump\t// in\n    tag_104:\n        /* \"#utility.yul\":545:684   */\n      swap3\n      swap2\n      pop\n      pop\n      jump\t// out\n        /* \"#utility.yul\":690:1019   */\n    tag_11:\n        /* \"#utility.yul\":749:755   */\n      0x00\n        /* \"#utility.yul\":798:800   */\n      0x20\n        /* \"#utility.yul\":786:795   */\n      dup3\n        /* \"#utility.yul\":777:784   */\n      dup5\n        /* \"#utility.yul\":773:796   */\n      sub\n        /* \"#utility.yul\":769:801   */\n      slt\n        /* \"#utility.yul\":766:885   */\n      iszero\n      tag_106\n      jumpi\n        /* \"#utility.yul\":804:883   */\n      tag_107\n      tag_53\n      jump\t// in\n    tag_107:\n        /* \"#utility.yul\":766:885   */\n    tag_106:\n        /* \"#utility.yul\":924:925   */\n      0x00\n        /* \"#utility.yul\":949:1002   */\n      tag_108\n        /* \"#utility.yul\":994:1001   */\n      dup5\n        /* \"#utility.yul\":985:991   */\n      dup3\n        /* \"#utility.yul\":974:983   */\n      dup6\n        /* \"#utility.yul\":970:992   */\n      add\n        /* \"#utility.yul\":949:1002   */\n      tag_57\n      jump\t// in\n    tag_108:\n        /* \"#utility.yul\":939:1002   */\n      swap2\n      pop\n        /* \"#utility.yul\":895:1012   */\n      pop\n        /* \"#utility.yul\":690:1019   */\n      swap3\n      swap2\n      pop\n      pop\n      jump\t// out\n        /* \"#utility.yul\":1025:1143   */\n    tag_58:\n        /* \"#utility.yul\":1112:1136   */\n      tag_110\n        /* \"#utility.yul\":1130:1135   */\n      dup2\n        /* \"#utility.yul\":1112:1136   */\n      tag_55\n      jump\t// in\n    tag_110:\n        /* \"#utility.yul\":1107:1110   */\n      dup3\n        /* \"#utility.yul\":1100:1137   */\n      mstore\n        /* \"#utility.yul\":1025:1143   */\n      pop\n      pop\n      jump\t// out\n        /* \"#utility.yul\":1149:1371   */\n    tag_16:\n        /* \"#utility.yul\":1242:1246   */\n      0x00\n        /* \"#utility.yul\":1280:1282   */\n      0x20\n        /* \"#utility.yul\":1269:1278   */\n      dup3\n        /* \"#utility.yul\":1265:1283   */\n      add\n        /* \"#utility.yul\":1257:1283   */\n      swap1\n      pop\n        /* \"#utility.yul\":1293:1364   */\n      tag_112\n        /* \"#utility.yul\":1361:1362   */\n      0x00\n        /* \"#utility.yul\":1350:1359   */\n      dup4\n        /* \"#utility.yul\":1346:1363   */\n      add\n        /* \"#utility.yul\":1337:1343   */\n      dup5\n        /* \"#utility.yul\":1293:1364   */\n      tag_58\n      jump\t// in\n    tag_112:\n        /* \"#utility.yul\":1149:1371   */\n      swap3\n      swap2\n      pop\n      pop\n      jump\t// out\n        /* \"#utility.yul\":1377:1494   */\n    tag_59:\n        /* \"#utility.yul\":1486:1487   */\n      0x00\n        /* \"#utility.yul\":1483:1484   */\n      dup1\n        /* \"#utility.yul\":1476:1488   */\n      revert\n        /* \"#utility.yul\":1500:1617   */\n    tag_60:\n        /* \"#utility.yul\":1609:1610   */\n      0x00\n        /* \"#utility.yul\":1606:1607   */\n      dup1\n        /* \"#utility.yul\":1599:1611   */\n      revert\n        /* \"#utility.yul\":1623:1740   */\n    tag_61:\n        /* \"#utility.yul\":1732:1733   */\n      0x00\n        /* \"#utility.yul\":1729:1730   */\n      dup1\n        /* \"#utility.yul\":1722:1734   */\n      revert\n        /* \"#utility.yul\":1760:2313   */\n    tag_62:\n        /* \"#utility.yul\":1818:1826   */\n      0x00\n        /* \"#utility.yul\":1828:1834   */\n      dup1\n        /* \"#utility.yul\":1878:1881   */\n      dup4\n        /* \"#utility.yul\":1871:1875   */\n      0x1f\n        /* \"#utility.yul\":1863:1869   */\n      dup5\n        /* \"#utility.yul\":1859:1876   */\n      add\n        /* \"#utility.yul\":1855:1882   */\n      slt\n        /* \"#utility.yul\":1845:1967   */\n      tag_117\n      jumpi\n        /* \"#utility.yul\":1886:1965   */\n      tag_118\n      tag_59\n      jump\t// in\n    tag_118:\n        /* \"#utility.yul\":1845:1967   */\n    tag_117:\n        /* \"#utility.yul\":1999:2005   */\n      dup3\n        /* \"#utility.yul\":1986:2006   */\n      calldataload\n        /* \"#utility.yul\":1976:2006   */\n      swap1\n      pop\n        /* \"#utility.yul\":2029:2047   */\n      0xffffffffffffffff\n        /* \"#utility.yul\":2021:2027   */\n      dup2\n        /* \"#utility.yul\":2018:2048   */\n      gt\n        /* \"#utility.yul\":2015:2132   */\n      iszero\n      tag_119\n      jumpi\n        /* \"#utility.yul\":2051:2130   */\n      tag_120\n      tag_60\n      jump\t// in\n    tag_120:\n        /* \"#utility.yul\":2015:2132   */\n    tag_119:\n        /* \"#utility.yul\":2165:2169   */\n      0x20\n        /* \"#utility.yul\":2157:2163   */\n      dup4\n        /* \"#utility.yul\":2153:2170   */\n      add\n        /* \"#utility.yul\":2141:2170   */\n      swap2\n      pop\n        /* \"#utility.yul\":2219:2222   */\n      dup4\n        /* \"#utility.yul\":2211:2215   */\n      0x01\n        /* \"#utility.yul\":2203:2209   */\n      dup3\n        /* \"#utility.yul\":2199:2216   */\n      mul\n        /* \"#utility.yul\":2189:2197   */\n      dup4\n        /* \"#utility.yul\":2185:2217   */\n      add\n        /* \"#utility.yul\":2182:2223   */\n      gt\n        /* \"#utility.yul\":2179:2307   */\n      iszero\n      tag_121\n      jumpi\n        /* \"#utility.yul\":2226:2305   */\n      tag_122\n      tag_61\n      jump\t// in\n    tag_122:\n        /* \"#utility.yul\":2179:2307   */\n    tag_121:\n        /* \"#utility.yul\":1760:2313   */\n      swap3\n      pop\n      swap3\n      swap1\n      pop\n      jump\t// out\n        /* \"#utility.yul\":2319:2993   */\n    tag_19:\n        /* \"#utility.yul\":2399:2405   */\n      0x00\n        /* \"#utility.yul\":2407:2413   */\n      dup1\n        /* \"#utility.yul\":2415:2421   */\n      0x00\n        /* \"#utility.yul\":2464:2466   */\n      0x40\n        /* \"#utility.yul\":2452:2461   */\n      dup5\n        /* \"#utility.yul\":2443:2450   */\n      dup7\n        /* \"#utility.yul\":2439:2462   */\n      sub\n        /* \"#utility.yul\":2435:2467   */\n      slt\n        /* \"#utility.yul\":2432:2551   */\n      iszero\n      tag_124\n      jumpi\n        /* \"#utility.yul\":2470:2549   */\n      tag_125\n      tag_53\n      jump\t// in\n    tag_125:\n        /* \"#utility.yul\":2432:2551   */\n    tag_124:\n        /* \"#utility.yul\":2618:2619   */\n      0x00\n        /* \"#utility.yul\":2607:2616   */\n      dup5\n        /* \"#utility.yul\":2603:2620   */\n      add\n        /* \"#utility.yul\":2590:2621   */\n      calldataload\n        /* \"#utility.yul\":2648:2666   */\n      0xffffffffffffffff\n        /* \"#utility.yul\":2640:2646   */\n      dup2\n        /* \"#utility.yul\":2637:2667   */\n      gt\n        /* \"#utility.yul\":2634:2751   */\n      iszero\n      tag_126\n      jumpi\n        /* \"#utility.yul\":2670:2749   */\n      tag_127\n      tag_54\n      jump\t// in\n    tag_127:\n        /* \"#utility.yul\":2634:2751   */\n    tag_126:\n        /* \"#utility.yul\":2783:2848   */\n      tag_128\n        /* \"#utility.yul\":2840:2847   */\n      dup7\n        /* \"#utility.yul\":2831:2837   */\n      dup3\n        /* \"#utility.yul\":2820:2829   */\n      dup8\n        /* \"#utility.yul\":2816:2838   */\n      add\n        /* \"#utility.yul\":2783:2848   */\n      tag_62\n      jump\t// in\n    tag_128:\n        /* \"#utility.yul\":2765:2848   */\n      swap4\n      pop\n      swap4\n      pop\n        /* \"#utility.yul\":2561:2858   */\n      pop\n        /* \"#utility.yul\":2897:2899   */\n      0x20\n        /* \"#utility.yul\":2923:2976   */\n      tag_129\n        /* \"#utility.yul\":2968:2975   */\n      dup7\n        /* \"#utility.yul\":2959:2965   */\n      dup3\n        /* \"#utility.yul\":2948:2957   */\n      dup8\n        /* \"#utility.yul\":2944:2966   */\n      add\n        /* \"#utility.yul\":2923:2976   */\n      tag_57\n      jump\t// in\n    tag_129:\n        /* \"#utility.yul\":2913:2976   */\n      swap2\n      pop\n        /* \"#utility.yul\":2868:2986   */\n      pop\n        /* \"#utility.yul\":2319:2993   */\n      swap3\n      pop\n      swap3\n      pop\n      swap3\n      jump\t// out\n        /* \"#utility.yul\":2999:3116   */\n    tag_63:\n        /* \"#utility.yul\":3108:3109   */\n      0x00\n        /* \"#utility.yul\":3105:3106   */\n      dup1\n        /* \"#utility.yul\":3098:3110   */\n      revert\n        /* \"#utility.yul\":3122:3224   */\n    tag_64:\n        /* \"#utility.yul\":3163:3169   */\n      0x00\n        /* \"#utility.yul\":3214:3216   */\n      0x1f\n        /* \"#utility.yul\":3210:3217   */\n      not\n        /* \"#utility.yul\":3205:3207   */\n      0x1f\n        /* \"#utility.yul\":3198:3203   */\n      dup4\n        /* \"#utility.yul\":3194:3208   */\n      add\n        /* \"#utility.yul\":3190:3218   */\n      and\n        /* \"#utility.yul\":3180:3218   */\n      swap1\n      pop\n        /* \"#utility.yul\":3122:3224   */\n      swap2\n      swap1\n      pop\n      jump\t// out\n        /* \"#utility.yul\":3230:3410   */\n    tag_65:\n        /* \"#utility.yul\":3278:3355   */\n      0x4e487b7100000000000000000000000000000000000000000000000000000000\n        /* \"#utility.yul\":3275:3276   */\n      0x00\n        /* \"#utility.yul\":3268:3356   */\n      mstore\n        /* \"#utility.yul\":3375:3379   */\n      0x41\n        /* \"#utility.yul\":3372:3373   */\n      0x04\n        /* \"#utility.yul\":3365:3380   */\n      mstore\n        /* \"#utility.yul\":3399:3403   */\n      0x24\n        /* \"#utility.yul\":3396:3397   */\n      0x00\n        /* \"#utility.yul\":3389:3404   */\n      revert\n        /* \"#utility.yul\":3416:3697   */\n    tag_66:\n        /* \"#utility.yul\":3499:3526   */\n      tag_134\n        /* \"#utility.yul\":3521:3525   */\n      dup3\n        /* \"#utility.yul\":3499:3526   */\n      tag_64\n      jump\t// in\n    tag_134:\n        /* \"#utility.yul\":3491:3497   */\n      dup2\n        /* \"#utility.yul\":3487:3527   */\n      add\n        /* \"#utility.yul\":3629:3635   */\n      dup2\n        /* \"#utility.yul\":3617:3627   */\n      dup2\n        /* \"#utility.yul\":3614:3636   */\n      lt\n        /* \"#utility.yul\":3593:3611   */\n      0xffffffffffffffff\n        /* \"#utility.yul\":3581:3591   */\n      dup3\n        /* \"#utility.yul\":3578:3612   */\n      gt\n        /* \"#utility.yul\":3575:3637   */\n      or\n        /* \"#utility.yul\":3572:3660   */\n      iszero\n      tag_135\n      jumpi\n        /* \"#utility.yul\":3640:3658   */\n      tag_136\n      tag_65\n      jump\t// in\n    tag_136:\n        /* \"#utility.yul\":3572:3660   */\n    tag_135:\n        /* \"#utility.yul\":3680:3690   */\n      dup1\n        /* \"#utility.yul\":3676:3678   */\n      0x40\n        /* \"#utility.yul\":3669:3691   */\n      mstore\n        /* \"#utility.yul\":3459:3697   */\n      pop\n        /* \"#utility.yul\":3416:3697   */\n      pop\n      pop\n      jump\t// out\n        /* \"#utility.yul\":3703:3832   */\n    tag_67:\n        /* \"#utility.yul\":3737:3743   */\n      0x00\n        /* \"#utility.yul\":3764:3784   */\n      tag_138\n      tag_52\n      jump\t// in\n    tag_138:\n        /* \"#utility.yul\":3754:3784   */\n      swap1\n      pop\n        /* \"#utility.yul\":3793:3826   */\n      tag_139\n        /* \"#utility.yul\":3821:3825   */\n      dup3\n        /* \"#utility.yul\":3813:3819   */\n      dup3\n        /* \"#utility.yul\":3793:3826   */\n      tag_66\n      jump\t// in\n    tag_139:\n        /* \"#utility.yul\":3703:3832   */\n      swap2\n      swap1\n      pop\n      jump\t// out\n        /* \"#utility.yul\":3838:4146   */\n    tag_68:\n        /* \"#utility.yul\":3900:3904   */\n      0x00\n        /* \"#utility.yul\":3990:4008   */\n      0xffffffffffffffff\n        /* \"#utility.yul\":3982:3988   */\n      dup3\n        /* \"#utility.yul\":3979:4009   */\n      gt\n        /* \"#utility.yul\":3976:4032   */\n      iszero\n      tag_141\n      jumpi\n        /* \"#utility.yul\":4012:4030   */\n      tag_142\n      tag_65\n      jump\t// in\n    tag_142:\n        /* \"#utility.yul\":3976:4032   */\n    tag_141:\n        /* \"#utility.yul\":4050:4079   */\n      tag_143\n        /* \"#utility.yul\":4072:4078   */\n      dup3\n        /* \"#utility.yul\":4050:4079   */\n      tag_64\n      jump\t// in\n    tag_143:\n        /* \"#utility.yul\":4042:4079   */\n      swap1\n      pop\n        /* \"#utility.yul\":4134:4138   */\n      0x20\n        /* \"#utility.yul\":4128:4132   */\n      dup2\n        /* \"#utility.yul\":4124:4139   */\n      add\n        /* \"#utility.yul\":4116:4139   */\n      swap1\n      pop\n        /* \"#utility.yul\":3838:4146   */\n      swap2\n      swap1\n      pop\n      jump\t// out\n        /* \"#utility.yul\":4152:4300   */\n    tag_69:\n        /* \"#utility.yul\":4250:4256   */\n      dup3\n        /* \"#utility.yul\":4245:4248   */\n      dup2\n        /* \"#utility.yul\":4240:4243   */\n      dup4\n        /* \"#utility.yul\":4227:4257   */\n      calldatacopy\n        /* \"#utility.yul\":4291:4292   */\n      0x00\n        /* \"#utility.yul\":4282:4288   */\n      dup4\n        /* \"#utility.yul\":4277:4280   */\n      dup4\n        /* \"#utility.yul\":4273:4289   */\n      add\n        /* \"#utility.yul\":4266:4293   */\n      mstore\n        /* \"#utility.yul\":4152:4300   */\n      pop\n      pop\n      pop\n      jump\t// out\n        /* \"#utility.yul\":4306:4731   */\n    tag_70:\n        /* \"#utility.yul\":4384:4389   */\n      0x00\n        /* \"#utility.yul\":4409:4475   */\n      tag_146\n        /* \"#utility.yul\":4425:4474   */\n      tag_147\n        /* \"#utility.yul\":4467:4473   */\n      dup5\n        /* \"#utility.yul\":4425:4474   */\n      tag_68\n      jump\t// in\n    tag_147:\n        /* \"#utility.yul\":4409:4475   */\n      tag_67\n      jump\t// in\n    tag_146:\n        /* \"#utility.yul\":4400:4475   */\n      swap1\n      pop\n        /* \"#utility.yul\":4498:4504   */\n      dup3\n        /* \"#utility.yul\":4491:4496   */\n      dup2\n        /* \"#utility.yul\":4484:4505   */\n      mstore\n        /* \"#utility.yul\":4536:4540   */\n      0x20\n        /* \"#utility.yul\":4529:4534   */\n      dup2\n        /* \"#utility.yul\":4525:4541   */\n      add\n        /* \"#utility.yul\":4574:4577   */\n      dup5\n        /* \"#utility.yul\":4565:4571   */\n      dup5\n        /* \"#utility.yul\":4560:4563   */\n      dup5\n        /* \"#utility.yul\":4556:4572   */\n      add\n        /* \"#utility.yul\":4553:4578   */\n      gt\n        /* \"#utility.yul\":4550:4662   */\n      iszero\n      tag_148\n      jumpi\n        /* \"#utility.yul\":4581:4660   */\n      tag_149\n      tag_63\n      jump\t// in\n    tag_149:\n        /* \"#utility.yul\":4550:4662   */\n    tag_148:\n        /* \"#utility.yul\":4671:4725   */\n      tag_150\n        /* \"#utility.yul\":4718:4724   */\n      dup5\n        /* \"#utility.yul\":4713:4716   */\n      dup3\n        /* \"#utility.yul\":4708:4711   */\n      dup6\n        /* \"#utility.yul\":4671:4725   */\n      tag_69\n      jump\t// in\n    tag_150:\n        /* \"#utility.yul\":4390:4731   */\n      pop\n        /* \"#utility.yul\":4306:4731   */\n      swap4\n      swap3\n      pop\n      pop\n      pop\n      jump\t// out\n        /* \"#utility.yul\":4751:5091   */\n    tag_71:\n        /* \"#utility.yul\":4807:4812   */\n      0x00\n        /* \"#utility.yul\":4856:4859   */\n      dup3\n        /* \"#utility.yul\":4849:4853   */\n      0x1f\n        /* \"#utility.yul\":4841:4847   */\n      dup4\n        /* \"#utility.yul\":4837:4854   */\n      add\n        /* \"#utility.yul\":4833:4860   */\n      slt\n        /* \"#utility.yul\":4823:4945   */\n      tag_152\n      jumpi\n        /* \"#utility.yul\":4864:4943   */\n      tag_153\n      tag_59\n      jump\t// in\n    tag_153:\n        /* \"#utility.yul\":4823:4945   */\n    tag_152:\n        /* \"#utility.yul\":4981:4987   */\n      dup2\n        /* \"#utility.yul\":4968:4988   */\n      calldataload\n        /* \"#utility.yul\":5006:5085   */\n      tag_154\n        /* \"#utility.yul\":5081:5084   */\n      dup5\n        /* \"#utility.yul\":5073:5079   */\n      dup3\n        /* \"#utility.yul\":5066:5070   */\n      0x20\n        /* \"#utility.yul\":5058:5064   */\n      dup7\n        /* \"#utility.yul\":5054:5071   */\n      add\n        /* \"#utility.yul\":5006:5085   */\n      tag_70\n      jump\t// in\n    tag_154:\n        /* \"#utility.yul\":4997:5085   */\n      swap2\n      pop\n        /* \"#utility.yul\":4813:5091   */\n      pop\n        /* \"#utility.yul\":4751:5091   */\n      swap3\n      swap2\n      pop\n      pop\n      jump\t// out\n        /* \"#utility.yul\":5097:5606   */\n    tag_23:\n        /* \"#utility.yul\":5166:5172   */\n      0x00\n        /* \"#utility.yul\":5215:5217   */\n      0x20\n        /* \"#utility.yul\":5203:5212   */\n      dup3\n        /* \"#utility.yul\":5194:5201   */\n      dup5\n        /* \"#utility.yul\":5190:5213   */\n      sub\n        /* \"#utility.yul\":5186:5218   */\n      slt\n        /* \"#utility.yul\":5183:5302   */\n      iszero\n      tag_156\n      jumpi\n        /* \"#utility.yul\":5221:5300   */\n      tag_157\n      tag_53\n      jump\t// in\n    tag_157:\n        /* \"#utility.yul\":5183:5302   */\n    tag_156:\n        /* \"#utility.yul\":5369:5370   */\n      0x00\n        /* \"#utility.yul\":5358:5367   */\n      dup3\n        /* \"#utility.yul\":5354:5371   */\n      add\n        /* \"#utility.yul\":5341:5372   */\n      calldataload\n        /* \"#utility.yul\":5399:5417   */\n      0xffffffffffffffff\n        /* \"#utility.yul\":5391:5397   */\n      dup2\n        /* \"#utility.yul\":5388:5418   */\n      gt\n        /* \"#utility.yul\":5385:5502   */\n      iszero\n      tag_158\n      jumpi\n        /* \"#utility.yul\":5421:5500   */\n      tag_159\n      tag_54\n      jump\t// in\n    tag_159:\n        /* \"#utility.yul\":5385:5502   */\n    tag_158:\n        /* \"#utility.yul\":5526:5589   */\n      tag_160\n        /* \"#utility.yul\":5581:5588   */\n      dup5\n        /* \"#utility.yul\":5572:5578   */\n      dup3\n        /* \"#utility.yul\":5561:5570   */\n      dup6\n        /* \"#utility.yul\":5557:5579   */\n      add\n        /* \"#utility.yul\":5526:5589   */\n      tag_71\n      jump\t// in\n    tag_160:\n        /* \"#utility.yul\":5516:5589   */\n      swap2\n      pop\n        /* \"#utility.yul\":5312:5599   */\n      pop\n        /* \"#utility.yul\":5097:5606   */\n      swap3\n      swap2\n      pop\n      pop\n      jump\t// out\n        /* \"#utility.yul\":5612:5711   */\n    tag_72:\n        /* \"#utility.yul\":5664:5670   */\n      0x00\n        /* \"#utility.yul\":5698:5703   */\n      dup2\n        /* \"#utility.yul\":5692:5704   */\n      mload\n        /* \"#utility.yul\":5682:5704   */\n      swap1\n      pop\n        /* \"#utility.yul\":5612:5711   */\n      swap2\n      swap1\n      pop\n      jump\t// out\n        /* \"#utility.yul\":5717:5886   */\n    tag_73:\n        /* \"#utility.yul\":5801:5812   */\n      0x00\n        /* \"#utility.yul\":5835:5841   */\n      dup3\n        /* \"#utility.yul\":5830:5833   */\n      dup3\n        /* \"#utility.yul\":5823:5842   */\n      mstore\n        /* \"#utility.yul\":5875:5879   */\n      0x20\n        /* \"#utility.yul\":5870:5873   */\n      dup3\n        /* \"#utility.yul\":5866:5880   */\n      add\n        /* \"#utility.yul\":5851:5880   */\n      swap1\n      pop\n        /* \"#utility.yul\":5717:5886   */\n      swap3\n      swap2\n      pop\n      pop\n      jump\t// out\n        /* \"#utility.yul\":5892:6031   */\n    tag_74:\n        /* \"#utility.yul\":5981:5987   */\n      dup3\n        /* \"#utility.yul\":5976:5979   */\n      dup2\n        /* \"#utility.yul\":5971:5974   */\n      dup4\n        /* \"#utility.yul\":5965:5988   */\n      mcopy\n        /* \"#utility.yul\":6022:6023   */\n      0x00\n        /* \"#utility.yul\":6013:6019   */\n      dup4\n        /* \"#utility.yul\":6008:6011   */\n      dup4\n        /* \"#utility.yul\":6004:6020   */\n      add\n        /* \"#utility.yul\":5997:6024   */\n      mstore\n        /* \"#utility.yul\":5892:6031   */\n      pop\n      pop\n      pop\n      jump\t// out\n        /* \"#utility.yul\":6037:6414   */\n    tag_75:\n        /* \"#utility.yul\":6125:6128   */\n      0x00\n        /* \"#utility.yul\":6153:6192   */\n      tag_165\n        /* \"#utility.yul\":6186:6191   */\n      dup3\n        /* \"#utility.yul\":6153:6192   */\n      tag_72\n      jump\t// in\n    tag_165:\n        /* \"#utility.yul\":6208:6279   */\n      tag_166\n        /* \"#utility.yul\":6272:6278   */\n      dup2\n        /* \"#utility.yul\":6267:6270   */\n      dup6\n        /* \"#utility.yul\":6208:6279   */\n      tag_73\n      jump\t// in\n    tag_166:\n        /* \"#utility.yul\":6201:6279   */\n      swap4\n      pop\n        /* \"#utility.yul\":6288:6353   */\n      tag_167\n        /* \"#utility.yul\":6346:6352   */\n      dup2\n        /* \"#utility.yul\":6341:6344   */\n      dup6\n        /* \"#utility.yul\":6334:6338   */\n      0x20\n        /* \"#utility.yul\":6327:6332   */\n      dup7\n        /* \"#utility.yul\":6323:6339   */\n      add\n        /* \"#utility.yul\":6288:6353   */\n      tag_74\n      jump\t// in\n    tag_167:\n        /* \"#utility.yul\":6378:6407   */\n      tag_168\n        /* \"#utility.yul\":6400:6406   */\n      dup2\n        /* \"#utility.yul\":6378:6407   */\n      tag_64\n      jump\t// in\n    tag_168:\n        /* \"#utility.yul\":6373:6376   */\n      dup5\n        /* \"#utility.yul\":6369:6408   */\n      add\n        /* \"#utility.yul\":6362:6408   */\n      swap2\n      pop\n        /* \"#utility.yul\":6129:6414   */\n      pop\n        /* \"#utility.yul\":6037:6414   */\n      swap3\n      swap2\n      pop\n      pop\n      jump\t// out\n        /* \"#utility.yul\":6420:6843   */\n    tag_30:\n        /* \"#utility.yul\":6561:6565   */\n      0x00\n        /* \"#utility.yul\":6599:6601   */\n      0x40\n        /* \"#utility.yul\":6588:6597   */\n      dup3\n        /* \"#utility.yul\":6584:6602   */\n      add\n        /* \"#utility.yul\":6576:6602   */\n      swap1\n      pop\n        /* \"#utility.yul\":6612:6683   */\n      tag_170\n        /* \"#utility.yul\":6680:6681   */\n      0x00\n        /* \"#utility.yul\":6669:6678   */\n      dup4\n        /* \"#utility.yul\":6665:6682   */\n      add\n        /* \"#utility.yul\":6656:6662   */\n      dup6\n        /* \"#utility.yul\":6612:6683   */\n      tag_58\n      jump\t// in\n    tag_170:\n        /* \"#utility.yul\":6730:6739   */\n      dup2\n        /* \"#utility.yul\":6724:6728   */\n      dup2\n        /* \"#utility.yul\":6720:6740   */\n      sub\n        /* \"#utility.yul\":6715:6717   */\n      0x20\n        /* \"#utility.yul\":6704:6713   */\n      dup4\n        /* \"#utility.yul\":6700:6718   */\n      add\n        /* \"#utility.yul\":6693:6741   */\n      mstore\n        /* \"#utility.yul\":6758:6836   */\n      tag_171\n        /* \"#utility.yul\":6831:6835   */\n      dup2\n        /* \"#utility.yul\":6822:6828   */\n      dup5\n        /* \"#utility.yul\":6758:6836   */\n      tag_75\n      jump\t// in\n    tag_171:\n        /* \"#utility.yul\":6750:6836   */\n      swap1\n      pop\n        /* \"#utility.yul\":6420:6843   */\n      swap4\n      swap3\n      pop\n      pop\n      pop\n      jump\t// out\n        /* \"#utility.yul\":6849:7029   */\n    tag_76:\n        /* \"#utility.yul\":6897:6974   */\n      0x4e487b7100000000000000000000000000000000000000000000000000000000\n        /* \"#utility.yul\":6894:6895   */\n      0x00\n        /* \"#utility.yul\":6887:6975   */\n      mstore\n        /* \"#utility.yul\":6994:6998   */\n      0x11\n        /* \"#utility.yul\":6991:6992   */\n      0x04\n        /* \"#utility.yul\":6984:6999   */\n      mstore\n        /* \"#utility.yul\":7018:7022   */\n      0x24\n        /* \"#utility.yul\":7015:7016   */\n      0x00\n        /* \"#utility.yul\":7008:7023   */\n      revert\n        /* \"#utility.yul\":7035:7226   */\n    tag_36:\n        /* \"#utility.yul\":7075:7078   */\n      0x00\n        /* \"#utility.yul\":7094:7114   */\n      tag_174\n        /* \"#utility.yul\":7112:7113   */\n      dup3\n        /* \"#utility.yul\":7094:7114   */\n      tag_55\n      jump\t// in\n    tag_174:\n        /* \"#utility.yul\":7089:7114   */\n      swap2\n      pop\n        /* \"#utility.yul\":7128:7148   */\n      tag_175\n        /* \"#utility.yul\":7146:7147   */\n      dup4\n        /* \"#utility.yul\":7128:7148   */\n      tag_55\n      jump\t// in\n    tag_175:\n        /* \"#utility.yul\":7123:7148   */\n      swap3\n      pop\n        /* \"#utility.yul\":7171:7172   */\n      dup3\n        /* \"#utility.yul\":7168:7169   */\n      dup3\n        /* \"#utility.yul\":7164:7173   */\n      add\n        /* \"#utility.yul\":7157:7173   */\n      swap1\n      pop\n        /* \"#utility.yul\":7192:7195   */\n      dup1\n        /* \"#utility.yul\":7189:7190   */\n      dup3\n        /* \"#utility.yul\":7186:7196   */\n      gt\n        /* \"#utility.yul\":7183:7219   */\n      iszero\n      tag_176\n      jumpi\n        /* \"#utility.yul\":7199:7217   */\n      tag_177\n      tag_76\n      jump\t// in\n    tag_177:\n        /* \"#utility.yul\":7183:7219   */\n    tag_176:\n        /* \"#utility.yul\":7035:7226   */\n      swap3\n      swap2\n      pop\n      pop\n      jump\t// out\n        /* \"#utility.yul\":7232:7412   */\n    tag_77:\n        /* \"#utility.yul\":7280:7357   */\n      0x4e487b7100000000000000000000000000000000000000000000000000000000\n        /* \"#utility.yul\":7277:7278   */\n      0x00\n        /* \"#utility.yul\":7270:7358   */\n      mstore\n        /* \"#utility.yul\":7377:7381   */\n      0x22\n        /* \"#utility.yul\":7374:7375   */\n      0x04\n        /* \"#utility.yul\":7367:7382   */\n      mstore\n        /* \"#utility.yul\":7401:7405   */\n      0x24\n        /* \"#utility.yul\":7398:7399   */\n      0x00\n        /* \"#utility.yul\":7391:7406   */\n      revert\n        /* \"#utility.yul\":7418:7738   */\n    tag_46:\n        /* \"#utility.yul\":7462:7468   */\n      0x00\n        /* \"#utility.yul\":7499:7500   */\n      0x02\n        /* \"#utility.yul\":7493:7497   */\n      dup3\n        /* \"#utility.yul\":7489:7501   */\n      div\n        /* \"#utility.yul\":7479:7501   */\n      swap1\n      pop\n        /* \"#utility.yul\":7546:7547   */\n      0x01\n        /* \"#utility.yul\":7540:7544   */\n      dup3\n        /* \"#utility.yul\":7536:7548   */\n      and\n        /* \"#utility.yul\":7567:7585   */\n      dup1\n        /* \"#utility.yul\":7557:7638   */\n      tag_180\n      jumpi\n        /* \"#utility.yul\":7623:7627   */\n      0x7f\n        /* \"#utility.yul\":7615:7621   */\n      dup3\n        /* \"#utility.yul\":7611:7628   */\n      and\n        /* \"#utility.yul\":7601:7628   */\n      swap2\n      pop\n        /* \"#utility.yul\":7557:7638   */\n    tag_180:\n        /* \"#utility.yul\":7685:7687   */\n      0x20\n        /* \"#utility.yul\":7677:7683   */\n      dup3\n        /* \"#utility.yul\":7674:7688   */\n      lt\n        /* \"#utility.yul\":7654:7672   */\n      dup2\n        /* \"#utility.yul\":7651:7689   */\n      sub\n        /* \"#utility.yul\":7648:7732   */\n      tag_181\n      jumpi\n        /* \"#utility.yul\":7704:7722   */\n      tag_182\n      tag_77\n      jump\t// in\n    tag_182:\n        /* \"#utility.yul\":7648:7732   */\n    tag_181:\n        /* \"#utility.yul\":7469:7738   */\n      pop\n        /* \"#utility.yul\":7418:7738   */\n      swap2\n      swap1\n      pop\n      jump\t// out\n        /* \"#utility.yul\":7744:7885   */\n    tag_78:\n        /* \"#utility.yul\":7793:7797   */\n      0x00\n        /* \"#utility.yul\":7816:7819   */\n      dup2\n        /* \"#utility.yul\":7808:7819   */\n      swap1\n      pop\n        /* \"#utility.yul\":7839:7842   */\n      dup2\n        /* \"#utility.yul\":7836:7837   */\n      0x00\n        /* \"#utility.yul\":7829:7843   */\n      mstore\n        /* \"#utility.yul\":7873:7877   */\n      0x20\n        /* \"#utility.yul\":7870:7871   */\n      0x00\n        /* \"#utility.yul\":7860:7878   */\n      keccak256\n        /* \"#utility.yul\":7852:7878   */\n      swap1\n      pop\n        /* \"#utility.yul\":7744:7885   */\n      swap2\n      swap1\n      pop\n      jump\t// out\n        /* \"#utility.yul\":7891:7984   */\n    tag_79:\n        /* \"#utility.yul\":7928:7934   */\n      0x00\n        /* \"#utility.yul\":7975:7977   */\n      0x20\n        /* \"#utility.yul\":7970:7972   */\n      0x1f\n        /* \"#utility.yul\":7963:7968   */\n      dup4\n        /* \"#utility.yul\":7959:7973   */\n      add\n        /* \"#utility.yul\":7955:7978   */\n      div\n        /* \"#utility.yul\":7945:7978   */\n      swap1\n      pop\n        /* \"#utility.yul\":7891:7984   */\n      swap2\n      swap1\n      pop\n      jump\t// out\n        /* \"#utility.yul\":7990:8097   */\n    tag_80:\n        /* \"#utility.yul\":8034:8042   */\n      0x00\n        /* \"#utility.yul\":8084:8089   */\n      dup3\n        /* \"#utility.yul\":8078:8082   */\n      dup3\n        /* \"#utility.yul\":8074:8090   */\n      shl\n        /* \"#utility.yul\":8053:8090   */\n      swap1\n      pop\n        /* \"#utility.yul\":7990:8097   */\n      swap3\n      swap2\n      pop\n      pop\n      jump\t// out\n        /* \"#utility.yul\":8103:8496   */\n    tag_81:\n        /* \"#utility.yul\":8172:8178   */\n      0x00\n        /* \"#utility.yul\":8222:8223   */\n      0x08\n        /* \"#utility.yul\":8210:8220   */\n      dup4\n        /* \"#utility.yul\":8206:8224   */\n      mul\n        /* \"#utility.yul\":8245:8342   */\n      tag_187\n        /* \"#utility.yul\":8275:8341   */\n      0xffffffffffffffffffffffffffffffffffffffffffffffffffffffffffffffff\n        /* \"#utility.yul\":8264:8273   */\n      dup3\n        /* \"#utility.yul\":8245:8342   */\n      tag_80\n      jump\t// in\n    tag_187:\n        /* \"#utility.yul\":8363:8402   */\n      tag_188\n        /* \"#utility.yul\":8393:8401   */\n      dup7\n        /* \"#utility.yul\":8382:8391   */\n      dup4\n        /* \"#utility.yul\":8363:8402   */\n      tag_80\n      jump\t// in\n    tag_188:\n        /* \"#utility.yul\":8351:8402   */\n      swap6\n      pop\n        /* \"#utility.yul\":8435:8439   */\n      dup1\n        /* \"#utility.yul\":8431:8440   */\n      not\n        /* \"#utility.yul\":8424:8429   */\n      dup5\n        /* \"#utility.yul\":8420:8441   */\n      and\n        /* \"#utility.yul\":8411:8441   */\n      swap4\n      pop\n        /* \"#utility.yul\":8484:8488   */\n      dup1\n        /* \"#utility.yul\":8474:8482   */\n      dup7\n        /* \"#utility.yul\":8470:8489   */\n      and\n        /* \"#utility.yul\":8463:8468   */\n      dup5\n        /* \"#utility.yul\":8460:8490   */\n      or\n        /* \"#utility.yul\":8450:8490   */\n      swap3\n      pop\n        /* \"#utility.yul\":8179:8496   */\n      pop\n      pop\n        /* \"#utility.yul\":8103:8496   */\n      swap4\n      swap3\n      pop\n      pop\n      pop\n      jump\t// out\n        /* \"#utility.yul\":8502:8562   */\n    tag_82:\n        /* \"#utility.yul\":8530:8533   */\n      0x00\n        /* \"#utility.yul\":8551:8556   */\n      dup2\n        /* \"#utility.yul\":8544:8556   */\n      swap1\n      pop\n        /* \"#utility.yul\":8502:8562   */\n      swap2\n      swap1\n      pop\n      jump\t// out\n        /* \"#utility.yul\":8568:8710   */\n    tag_83:\n        /* \"#utility.yul\":8618:8627   */\n      0x00\n        /* \"#utility.yul\":8651:8704   */\n      tag_191\n        /* \"#utility.yul\":8669:8703   */\n      tag_192\n        /* \"#utility.yul\":8678:8702   */\n      tag_193\n        /* \"#utility.yul\":8696:8701   */\n      dup5\n        /* \"#utility.yul\":8678:8702   */\n      tag_55\n      jump\t// in\n    tag_193:\n        /* \"#utility.yul\":8669:8703   */\n      tag_82\n      jump\t// in\n    tag_192:\n        /* \"#utility.yul\":8651:8704   */\n      tag_55\n      jump\t// in\n    tag_191:\n        /* \"#utility.yul\":8638:8704   */\n      swap1\n      pop\n        /* \"#utility.yul\":8568:8710   */\n      swap2\n      swap1\n      pop\n      jump\t// out\n        /* \"#utility.yul\":8716:8791   */\n    tag_84:\n        /* \"#utility.yul\":8759:8762   */\n      0x00\n        /* \"#utility.yul\":8780:8785   */\n      dup2\n        /* \"#utility.yul\":8773:8785   */\n      swap1\n      pop\n        /* \"#utility.yul\":8716:8791   */\n      swap2\n      swap1\n      pop\n      jump\t// out\n        /* \"#utility.yul\":8797:9066   */\n    tag_85:\n        /* \"#utility.yul\":8907:8946   */\n      tag_196\n        /* \"#utility.yul\":8938:8945   */\n      dup4\n        /* \"#utility.yul\":8907:8946   */\n      tag_83\n      jump\t// in\n    tag_196:\n        /* \"#utility.yul\":8968:9059   */\n      tag_197\n        /* \"#utility.yul\":9017:9058   */\n      tag_198\n        /* \"#utility.yul\":9041:9057   */\n      dup3\n        /* \"#utility.yul\":9017:9058   */\n      tag_84\n      jump\t// in\n    tag_198:\n        /* \"#utility.yul\":9009:9015   */\n      dup5\n        /* \"#utility.yul\":9002:9006   */\n      dup5\n        /* \"#utility.yul\":8996:9007   */\n      sload\n        /* \"#utility.yul\":8968:9059   */\n      tag_81\n      jump\t// in\n    tag_197:\n        /* \"#utility.yul\":8962:8966   */\n      dup3\n        /* \"#utility.yul\":8955:9060   */\n      sstore\n        /* \"#utility.yul\":8873:9066   */\n      pop\n        /* \"#utility.yul\":8797:9066   */\n      pop\n      pop\n      pop\n      jump\t// out\n        /* \"#utility.yul\":9072:9145   */\n    tag_86:\n        /* \"#utility.yul\":9117:9120   */\n      0x00\n        /* \"#utility.yul\":9072:9145   */\n      swap1\n      jump\t// out\n        /* \"#utility.yul\":9151:9340   */\n    tag_87:\n        /* \"#utility.yul\":9228:9260   */\n      tag_201\n      tag_86\n      jump\t// in\n    tag_201:\n        /* \"#utility.yul\":9269:9334   */\n      tag_202\n        /* \"#utility.yul\":9327:9333   */\n      dup2\n        /* \"#utility.yul\":9319:9325   */\n      dup5\n        /* \"#utility.yul\":9313:9317   */\n      dup5\n        /* \"#utility.yul\":9269:9334   */\n      tag_85\n      jump\t// in\n    tag_202:\n        /* \"#utility.yul\":9204:9340   */\n      pop\n        /* \"#utility.yul\":9151:9340   */\n      pop\n      pop\n      jump\t// out\n        /* \"#utility.yul\":9346:9532   */\n    tag_88:\n        /* \"#utility.yul\":9406:9526   */\n    tag_204:\n        /* \"#utility.yul\":9423:9426   */\n      dup2\n        /* \"#utility.yul\":9416:9421   */\n      dup2\n        /* \"#utility.yul\":9413:9427   */\n      lt\n        /* \"#utility.yul\":9406:9526   */\n      iszero\n      tag_206\n      jumpi\n        /* \"#utility.yul\":9477:9516   */\n      tag_207\n        /* \"#utility.yul\":9514:9515   */\n      0x00\n        /* \"#utility.yul\":9507:9512   */\n      dup3\n        /* \"#utility.yul\":9477:9516   */\n      tag_87\n      jump\t// in\n    tag_207:\n        /* \"#utility.yul\":9450:9451   */\n      0x01\n        /* \"#utility.yul\":9443:9448   */\n      dup2\n        /* \"#utility.yul\":9439:9452   */\n      add\n        /* \"#utility.yul\":9430:9452   */\n      swap1\n      pop\n        /* \"#utility.yul\":9406:9526   */\n      jump(tag_204)\n    tag_206:\n        /* \"#utility.yul\":9346:9532   */\n      pop\n      pop\n      jump\t// out\n        /* \"#utility.yul\":9538:10081   */\n    tag_89:\n        /* \"#utility.yul\":9639:9641   */\n      0x1f\n        /* \"#utility.yul\":9634:9637   */\n      dup3\n        /* \"#utility.yul\":9631:9642   */\n      gt\n        /* \"#utility.yul\":9628:10074   */\n      iszero\n      tag_209\n      jumpi\n        /* \"#utility.yul\":9673:9711   */\n      tag_210\n        /* \"#utility.yul\":9705:9710   */\n      dup2\n        /* \"#utility.yul\":9673:9711   */\n      tag_78\n      jump\t// in\n    tag_210:\n        /* \"#utility.yul\":9757:9786   */\n      tag_211\n        /* \"#utility.yul\":9775:9785   */\n      dup5\n        /* \"#utility.yul\":9757:9786   */\n      tag_79\n      jump\t// in\n    tag_211:\n        /* \"#utility.yul\":9747:9755   */\n      dup2\n        /* \"#utility.yul\":9743:9787   */\n      add\n        /* \"#utility.yul\":9940:9942   */\n      0x20\n        /* \"#utility.yul\":9928:9938   */\n      dup6\n        /* \"#utility.yul\":9925:9943   */\n      lt\n        /* \"#utility.yul\":9922:9971   */\n      iszero\n      tag_212\n      jumpi\n        /* \"#utility.yul\":9961:9969   */\n      dup2\n        /* \"#utility.yul\":9946:9969   */\n      swap1\n      pop\n        /* \"#utility.yul\":9922:9971   */\n    tag_212:\n        /* \"#utility.yul\":9984:10064   */\n      tag_213\n        /* \"#utility.yul\":10040:10062   */\n      tag_214\n        /* \"#utility.yul\":10058:10061   */\n      dup6\n        /* \"#utility.yul\":10040:10062   */\n      tag_79\n      jump\t// in\n    tag_214:\n        /* \"#utility.yul\":10030:10038   */\n      dup4\n        /* \"#utility.yul\":10026:10063   */\n      add\n        /* \"#utility.yul\":10013:10024   */\n      dup3\n        /* \"#utility.yul\":9984:10064   */\n      tag_88\n      jump\t// in\n    tag_213:\n        /* \"#utility.yul\":9643:10074   */\n      pop\n      pop\n        /* \"#utility.yul\":9628:10074   */\n    tag_209:\n        /* \"#utility.yul\":9538:10081   */\n      pop\n      pop\n      pop\n      jump\t// out\n        /* \"#utility.yul\":10087:10204   */\n    tag_90:\n        /* \"#utility.yul\":10141:10149   */\n      0x00\n        /* \"#utility.yul\":10191:10196   */\n      dup3\n        /* \"#utility.yul\":10185:10189   */\n      dup3\n        /* \"#utility.yul\":10181:10197   */\n      shr\n        /* \"#utility.yul\":10160:10197   */\n      swap1\n      pop\n        /* \"#utility.yul\":10087:10204   */\n      swap3\n      swap2\n      pop\n      pop\n      jump\t// out\n        /* \"#utility.yul\":10210:10379   */\n    tag_91:\n        /* \"#utility.yul\":10254:10260   */\n      0x00\n        /* \"#utility.yul\":10287:10338   */\n      tag_217\n        /* \"#utility.yul\":10335:10336   */\n      0x00\n        /* \"#utility.yul\":10331:10337   */\n      not\n        /* \"#utility.yul\":10323:10328   */\n      dup5\n        /* \"#utility.yul\":10320:10321   */\n      0x08\n        /* \"#utility.yul\":10316:10329   */\n      mul\n        /* \"#utility.yul\":10287:10338   */\n      tag_90\n      jump\t// in\n    tag_217:\n        /* \"#utility.yul\":10283:10339   */\n      not\n        /* \"#utility.yul\":10368:10372   */\n      dup1\n        /* \"#utility.yul\":10362:10366   */\n      dup4\n        /* \"#utility.yul\":10358:10373   */\n      and\n        /* \"#utility.yul\":10348:10373   */\n      swap2\n      pop\n        /* \"#utility.yul\":10261:10379   */\n      pop\n        /* \"#utility.yul\":10210:10379   */\n      swap3\n      swap2\n      pop\n      pop\n      jump\t// out\n        /* \"#utility.yul\":10384:10679   */\n    tag_92:\n        /* \"#utility.yul\":10460:10464   */\n      0x00\n        /* \"#utility.yul\":10606:10635   */\n      tag_219\n        /* \"#utility.yul\":10631:10634   */\n      dup4\n        /* \"#utility.yul\":10625:10629   */\n      dup4\n        /* \"#utility.yul\":10606:10635   */\n      tag_91\n      jump\t// in\n    tag_219:\n        /* \"#utility.yul\":10598:10635   */\n      swap2\n      pop\n        /* \"#utility.yul\":10668:10671   */\n      dup3\n        /* \"#utility.yul\":10665:10666   */\n      0x02\n        /* \"#utility.yul\":10661:10672   */\n      mul\n        /* \"#utility.yul\":10655:10659   */\n      dup3\n        /* \"#utility.yul\":10652:10673   */\n      or\n        /* \"#utility.yul\":10644:10673   */\n      swap1\n      pop\n        /* \"#utility.yul\":10384:10679   */\n      swap3\n      swap2\n      pop\n      pop\n      jump\t// out\n        /* \"#utility.yul\":10684:12079   */\n    tag_40:\n        /* \"#utility.yul\":10801:10838   */\n      tag_221\n        /* \"#utility.yul\":10834:10837   */\n      dup3\n        /* \"#utility.yul\":10801:10838   */\n      tag_72\n      jump\t// in\n    tag_221:\n        /* \"#utility.yul\":10903:10921   */\n      0xffffffffffffffff\n        /* \"#utility.yul\":10895:10901   */\n      dup2\n        /* \"#utility.yul\":10892:10922   */\n      gt\n        /* \"#utility.yul\":10889:10945   */\n      iszero\n      tag_222\n      jumpi\n        /* \"#utility.yul\":10925:10943   */\n      tag_223\n      tag_65\n      jump\t// in\n    tag_223:\n        /* \"#utility.yul\":10889:10945   */\n    tag_222:\n        /* \"#utility.yul\":10969:11007   */\n      tag_224\n        /* \"#utility.yul\":11001:11005   */\n      dup3\n        /* \"#utility.yul\":10995:11006   */\n      sload\n        /* \"#utility.yul\":10969:11007   */\n      tag_46\n      jump\t// in\n    tag_224:\n        /* \"#utility.yul\":11054:11121   */\n      tag_225\n        /* \"#utility.yul\":11114:11120   */\n      dup3\n        /* \"#utility.yul\":11106:11112   */\n      dup3\n        /* \"#utility.yul\":11100:11104   */\n      dup6\n        /* \"#utility.yul\":11054:11121   */\n      tag_89\n      jump\t// in\n    tag_225:\n        /* \"#utility.yul\":11148:11149   */\n      0x00\n        /* \"#utility.yul\":11172:11176   */\n      0x20\n        /* \"#utility.yul\":11159:11176   */\n      swap1\n      pop\n        /* \"#utility.yul\":11204:11206   */\n      0x1f\n        /* \"#utility.yul\":11196:11202   */\n      dup4\n        /* \"#utility.yul\":11193:11207   */\n      gt\n        /* \"#utility.yul\":11221:11222   */\n      0x01\n        /* \"#utility.yul\":11216:11834   */\n      dup2\n      eq\n      tag_227\n      jumpi\n        /* \"#utility.yul\":11878:11879   */\n      0x00\n        /* \"#utility.yul\":11895:11901   */\n      dup5\n        /* \"#utility.yul\":11892:11969   */\n      iszero\n      tag_228\n      jumpi\n        /* \"#utility.yul\":11944:11953   */\n      dup3\n        /* \"#utility.yul\":11939:11942   */\n      dup8\n        /* \"#utility.yul\":11935:11954   */\n      add\n        /* \"#utility.yul\":11929:11955   */\n      mload\n        /* \"#utility.yul\":11920:11955   */\n      swap1\n      pop\n        /* \"#utility.yul\":11892:11969   */\n    tag_228:\n        /* \"#utility.yul\":11995:12062   */\n      tag_229\n        /* \"#utility.yul\":12055:12061   */\n      dup6\n        /* \"#utility.yul\":12048:12053   */\n      dup3\n        /* \"#utility.yul\":11995:12062   */\n      tag_92\n      jump\t// in\n    tag_229:\n        /* \"#utility.yul\":11989:11993   */\n      dup7\n        /* \"#utility.yul\":11982:12063   */\n      sstore\n        /* \"#utility.yul\":11851:12073   */\n      pop\n        /* \"#utility.yul\":11186:12073   */\n      jump(tag_226)\n        /* \"#utility.yul\":11216:11834   */\n    tag_227:\n        /* \"#utility.yul\":11268:11272   */\n      0x1f\n        /* \"#utility.yul\":11264:11273   */\n      not\n        /* \"#utility.yul\":11256:11262   */\n      dup5\n        /* \"#utility.yul\":11252:11274   */\n      and\n        /* \"#utility.yul\":11302:11339   */\n      tag_230\n        /* \"#utility.yul\":11334:11338   */\n      dup7\n        /* \"#utility.yul\":11302:11339   */\n      tag_78\n      jump\t// in\n    tag_230:\n        /* \"#utility.yul\":11361:11362   */\n      0x00\n        /* \"#utility.yul\":11375:11583   */\n    tag_231:\n        /* \"#utility.yul\":11389:11396   */\n      dup3\n        /* \"#utility.yul\":11386:11387   */\n      dup2\n        /* \"#utility.yul\":11383:11397   */\n      lt\n        /* \"#utility.yul\":11375:11583   */\n      iszero\n      tag_233\n      jumpi\n        /* \"#utility.yul\":11468:11477   */\n      dup5\n        /* \"#utility.yul\":11463:11466   */\n      dup10\n        /* \"#utility.yul\":11459:11478   */\n      add\n        /* \"#utility.yul\":11453:11479   */\n      mload\n        /* \"#utility.yul\":11445:11451   */\n      dup3\n        /* \"#utility.yul\":11438:11480   */\n      sstore\n        /* \"#utility.yul\":11519:11520   */\n      0x01\n        /* \"#utility.yul\":11511:11517   */\n      dup3\n        /* \"#utility.yul\":11507:11521   */\n      add\n        /* \"#utility.yul\":11497:11521   */\n      swap2\n      pop\n        /* \"#utility.yul\":11566:11568   */\n      0x20\n        /* \"#utility.yul\":11555:11564   */\n      dup6\n        /* \"#utility.yul\":11551:11569   */\n      add\n        /* \"#utility.yul\":11538:11569   */\n      swap5\n      pop\n        /* \"#utility.yul\":11412:11416   */\n      0x20\n        /* \"#utility.yul\":11409:11410   */\n      dup2\n        /* \"#utility.yul\":11405:11417   */\n      add\n        /* \"#utility.yul\":11400:11417   */\n      swap1\n      pop\n        /* \"#utility.yul\":11375:11583   */\n      jump(tag_231)\n    tag_233:\n        /* \"#utility.yul\":11611:11617   */\n      dup7\n        /* \"#utility.yul\":11602:11609   */\n      dup4\n        /* \"#utility.yul\":11599:11618   */\n      lt\n        /* \"#utility.yul\":11596:11775   */\n      iszero\n      tag_234\n      jumpi\n        /* \"#utility.yul\":11669:11678   */\n      dup5\n        /* \"#utility.yul\":11664:11667   */\n      dup10\n        /* \"#utility.yul\":11660:11679   */\n      add\n        /* \"#utility.yul\":11654:11680   */\n      mload\n        /* \"#utility.yul\":11712:11760   */\n      tag_235\n        /* \"#utility.yul\":11754:11758   */\n      0x1f\n        /* \"#utility.yul\":11746:11752   */\n      dup10\n        /* \"#utility.yul\":11742:11759   */\n      and\n        /* \"#utility.yul\":11731:11740   */\n      dup3\n        /* \"#utility.yul\":11712:11760   */\n      tag_91\n      jump\t// in\n    tag_235:\n        /* \"#utility.yul\":11704:11710   */\n      dup4\n        /* \"#utility.yul\":11697:11761   */\n      sstore\n        /* \"#utility.yul\":11619:11775   */\n      pop\n        /* \"#utility.yul\":11596:11775   */\n    tag_234:\n        /* \"#utility.yul\":11821:11822   */\n      0x01\n        /* \"#utility.yul\":11817:11818   */\n      0x02\n        /* \"#utility.yul\":11809:11815   */\n      dup9\n        /* \"#utility.yul\":11805:11819   */\n      mul\n        /* \"#utility.yul\":11801:11823   */\n      add\n        /* \"#utility.yul\":11795:11799   */\n      dup9\n        /* \"#utility.yul\":11788:11824   */\n      sstore\n        /* \"#utility.yul\":11223:11834   */\n      pop\n      pop\n      pop\n        /* \"#utility.yul\":11186:12073   */\n    tag_226:\n      pop\n        /* \"#utility.yul\":10776:12079   */\n      pop\n      pop\n      pop\n        /* \"#utility.yul\":10684:12079   */\n      pop\n      pop\n      jump\t// out\n        /* \"#utility.yul\":12085:12233   */\n    tag_93:\n        /* \"#utility.yul\":12187:12198   */\n      0x00\n        /* \"#utility.yul\":12224:12227   */\n      dup2\n        /* \"#utility.yul\":12209:12227   */\n      swap1\n      pop\n        /* \"#utility.yul\":12085:12233   */\n      swap3\n      swap2\n      pop\n      pop\n      jump\t// out\n        /* \"#utility.yul\":12263:12593   */\n    tag_94:\n        /* \"#utility.yul\":12379:12382   */\n      0x00\n        /* \"#utility.yul\":12400:12489   */\n      tag_238\n        /* \"#utility.yul\":12482:12488   */\n      dup4\n        /* \"#utility.yul\":12477:12480   */\n      dup6\n        /* \"#utility.yul\":12400:12489   */\n      tag_93\n      jump\t// in\n    tag_238:\n        /* \"#utility.yul\":12393:12489   */\n      swap4\n      pop\n        /* \"#utility.yul\":12499:12555   */\n      tag_239\n        /* \"#utility.yul\":12548:12554   */\n      dup4\n        /* \"#utility.yul\":12543:12546   */\n      dup6\n        /* \"#utility.yul\":12536:12541   */\n      dup5\n        /* \"#utility.yul\":12499:12555   */\n      tag_69\n      jump\t// in\n    tag_239:\n        /* \"#utility.yul\":12580:12586   */\n      dup3\n        /* \"#utility.yul\":12575:12578   */\n      dup5\n        /* \"#utility.yul\":12571:12587   */\n      add\n        /* \"#utility.yul\":12564:12587   */\n      swap1\n      pop\n        /* \"#utility.yul\":12263:12593   */\n      swap4\n      swap3\n      pop\n      pop\n      pop\n      jump\t// out\n        /* \"#utility.yul\":12599:12894   */\n    tag_42:\n        /* \"#utility.yul\":12741:12744   */\n      0x00\n        /* \"#utility.yul\":12763:12868   */\n      tag_241\n        /* \"#utility.yul\":12864:12867   */\n      dup3\n        /* \"#utility.yul\":12855:12861   */\n      dup5\n        /* \"#utility.yul\":12847:12853   */\n      dup7\n        /* \"#utility.yul\":12763:12868   */\n      tag_94\n      jump\t// in\n    tag_241:\n        /* \"#utility.yul\":12756:12868   */\n      swap2\n      pop\n        /* \"#utility.yul\":12885:12888   */\n      dup2\n        /* \"#utility.yul\":12878:12888   */\n      swap1\n      pop\n        /* \"#utility.yul\":12599:12894   */\n      swap4\n      swap3\n      pop\n      pop\n      pop\n      jump\t// out\n\n    auxdata: 0xa26469706673582212205e901652cccf9cf1bab1a3e8aaf018a805524c86e72c2e328e93f555e4c61e7464736f6c634300081a0033\n}\n",
				"bytecode": {
					"linkReferences": {},
					"object": "6080604052348015600e575f80fd5b50610a0e8061001c5f395ff3fe608060405234801561000f575f80fd5b5060043610610060575f3560e01c80636057361d146100645780636d83bc57146100805780636f760f411461009e5780638bab8dd5146100ba5780639e7a13ad146100ea578063b05784b81461011b575b5f80fd5b61007e6004803603810190610079919061034b565b610139565b005b61008861014e565b6040516100959190610385565b60405180910390f35b6100b860048036038101906100b391906103ff565b610153565b005b6100d460048036038101906100cf9190610594565b61021d565b6040516100e19190610385565b60405180910390f35b61010460048036038101906100ff919061034b565b61024a565b60405161011292919061063b565b60405180910390f35b6101236102ff565b6040516101309190610385565b60405180910390f35b6005816101469190610696565b5f8190555050565b5f5481565b6002604051806040016040528083815260200185858080601f0160208091040260200160405190810160405280939291908181526020018383808284375f81840152601f19601f82011690508083019250505050505050815250908060018154018082558091505060019003905f5260205f2090600202015f909190919091505f820151815f015560208201518160010190816101f091906108c3565b50505080600184846040516102069291906109c0565b908152602001604051809103902081905550505050565b6001818051602081018201805184825260208301602085012081835280955050505050505f915090505481565b60028181548110610259575f80fd5b905f5260205f2090600202015f91509050805f01549080600101805461027e906106f6565b80601f01602080910402602001604051908101604052809291908181526020018280546102aa906106f6565b80156102f55780601f106102cc576101008083540402835291602001916102f5565b820191905f5260205f20905b8154815290600101906020018083116102d857829003601f168201915b5050505050905082565b5f8054905090565b5f604051905090565b5f80fd5b5f80fd5b5f819050919050565b61032a81610318565b8114610334575f80fd5b50565b5f8135905061034581610321565b92915050565b5f602082840312156103605761035f610310565b5b5f61036d84828501610337565b91505092915050565b61037f81610318565b82525050565b5f6020820190506103985f830184610376565b92915050565b5f80fd5b5f80fd5b5f80fd5b5f8083601f8401126103bf576103be61039e565b5b8235905067ffffffffffffffff8111156103dc576103db6103a2565b5b6020830191508360018202830111156103f8576103f76103a6565b5b9250929050565b5f805f6040848603121561041657610415610310565b5b5f84013567ffffffffffffffff81111561043357610432610314565b5b61043f868287016103aa565b9350935050602061045286828701610337565b9150509250925092565b5f80fd5b5f601f19601f8301169050919050565b7f4e487b71000000000000000000000000000000000000000000000000000000005f52604160045260245ffd5b6104a682610460565b810181811067ffffffffffffffff821117156104c5576104c4610470565b5b80604052505050565b5f6104d7610307565b90506104e3828261049d565b919050565b5f67ffffffffffffffff82111561050257610501610470565b5b61050b82610460565b9050602081019050919050565b828183375f83830152505050565b5f610538610533846104e8565b6104ce565b9050828152602081018484840111156105545761055361045c565b5b61055f848285610518565b509392505050565b5f82601f83011261057b5761057a61039e565b5b813561058b848260208601610526565b91505092915050565b5f602082840312156105a9576105a8610310565b5b5f82013567ffffffffffffffff8111156105c6576105c5610314565b5b6105d284828501610567565b91505092915050565b5f81519050919050565b5f82825260208201905092915050565b8281835e5f83830152505050565b5f61060d826105db565b61061781856105e5565b93506106278185602086016105f5565b61063081610460565b840191505092915050565b5f60408201905061064e5f830185610376565b81810360208301526106608184610603565b90509392505050565b7f4e487b71000000000000000000000000000000000000000000000000000000005f52601160045260245ffd5b5f6106a082610318565b91506106ab83610318565b92508282019050808211156106c3576106c2610669565b5b92915050565b7f4e487b71000000000000000000000000000000000000000000000000000000005f52602260045260245ffd5b5f600282049050600182168061070d57607f821691505b6020821081036107205761071f6106c9565b5b50919050565b5f819050815f5260205f209050919050565b5f6020601f8301049050919050565b5f82821b905092915050565b5f600883026107827fffffffffffffffffffffffffffffffffffffffffffffffffffffffffffffffff82610747565b61078c8683610747565b95508019841693508086168417925050509392505050565b5f819050919050565b5f6107c76107c26107bd84610318565b6107a4565b610318565b9050919050565b5f819050919050565b6107e0836107ad565b6107f46107ec826107ce565b848454610753565b825550505050565b5f90565b6108086107fc565b6108138184846107d7565b505050565b5b818110156108365761082b5f82610800565b600181019050610819565b5050565b601f82111561087b5761084c81610726565b61085584610738565b81016020851015610864578190505b61087861087085610738565b830182610818565b50505b505050565b5f82821c905092915050565b5f61089b5f1984600802610880565b1980831691505092915050565b5f6108b3838361088c565b9150826002028217905092915050565b6108cc826105db565b67ffffffffffffffff8111156108e5576108e4610470565b5b6108ef82546106f6565b6108fa82828561083a565b5f60209050601f83116001811461092b575f8415610919578287015190505b61092385826108a8565b86555061098a565b601f19841661093986610726565b5f5b828110156109605784890151825560018201915060208501945060208101905061093b565b8683101561097d5784890151610979601f89168261088c565b8355505b6001600288020188555050505b505050505050565b5f81905092915050565b5f6109a78385610992565b93506109b4838584610518565b82840190509392505050565b5f6109cc82848661099c565b9150819050939250505056fea26469706673582212205e901652cccf9cf1bab1a3e8aaf018a805524c86e72c2e328e93f555e4c61e7464736f6c634300081a0033",
					"opcodes": "PUSH1 0x80 PUSH1 0x40 MSTORE CALLVALUE DUP1 ISZERO PUSH1 0xE JUMPI PUSH0 DUP1 REVERT JUMPDEST POP PUSH2 0xA0E DUP1 PUSH2 0x1C PUSH0 CODECOPY PUSH0 RETURN INVALID PUSH1 0x80 PUSH1 0x40 MSTORE CALLVALUE DUP1 ISZERO PUSH2 0xF JUMPI PUSH0 DUP1 REVERT JUMPDEST POP PUSH1 0x4 CALLDATASIZE LT PUSH2 0x60 JUMPI PUSH0 CALLDATALOAD PUSH1 0xE0 SHR DUP1 PUSH4 0x6057361D EQ PUSH2 0x64 JUMPI DUP1 PUSH4 0x6D83BC57 EQ PUSH2 0x80 JUMPI DUP1 PUSH4 0x6F760F41 EQ PUSH2 0x9E JUMPI DUP1 PUSH4 0x8BAB8DD5 EQ PUSH2 0xBA JUMPI DUP1 PUSH4 0x9E7A13AD EQ PUSH2 0xEA JUMPI DUP1 PUSH4 0xB05784B8 EQ PUSH2 0x11B JUMPI JUMPDEST PUSH0 DUP1 REVERT JUMPDEST PUSH2 0x7E PUSH1 0x4 DUP1 CALLDATASIZE SUB DUP2 ADD SWAP1 PUSH2 0x79 SWAP2 SWAP1 PUSH2 0x34B JUMP JUMPDEST PUSH2 0x139 JUMP JUMPDEST STOP JUMPDEST PUSH2 0x88 PUSH2 0x14E JUMP JUMPDEST PUSH1 0x40 MLOAD PUSH2 0x95 SWAP2 SWAP1 PUSH2 0x385 JUMP JUMPDEST PUSH1 0x40 MLOAD DUP1 SWAP2 SUB SWAP1 RETURN JUMPDEST PUSH2 0xB8 PUSH1 0x4 DUP1 CALLDATASIZE SUB DUP2 ADD SWAP1 PUSH2 0xB3 SWAP2 SWAP1 PUSH2 0x3FF JUMP JUMPDEST PUSH2 0x153 JUMP JUMPDEST STOP JUMPDEST PUSH2 0xD4 PUSH1 0x4 DUP1 CALLDATASIZE SUB DUP2 ADD SWAP1 PUSH2 0xCF SWAP2 SWAP1 PUSH2 0x594 JUMP JUMPDEST PUSH2 0x21D JUMP JUMPDEST PUSH1 0x40 MLOAD PUSH2 0xE1 SWAP2 SWAP1 PUSH2 0x385 JUMP JUMPDEST PUSH1 0x40 MLOAD DUP1 SWAP2 SUB SWAP1 RETURN JUMPDEST PUSH2 0x104 PUSH1 0x4 DUP1 CALLDATASIZE SUB DUP2 ADD SWAP1 PUSH2 0xFF SWAP2 SWAP1 PUSH2 0x34B JUMP JUMPDEST PUSH2 0x24A JUMP JUMPDEST PUSH1 0x40 MLOAD PUSH2 0x112 SWAP3 SWAP2 SWAP1 PUSH2 0x63B JUMP JUMPDEST PUSH1 0x40 MLOAD DUP1 SWAP2 SUB SWAP1 RETURN JUMPDEST PUSH2 0x123 PUSH2 0x2FF JUMP JUMPDEST PUSH1 0x40 MLOAD PUSH2 0x130 SWAP2 SWAP1 PUSH2 0x385 JUMP JUMPDEST PUSH1 0x40 MLOAD DUP1 SWAP2 SUB SWAP1 RETURN JUMPDEST PUSH1 0x5 DUP2 PUSH2 0x146 SWAP2 SWAP1 PUSH2 0x696 JUMP JUMPDEST PUSH0 DUP2 SWAP1 SSTORE POP POP JUMP JUMPDEST PUSH0 SLOAD DUP2 JUMP JUMPDEST PUSH1 0x2 PUSH1 0x40 MLOAD DUP1 PUSH1 0x40 ADD PUSH1 0x40 MSTORE DUP1 DUP4 DUP2 MSTORE PUSH1 0x20 ADD DUP6 DUP6 DUP1 DUP1 PUSH1 0x1F ADD PUSH1 0x20 DUP1 SWAP2 DIV MUL PUSH1 0x20 ADD PUSH1 0x40 MLOAD SWAP1 DUP2 ADD PUSH1 0x40 MSTORE DUP1 SWAP4 SWAP3 SWAP2 SWAP1 DUP2 DUP2 MSTORE PUSH1 0x20 ADD DUP4 DUP4 DUP1 DUP3 DUP5 CALLDATACOPY PUSH0 DUP2 DUP5 ADD MSTORE PUSH1 0x1F NOT PUSH1 0x1F DUP3 ADD AND SWAP1 POP DUP1 DUP4 ADD SWAP3 POP POP POP POP POP POP POP DUP2 MSTORE POP SWAP1 DUP1 PUSH1 0x1 DUP2 SLOAD ADD DUP1 DUP3 SSTORE DUP1 SWAP2 POP POP PUSH1 0x1 SWAP1 SUB SWAP1 PUSH0 MSTORE PUSH1 0x20 PUSH0 KECCAK256 SWAP1 PUSH1 0x2 MUL ADD PUSH0 SWAP1 SWAP2 SWAP1 SWAP2 SWAP1 SWAP2 POP PUSH0 DUP3 ADD MLOAD DUP2 PUSH0 ADD SSTORE PUSH1 0x20 DUP3 ADD MLOAD DUP2 PUSH1 0x1 ADD SWAP1 DUP2 PUSH2 0x1F0 SWAP2 SWAP1 PUSH2 0x8C3 JUMP JUMPDEST POP POP POP DUP1 PUSH1 0x1 DUP5 DUP5 PUSH1 0x40 MLOAD PUSH2 0x206 SWAP3 SWAP2 SWAP1 PUSH2 0x9C0 JUMP JUMPDEST SWAP1 DUP2 MSTORE PUSH1 0x20 ADD PUSH1 0x40 MLOAD DUP1 SWAP2 SUB SWAP1 KECCAK256 DUP2 SWAP1 SSTORE POP POP POP POP JUMP JUMPDEST PUSH1 0x1 DUP2 DUP1 MLOAD PUSH1 0x20 DUP2 ADD DUP3 ADD DUP1 MLOAD DUP5 DUP3 MSTORE PUSH1 0x20 DUP4 ADD PUSH1 0x20 DUP6 ADD KECCAK256 DUP2 DUP4 MSTORE DUP1 SWAP6 POP POP POP POP POP POP PUSH0 SWAP2 POP SWAP1 POP SLOAD DUP2 JUMP JUMPDEST PUSH1 0x2 DUP2 DUP2 SLOAD DUP2 LT PUSH2 0x259 JUMPI PUSH0 DUP1 REVERT JUMPDEST SWAP1 PUSH0 MSTORE PUSH1 0x20 PUSH0 KECCAK256 SWAP1 PUSH1 0x2 MUL ADD PUSH0 SWAP2 POP SWAP1 POP DUP1 PUSH0 ADD SLOAD SWAP1 DUP1 PUSH1 0x1 ADD DUP1 SLOAD PUSH2 0x27E SWAP1 PUSH2 0x6F6 JUMP JUMPDEST DUP1 PUSH1 0x1F ADD PUSH1 0x20 DUP1 SWAP2 DIV MUL PUSH1 0x20 ADD PUSH1 0x40 MLOAD SWAP1 DUP2 ADD PUSH1 0x40 MSTORE DUP1 SWAP3 SWAP2 SWAP1 DUP2 DUP2 MSTORE PUSH1 0x20 ADD DUP3 DUP1 SLOAD PUSH2 0x2AA SWAP1 PUSH2 0x6F6 JUMP JUMPDEST DUP1 ISZERO PUSH2 0x2F5 JUMPI DUP1 PUSH1 0x1F LT PUSH2 0x2CC JUMPI PUSH2 0x100 DUP1 DUP4 SLOAD DIV MUL DUP4 MSTORE SWAP2 PUSH1 0x20 ADD SWAP2 PUSH2 0x2F5 JUMP JUMPDEST DUP3 ADD SWAP2 SWAP1 PUSH0 MSTORE PUSH1 0x20 PUSH0 KECCAK256 SWAP1 JUMPDEST DUP2 SLOAD DUP2 MSTORE SWAP1 PUSH1 0x1 ADD SWAP1 PUSH1 0x20 ADD DUP1 DUP4 GT PUSH2 0x2D8 JUMPI DUP3 SWAP1 SUB PUSH1 0x1F AND DUP3 ADD SWAP2 JUMPDEST POP POP POP POP POP SWAP1 POP DUP3 JUMP JUMPDEST PUSH0 DUP1 SLOAD SWAP1 POP SWAP1 JUMP JUMPDEST PUSH0 PUSH1 0x40 MLOAD SWAP1 POP SWAP1 JUMP JUMPDEST PUSH0 DUP1 REVERT JUMPDEST PUSH0 DUP1 REVERT JUMPDEST PUSH0 DUP2 SWAP1 POP SWAP2 SWAP1 POP JUMP JUMPDEST PUSH2 0x32A DUP2 PUSH2 0x318 JUMP JUMPDEST DUP2 EQ PUSH2 0x334 JUMPI PUSH0 DUP1 REVERT JUMPDEST POP JUMP JUMPDEST PUSH0 DUP2 CALLDATALOAD SWAP1 POP PUSH2 0x345 DUP2 PUSH2 0x321 JUMP JUMPDEST SWAP3 SWAP2 POP POP JUMP JUMPDEST PUSH0 PUSH1 0x20 DUP3 DUP5 SUB SLT ISZERO PUSH2 0x360 JUMPI PUSH2 0x35F PUSH2 0x310 JUMP JUMPDEST JUMPDEST PUSH0 PUSH2 0x36D DUP5 DUP3 DUP6 ADD PUSH2 0x337 JUMP JUMPDEST SWAP2 POP POP SWAP3 SWAP2 POP POP JUMP JUMPDEST PUSH2 0x37F DUP2 PUSH2 0x318 JUMP JUMPDEST DUP3 MSTORE POP POP JUMP JUMPDEST PUSH0 PUSH1 0x20 DUP3 ADD SWAP1 POP PUSH2 0x398 PUSH0 DUP4 ADD DUP5 PUSH2 0x376 JUMP JUMPDEST SWAP3 SWAP2 POP POP JUMP JUMPDEST PUSH0 DUP1 REVERT JUMPDEST PUSH0 DUP1 REVERT JUMPDEST PUSH0 DUP1 REVERT JUMPDEST PUSH0 DUP1 DUP4 PUSH1 0x1F DUP5 ADD SLT PUSH2 0x3BF JUMPI PUSH2 0x3BE PUSH2 0x39E JUMP JUMPDEST JUMPDEST DUP3 CALLDATALOAD SWAP1 POP PUSH8 0xFFFFFFFFFFFFFFFF DUP2 GT ISZERO PUSH2 0x3DC JUMPI PUSH2 0x3DB PUSH2 0x3A2 JUMP JUMPDEST JUMPDEST PUSH1 0x20 DUP4 ADD SWAP2 POP DUP4 PUSH1 0x1 DUP3 MUL DUP4 ADD GT ISZERO PUSH2 0x3F8 JUMPI PUSH2 0x3F7 PUSH2 0x3A6 JUMP JUMPDEST JUMPDEST SWAP3 POP SWAP3 SWAP1 POP JUMP JUMPDEST PUSH0 DUP1 PUSH0 PUSH1 0x40 DUP5 DUP7 SUB SLT ISZERO PUSH2 0x416 JUMPI PUSH2 0x415 PUSH2 0x310 JUMP JUMPDEST JUMPDEST PUSH0 DUP5 ADD CALLDATALOAD PUSH8 0xFFFFFFFFFFFFFFFF DUP2 GT ISZERO PUSH2 0x433 JUMPI PUSH2 0x432 PUSH2 0x314 JUMP JUMPDEST JUMPDEST PUSH2 0x43F DUP7 DUP3 DUP8 ADD PUSH2 0x3AA JUMP JUMPDEST SWAP4 POP SWAP4 POP POP PUSH1 0x20 PUSH2 0x452 DUP7 DUP3 DUP8 ADD PUSH2 0x337 JUMP JUMPDEST SWAP2 POP POP SWAP3 POP SWAP3 POP SWAP3 JUMP JUMPDEST PUSH0 DUP1 REVERT JUMPDEST PUSH0 PUSH1 0x1F NOT PUSH1 0x1F DUP4 ADD AND SWAP1 POP SWAP2 SWAP1 POP JUMP JUMPDEST PUSH32 0x4E487B7100000000000000000000000000000000000000000000000000000000 PUSH0 MSTORE PUSH1 0x41 PUSH1 0x4 MSTORE PUSH1 0x24 PUSH0 REVERT JUMPDEST PUSH2 0x4A6 DUP3 PUSH2 0x460 JUMP JUMPDEST DUP2 ADD DUP2 DUP2 LT PUSH8 0xFFFFFFFFFFFFFFFF DUP3 GT OR ISZERO PUSH2 0x4C5 JUMPI PUSH2 0x4C4 PUSH2 0x470 JUMP JUMPDEST JUMPDEST DUP1 PUSH1 0x40 MSTORE POP POP POP JUMP JUMPDEST PUSH0 PUSH2 0x4D7 PUSH2 0x307 JUMP JUMPDEST SWAP1 POP PUSH2 0x4E3 DUP3 DUP3 PUSH2 0x49D JUMP JUMPDEST SWAP2 SWAP1 POP JUMP JUMPDEST PUSH0 PUSH8 0xFFFFFFFFFFFFFFFF DUP3 GT ISZERO PUSH2 0x502 JUMPI PUSH2 0x501 PUSH2 0x470 JUMP JUMPDEST JUMPDEST PUSH2 0x50B DUP3 PUSH2 0x460 JUMP JUMPDEST SWAP1 POP PUSH1 0x20 DUP2 ADD SWAP1 POP SWAP2 SWAP1 POP JUMP JUMPDEST DUP3 DUP2 DUP4 CALLDATACOPY PUSH0 DUP4 DUP4 ADD MSTORE POP POP POP JUMP JUMPDEST PUSH0 PUSH2 0x538 PUSH2 0x533 DUP5 PUSH2 0x4E8 JUMP JUMPDEST PUSH2 0x4CE JUMP JUMPDEST SWAP1 POP DUP3 DUP2 MSTORE PUSH1 0x20 DUP2 ADD DUP5 DUP5 DUP5 ADD GT ISZERO PUSH2 0x554 JUMPI PUSH2 0x553 PUSH2 0x45C JUMP JUMPDEST JUMPDEST PUSH2 0x55F DUP5 DUP3 DUP6 PUSH2 0x518 JUMP JUMPDEST POP SWAP4 SWAP3 POP POP POP JUMP JUMPDEST PUSH0 DUP3 PUSH1 0x1F DUP4 ADD SLT PUSH2 0x57B JUMPI PUSH2 0x57A PUSH2 0x39E JUMP JUMPDEST JUMPDEST DUP2 CALLDATALOAD PUSH2 0x58B DUP5 DUP3 PUSH1 0x20 DUP7 ADD PUSH2 0x526 JUMP JUMPDEST SWAP2 POP POP SWAP3 SWAP2 POP POP JUMP JUMPDEST PUSH0 PUSH1 0x20 DUP3 DUP5 SUB SLT ISZERO PUSH2 0x5A9 JUMPI PUSH2 0x5A8 PUSH2 0x310 JUMP JUMPDEST JUMPDEST PUSH0 DUP3 ADD CALLDATALOAD PUSH8 0xFFFFFFFFFFFFFFFF DUP2 GT ISZERO PUSH2 0x5C6 JUMPI PUSH2 0x5C5 PUSH2 0x314 JUMP JUMPDEST JUMPDEST PUSH2 0x5D2 DUP5 DUP3 DUP6 ADD PUSH2 0x567 JUMP JUMPDEST SWAP2 POP POP SWAP3 SWAP2 POP POP JUMP JUMPDEST PUSH0 DUP2 MLOAD SWAP1 POP SWAP2 SWAP1 POP JUMP JUMPDEST PUSH0 DUP3 DUP3 MSTORE PUSH1 0x20 DUP3 ADD SWAP1 POP SWAP3 SWAP2 POP POP JUMP JUMPDEST DUP3 DUP2 DUP4 MCOPY PUSH0 DUP4 DUP4 ADD MSTORE POP POP POP JUMP JUMPDEST PUSH0 PUSH2 0x60D DUP3 PUSH2 0x5DB JUMP JUMPDEST PUSH2 0x617 DUP2 DUP6 PUSH2 0x5E5 JUMP JUMPDEST SWAP4 POP PUSH2 0x627 DUP2 DUP6 PUSH1 0x20 DUP7 ADD PUSH2 0x5F5 JUMP JUMPDEST PUSH2 0x630 DUP2 PUSH2 0x460 JUMP JUMPDEST DUP5 ADD SWAP2 POP POP SWAP3 SWAP2 POP POP JUMP JUMPDEST PUSH0 PUSH1 0x40 DUP3 ADD SWAP1 POP PUSH2 0x64E PUSH0 DUP4 ADD DUP6 PUSH2 0x376 JUMP JUMPDEST DUP2 DUP2 SUB PUSH1 0x20 DUP4 ADD MSTORE PUSH2 0x660 DUP2 DUP5 PUSH2 0x603 JUMP JUMPDEST SWAP1 POP SWAP4 SWAP3 POP POP POP JUMP JUMPDEST PUSH32 0x4E487B7100000000000000000000000000000000000000000000000000000000 PUSH0 MSTORE PUSH1 0x11 PUSH1 0x4 MSTORE PUSH1 0x24 PUSH0 REVERT JUMPDEST PUSH0 PUSH2 0x6A0 DUP3 PUSH2 0x318 JUMP JUMPDEST SWAP2 POP PUSH2 0x6AB DUP4 PUSH2 0x318 JUMP JUMPDEST SWAP3 POP DUP3 DUP3 ADD SWAP1 POP DUP1 DUP3 GT ISZERO PUSH2 0x6C3 JUMPI PUSH2 0x6C2 PUSH2 0x669 JUMP JUMPDEST JUMPDEST SWAP3 SWAP2 POP POP JUMP JUMPDEST PUSH32 0x4E487B7100000000000000000000000000000000000000000000000000000000 PUSH0 MSTORE PUSH1 0x22 PUSH1 0x4 MSTORE PUSH1 0x24 PUSH0 REVERT JUMPDEST PUSH0 PUSH1 0x2 DUP3 DIV SWAP1 POP PUSH1 0x1 DUP3 AND DUP1 PUSH2 0x70D JUMPI PUSH1 0x7F DUP3 AND SWAP2 POP JUMPDEST PUSH1 0x20 DUP3 LT DUP2 SUB PUSH2 0x720 JUMPI PUSH2 0x71F PUSH2 0x6C9 JUMP JUMPDEST JUMPDEST POP SWAP2 SWAP1 POP JUMP JUMPDEST PUSH0 DUP2 SWAP1 POP DUP2 PUSH0 MSTORE PUSH1 0x20 PUSH0 KECCAK256 SWAP1 POP SWAP2 SWAP1 POP JUMP JUMPDEST PUSH0 PUSH1 0x20 PUSH1 0x1F DUP4 ADD DIV SWAP1 POP SWAP2 SWAP1 POP JUMP JUMPDEST PUSH0 DUP3 DUP3 SHL SWAP1 POP SWAP3 SWAP2 POP POP JUMP JUMPDEST PUSH0 PUSH1 0x8 DUP4 MUL PUSH2 0x782 PUSH32 0xFFFFFFFFFFFFFFFFFFFFFFFFFFFFFFFFFFFFFFFFFFFFFFFFFFFFFFFFFFFFFFFF DUP3 PUSH2 0x747 JUMP JUMPDEST PUSH2 0x78C DUP7 DUP4 PUSH2 0x747 JUMP JUMPDEST SWAP6 POP DUP1 NOT DUP5 AND SWAP4 POP DUP1 DUP7 AND DUP5 OR SWAP3 POP POP POP SWAP4 SWAP3 POP POP POP JUMP JUMPDEST PUSH0 DUP2 SWAP1 POP SWAP2 SWAP1 POP JUMP JUMPDEST PUSH0 PUSH2 0x7C7 PUSH2 0x7C2 PUSH2 0x7BD DUP5 PUSH2 0x318 JUMP JUMPDEST PUSH2 0x7A4 JUMP JUMPDEST PUSH2 0x318 JUMP JUMPDEST SWAP1 POP SWAP2 SWAP1 POP JUMP JUMPDEST PUSH0 DUP2 SWAP1 POP SWAP2 SWAP1 POP JUMP JUMPDEST PUSH2 0x7E0 DUP4 PUSH2 0x7AD JUMP JUMPDEST PUSH2 0x7F4 PUSH2 0x7EC DUP3 PUSH2 0x7CE JUMP JUMPDEST DUP5 DUP5 SLOAD PUSH2 0x753 JUMP JUMPDEST DUP3 SSTORE POP POP POP POP JUMP JUMPDEST PUSH0 SWAP1 JUMP JUMPDEST PUSH2 0x808 PUSH2 0x7FC JUMP JUMPDEST PUSH2 0x813 DUP2 DUP5 DUP5 PUSH2 0x7D7 JUMP JUMPDEST POP POP POP JUMP JUMPDEST JUMPDEST DUP2 DUP2 LT ISZERO PUSH2 0x836 JUMPI PUSH2 0x82B PUSH0 DUP3 PUSH2 0x800 JUMP JUMPDEST PUSH1 0x1 DUP2 ADD SWAP1 POP PUSH2 0x819 JUMP JUMPDEST POP POP JUMP JUMPDEST PUSH1 0x1F DUP3 GT ISZERO PUSH2 0x87B JUMPI PUSH2 0x84C DUP2 PUSH2 0x726 JUMP JUMPDEST PUSH2 0x855 DUP5 PUSH2 0x738 JUMP JUMPDEST DUP2 ADD PUSH1 0x20 DUP6 LT ISZERO PUSH2 0x864 JUMPI DUP2 SWAP1 POP JUMPDEST PUSH2 0x878 PUSH2 0x870 DUP6 PUSH2 0x738 JUMP JUMPDEST DUP4 ADD DUP3 PUSH2 0x818 JUMP JUMPDEST POP POP JUMPDEST POP POP POP JUMP JUMPDEST PUSH0 DUP3 DUP3 SHR SWAP1 POP SWAP3 SWAP2 POP POP JUMP JUMPDEST PUSH0 PUSH2 0x89B PUSH0 NOT DUP5 PUSH1 0x8 MUL PUSH2 0x880 JUMP JUMPDEST NOT DUP1 DUP4 AND SWAP2 POP POP SWAP3 SWAP2 POP POP JUMP JUMPDEST PUSH0 PUSH2 0x8B3 DUP4 DUP4 PUSH2 0x88C JUMP JUMPDEST SWAP2 POP DUP3 PUSH1 0x2 MUL DUP3 OR SWAP1 POP SWAP3 SWAP2 POP POP JUMP JUMPDEST PUSH2 0x8CC DUP3 PUSH2 0x5DB JUMP JUMPDEST PUSH8 0xFFFFFFFFFFFFFFFF DUP2 GT ISZERO PUSH2 0x8E5 JUMPI PUSH2 0x8E4 PUSH2 0x470 JUMP JUMPDEST JUMPDEST PUSH2 0x8EF DUP3 SLOAD PUSH2 0x6F6 JUMP JUMPDEST PUSH2 0x8FA DUP3 DUP3 DUP6 PUSH2 0x83A JUMP JUMPDEST PUSH0 PUSH1 0x20 SWAP1 POP PUSH1 0x1F DUP4 GT PUSH1 0x1 DUP2 EQ PUSH2 0x92B JUMPI PUSH0 DUP5 ISZERO PUSH2 0x919 JUMPI DUP3 DUP8 ADD MLOAD SWAP1 POP JUMPDEST PUSH2 0x923 DUP6 DUP3 PUSH2 0x8A8 JUMP JUMPDEST DUP7 SSTORE POP PUSH2 0x98A JUMP JUMPDEST PUSH1 0x1F NOT DUP5 AND PUSH2 0x939 DUP7 PUSH2 0x726 JUMP JUMPDEST PUSH0 JUMPDEST DUP3 DUP2 LT ISZERO PUSH2 0x960 JUMPI DUP5 DUP10 ADD MLOAD DUP3 SSTORE PUSH1 0x1 DUP3 ADD SWAP2 POP PUSH1 0x20 DUP6 ADD SWAP5 POP PUSH1 0x20 DUP2 ADD SWAP1 POP PUSH2 0x93B JUMP JUMPDEST DUP7 DUP4 LT ISZERO PUSH2 0x97D JUMPI DUP5 DUP10 ADD MLOAD PUSH2 0x979 PUSH1 0x1F DUP10 AND DUP3 PUSH2 0x88C JUMP JUMPDEST DUP4 SSTORE POP JUMPDEST PUSH1 0x1 PUSH1 0x2 DUP9 MUL ADD DUP9 SSTORE POP POP POP JUMPDEST POP POP POP POP POP POP JUMP JUMPDEST PUSH0 DUP2 SWAP1 POP SWAP3 SWAP2 POP POP JUMP JUMPDEST PUSH0 PUSH2 0x9A7 DUP4 DUP6 PUSH2 0x992 JUMP JUMPDEST SWAP4 POP PUSH2 0x9B4 DUP4 DUP6 DUP5 PUSH2 0x518 JUMP JUMPDEST DUP3 DUP5 ADD SWAP1 POP SWAP4 SWAP3 POP POP POP JUMP JUMPDEST PUSH0 PUSH2 0x9CC DUP3 DUP5 DUP7 PUSH2 0x99C JUMP JUMPDEST SWAP2 POP DUP2 SWAP1 POP SWAP4 SWAP3 POP POP POP JUMP INVALID LOG2 PUSH5 0x6970667358 0x22 SLT KECCAK256 MCOPY SWAP1 AND MSTORE 0xCC 0xCF SWAP13 CALL 0xBA 0xB1 LOG3 0xE8 0xAA CREATE XOR 0xA8 SDIV MSTORE 0x4C DUP7 0xE7 0x2C 0x2E ORIGIN DUP15 SWAP4 CREATE2 SSTORE 0xE4 0xC6 0x1E PUSH21 0x64736F6C634300081A003300000000000000000000 "
				},
				"gasEstimates": {
					"creation": {
						"codeDepositCost": "514800",
						"executionCost": "547",
						"totalCost": "515347"
					},
					"external": {
						"addPerson(string,uint256)": "infinite",
						"myFavoriteNumber()": "2424",
						"nameToFavoriteNumber(string)": "infinite",
						"people(uint256)": "infinite",
						"retreive()": "2520",
						"store(uint256)": "infinite"
					}
				},
				"methodIdentifiers": {
					"addPerson(string,uint256)": "6f760f41",
					"myFavoriteNumber()": "6d83bc57",
					"nameToFavoriteNumber(string)": "8bab8dd5",
					"people(uint256)": "9e7a13ad",
					"retreive()": "b05784b8",
					"store(uint256)": "6057361d"
				}
			},
			"storageLayout": {
				"storage": [
					{
						"astId": 23,
						"contract": "contracts/ExtraStorage.sol:ExtraStorage",
						"label": "myFavoriteNumber",
						"offset": 0,
						"slot": "0",
						"type": "t_uint256"
					},
					{
						"astId": 27,
						"contract": "contracts/ExtraStorage.sol:ExtraStorage",
						"label": "nameToFavoriteNumber",
						"offset": 0,
						"slot": "1",
						"type": "t_mapping(t_string_memory_ptr,t_uint256)"
					},
					{
						"astId": 36,
						"contract": "contracts/ExtraStorage.sol:ExtraStorage",
						"label": "people",
						"offset": 0,
						"slot": "2",
						"type": "t_array(t_struct(Person)32_storage)dyn_storage"
					}
				],
				"types": {
					"t_array(t_struct(Person)32_storage)dyn_storage": {
						"base": "t_struct(Person)32_storage",
						"encoding": "dynamic_array",
						"label": "struct SimpleStorage.Person[]",
						"numberOfBytes": "32"
					},
					"t_mapping(t_string_memory_ptr,t_uint256)": {
						"encoding": "mapping",
						"key": "t_string_memory_ptr",
						"label": "mapping(string => uint256)",
						"numberOfBytes": "32",
						"value": "t_uint256"
					},
					"t_string_memory_ptr": {
						"encoding": "bytes",
						"label": "string",
						"numberOfBytes": "32"
					},
					"t_string_storage": {
						"encoding": "bytes",
						"label": "string",
						"numberOfBytes": "32"
					},
					"t_struct(Person)32_storage": {
						"encoding": "inplace",
						"label": "struct SimpleStorage.Person",
						"members": [
							{
								"astId": 29,
								"contract": "contracts/ExtraStorage.sol:ExtraStorage",
								"label": "favoriteNumber",
								"offset": 0,
								"slot": "0",
								"type": "t_uint256"
							},
							{
								"astId": 31,
								"contract": "contracts/ExtraStorage.sol:ExtraStorage",
								"label": "name",
								"offset": 0,
								"slot": "1",
								"type": "t_string_storage"
							}
						],
						"numberOfBytes": "64"
					},
					"t_uint256": {
						"encoding": "inplace",
						"label": "uint256",
						"numberOfBytes": "32"
					}
				}
			},
			"userdoc": {
				"kind": "user",
				"methods": {},
				"version": 1
			}
		}
	}
}