{
	"contracts/HotelRoom.sol": {
		"HotelRoom": {
			"abi": [
				{
					"inputs": [],
					"stateMutability": "nonpayable",
					"type": "constructor"
				},
				{
					"anonymous": false,
					"inputs": [
						{
							"indexed": false,
							"internalType": "address",
							"name": "_occupant",
							"type": "address"
						},
						{
							"indexed": false,
							"internalType": "uint256",
							"name": "_value",
							"type": "uint256"
						}
					],
					"name": "Occupy",
					"type": "event"
				},
				{
					"inputs": [],
					"name": "book",
					"outputs": [],
					"stateMutability": "payable",
					"type": "function"
				},
				{
					"inputs": [],
					"name": "owner",
					"outputs": [
						{
							"internalType": "address payable",
							"name": "",
							"type": "address"
						}
					],
					"stateMutability": "view",
					"type": "function"
				},
				{
					"inputs": [],
					"name": "status",
					"outputs": [
						{
							"internalType": "enum HotelRoom.Statuses",
							"name": "",
							"type": "uint8"
						}
					],
					"stateMutability": "view",
					"type": "function"
				}
			],
			"devdoc": {
				"kind": "dev",
				"methods": {},
				"version": 1
			},
			"evm": {
				"assembly": "    /* \"contracts/HotelRoom.sol\":60:1311  contract HotelRoom {... */\n  mstore(0x40, 0x80)\n    /* \"contracts/HotelRoom.sol\":369:437  constructor() {... */\n  callvalue\n  dup1\n  iszero\n  tag_1\n  jumpi\n  0x00\n  dup1\n  revert\ntag_1:\n  pop\n    /* \"contracts/HotelRoom.sol\":414:424  msg.sender */\n  caller\n    /* \"contracts/HotelRoom.sol\":398:403  owner */\n  0x00\n  0x01\n    /* \"contracts/HotelRoom.sol\":398:425  owner = payable(msg.sender) */\n  0x0100\n  exp\n  dup2\n  sload\n  dup2\n  0xffffffffffffffffffffffffffffffffffffffff\n  mul\n  not\n  and\n  swap1\n  dup4\n  0xffffffffffffffffffffffffffffffffffffffff\n  and\n  mul\n  or\n  swap1\n  sstore\n  pop\n    /* \"contracts/HotelRoom.sol\":60:1311  contract HotelRoom {... */\n  dataSize(sub_0)\n  dup1\n  dataOffset(sub_0)\n  0x00\n  codecopy\n  0x00\n  return\nstop\n\nsub_0: assembly {\n        /* \"contracts/HotelRoom.sol\":60:1311  contract HotelRoom {... */\n      mstore(0x40, 0x80)\n      jumpi(tag_1, lt(calldatasize, 0x04))\n      shr(0xe0, calldataload(0x00))\n      dup1\n      0x05a8da72\n      eq\n      tag_2\n      jumpi\n      dup1\n      0x200d2ed2\n      eq\n      tag_3\n      jumpi\n      dup1\n      0x8da5cb5b\n      eq\n      tag_4\n      jumpi\n    tag_1:\n      0x00\n      dup1\n      revert\n        /* \"contracts/HotelRoom.sol\":908:1298  function  book() public payable costs(2 ether) onlyWhileVacant {... */\n    tag_2:\n      tag_5\n      tag_6\n      jump\t// in\n    tag_5:\n      stop\n        /* \"contracts/HotelRoom.sol\":234:257  Statuses public  status */\n    tag_3:\n      callvalue\n      dup1\n      iszero\n      tag_7\n      jumpi\n      0x00\n      dup1\n      revert\n    tag_7:\n      pop\n      tag_8\n      tag_9\n      jump\t// in\n    tag_8:\n      mload(0x40)\n      tag_10\n      swap2\n      swap1\n      tag_11\n      jump\t// in\n    tag_10:\n      mload(0x40)\n      dup1\n      swap2\n      sub\n      swap1\n      return\n        /* \"contracts/HotelRoom.sol\":327:356  address payable  public owner */\n    tag_4:\n      callvalue\n      dup1\n      iszero\n      tag_12\n      jumpi\n      0x00\n      dup1\n      revert\n    tag_12:\n      pop\n      tag_13\n      tag_14\n      jump\t// in\n    tag_13:\n      mload(0x40)\n      tag_15\n      swap2\n      swap1\n      tag_16\n      jump\t// in\n    tag_15:\n      mload(0x40)\n      dup1\n      swap2\n      sub\n      swap1\n      return\n        /* \"contracts/HotelRoom.sol\":908:1298  function  book() public payable costs(2 ether) onlyWhileVacant {... */\n    tag_6:\n        /* \"contracts/HotelRoom.sol\":946:953  2 ether */\n      0x1bc16d674ec80000\n        /* \"contracts/HotelRoom.sol\":574:581  _amount */\n      dup1\n        /* \"contracts/HotelRoom.sol\":560:569  msg.value */\n      callvalue\n        /* \"contracts/HotelRoom.sol\":560:581  msg.value >=  _amount */\n      lt\n      iszero\n        /* \"contracts/HotelRoom.sol\":552:612  require(msg.value >=  _amount, \"Not enough ether provided.\") */\n      tag_18\n      jumpi\n      mload(0x40)\n      0x08c379a000000000000000000000000000000000000000000000000000000000\n      dup2\n      mstore\n      0x04\n      add\n      tag_19\n      swap1\n      tag_20\n      jump\t// in\n    tag_19:\n      mload(0x40)\n      dup1\n      swap2\n      sub\n      swap1\n      revert\n    tag_18:\n        /* \"contracts/HotelRoom.sol\":789:804  Statuses.Vacant */\n      0x00\n        /* \"contracts/HotelRoom.sol\":779:804  status == Statuses.Vacant */\n      0x01\n      dup2\n      gt\n      iszero\n      tag_22\n      jumpi\n      tag_23\n      tag_24\n      jump\t// in\n    tag_23:\n    tag_22:\n        /* \"contracts/HotelRoom.sol\":779:785  status */\n      0x00\n      dup1\n      sload\n      swap1\n      0x0100\n      exp\n      swap1\n      div\n      0xff\n      and\n        /* \"contracts/HotelRoom.sol\":779:804  status == Statuses.Vacant */\n      0x01\n      dup2\n      gt\n      iszero\n      tag_25\n      jumpi\n      tag_26\n      tag_24\n      jump\t// in\n    tag_26:\n    tag_25:\n      eq\n        /* \"contracts/HotelRoom.sol\":771:856  require(status == Statuses.Vacant, \"This room is already booked(currently occupied)\") */\n      tag_27\n      jumpi\n      mload(0x40)\n      0x08c379a000000000000000000000000000000000000000000000000000000000\n      dup2\n      mstore\n      0x04\n      add\n      tag_28\n      swap1\n      tag_29\n      jump\t// in\n    tag_28:\n      mload(0x40)\n      dup1\n      swap2\n      sub\n      swap1\n      revert\n    tag_27:\n        /* \"contracts/HotelRoom.sol\":1044:1061  Statuses.Occupied */\n      0x01\n        /* \"contracts/HotelRoom.sol\":1035:1041  status */\n      0x00\n      dup1\n        /* \"contracts/HotelRoom.sol\":1035:1061  status = Statuses.Occupied */\n      0x0100\n      exp\n      dup2\n      sload\n      dup2\n      0xff\n      mul\n      not\n      and\n      swap1\n      dup4\n      0x01\n      dup2\n      gt\n      iszero\n      tag_31\n      jumpi\n      tag_32\n      tag_24\n      jump\t// in\n    tag_32:\n    tag_31:\n      mul\n      or\n      swap1\n      sstore\n      pop\n        /* \"contracts/HotelRoom.sol\":1117:1126  bool sent */\n      0x00\n        /* \"contracts/HotelRoom.sol\":1128:1145  bytes memory data */\n      dup1\n        /* \"contracts/HotelRoom.sol\":1149:1154  owner */\n      0x00\n      0x01\n      swap1\n      sload\n      swap1\n      0x0100\n      exp\n      swap1\n      div\n      0xffffffffffffffffffffffffffffffffffffffff\n      and\n        /* \"contracts/HotelRoom.sol\":1149:1159  owner.call */\n      0xffffffffffffffffffffffffffffffffffffffff\n      and\n        /* \"contracts/HotelRoom.sol\":1167:1176  msg.value */\n      callvalue\n        /* \"contracts/HotelRoom.sol\":1149:1181  owner.call{value: msg.value}(\"\") */\n      mload(0x40)\n      tag_33\n      swap1\n      tag_34\n      jump\t// in\n    tag_33:\n      0x00\n      mload(0x40)\n      dup1\n      dup4\n      sub\n      dup2\n      dup6\n      dup8\n      gas\n      call\n      swap3\n      pop\n      pop\n      pop\n      returndatasize\n      dup1\n      0x00\n      dup2\n      eq\n      tag_37\n      jumpi\n      mload(0x40)\n      swap2\n      pop\n      and(add(returndatasize, 0x3f), not(0x1f))\n      dup3\n      add\n      0x40\n      mstore\n      returndatasize\n      dup3\n      mstore\n      returndatasize\n      0x00\n      0x20\n      dup5\n      add\n      returndatacopy\n      jump(tag_36)\n    tag_37:\n      0x60\n      swap2\n      pop\n    tag_36:\n      pop\n        /* \"contracts/HotelRoom.sol\":1116:1181  (bool sent, bytes memory data) = owner.call{value: msg.value}(\"\") */\n      swap2\n      pop\n      swap2\n      pop\n        /* \"contracts/HotelRoom.sol\":1204:1208  sent */\n      dup2\n        /* \"contracts/HotelRoom.sol\":1196:1233  require(sent, \"Failed to sent ether\") */\n      tag_38\n      jumpi\n      mload(0x40)\n      0x08c379a000000000000000000000000000000000000000000000000000000000\n      dup2\n      mstore\n      0x04\n      add\n      tag_39\n      swap1\n      tag_40\n      jump\t// in\n    tag_39:\n      mload(0x40)\n      dup1\n      swap2\n      sub\n      swap1\n      revert\n    tag_38:\n        /* \"contracts/HotelRoom.sol\":1255:1284  Occupy(msg.sender, msg.value) */\n      0xba951166d42eb077151bdecb7cf6027562f04f0143b0c141b1bb0a33eef5d693\n        /* \"contracts/HotelRoom.sol\":1262:1272  msg.sender */\n      caller\n        /* \"contracts/HotelRoom.sol\":1274:1283  msg.value */\n      callvalue\n        /* \"contracts/HotelRoom.sol\":1255:1284  Occupy(msg.sender, msg.value) */\n      mload(0x40)\n      tag_41\n      swap3\n      swap2\n      swap1\n      tag_42\n      jump\t// in\n    tag_41:\n      mload(0x40)\n      dup1\n      swap2\n      sub\n      swap1\n      log1\n        /* \"contracts/HotelRoom.sol\":971:1298  {... */\n      pop\n      pop\n        /* \"contracts/HotelRoom.sol\":908:1298  function  book() public payable costs(2 ether) onlyWhileVacant {... */\n      pop\n      jump\t// out\n        /* \"contracts/HotelRoom.sol\":234:257  Statuses public  status */\n    tag_9:\n      0x00\n      dup1\n      sload\n      swap1\n      0x0100\n      exp\n      swap1\n      div\n      0xff\n      and\n      dup2\n      jump\t// out\n        /* \"contracts/HotelRoom.sol\":327:356  address payable  public owner */\n    tag_14:\n      0x00\n      0x01\n      swap1\n      sload\n      swap1\n      0x0100\n      exp\n      swap1\n      div\n      0xffffffffffffffffffffffffffffffffffffffff\n      and\n      dup2\n      jump\t// out\n        /* \"#utility.yul\":7:187   */\n    tag_24:\n        /* \"#utility.yul\":55:132   */\n      0x4e487b7100000000000000000000000000000000000000000000000000000000\n        /* \"#utility.yul\":52:53   */\n      0x00\n        /* \"#utility.yul\":45:133   */\n      mstore\n        /* \"#utility.yul\":152:156   */\n      0x21\n        /* \"#utility.yul\":149:150   */\n      0x04\n        /* \"#utility.yul\":142:157   */\n      mstore\n        /* \"#utility.yul\":176:180   */\n      0x24\n        /* \"#utility.yul\":173:174   */\n      0x00\n        /* \"#utility.yul\":166:181   */\n      revert\n        /* \"#utility.yul\":193:308   */\n    tag_43:\n        /* \"#utility.yul\":276:277   */\n      0x02\n        /* \"#utility.yul\":269:274   */\n      dup2\n        /* \"#utility.yul\":266:278   */\n      lt\n        /* \"#utility.yul\":256:302   */\n      tag_67\n      jumpi\n        /* \"#utility.yul\":282:300   */\n      tag_68\n      tag_24\n      jump\t// in\n    tag_68:\n        /* \"#utility.yul\":256:302   */\n    tag_67:\n        /* \"#utility.yul\":193:308   */\n      pop\n      jump\t// out\n        /* \"#utility.yul\":314:445   */\n    tag_44:\n        /* \"#utility.yul\":361:368   */\n      0x00\n        /* \"#utility.yul\":390:395   */\n      dup2\n        /* \"#utility.yul\":379:395   */\n      swap1\n      pop\n        /* \"#utility.yul\":396:439   */\n      tag_70\n        /* \"#utility.yul\":433:438   */\n      dup3\n        /* \"#utility.yul\":396:439   */\n      tag_43\n      jump\t// in\n    tag_70:\n        /* \"#utility.yul\":314:445   */\n      swap2\n      swap1\n      pop\n      jump\t// out\n        /* \"#utility.yul\":451:582   */\n    tag_45:\n        /* \"#utility.yul\":509:518   */\n      0x00\n        /* \"#utility.yul\":542:576   */\n      tag_72\n        /* \"#utility.yul\":570:575   */\n      dup3\n        /* \"#utility.yul\":542:576   */\n      tag_44\n      jump\t// in\n    tag_72:\n        /* \"#utility.yul\":529:576   */\n      swap1\n      pop\n        /* \"#utility.yul\":451:582   */\n      swap2\n      swap1\n      pop\n      jump\t// out\n        /* \"#utility.yul\":588:735   */\n    tag_46:\n        /* \"#utility.yul\":683:728   */\n      tag_74\n        /* \"#utility.yul\":722:727   */\n      dup2\n        /* \"#utility.yul\":683:728   */\n      tag_45\n      jump\t// in\n    tag_74:\n        /* \"#utility.yul\":678:681   */\n      dup3\n        /* \"#utility.yul\":671:729   */\n      mstore\n        /* \"#utility.yul\":588:735   */\n      pop\n      pop\n      jump\t// out\n        /* \"#utility.yul\":741:979   */\n    tag_11:\n        /* \"#utility.yul\":842:846   */\n      0x00\n        /* \"#utility.yul\":880:882   */\n      0x20\n        /* \"#utility.yul\":869:878   */\n      dup3\n        /* \"#utility.yul\":865:883   */\n      add\n        /* \"#utility.yul\":857:883   */\n      swap1\n      pop\n        /* \"#utility.yul\":893:972   */\n      tag_76\n        /* \"#utility.yul\":969:970   */\n      0x00\n        /* \"#utility.yul\":958:967   */\n      dup4\n        /* \"#utility.yul\":954:971   */\n      add\n        /* \"#utility.yul\":945:951   */\n      dup5\n        /* \"#utility.yul\":893:972   */\n      tag_46\n      jump\t// in\n    tag_76:\n        /* \"#utility.yul\":741:979   */\n      swap3\n      swap2\n      pop\n      pop\n      jump\t// out\n        /* \"#utility.yul\":985:1111   */\n    tag_47:\n        /* \"#utility.yul\":1022:1029   */\n      0x00\n        /* \"#utility.yul\":1062:1104   */\n      0xffffffffffffffffffffffffffffffffffffffff\n        /* \"#utility.yul\":1055:1060   */\n      dup3\n        /* \"#utility.yul\":1051:1105   */\n      and\n        /* \"#utility.yul\":1040:1105   */\n      swap1\n      pop\n        /* \"#utility.yul\":985:1111   */\n      swap2\n      swap1\n      pop\n      jump\t// out\n        /* \"#utility.yul\":1117:1221   */\n    tag_48:\n        /* \"#utility.yul\":1162:1169   */\n      0x00\n        /* \"#utility.yul\":1191:1215   */\n      tag_79\n        /* \"#utility.yul\":1209:1214   */\n      dup3\n        /* \"#utility.yul\":1191:1215   */\n      tag_47\n      jump\t// in\n    tag_79:\n        /* \"#utility.yul\":1180:1215   */\n      swap1\n      pop\n        /* \"#utility.yul\":1117:1221   */\n      swap2\n      swap1\n      pop\n      jump\t// out\n        /* \"#utility.yul\":1227:1369   */\n    tag_49:\n        /* \"#utility.yul\":1330:1362   */\n      tag_81\n        /* \"#utility.yul\":1356:1361   */\n      dup2\n        /* \"#utility.yul\":1330:1362   */\n      tag_48\n      jump\t// in\n    tag_81:\n        /* \"#utility.yul\":1325:1328   */\n      dup3\n        /* \"#utility.yul\":1318:1363   */\n      mstore\n        /* \"#utility.yul\":1227:1369   */\n      pop\n      pop\n      jump\t// out\n        /* \"#utility.yul\":1375:1629   */\n    tag_16:\n        /* \"#utility.yul\":1484:1488   */\n      0x00\n        /* \"#utility.yul\":1522:1524   */\n      0x20\n        /* \"#utility.yul\":1511:1520   */\n      dup3\n        /* \"#utility.yul\":1507:1525   */\n      add\n        /* \"#utility.yul\":1499:1525   */\n      swap1\n      pop\n        /* \"#utility.yul\":1535:1622   */\n      tag_83\n        /* \"#utility.yul\":1619:1620   */\n      0x00\n        /* \"#utility.yul\":1608:1617   */\n      dup4\n        /* \"#utility.yul\":1604:1621   */\n      add\n        /* \"#utility.yul\":1595:1601   */\n      dup5\n        /* \"#utility.yul\":1535:1622   */\n      tag_49\n      jump\t// in\n    tag_83:\n        /* \"#utility.yul\":1375:1629   */\n      swap3\n      swap2\n      pop\n      pop\n      jump\t// out\n        /* \"#utility.yul\":1635:1804   */\n    tag_50:\n        /* \"#utility.yul\":1719:1730   */\n      0x00\n        /* \"#utility.yul\":1753:1759   */\n      dup3\n        /* \"#utility.yul\":1748:1751   */\n      dup3\n        /* \"#utility.yul\":1741:1760   */\n      mstore\n        /* \"#utility.yul\":1793:1797   */\n      0x20\n        /* \"#utility.yul\":1788:1791   */\n      dup3\n        /* \"#utility.yul\":1784:1798   */\n      add\n        /* \"#utility.yul\":1769:1798   */\n      swap1\n      pop\n        /* \"#utility.yul\":1635:1804   */\n      swap3\n      swap2\n      pop\n      pop\n      jump\t// out\n        /* \"#utility.yul\":1810:1986   */\n    tag_51:\n        /* \"#utility.yul\":1950:1978   */\n      0x4e6f7420656e6f7567682065746865722070726f76696465642e000000000000\n        /* \"#utility.yul\":1946:1947   */\n      0x00\n        /* \"#utility.yul\":1938:1944   */\n      dup3\n        /* \"#utility.yul\":1934:1948   */\n      add\n        /* \"#utility.yul\":1927:1979   */\n      mstore\n        /* \"#utility.yul\":1810:1986   */\n      pop\n      jump\t// out\n        /* \"#utility.yul\":1992:2358   */\n    tag_52:\n        /* \"#utility.yul\":2134:2137   */\n      0x00\n        /* \"#utility.yul\":2155:2222   */\n      tag_87\n        /* \"#utility.yul\":2219:2221   */\n      0x1a\n        /* \"#utility.yul\":2214:2217   */\n      dup4\n        /* \"#utility.yul\":2155:2222   */\n      tag_50\n      jump\t// in\n    tag_87:\n        /* \"#utility.yul\":2148:2222   */\n      swap2\n      pop\n        /* \"#utility.yul\":2231:2324   */\n      tag_88\n        /* \"#utility.yul\":2320:2323   */\n      dup3\n        /* \"#utility.yul\":2231:2324   */\n      tag_51\n      jump\t// in\n    tag_88:\n        /* \"#utility.yul\":2349:2351   */\n      0x20\n        /* \"#utility.yul\":2344:2347   */\n      dup3\n        /* \"#utility.yul\":2340:2352   */\n      add\n        /* \"#utility.yul\":2333:2352   */\n      swap1\n      pop\n        /* \"#utility.yul\":1992:2358   */\n      swap2\n      swap1\n      pop\n      jump\t// out\n        /* \"#utility.yul\":2364:2783   */\n    tag_20:\n        /* \"#utility.yul\":2530:2534   */\n      0x00\n        /* \"#utility.yul\":2568:2570   */\n      0x20\n        /* \"#utility.yul\":2557:2566   */\n      dup3\n        /* \"#utility.yul\":2553:2571   */\n      add\n        /* \"#utility.yul\":2545:2571   */\n      swap1\n      pop\n        /* \"#utility.yul\":2617:2626   */\n      dup2\n        /* \"#utility.yul\":2611:2615   */\n      dup2\n        /* \"#utility.yul\":2607:2627   */\n      sub\n        /* \"#utility.yul\":2603:2604   */\n      0x00\n        /* \"#utility.yul\":2592:2601   */\n      dup4\n        /* \"#utility.yul\":2588:2605   */\n      add\n        /* \"#utility.yul\":2581:2628   */\n      mstore\n        /* \"#utility.yul\":2645:2776   */\n      tag_90\n        /* \"#utility.yul\":2771:2775   */\n      dup2\n        /* \"#utility.yul\":2645:2776   */\n      tag_52\n      jump\t// in\n    tag_90:\n        /* \"#utility.yul\":2637:2776   */\n      swap1\n      pop\n        /* \"#utility.yul\":2364:2783   */\n      swap2\n      swap1\n      pop\n      jump\t// out\n        /* \"#utility.yul\":2789:3023   */\n    tag_53:\n        /* \"#utility.yul\":2929:2963   */\n      0x5468697320726f6f6d20697320616c726561647920626f6f6b65642863757272\n        /* \"#utility.yul\":2925:2926   */\n      0x00\n        /* \"#utility.yul\":2917:2923   */\n      dup3\n        /* \"#utility.yul\":2913:2927   */\n      add\n        /* \"#utility.yul\":2906:2964   */\n      mstore\n        /* \"#utility.yul\":2998:3015   */\n      0x656e746c79206f63637570696564290000000000000000000000000000000000\n        /* \"#utility.yul\":2993:2995   */\n      0x20\n        /* \"#utility.yul\":2985:2991   */\n      dup3\n        /* \"#utility.yul\":2981:2996   */\n      add\n        /* \"#utility.yul\":2974:3016   */\n      mstore\n        /* \"#utility.yul\":2789:3023   */\n      pop\n      jump\t// out\n        /* \"#utility.yul\":3029:3395   */\n    tag_54:\n        /* \"#utility.yul\":3171:3174   */\n      0x00\n        /* \"#utility.yul\":3192:3259   */\n      tag_93\n        /* \"#utility.yul\":3256:3258   */\n      0x2f\n        /* \"#utility.yul\":3251:3254   */\n      dup4\n        /* \"#utility.yul\":3192:3259   */\n      tag_50\n      jump\t// in\n    tag_93:\n        /* \"#utility.yul\":3185:3259   */\n      swap2\n      pop\n        /* \"#utility.yul\":3268:3361   */\n      tag_94\n        /* \"#utility.yul\":3357:3360   */\n      dup3\n        /* \"#utility.yul\":3268:3361   */\n      tag_53\n      jump\t// in\n    tag_94:\n        /* \"#utility.yul\":3386:3388   */\n      0x40\n        /* \"#utility.yul\":3381:3384   */\n      dup3\n        /* \"#utility.yul\":3377:3389   */\n      add\n        /* \"#utility.yul\":3370:3389   */\n      swap1\n      pop\n        /* \"#utility.yul\":3029:3395   */\n      swap2\n      swap1\n      pop\n      jump\t// out\n        /* \"#utility.yul\":3401:3820   */\n    tag_29:\n        /* \"#utility.yul\":3567:3571   */\n      0x00\n        /* \"#utility.yul\":3605:3607   */\n      0x20\n        /* \"#utility.yul\":3594:3603   */\n      dup3\n        /* \"#utility.yul\":3590:3608   */\n      add\n        /* \"#utility.yul\":3582:3608   */\n      swap1\n      pop\n        /* \"#utility.yul\":3654:3663   */\n      dup2\n        /* \"#utility.yul\":3648:3652   */\n      dup2\n        /* \"#utility.yul\":3644:3664   */\n      sub\n        /* \"#utility.yul\":3640:3641   */\n      0x00\n        /* \"#utility.yul\":3629:3638   */\n      dup4\n        /* \"#utility.yul\":3625:3642   */\n      add\n        /* \"#utility.yul\":3618:3665   */\n      mstore\n        /* \"#utility.yul\":3682:3813   */\n      tag_96\n        /* \"#utility.yul\":3808:3812   */\n      dup2\n        /* \"#utility.yul\":3682:3813   */\n      tag_54\n      jump\t// in\n    tag_96:\n        /* \"#utility.yul\":3674:3813   */\n      swap1\n      pop\n        /* \"#utility.yul\":3401:3820   */\n      swap2\n      swap1\n      pop\n      jump\t// out\n        /* \"#utility.yul\":3826:3973   */\n    tag_55:\n        /* \"#utility.yul\":3927:3938   */\n      0x00\n        /* \"#utility.yul\":3964:3967   */\n      dup2\n        /* \"#utility.yul\":3949:3967   */\n      swap1\n      pop\n        /* \"#utility.yul\":3826:3973   */\n      swap3\n      swap2\n      pop\n      pop\n      jump\t// out\n        /* \"#utility.yul\":3979:4093   */\n    tag_56:\n      pop\n      jump\t// out\n        /* \"#utility.yul\":4099:4497   */\n    tag_57:\n        /* \"#utility.yul\":4258:4261   */\n      0x00\n        /* \"#utility.yul\":4279:4362   */\n      tag_100\n        /* \"#utility.yul\":4360:4361   */\n      0x00\n        /* \"#utility.yul\":4355:4358   */\n      dup4\n        /* \"#utility.yul\":4279:4362   */\n      tag_55\n      jump\t// in\n    tag_100:\n        /* \"#utility.yul\":4272:4362   */\n      swap2\n      pop\n        /* \"#utility.yul\":4371:4464   */\n      tag_101\n        /* \"#utility.yul\":4460:4463   */\n      dup3\n        /* \"#utility.yul\":4371:4464   */\n      tag_56\n      jump\t// in\n    tag_101:\n        /* \"#utility.yul\":4489:4490   */\n      0x00\n        /* \"#utility.yul\":4484:4487   */\n      dup3\n        /* \"#utility.yul\":4480:4491   */\n      add\n        /* \"#utility.yul\":4473:4491   */\n      swap1\n      pop\n        /* \"#utility.yul\":4099:4497   */\n      swap2\n      swap1\n      pop\n      jump\t// out\n        /* \"#utility.yul\":4503:4882   */\n    tag_34:\n        /* \"#utility.yul\":4687:4690   */\n      0x00\n        /* \"#utility.yul\":4709:4856   */\n      tag_103\n        /* \"#utility.yul\":4852:4855   */\n      dup3\n        /* \"#utility.yul\":4709:4856   */\n      tag_57\n      jump\t// in\n    tag_103:\n        /* \"#utility.yul\":4702:4856   */\n      swap2\n      pop\n        /* \"#utility.yul\":4873:4876   */\n      dup2\n        /* \"#utility.yul\":4866:4876   */\n      swap1\n      pop\n        /* \"#utility.yul\":4503:4882   */\n      swap2\n      swap1\n      pop\n      jump\t// out\n        /* \"#utility.yul\":4888:5058   */\n    tag_58:\n        /* \"#utility.yul\":5028:5050   */\n      0x4661696c656420746f2073656e74206574686572000000000000000000000000\n        /* \"#utility.yul\":5024:5025   */\n      0x00\n        /* \"#utility.yul\":5016:5022   */\n      dup3\n        /* \"#utility.yul\":5012:5026   */\n      add\n        /* \"#utility.yul\":5005:5051   */\n      mstore\n        /* \"#utility.yul\":4888:5058   */\n      pop\n      jump\t// out\n        /* \"#utility.yul\":5064:5430   */\n    tag_59:\n        /* \"#utility.yul\":5206:5209   */\n      0x00\n        /* \"#utility.yul\":5227:5294   */\n      tag_106\n        /* \"#utility.yul\":5291:5293   */\n      0x14\n        /* \"#utility.yul\":5286:5289   */\n      dup4\n        /* \"#utility.yul\":5227:5294   */\n      tag_50\n      jump\t// in\n    tag_106:\n        /* \"#utility.yul\":5220:5294   */\n      swap2\n      pop\n        /* \"#utility.yul\":5303:5396   */\n      tag_107\n        /* \"#utility.yul\":5392:5395   */\n      dup3\n        /* \"#utility.yul\":5303:5396   */\n      tag_58\n      jump\t// in\n    tag_107:\n        /* \"#utility.yul\":5421:5423   */\n      0x20\n        /* \"#utility.yul\":5416:5419   */\n      dup3\n        /* \"#utility.yul\":5412:5424   */\n      add\n        /* \"#utility.yul\":5405:5424   */\n      swap1\n      pop\n        /* \"#utility.yul\":5064:5430   */\n      swap2\n      swap1\n      pop\n      jump\t// out\n        /* \"#utility.yul\":5436:5855   */\n    tag_40:\n        /* \"#utility.yul\":5602:5606   */\n      0x00\n        /* \"#utility.yul\":5640:5642   */\n      0x20\n        /* \"#utility.yul\":5629:5638   */\n      dup3\n        /* \"#utility.yul\":5625:5643   */\n      add\n        /* \"#utility.yul\":5617:5643   */\n      swap1\n      pop\n        /* \"#utility.yul\":5689:5698   */\n      dup2\n        /* \"#utility.yul\":5683:5687   */\n      dup2\n        /* \"#utility.yul\":5679:5699   */\n      sub\n        /* \"#utility.yul\":5675:5676   */\n      0x00\n        /* \"#utility.yul\":5664:5673   */\n      dup4\n        /* \"#utility.yul\":5660:5677   */\n      add\n        /* \"#utility.yul\":5653:5700   */\n      mstore\n        /* \"#utility.yul\":5717:5848   */\n      tag_109\n        /* \"#utility.yul\":5843:5847   */\n      dup2\n        /* \"#utility.yul\":5717:5848   */\n      tag_59\n      jump\t// in\n    tag_109:\n        /* \"#utility.yul\":5709:5848   */\n      swap1\n      pop\n        /* \"#utility.yul\":5436:5855   */\n      swap2\n      swap1\n      pop\n      jump\t// out\n        /* \"#utility.yul\":5861:5957   */\n    tag_60:\n        /* \"#utility.yul\":5898:5905   */\n      0x00\n        /* \"#utility.yul\":5927:5951   */\n      tag_111\n        /* \"#utility.yul\":5945:5950   */\n      dup3\n        /* \"#utility.yul\":5927:5951   */\n      tag_47\n      jump\t// in\n    tag_111:\n        /* \"#utility.yul\":5916:5951   */\n      swap1\n      pop\n        /* \"#utility.yul\":5861:5957   */\n      swap2\n      swap1\n      pop\n      jump\t// out\n        /* \"#utility.yul\":5963:6081   */\n    tag_61:\n        /* \"#utility.yul\":6050:6074   */\n      tag_113\n        /* \"#utility.yul\":6068:6073   */\n      dup2\n        /* \"#utility.yul\":6050:6074   */\n      tag_60\n      jump\t// in\n    tag_113:\n        /* \"#utility.yul\":6045:6048   */\n      dup3\n        /* \"#utility.yul\":6038:6075   */\n      mstore\n        /* \"#utility.yul\":5963:6081   */\n      pop\n      pop\n      jump\t// out\n        /* \"#utility.yul\":6087:6164   */\n    tag_62:\n        /* \"#utility.yul\":6124:6131   */\n      0x00\n        /* \"#utility.yul\":6153:6158   */\n      dup2\n        /* \"#utility.yul\":6142:6158   */\n      swap1\n      pop\n        /* \"#utility.yul\":6087:6164   */\n      swap2\n      swap1\n      pop\n      jump\t// out\n        /* \"#utility.yul\":6170:6288   */\n    tag_63:\n        /* \"#utility.yul\":6257:6281   */\n      tag_116\n        /* \"#utility.yul\":6275:6280   */\n      dup2\n        /* \"#utility.yul\":6257:6281   */\n      tag_62\n      jump\t// in\n    tag_116:\n        /* \"#utility.yul\":6252:6255   */\n      dup3\n        /* \"#utility.yul\":6245:6282   */\n      mstore\n        /* \"#utility.yul\":6170:6288   */\n      pop\n      pop\n      jump\t// out\n        /* \"#utility.yul\":6294:6626   */\n    tag_42:\n        /* \"#utility.yul\":6415:6419   */\n      0x00\n        /* \"#utility.yul\":6453:6455   */\n      0x40\n        /* \"#utility.yul\":6442:6451   */\n      dup3\n        /* \"#utility.yul\":6438:6456   */\n      add\n        /* \"#utility.yul\":6430:6456   */\n      swap1\n      pop\n        /* \"#utility.yul\":6466:6537   */\n      tag_118\n        /* \"#utility.yul\":6534:6535   */\n      0x00\n        /* \"#utility.yul\":6523:6532   */\n      dup4\n        /* \"#utility.yul\":6519:6536   */\n      add\n        /* \"#utility.yul\":6510:6516   */\n      dup6\n        /* \"#utility.yul\":6466:6537   */\n      tag_61\n      jump\t// in\n    tag_118:\n        /* \"#utility.yul\":6547:6619   */\n      tag_119\n        /* \"#utility.yul\":6615:6617   */\n      0x20\n        /* \"#utility.yul\":6604:6613   */\n      dup4\n        /* \"#utility.yul\":6600:6618   */\n      add\n        /* \"#utility.yul\":6591:6597   */\n      dup5\n        /* \"#utility.yul\":6547:6619   */\n      tag_63\n      jump\t// in\n    tag_119:\n        /* \"#utility.yul\":6294:6626   */\n      swap4\n      swap3\n      pop\n      pop\n      pop\n      jump\t// out\n\n    auxdata: 0xa2646970667358221220ce64c95ce6b27965e7ad8c91940c81a12908178389efeb43c18957bc7b202e3164736f6c634300081a0033\n}\n",
				"bytecode": {
					"linkReferences": {},
					"object": "6080604052348015600e575f80fd5b50335f60016101000a81548173ffffffffffffffffffffffffffffffffffffffff021916908373ffffffffffffffffffffffffffffffffffffffff1602179055506105e28061005c5f395ff3fe608060405260043610610033575f3560e01c806305a8da7214610037578063200d2ed2146100415780638da5cb5b1461006b575b5f80fd5b61003f610095565b005b34801561004c575f80fd5b50610055610285565b604051610062919061032d565b60405180910390f35b348015610076575f80fd5b5061007f610295565b60405161008c9190610385565b60405180910390f35b671bc16d674ec80000803410156100e1576040517f08c379a00000000000000000000000000000000000000000000000000000000081526004016100d8906103f8565b60405180910390fd5b5f60018111156100f4576100f36102ba565b5b5f8054906101000a900460ff166001811115610113576101126102ba565b5b14610153576040517f08c379a000000000000000000000000000000000000000000000000000000000815260040161014a90610486565b60405180910390fd5b60015f806101000a81548160ff02191690836001811115610177576101766102ba565b5b02179055505f805f60019054906101000a900473ffffffffffffffffffffffffffffffffffffffff1673ffffffffffffffffffffffffffffffffffffffff16346040516101c3906104d1565b5f6040518083038185875af1925050503d805f81146101fd576040519150601f19603f3d011682016040523d82523d5f602084013e610202565b606091505b509150915081610247576040517f08c379a000000000000000000000000000000000000000000000000000000000815260040161023e9061052f565b60405180910390fd5b7fba951166d42eb077151bdecb7cf6027562f04f0143b0c141b1bb0a33eef5d6933334604051610278929190610585565b60405180910390a1505050565b5f8054906101000a900460ff1681565b5f60019054906101000a900473ffffffffffffffffffffffffffffffffffffffff1681565b7f4e487b71000000000000000000000000000000000000000000000000000000005f52602160045260245ffd5b600281106102f8576102f76102ba565b5b50565b5f819050610308826102e7565b919050565b5f610317826102fb565b9050919050565b6103278161030d565b82525050565b5f6020820190506103405f83018461031e565b92915050565b5f73ffffffffffffffffffffffffffffffffffffffff82169050919050565b5f61036f82610346565b9050919050565b61037f81610365565b82525050565b5f6020820190506103985f830184610376565b92915050565b5f82825260208201905092915050565b7f4e6f7420656e6f7567682065746865722070726f76696465642e0000000000005f82015250565b5f6103e2601a8361039e565b91506103ed826103ae565b602082019050919050565b5f6020820190508181035f83015261040f816103d6565b9050919050565b7f5468697320726f6f6d20697320616c726561647920626f6f6b656428637572725f8201527f656e746c79206f63637570696564290000000000000000000000000000000000602082015250565b5f610470602f8361039e565b915061047b82610416565b604082019050919050565b5f6020820190508181035f83015261049d81610464565b9050919050565b5f81905092915050565b50565b5f6104bc5f836104a4565b91506104c7826104ae565b5f82019050919050565b5f6104db826104b1565b9150819050919050565b7f4661696c656420746f2073656e742065746865720000000000000000000000005f82015250565b5f61051960148361039e565b9150610524826104e5565b602082019050919050565b5f6020820190508181035f8301526105468161050d565b9050919050565b5f61055782610346565b9050919050565b6105678161054d565b82525050565b5f819050919050565b61057f8161056d565b82525050565b5f6040820190506105985f83018561055e565b6105a56020830184610576565b939250505056fea2646970667358221220ce64c95ce6b27965e7ad8c91940c81a12908178389efeb43c18957bc7b202e3164736f6c634300081a0033",
					"opcodes": "PUSH1 0x80 PUSH1 0x40 MSTORE CALLVALUE DUP1 ISZERO PUSH1 0xE JUMPI PUSH0 DUP1 REVERT JUMPDEST POP CALLER PUSH0 PUSH1 0x1 PUSH2 0x100 EXP DUP2 SLOAD DUP2 PUSH20 0xFFFFFFFFFFFFFFFFFFFFFFFFFFFFFFFFFFFFFFFF MUL NOT AND SWAP1 DUP4 PUSH20 0xFFFFFFFFFFFFFFFFFFFFFFFFFFFFFFFFFFFFFFFF AND MUL OR SWAP1 SSTORE POP PUSH2 0x5E2 DUP1 PUSH2 0x5C PUSH0 CODECOPY PUSH0 RETURN INVALID PUSH1 0x80 PUSH1 0x40 MSTORE PUSH1 0x4 CALLDATASIZE LT PUSH2 0x33 JUMPI PUSH0 CALLDATALOAD PUSH1 0xE0 SHR DUP1 PUSH4 0x5A8DA72 EQ PUSH2 0x37 JUMPI DUP1 PUSH4 0x200D2ED2 EQ PUSH2 0x41 JUMPI DUP1 PUSH4 0x8DA5CB5B EQ PUSH2 0x6B JUMPI JUMPDEST PUSH0 DUP1 REVERT JUMPDEST PUSH2 0x3F PUSH2 0x95 JUMP JUMPDEST STOP JUMPDEST CALLVALUE DUP1 ISZERO PUSH2 0x4C JUMPI PUSH0 DUP1 REVERT JUMPDEST POP PUSH2 0x55 PUSH2 0x285 JUMP JUMPDEST PUSH1 0x40 MLOAD PUSH2 0x62 SWAP2 SWAP1 PUSH2 0x32D JUMP JUMPDEST PUSH1 0x40 MLOAD DUP1 SWAP2 SUB SWAP1 RETURN JUMPDEST CALLVALUE DUP1 ISZERO PUSH2 0x76 JUMPI PUSH0 DUP1 REVERT JUMPDEST POP PUSH2 0x7F PUSH2 0x295 JUMP JUMPDEST PUSH1 0x40 MLOAD PUSH2 0x8C SWAP2 SWAP1 PUSH2 0x385 JUMP JUMPDEST PUSH1 0x40 MLOAD DUP1 SWAP2 SUB SWAP1 RETURN JUMPDEST PUSH8 0x1BC16D674EC80000 DUP1 CALLVALUE LT ISZERO PUSH2 0xE1 JUMPI PUSH1 0x40 MLOAD PUSH32 0x8C379A000000000000000000000000000000000000000000000000000000000 DUP2 MSTORE PUSH1 0x4 ADD PUSH2 0xD8 SWAP1 PUSH2 0x3F8 JUMP JUMPDEST PUSH1 0x40 MLOAD DUP1 SWAP2 SUB SWAP1 REVERT JUMPDEST PUSH0 PUSH1 0x1 DUP2 GT ISZERO PUSH2 0xF4 JUMPI PUSH2 0xF3 PUSH2 0x2BA JUMP JUMPDEST JUMPDEST PUSH0 DUP1 SLOAD SWAP1 PUSH2 0x100 EXP SWAP1 DIV PUSH1 0xFF AND PUSH1 0x1 DUP2 GT ISZERO PUSH2 0x113 JUMPI PUSH2 0x112 PUSH2 0x2BA JUMP JUMPDEST JUMPDEST EQ PUSH2 0x153 JUMPI PUSH1 0x40 MLOAD PUSH32 0x8C379A000000000000000000000000000000000000000000000000000000000 DUP2 MSTORE PUSH1 0x4 ADD PUSH2 0x14A SWAP1 PUSH2 0x486 JUMP JUMPDEST PUSH1 0x40 MLOAD DUP1 SWAP2 SUB SWAP1 REVERT JUMPDEST PUSH1 0x1 PUSH0 DUP1 PUSH2 0x100 EXP DUP2 SLOAD DUP2 PUSH1 0xFF MUL NOT AND SWAP1 DUP4 PUSH1 0x1 DUP2 GT ISZERO PUSH2 0x177 JUMPI PUSH2 0x176 PUSH2 0x2BA JUMP JUMPDEST JUMPDEST MUL OR SWAP1 SSTORE POP PUSH0 DUP1 PUSH0 PUSH1 0x1 SWAP1 SLOAD SWAP1 PUSH2 0x100 EXP SWAP1 DIV PUSH20 0xFFFFFFFFFFFFFFFFFFFFFFFFFFFFFFFFFFFFFFFF AND PUSH20 0xFFFFFFFFFFFFFFFFFFFFFFFFFFFFFFFFFFFFFFFF AND CALLVALUE PUSH1 0x40 MLOAD PUSH2 0x1C3 SWAP1 PUSH2 0x4D1 JUMP JUMPDEST PUSH0 PUSH1 0x40 MLOAD DUP1 DUP4 SUB DUP2 DUP6 DUP8 GAS CALL SWAP3 POP POP POP RETURNDATASIZE DUP1 PUSH0 DUP2 EQ PUSH2 0x1FD JUMPI PUSH1 0x40 MLOAD SWAP2 POP PUSH1 0x1F NOT PUSH1 0x3F RETURNDATASIZE ADD AND DUP3 ADD PUSH1 0x40 MSTORE RETURNDATASIZE DUP3 MSTORE RETURNDATASIZE PUSH0 PUSH1 0x20 DUP5 ADD RETURNDATACOPY PUSH2 0x202 JUMP JUMPDEST PUSH1 0x60 SWAP2 POP JUMPDEST POP SWAP2 POP SWAP2 POP DUP2 PUSH2 0x247 JUMPI PUSH1 0x40 MLOAD PUSH32 0x8C379A000000000000000000000000000000000000000000000000000000000 DUP2 MSTORE PUSH1 0x4 ADD PUSH2 0x23E SWAP1 PUSH2 0x52F JUMP JUMPDEST PUSH1 0x40 MLOAD DUP1 SWAP2 SUB SWAP1 REVERT JUMPDEST PUSH32 0xBA951166D42EB077151BDECB7CF6027562F04F0143B0C141B1BB0A33EEF5D693 CALLER CALLVALUE PUSH1 0x40 MLOAD PUSH2 0x278 SWAP3 SWAP2 SWAP1 PUSH2 0x585 JUMP JUMPDEST PUSH1 0x40 MLOAD DUP1 SWAP2 SUB SWAP1 LOG1 POP POP POP JUMP JUMPDEST PUSH0 DUP1 SLOAD SWAP1 PUSH2 0x100 EXP SWAP1 DIV PUSH1 0xFF AND DUP2 JUMP JUMPDEST PUSH0 PUSH1 0x1 SWAP1 SLOAD SWAP1 PUSH2 0x100 EXP SWAP1 DIV PUSH20 0xFFFFFFFFFFFFFFFFFFFFFFFFFFFFFFFFFFFFFFFF AND DUP2 JUMP JUMPDEST PUSH32 0x4E487B7100000000000000000000000000000000000000000000000000000000 PUSH0 MSTORE PUSH1 0x21 PUSH1 0x4 MSTORE PUSH1 0x24 PUSH0 REVERT JUMPDEST PUSH1 0x2 DUP2 LT PUSH2 0x2F8 JUMPI PUSH2 0x2F7 PUSH2 0x2BA JUMP JUMPDEST JUMPDEST POP JUMP JUMPDEST PUSH0 DUP2 SWAP1 POP PUSH2 0x308 DUP3 PUSH2 0x2E7 JUMP JUMPDEST SWAP2 SWAP1 POP JUMP JUMPDEST PUSH0 PUSH2 0x317 DUP3 PUSH2 0x2FB JUMP JUMPDEST SWAP1 POP SWAP2 SWAP1 POP JUMP JUMPDEST PUSH2 0x327 DUP2 PUSH2 0x30D JUMP JUMPDEST DUP3 MSTORE POP POP JUMP JUMPDEST PUSH0 PUSH1 0x20 DUP3 ADD SWAP1 POP PUSH2 0x340 PUSH0 DUP4 ADD DUP5 PUSH2 0x31E JUMP JUMPDEST SWAP3 SWAP2 POP POP JUMP JUMPDEST PUSH0 PUSH20 0xFFFFFFFFFFFFFFFFFFFFFFFFFFFFFFFFFFFFFFFF DUP3 AND SWAP1 POP SWAP2 SWAP1 POP JUMP JUMPDEST PUSH0 PUSH2 0x36F DUP3 PUSH2 0x346 JUMP JUMPDEST SWAP1 POP SWAP2 SWAP1 POP JUMP JUMPDEST PUSH2 0x37F DUP2 PUSH2 0x365 JUMP JUMPDEST DUP3 MSTORE POP POP JUMP JUMPDEST PUSH0 PUSH1 0x20 DUP3 ADD SWAP1 POP PUSH2 0x398 PUSH0 DUP4 ADD DUP5 PUSH2 0x376 JUMP JUMPDEST SWAP3 SWAP2 POP POP JUMP JUMPDEST PUSH0 DUP3 DUP3 MSTORE PUSH1 0x20 DUP3 ADD SWAP1 POP SWAP3 SWAP2 POP POP JUMP JUMPDEST PUSH32 0x4E6F7420656E6F7567682065746865722070726F76696465642E000000000000 PUSH0 DUP3 ADD MSTORE POP JUMP JUMPDEST PUSH0 PUSH2 0x3E2 PUSH1 0x1A DUP4 PUSH2 0x39E JUMP JUMPDEST SWAP2 POP PUSH2 0x3ED DUP3 PUSH2 0x3AE JUMP JUMPDEST PUSH1 0x20 DUP3 ADD SWAP1 POP SWAP2 SWAP1 POP JUMP JUMPDEST PUSH0 PUSH1 0x20 DUP3 ADD SWAP1 POP DUP2 DUP2 SUB PUSH0 DUP4 ADD MSTORE PUSH2 0x40F DUP2 PUSH2 0x3D6 JUMP JUMPDEST SWAP1 POP SWAP2 SWAP1 POP JUMP JUMPDEST PUSH32 0x5468697320726F6F6D20697320616C726561647920626F6F6B65642863757272 PUSH0 DUP3 ADD MSTORE PUSH32 0x656E746C79206F63637570696564290000000000000000000000000000000000 PUSH1 0x20 DUP3 ADD MSTORE POP JUMP JUMPDEST PUSH0 PUSH2 0x470 PUSH1 0x2F DUP4 PUSH2 0x39E JUMP JUMPDEST SWAP2 POP PUSH2 0x47B DUP3 PUSH2 0x416 JUMP JUMPDEST PUSH1 0x40 DUP3 ADD SWAP1 POP SWAP2 SWAP1 POP JUMP JUMPDEST PUSH0 PUSH1 0x20 DUP3 ADD SWAP1 POP DUP2 DUP2 SUB PUSH0 DUP4 ADD MSTORE PUSH2 0x49D DUP2 PUSH2 0x464 JUMP JUMPDEST SWAP1 POP SWAP2 SWAP1 POP JUMP JUMPDEST PUSH0 DUP2 SWAP1 POP SWAP3 SWAP2 POP POP JUMP JUMPDEST POP JUMP JUMPDEST PUSH0 PUSH2 0x4BC PUSH0 DUP4 PUSH2 0x4A4 JUMP JUMPDEST SWAP2 POP PUSH2 0x4C7 DUP3 PUSH2 0x4AE JUMP JUMPDEST PUSH0 DUP3 ADD SWAP1 POP SWAP2 SWAP1 POP JUMP JUMPDEST PUSH0 PUSH2 0x4DB DUP3 PUSH2 0x4B1 JUMP JUMPDEST SWAP2 POP DUP2 SWAP1 POP SWAP2 SWAP1 POP JUMP JUMPDEST PUSH32 0x4661696C656420746F2073656E74206574686572000000000000000000000000 PUSH0 DUP3 ADD MSTORE POP JUMP JUMPDEST PUSH0 PUSH2 0x519 PUSH1 0x14 DUP4 PUSH2 0x39E JUMP JUMPDEST SWAP2 POP PUSH2 0x524 DUP3 PUSH2 0x4E5 JUMP JUMPDEST PUSH1 0x20 DUP3 ADD SWAP1 POP SWAP2 SWAP1 POP JUMP JUMPDEST PUSH0 PUSH1 0x20 DUP3 ADD SWAP1 POP DUP2 DUP2 SUB PUSH0 DUP4 ADD MSTORE PUSH2 0x546 DUP2 PUSH2 0x50D JUMP JUMPDEST SWAP1 POP SWAP2 SWAP1 POP JUMP JUMPDEST PUSH0 PUSH2 0x557 DUP3 PUSH2 0x346 JUMP JUMPDEST SWAP1 POP SWAP2 SWAP1 POP JUMP JUMPDEST PUSH2 0x567 DUP2 PUSH2 0x54D JUMP JUMPDEST DUP3 MSTORE POP POP JUMP JUMPDEST PUSH0 DUP2 SWAP1 POP SWAP2 SWAP1 POP JUMP JUMPDEST PUSH2 0x57F DUP2 PUSH2 0x56D JUMP JUMPDEST DUP3 MSTORE POP POP JUMP JUMPDEST PUSH0 PUSH1 0x40 DUP3 ADD SWAP1 POP PUSH2 0x598 PUSH0 DUP4 ADD DUP6 PUSH2 0x55E JUMP JUMPDEST PUSH2 0x5A5 PUSH1 0x20 DUP4 ADD DUP5 PUSH2 0x576 JUMP JUMPDEST SWAP4 SWAP3 POP POP POP JUMP INVALID LOG2 PUSH5 0x6970667358 0x22 SLT KECCAK256 0xCE PUSH5 0xC95CE6B279 PUSH6 0xE7AD8C91940C DUP2 LOG1 0x29 ADDMOD OR DUP4 DUP10 0xEF 0xEB NUMBER 0xC1 DUP10 JUMPI 0xBC PUSH28 0x202E3164736F6C634300081A00330000000000000000000000000000 "
				},
				"gasEstimates": {
					"creation": {
						"codeDepositCost": "301200",
						"executionCost": "24656",
						"totalCost": "325856"
					},
					"external": {
						"book()": "infinite",
						"owner()": "2580",
						"status()": "2551"
					}
				},
				"methodIdentifiers": {
					"book()": "05a8da72",
					"owner()": "8da5cb5b",
					"status()": "200d2ed2"
				}
			},
			"storageLayout": {
				"storage": [
					{
						"astId": 7,
						"contract": "contracts/HotelRoom.sol:HotelRoom",
						"label": "status",
						"offset": 0,
						"slot": "0",
						"type": "t_enum(Statuses)4"
					},
					{
						"astId": 15,
						"contract": "contracts/HotelRoom.sol:HotelRoom",
						"label": "owner",
						"offset": 1,
						"slot": "0",
						"type": "t_address_payable"
					}
				],
				"types": {
					"t_address_payable": {
						"encoding": "inplace",
						"label": "address payable",
						"numberOfBytes": "20"
					},
					"t_enum(Statuses)4": {
						"encoding": "inplace",
						"label": "enum HotelRoom.Statuses",
						"numberOfBytes": "1"
					}
				}
			},
			"userdoc": {
				"kind": "user",
				"methods": {},
				"version": 1
			}
		}
	}
}