{
	"data": {
		"bytecode": {
			"linkReferences": {},
			"object": "60a0604052348015600e575f80fd5b503373ffffffffffffffffffffffffffffffffffffffff1660808173ffffffffffffffffffffffffffffffffffffffff1681525050608051610be66100625f395f818161026601526104b20152610be65ff3fe608060405260043610610058575f3560e01c80633ccfd60b146100715780635441cfac146100875780636b69a592146100c3578063b60d4288146100ed578063dba6335f146100f7578063dc0d3dff1461012157610067565b366100675761006561015d565b005b61006f61015d565b005b34801561007c575f80fd5b50610085610264565b005b348015610092575f80fd5b506100ad60048036038101906100a891906106eb565b61048f565b6040516100ba919061072e565b60405180910390f35b3480156100ce575f80fd5b506100d76104a4565b6040516100e4919061072e565b60405180910390f35b6100f561015d565b005b348015610102575f80fd5b5061010b6104b0565b6040516101189190610756565b60405180910390f35b34801561012c575f80fd5b5061014760048036038101906101429190610799565b6104d4565b6040516101549190610756565b60405180910390f35b674563918244f4000061016f3461050e565b10156101b0576040517f08c379a00000000000000000000000000000000000000000000000000000000081526004016101a79061081e565b60405180910390fd5b5f33908060018154018082558091505060019003905f5260205f20015f9091909190916101000a81548173ffffffffffffffffffffffffffffffffffffffff021916908373ffffffffffffffffffffffffffffffffffffffff1602179055503460015f3373ffffffffffffffffffffffffffffffffffffffff1673ffffffffffffffffffffffffffffffffffffffff1681526020019081526020015f205f82825461025b9190610869565b92505081905550565b7f000000000000000000000000000000000000000000000000000000000000000073ffffffffffffffffffffffffffffffffffffffff163373ffffffffffffffffffffffffffffffffffffffff16146102e9576040517f30cd747100000000000000000000000000000000000000000000000000000000815260040160405180910390fd5b5f5b5f80549050811015610385575f80828154811061030b5761030a61089c565b5b905f5260205f20015f9054906101000a900473ffffffffffffffffffffffffffffffffffffffff1690505f60015f8373ffffffffffffffffffffffffffffffffffffffff1673ffffffffffffffffffffffffffffffffffffffff1681526020019081526020015f20819055505080806001019150506102eb565b505f67ffffffffffffffff8111156103a05761039f6108c9565b5b6040519080825280602002602001820160405280156103ce5781602001602082028036833780820191505090505b505f90805190602001906103e39291906105eb565b505f3373ffffffffffffffffffffffffffffffffffffffff164760405161040990610923565b5f6040518083038185875af1925050503d805f8114610443576040519150601f19603f3d011682016040523d82523d5f602084013e610448565b606091505b505090508061048c576040517f08c379a000000000000000000000000000000000000000000000000000000000815260040161048390610981565b60405180910390fd5b50565b6001602052805f5260405f205f915090505481565b674563918244f4000081565b7f000000000000000000000000000000000000000000000000000000000000000081565b5f81815481106104e2575f80fd5b905f5260205f20015f915054906101000a900473ffffffffffffffffffffffffffffffffffffffff1681565b5f80610518610546565b90505f670de0b6b3a76400008483610530919061099f565b61053a9190610a0d565b90508092505050919050565b5f8073694aa1769357215de4fac081bf1f309adc32530690505f8173ffffffffffffffffffffffffffffffffffffffff1663feaf968c6040518163ffffffff1660e01b815260040160a060405180830381865afa1580156105a9573d5f803e3d5ffd5b505050506040513d601f19601f820116820180604052508101906105cd9190610ac3565b5050509150506402540be400816105e49190610b3a565b9250505090565b828054828255905f5260205f20908101928215610661579160200282015b82811115610660578251825f6101000a81548173ffffffffffffffffffffffffffffffffffffffff021916908373ffffffffffffffffffffffffffffffffffffffff16021790555091602001919060010190610609565b5b50905061066e9190610672565b5090565b5b80821115610689575f815f905550600101610673565b5090565b5f80fd5b5f73ffffffffffffffffffffffffffffffffffffffff82169050919050565b5f6106ba82610691565b9050919050565b6106ca816106b0565b81146106d4575f80fd5b50565b5f813590506106e5816106c1565b92915050565b5f60208284031215610700576106ff61068d565b5b5f61070d848285016106d7565b91505092915050565b5f819050919050565b61072881610716565b82525050565b5f6020820190506107415f83018461071f565b92915050565b610750816106b0565b82525050565b5f6020820190506107695f830184610747565b92915050565b61077881610716565b8114610782575f80fd5b50565b5f813590506107938161076f565b92915050565b5f602082840312156107ae576107ad61068d565b5b5f6107bb84828501610785565b91505092915050565b5f82825260208201905092915050565b7f4469646e27742073656e6420656e6f75676820657468657200000000000000005f82015250565b5f6108086018836107c4565b9150610813826107d4565b602082019050919050565b5f6020820190508181035f830152610835816107fc565b9050919050565b7f4e487b71000000000000000000000000000000000000000000000000000000005f52601160045260245ffd5b5f61087382610716565b915061087e83610716565b92508282019050808211156108965761089561083c565b5b92915050565b7f4e487b71000000000000000000000000000000000000000000000000000000005f52603260045260245ffd5b7f4e487b71000000000000000000000000000000000000000000000000000000005f52604160045260245ffd5b5f81905092915050565b50565b5f61090e5f836108f6565b915061091982610900565b5f82019050919050565b5f61092d82610903565b9150819050919050565b7f63616c6c206661696c65640000000000000000000000000000000000000000005f82015250565b5f61096b600b836107c4565b915061097682610937565b602082019050919050565b5f6020820190508181035f8301526109988161095f565b9050919050565b5f6109a982610716565b91506109b483610716565b92508282026109c281610716565b915082820484148315176109d9576109d861083c565b5b5092915050565b7f4e487b71000000000000000000000000000000000000000000000000000000005f52601260045260245ffd5b5f610a1782610716565b9150610a2283610716565b925082610a3257610a316109e0565b5b828204905092915050565b5f69ffffffffffffffffffff82169050919050565b610a5b81610a3d565b8114610a65575f80fd5b50565b5f81519050610a7681610a52565b92915050565b5f819050919050565b610a8e81610a7c565b8114610a98575f80fd5b50565b5f81519050610aa981610a85565b92915050565b5f81519050610abd8161076f565b92915050565b5f805f805f60a08688031215610adc57610adb61068d565b5b5f610ae988828901610a68565b9550506020610afa88828901610a9b565b9450506040610b0b88828901610aaf565b9350506060610b1c88828901610aaf565b9250506080610b2d88828901610a68565b9150509295509295909350565b5f610b4482610a7c565b9150610b4f83610a7c565b9250828202610b5d81610a7c565b91507f800000000000000000000000000000000000000000000000000000000000000084145f84121615610b9457610b9361083c565b5b8282058414831517610ba957610ba861083c565b5b509291505056fea264697066735822122035241bbdc7c8a927ab87c09da2e14d2e31e58739ce339a5651ae02d21466c62a64736f6c634300081a0033",
			"opcodes": "PUSH1 0xA0 PUSH1 0x40 MSTORE CALLVALUE DUP1 ISZERO PUSH1 0xE JUMPI PUSH0 DUP1 REVERT JUMPDEST POP CALLER PUSH20 0xFFFFFFFFFFFFFFFFFFFFFFFFFFFFFFFFFFFFFFFF AND PUSH1 0x80 DUP2 PUSH20 0xFFFFFFFFFFFFFFFFFFFFFFFFFFFFFFFFFFFFFFFF AND DUP2 MSTORE POP POP PUSH1 0x80 MLOAD PUSH2 0xBE6 PUSH2 0x62 PUSH0 CODECOPY PUSH0 DUP2 DUP2 PUSH2 0x266 ADD MSTORE PUSH2 0x4B2 ADD MSTORE PUSH2 0xBE6 PUSH0 RETURN INVALID PUSH1 0x80 PUSH1 0x40 MSTORE PUSH1 0x4 CALLDATASIZE LT PUSH2 0x58 JUMPI PUSH0 CALLDATALOAD PUSH1 0xE0 SHR DUP1 PUSH4 0x3CCFD60B EQ PUSH2 0x71 JUMPI DUP1 PUSH4 0x5441CFAC EQ PUSH2 0x87 JUMPI DUP1 PUSH4 0x6B69A592 EQ PUSH2 0xC3 JUMPI DUP1 PUSH4 0xB60D4288 EQ PUSH2 0xED JUMPI DUP1 PUSH4 0xDBA6335F EQ PUSH2 0xF7 JUMPI DUP1 PUSH4 0xDC0D3DFF EQ PUSH2 0x121 JUMPI PUSH2 0x67 JUMP JUMPDEST CALLDATASIZE PUSH2 0x67 JUMPI PUSH2 0x65 PUSH2 0x15D JUMP JUMPDEST STOP JUMPDEST PUSH2 0x6F PUSH2 0x15D JUMP JUMPDEST STOP JUMPDEST CALLVALUE DUP1 ISZERO PUSH2 0x7C JUMPI PUSH0 DUP1 REVERT JUMPDEST POP PUSH2 0x85 PUSH2 0x264 JUMP JUMPDEST STOP JUMPDEST CALLVALUE DUP1 ISZERO PUSH2 0x92 JUMPI PUSH0 DUP1 REVERT JUMPDEST POP PUSH2 0xAD PUSH1 0x4 DUP1 CALLDATASIZE SUB DUP2 ADD SWAP1 PUSH2 0xA8 SWAP2 SWAP1 PUSH2 0x6EB JUMP JUMPDEST PUSH2 0x48F JUMP JUMPDEST PUSH1 0x40 MLOAD PUSH2 0xBA SWAP2 SWAP1 PUSH2 0x72E JUMP JUMPDEST PUSH1 0x40 MLOAD DUP1 SWAP2 SUB SWAP1 RETURN JUMPDEST CALLVALUE DUP1 ISZERO PUSH2 0xCE JUMPI PUSH0 DUP1 REVERT JUMPDEST POP PUSH2 0xD7 PUSH2 0x4A4 JUMP JUMPDEST PUSH1 0x40 MLOAD PUSH2 0xE4 SWAP2 SWAP1 PUSH2 0x72E JUMP JUMPDEST PUSH1 0x40 MLOAD DUP1 SWAP2 SUB SWAP1 RETURN JUMPDEST PUSH2 0xF5 PUSH2 0x15D JUMP JUMPDEST STOP JUMPDEST CALLVALUE DUP1 ISZERO PUSH2 0x102 JUMPI PUSH0 DUP1 REVERT JUMPDEST POP PUSH2 0x10B PUSH2 0x4B0 JUMP JUMPDEST PUSH1 0x40 MLOAD PUSH2 0x118 SWAP2 SWAP1 PUSH2 0x756 JUMP JUMPDEST PUSH1 0x40 MLOAD DUP1 SWAP2 SUB SWAP1 RETURN JUMPDEST CALLVALUE DUP1 ISZERO PUSH2 0x12C JUMPI PUSH0 DUP1 REVERT JUMPDEST POP PUSH2 0x147 PUSH1 0x4 DUP1 CALLDATASIZE SUB DUP2 ADD SWAP1 PUSH2 0x142 SWAP2 SWAP1 PUSH2 0x799 JUMP JUMPDEST PUSH2 0x4D4 JUMP JUMPDEST PUSH1 0x40 MLOAD PUSH2 0x154 SWAP2 SWAP1 PUSH2 0x756 JUMP JUMPDEST PUSH1 0x40 MLOAD DUP1 SWAP2 SUB SWAP1 RETURN JUMPDEST PUSH8 0x4563918244F40000 PUSH2 0x16F CALLVALUE PUSH2 0x50E JUMP JUMPDEST LT ISZERO PUSH2 0x1B0 JUMPI PUSH1 0x40 MLOAD PUSH32 0x8C379A000000000000000000000000000000000000000000000000000000000 DUP2 MSTORE PUSH1 0x4 ADD PUSH2 0x1A7 SWAP1 PUSH2 0x81E JUMP JUMPDEST PUSH1 0x40 MLOAD DUP1 SWAP2 SUB SWAP1 REVERT JUMPDEST PUSH0 CALLER SWAP1 DUP1 PUSH1 0x1 DUP2 SLOAD ADD DUP1 DUP3 SSTORE DUP1 SWAP2 POP POP PUSH1 0x1 SWAP1 SUB SWAP1 PUSH0 MSTORE PUSH1 0x20 PUSH0 KECCAK256 ADD PUSH0 SWAP1 SWAP2 SWAP1 SWAP2 SWAP1 SWAP2 PUSH2 0x100 EXP DUP2 SLOAD DUP2 PUSH20 0xFFFFFFFFFFFFFFFFFFFFFFFFFFFFFFFFFFFFFFFF MUL NOT AND SWAP1 DUP4 PUSH20 0xFFFFFFFFFFFFFFFFFFFFFFFFFFFFFFFFFFFFFFFF AND MUL OR SWAP1 SSTORE POP CALLVALUE PUSH1 0x1 PUSH0 CALLER PUSH20 0xFFFFFFFFFFFFFFFFFFFFFFFFFFFFFFFFFFFFFFFF AND PUSH20 0xFFFFFFFFFFFFFFFFFFFFFFFFFFFFFFFFFFFFFFFF AND DUP2 MSTORE PUSH1 0x20 ADD SWAP1 DUP2 MSTORE PUSH1 0x20 ADD PUSH0 KECCAK256 PUSH0 DUP3 DUP3 SLOAD PUSH2 0x25B SWAP2 SWAP1 PUSH2 0x869 JUMP JUMPDEST SWAP3 POP POP DUP2 SWAP1 SSTORE POP JUMP JUMPDEST PUSH32 0x0 PUSH20 0xFFFFFFFFFFFFFFFFFFFFFFFFFFFFFFFFFFFFFFFF AND CALLER PUSH20 0xFFFFFFFFFFFFFFFFFFFFFFFFFFFFFFFFFFFFFFFF AND EQ PUSH2 0x2E9 JUMPI PUSH1 0x40 MLOAD PUSH32 0x30CD747100000000000000000000000000000000000000000000000000000000 DUP2 MSTORE PUSH1 0x4 ADD PUSH1 0x40 MLOAD DUP1 SWAP2 SUB SWAP1 REVERT JUMPDEST PUSH0 JUMPDEST PUSH0 DUP1 SLOAD SWAP1 POP DUP2 LT ISZERO PUSH2 0x385 JUMPI PUSH0 DUP1 DUP3 DUP2 SLOAD DUP2 LT PUSH2 0x30B JUMPI PUSH2 0x30A PUSH2 0x89C JUMP JUMPDEST JUMPDEST SWAP1 PUSH0 MSTORE PUSH1 0x20 PUSH0 KECCAK256 ADD PUSH0 SWAP1 SLOAD SWAP1 PUSH2 0x100 EXP SWAP1 DIV PUSH20 0xFFFFFFFFFFFFFFFFFFFFFFFFFFFFFFFFFFFFFFFF AND SWAP1 POP PUSH0 PUSH1 0x1 PUSH0 DUP4 PUSH20 0xFFFFFFFFFFFFFFFFFFFFFFFFFFFFFFFFFFFFFFFF AND PUSH20 0xFFFFFFFFFFFFFFFFFFFFFFFFFFFFFFFFFFFFFFFF AND DUP2 MSTORE PUSH1 0x20 ADD SWAP1 DUP2 MSTORE PUSH1 0x20 ADD PUSH0 KECCAK256 DUP2 SWAP1 SSTORE POP POP DUP1 DUP1 PUSH1 0x1 ADD SWAP2 POP POP PUSH2 0x2EB JUMP JUMPDEST POP PUSH0 PUSH8 0xFFFFFFFFFFFFFFFF DUP2 GT ISZERO PUSH2 0x3A0 JUMPI PUSH2 0x39F PUSH2 0x8C9 JUMP JUMPDEST JUMPDEST PUSH1 0x40 MLOAD SWAP1 DUP1 DUP3 MSTORE DUP1 PUSH1 0x20 MUL PUSH1 0x20 ADD DUP3 ADD PUSH1 0x40 MSTORE DUP1 ISZERO PUSH2 0x3CE JUMPI DUP2 PUSH1 0x20 ADD PUSH1 0x20 DUP3 MUL DUP1 CALLDATASIZE DUP4 CALLDATACOPY DUP1 DUP3 ADD SWAP2 POP POP SWAP1 POP JUMPDEST POP PUSH0 SWAP1 DUP1 MLOAD SWAP1 PUSH1 0x20 ADD SWAP1 PUSH2 0x3E3 SWAP3 SWAP2 SWAP1 PUSH2 0x5EB JUMP JUMPDEST POP PUSH0 CALLER PUSH20 0xFFFFFFFFFFFFFFFFFFFFFFFFFFFFFFFFFFFFFFFF AND SELFBALANCE PUSH1 0x40 MLOAD PUSH2 0x409 SWAP1 PUSH2 0x923 JUMP JUMPDEST PUSH0 PUSH1 0x40 MLOAD DUP1 DUP4 SUB DUP2 DUP6 DUP8 GAS CALL SWAP3 POP POP POP RETURNDATASIZE DUP1 PUSH0 DUP2 EQ PUSH2 0x443 JUMPI PUSH1 0x40 MLOAD SWAP2 POP PUSH1 0x1F NOT PUSH1 0x3F RETURNDATASIZE ADD AND DUP3 ADD PUSH1 0x40 MSTORE RETURNDATASIZE DUP3 MSTORE RETURNDATASIZE PUSH0 PUSH1 0x20 DUP5 ADD RETURNDATACOPY PUSH2 0x448 JUMP JUMPDEST PUSH1 0x60 SWAP2 POP JUMPDEST POP POP SWAP1 POP DUP1 PUSH2 0x48C JUMPI PUSH1 0x40 MLOAD PUSH32 0x8C379A000000000000000000000000000000000000000000000000000000000 DUP2 MSTORE PUSH1 0x4 ADD PUSH2 0x483 SWAP1 PUSH2 0x981 JUMP JUMPDEST PUSH1 0x40 MLOAD DUP1 SWAP2 SUB SWAP1 REVERT JUMPDEST POP JUMP JUMPDEST PUSH1 0x1 PUSH1 0x20 MSTORE DUP1 PUSH0 MSTORE PUSH1 0x40 PUSH0 KECCAK256 PUSH0 SWAP2 POP SWAP1 POP SLOAD DUP2 JUMP JUMPDEST PUSH8 0x4563918244F40000 DUP2 JUMP JUMPDEST PUSH32 0x0 DUP2 JUMP JUMPDEST PUSH0 DUP2 DUP2 SLOAD DUP2 LT PUSH2 0x4E2 JUMPI PUSH0 DUP1 REVERT JUMPDEST SWAP1 PUSH0 MSTORE PUSH1 0x20 PUSH0 KECCAK256 ADD PUSH0 SWAP2 POP SLOAD SWAP1 PUSH2 0x100 EXP SWAP1 DIV PUSH20 0xFFFFFFFFFFFFFFFFFFFFFFFFFFFFFFFFFFFFFFFF AND DUP2 JUMP JUMPDEST PUSH0 DUP1 PUSH2 0x518 PUSH2 0x546 JUMP JUMPDEST SWAP1 POP PUSH0 PUSH8 0xDE0B6B3A7640000 DUP5 DUP4 PUSH2 0x530 SWAP2 SWAP1 PUSH2 0x99F JUMP JUMPDEST PUSH2 0x53A SWAP2 SWAP1 PUSH2 0xA0D JUMP JUMPDEST SWAP1 POP DUP1 SWAP3 POP POP POP SWAP2 SWAP1 POP JUMP JUMPDEST PUSH0 DUP1 PUSH20 0x694AA1769357215DE4FAC081BF1F309ADC325306 SWAP1 POP PUSH0 DUP2 PUSH20 0xFFFFFFFFFFFFFFFFFFFFFFFFFFFFFFFFFFFFFFFF AND PUSH4 0xFEAF968C PUSH1 0x40 MLOAD DUP2 PUSH4 0xFFFFFFFF AND PUSH1 0xE0 SHL DUP2 MSTORE PUSH1 0x4 ADD PUSH1 0xA0 PUSH1 0x40 MLOAD DUP1 DUP4 SUB DUP2 DUP7 GAS STATICCALL ISZERO DUP1 ISZERO PUSH2 0x5A9 JUMPI RETURNDATASIZE PUSH0 DUP1 RETURNDATACOPY RETURNDATASIZE PUSH0 REVERT JUMPDEST POP POP POP POP PUSH1 0x40 MLOAD RETURNDATASIZE PUSH1 0x1F NOT PUSH1 0x1F DUP3 ADD AND DUP3 ADD DUP1 PUSH1 0x40 MSTORE POP DUP2 ADD SWAP1 PUSH2 0x5CD SWAP2 SWAP1 PUSH2 0xAC3 JUMP JUMPDEST POP POP POP SWAP2 POP POP PUSH5 0x2540BE400 DUP2 PUSH2 0x5E4 SWAP2 SWAP1 PUSH2 0xB3A JUMP JUMPDEST SWAP3 POP POP POP SWAP1 JUMP JUMPDEST DUP3 DUP1 SLOAD DUP3 DUP3 SSTORE SWAP1 PUSH0 MSTORE PUSH1 0x20 PUSH0 KECCAK256 SWAP1 DUP2 ADD SWAP3 DUP3 ISZERO PUSH2 0x661 JUMPI SWAP2 PUSH1 0x20 MUL DUP3 ADD JUMPDEST DUP3 DUP2 GT ISZERO PUSH2 0x660 JUMPI DUP3 MLOAD DUP3 PUSH0 PUSH2 0x100 EXP DUP2 SLOAD DUP2 PUSH20 0xFFFFFFFFFFFFFFFFFFFFFFFFFFFFFFFFFFFFFFFF MUL NOT AND SWAP1 DUP4 PUSH20 0xFFFFFFFFFFFFFFFFFFFFFFFFFFFFFFFFFFFFFFFF AND MUL OR SWAP1 SSTORE POP SWAP2 PUSH1 0x20 ADD SWAP2 SWAP1 PUSH1 0x1 ADD SWAP1 PUSH2 0x609 JUMP JUMPDEST JUMPDEST POP SWAP1 POP PUSH2 0x66E SWAP2 SWAP1 PUSH2 0x672 JUMP JUMPDEST POP SWAP1 JUMP JUMPDEST JUMPDEST DUP1 DUP3 GT ISZERO PUSH2 0x689 JUMPI PUSH0 DUP2 PUSH0 SWAP1 SSTORE POP PUSH1 0x1 ADD PUSH2 0x673 JUMP JUMPDEST POP SWAP1 JUMP JUMPDEST PUSH0 DUP1 REVERT JUMPDEST PUSH0 PUSH20 0xFFFFFFFFFFFFFFFFFFFFFFFFFFFFFFFFFFFFFFFF DUP3 AND SWAP1 POP SWAP2 SWAP1 POP JUMP JUMPDEST PUSH0 PUSH2 0x6BA DUP3 PUSH2 0x691 JUMP JUMPDEST SWAP1 POP SWAP2 SWAP1 POP JUMP JUMPDEST PUSH2 0x6CA DUP2 PUSH2 0x6B0 JUMP JUMPDEST DUP2 EQ PUSH2 0x6D4 JUMPI PUSH0 DUP1 REVERT JUMPDEST POP JUMP JUMPDEST PUSH0 DUP2 CALLDATALOAD SWAP1 POP PUSH2 0x6E5 DUP2 PUSH2 0x6C1 JUMP JUMPDEST SWAP3 SWAP2 POP POP JUMP JUMPDEST PUSH0 PUSH1 0x20 DUP3 DUP5 SUB SLT ISZERO PUSH2 0x700 JUMPI PUSH2 0x6FF PUSH2 0x68D JUMP JUMPDEST JUMPDEST PUSH0 PUSH2 0x70D DUP5 DUP3 DUP6 ADD PUSH2 0x6D7 JUMP JUMPDEST SWAP2 POP POP SWAP3 SWAP2 POP POP JUMP JUMPDEST PUSH0 DUP2 SWAP1 POP SWAP2 SWAP1 POP JUMP JUMPDEST PUSH2 0x728 DUP2 PUSH2 0x716 JUMP JUMPDEST DUP3 MSTORE POP POP JUMP JUMPDEST PUSH0 PUSH1 0x20 DUP3 ADD SWAP1 POP PUSH2 0x741 PUSH0 DUP4 ADD DUP5 PUSH2 0x71F JUMP JUMPDEST SWAP3 SWAP2 POP POP JUMP JUMPDEST PUSH2 0x750 DUP2 PUSH2 0x6B0 JUMP JUMPDEST DUP3 MSTORE POP POP JUMP JUMPDEST PUSH0 PUSH1 0x20 DUP3 ADD SWAP1 POP PUSH2 0x769 PUSH0 DUP4 ADD DUP5 PUSH2 0x747 JUMP JUMPDEST SWAP3 SWAP2 POP POP JUMP JUMPDEST PUSH2 0x778 DUP2 PUSH2 0x716 JUMP JUMPDEST DUP2 EQ PUSH2 0x782 JUMPI PUSH0 DUP1 REVERT JUMPDEST POP JUMP JUMPDEST PUSH0 DUP2 CALLDATALOAD SWAP1 POP PUSH2 0x793 DUP2 PUSH2 0x76F JUMP JUMPDEST SWAP3 SWAP2 POP POP JUMP JUMPDEST PUSH0 PUSH1 0x20 DUP3 DUP5 SUB SLT ISZERO PUSH2 0x7AE JUMPI PUSH2 0x7AD PUSH2 0x68D JUMP JUMPDEST JUMPDEST PUSH0 PUSH2 0x7BB DUP5 DUP3 DUP6 ADD PUSH2 0x785 JUMP JUMPDEST SWAP2 POP POP SWAP3 SWAP2 POP POP JUMP JUMPDEST PUSH0 DUP3 DUP3 MSTORE PUSH1 0x20 DUP3 ADD SWAP1 POP SWAP3 SWAP2 POP POP JUMP JUMPDEST PUSH32 0x4469646E27742073656E6420656E6F7567682065746865720000000000000000 PUSH0 DUP3 ADD MSTORE POP JUMP JUMPDEST PUSH0 PUSH2 0x808 PUSH1 0x18 DUP4 PUSH2 0x7C4 JUMP JUMPDEST SWAP2 POP PUSH2 0x813 DUP3 PUSH2 0x7D4 JUMP JUMPDEST PUSH1 0x20 DUP3 ADD SWAP1 POP SWAP2 SWAP1 POP JUMP JUMPDEST PUSH0 PUSH1 0x20 DUP3 ADD SWAP1 POP DUP2 DUP2 SUB PUSH0 DUP4 ADD MSTORE PUSH2 0x835 DUP2 PUSH2 0x7FC JUMP JUMPDEST SWAP1 POP SWAP2 SWAP1 POP JUMP JUMPDEST PUSH32 0x4E487B7100000000000000000000000000000000000000000000000000000000 PUSH0 MSTORE PUSH1 0x11 PUSH1 0x4 MSTORE PUSH1 0x24 PUSH0 REVERT JUMPDEST PUSH0 PUSH2 0x873 DUP3 PUSH2 0x716 JUMP JUMPDEST SWAP2 POP PUSH2 0x87E DUP4 PUSH2 0x716 JUMP JUMPDEST SWAP3 POP DUP3 DUP3 ADD SWAP1 POP DUP1 DUP3 GT ISZERO PUSH2 0x896 JUMPI PUSH2 0x895 PUSH2 0x83C JUMP JUMPDEST JUMPDEST SWAP3 SWAP2 POP POP JUMP JUMPDEST PUSH32 0x4E487B7100000000000000000000000000000000000000000000000000000000 PUSH0 MSTORE PUSH1 0x32 PUSH1 0x4 MSTORE PUSH1 0x24 PUSH0 REVERT JUMPDEST PUSH32 0x4E487B7100000000000000000000000000000000000000000000000000000000 PUSH0 MSTORE PUSH1 0x41 PUSH1 0x4 MSTORE PUSH1 0x24 PUSH0 REVERT JUMPDEST PUSH0 DUP2 SWAP1 POP SWAP3 SWAP2 POP POP JUMP JUMPDEST POP JUMP JUMPDEST PUSH0 PUSH2 0x90E PUSH0 DUP4 PUSH2 0x8F6 JUMP JUMPDEST SWAP2 POP PUSH2 0x919 DUP3 PUSH2 0x900 JUMP JUMPDEST PUSH0 DUP3 ADD SWAP1 POP SWAP2 SWAP1 POP JUMP JUMPDEST PUSH0 PUSH2 0x92D DUP3 PUSH2 0x903 JUMP JUMPDEST SWAP2 POP DUP2 SWAP1 POP SWAP2 SWAP1 POP JUMP JUMPDEST PUSH32 0x63616C6C206661696C6564000000000000000000000000000000000000000000 PUSH0 DUP3 ADD MSTORE POP JUMP JUMPDEST PUSH0 PUSH2 0x96B PUSH1 0xB DUP4 PUSH2 0x7C4 JUMP JUMPDEST SWAP2 POP PUSH2 0x976 DUP3 PUSH2 0x937 JUMP JUMPDEST PUSH1 0x20 DUP3 ADD SWAP1 POP SWAP2 SWAP1 POP JUMP JUMPDEST PUSH0 PUSH1 0x20 DUP3 ADD SWAP1 POP DUP2 DUP2 SUB PUSH0 DUP4 ADD MSTORE PUSH2 0x998 DUP2 PUSH2 0x95F JUMP JUMPDEST SWAP1 POP SWAP2 SWAP1 POP JUMP JUMPDEST PUSH0 PUSH2 0x9A9 DUP3 PUSH2 0x716 JUMP JUMPDEST SWAP2 POP PUSH2 0x9B4 DUP4 PUSH2 0x716 JUMP JUMPDEST SWAP3 POP DUP3 DUP3 MUL PUSH2 0x9C2 DUP2 PUSH2 0x716 JUMP JUMPDEST SWAP2 POP DUP3 DUP3 DIV DUP5 EQ DUP4 ISZERO OR PUSH2 0x9D9 JUMPI PUSH2 0x9D8 PUSH2 0x83C JUMP JUMPDEST JUMPDEST POP SWAP3 SWAP2 POP POP JUMP JUMPDEST PUSH32 0x4E487B7100000000000000000000000000000000000000000000000000000000 PUSH0 MSTORE PUSH1 0x12 PUSH1 0x4 MSTORE PUSH1 0x24 PUSH0 REVERT JUMPDEST PUSH0 PUSH2 0xA17 DUP3 PUSH2 0x716 JUMP JUMPDEST SWAP2 POP PUSH2 0xA22 DUP4 PUSH2 0x716 JUMP JUMPDEST SWAP3 POP DUP3 PUSH2 0xA32 JUMPI PUSH2 0xA31 PUSH2 0x9E0 JUMP JUMPDEST JUMPDEST DUP3 DUP3 DIV SWAP1 POP SWAP3 SWAP2 POP POP JUMP JUMPDEST PUSH0 PUSH10 0xFFFFFFFFFFFFFFFFFFFF DUP3 AND SWAP1 POP SWAP2 SWAP1 POP JUMP JUMPDEST PUSH2 0xA5B DUP2 PUSH2 0xA3D JUMP JUMPDEST DUP2 EQ PUSH2 0xA65 JUMPI PUSH0 DUP1 REVERT JUMPDEST POP JUMP JUMPDEST PUSH0 DUP2 MLOAD SWAP1 POP PUSH2 0xA76 DUP2 PUSH2 0xA52 JUMP JUMPDEST SWAP3 SWAP2 POP POP JUMP JUMPDEST PUSH0 DUP2 SWAP1 POP SWAP2 SWAP1 POP JUMP JUMPDEST PUSH2 0xA8E DUP2 PUSH2 0xA7C JUMP JUMPDEST DUP2 EQ PUSH2 0xA98 JUMPI PUSH0 DUP1 REVERT JUMPDEST POP JUMP JUMPDEST PUSH0 DUP2 MLOAD SWAP1 POP PUSH2 0xAA9 DUP2 PUSH2 0xA85 JUMP JUMPDEST SWAP3 SWAP2 POP POP JUMP JUMPDEST PUSH0 DUP2 MLOAD SWAP1 POP PUSH2 0xABD DUP2 PUSH2 0x76F JUMP JUMPDEST SWAP3 SWAP2 POP POP JUMP JUMPDEST PUSH0 DUP1 PUSH0 DUP1 PUSH0 PUSH1 0xA0 DUP7 DUP9 SUB SLT ISZERO PUSH2 0xADC JUMPI PUSH2 0xADB PUSH2 0x68D JUMP JUMPDEST JUMPDEST PUSH0 PUSH2 0xAE9 DUP9 DUP3 DUP10 ADD PUSH2 0xA68 JUMP JUMPDEST SWAP6 POP POP PUSH1 0x20 PUSH2 0xAFA DUP9 DUP3 DUP10 ADD PUSH2 0xA9B JUMP JUMPDEST SWAP5 POP POP PUSH1 0x40 PUSH2 0xB0B DUP9 DUP3 DUP10 ADD PUSH2 0xAAF JUMP JUMPDEST SWAP4 POP POP PUSH1 0x60 PUSH2 0xB1C DUP9 DUP3 DUP10 ADD PUSH2 0xAAF JUMP JUMPDEST SWAP3 POP POP PUSH1 0x80 PUSH2 0xB2D DUP9 DUP3 DUP10 ADD PUSH2 0xA68 JUMP JUMPDEST SWAP2 POP POP SWAP3 SWAP6 POP SWAP3 SWAP6 SWAP1 SWAP4 POP JUMP JUMPDEST PUSH0 PUSH2 0xB44 DUP3 PUSH2 0xA7C JUMP JUMPDEST SWAP2 POP PUSH2 0xB4F DUP4 PUSH2 0xA7C JUMP JUMPDEST SWAP3 POP DUP3 DUP3 MUL PUSH2 0xB5D DUP2 PUSH2 0xA7C JUMP JUMPDEST SWAP2 POP PUSH32 0x8000000000000000000000000000000000000000000000000000000000000000 DUP5 EQ PUSH0 DUP5 SLT AND ISZERO PUSH2 0xB94 JUMPI PUSH2 0xB93 PUSH2 0x83C JUMP JUMPDEST JUMPDEST DUP3 DUP3 SDIV DUP5 EQ DUP4 ISZERO OR PUSH2 0xBA9 JUMPI PUSH2 0xBA8 PUSH2 0x83C JUMP JUMPDEST JUMPDEST POP SWAP3 SWAP2 POP POP JUMP INVALID LOG2 PUSH5 0x6970667358 0x22 SLT KECCAK256 CALLDATALOAD 0x24 SHL 0xBD 0xC7 0xC8 0xA9 0x27 0xAB DUP8 0xC0 SWAP14 LOG2 0xE1 0x4D 0x2E BALANCE 0xE5 DUP8 CODECOPY 0xCE CALLER SWAP11 JUMP MLOAD 0xAE MUL 0xD2 EQ PUSH7 0xC62A64736F6C63 NUMBER STOP ADDMOD BYTE STOP CALLER "
		},
		"gasEstimates": {
			"creation": {
				"codeDepositCost": "609200",
				"executionCost": "infinite",
				"totalCost": "infinite"
			},
			"external": {
				"": "infinite",
				"MINIMUM_USD()": "347",
				"addressToAmountSend(address)": "2802",
				"fund()": "infinite",
				"funders(uint256)": "5031",
				"i_owner()": "infinite",
				"withdraw()": "infinite"
			}
		},
		"methodIdentifiers": {
			"MINIMUM_USD()": "6b69a592",
			"addressToAmountSend(address)": "5441cfac",
			"fund()": "b60d4288",
			"funders(uint256)": "dc0d3dff",
			"i_owner()": "dba6335f",
			"withdraw()": "3ccfd60b"
		}
	},
	"abi": [
		{
			"inputs": [],
			"stateMutability": "nonpayable",
			"type": "constructor"
		},
		{
			"inputs": [],
			"name": "NotOwner",
			"type": "error"
		},
		{
			"stateMutability": "payable",
			"type": "fallback"
		},
		{
			"inputs": [],
			"name": "MINIMUM_USD",
			"outputs": [
				{
					"internalType": "uint256",
					"name": "",
					"type": "uint256"
				}
			],
			"stateMutability": "view",
			"type": "function"
		},
		{
			"inputs": [
				{
					"internalType": "address",
					"name": "",
					"type": "address"
				}
			],
			"name": "addressToAmountSend",
			"outputs": [
				{
					"internalType": "uint256",
					"name": "",
					"type": "uint256"
				}
			],
			"stateMutability": "view",
			"type": "function"
		},
		{
			"inputs": [],
			"name": "fund",
			"outputs": [],
			"stateMutability": "payable",
			"type": "function"
		},
		{
			"inputs": [
				{
					"internalType": "uint256",
					"name": "",
					"type": "uint256"
				}
			],
			"name": "funders",
			"outputs": [
				{
					"internalType": "address",
					"name": "",
					"type": "address"
				}
			],
			"stateMutability": "view",
			"type": "function"
		},
		{
			"inputs": [],
			"name": "i_owner",
			"outputs": [
				{
					"internalType": "address",
					"name": "",
					"type": "address"
				}
			],
			"stateMutability": "view",
			"type": "function"
		},
		{
			"inputs": [],
			"name": "withdraw",
			"outputs": [],
			"stateMutability": "nonpayable",
			"type": "function"
		},
		{
			"stateMutability": "payable",
			"type": "receive"
		}
	]
}